:020000040000FA
:04000000B2EF02F069
:0800080095EF02F01201000265
:1000100002000008D8040A000100010200010902E0
:1000200043000201008032090400000102020100C5
:100030000524001001042402020524060001052401
:100040000100010705820308000209040100020AF9
:1000500000000007050302080000070583020800EE
:1000600000000403090436034D00690063007200B8
:100070006F00630068006900700020005400650094
:10008000630068006E006F006C006F00670079000D
:100090002C00200049006E0063002E001E034A0061
:1000A00041004C004C004900420020005300650014
:1000B0007200690061006C002E003031323334353B
:1000C000363738394142434445460000010040007C
:1000D0009600DF000D013401550175018E01A40168
:1000E000BC01CD01DF01EE01FF010A02160222026E
:1000F0002E02380243024C0257026002680270026C
:100100007802810288028F0296029D02A302AA024F
:10011000B002B602BC02C202C702CC02D102D702B0
:10012000DD02E202E602EB02EF02F402F802FD0257
:100130000103050309030C031003130317031B0337
:100140001F032203260329032C032F033203360344
:1001500039033C0340034303450348034B034E0369
:1001600050035303560358035B035D0360036203AC
:100170006503670369036B036E036F037203740304
:10018000760379037B037C037F0381038303850369
:10019000870389038A038C038D038F0391039303E1
:1001A0009503970398039A039C039E03A003A1035E
:1001B000A303A403A503A703A803AA03AB03AD03EA
:1001C000AE03AF03B103B203B403B503B603B70381
:1001D000B903BA03BC03BD03BE03BF03C003C2031C
:1001E000C303C403C503C603C703C803C903CA03C3
:1001F000CB03CC03CD03CE03CF03D003D103D20373
:10020000D303D403D503D603D703D803D903DA0322
:10021000DB03DC03DD03DD03DE03DF03E003E103D7
:10022000E203E203E303E403E403E503E603E60396
:10023000E703E803E803E903E903EA03EB03EB035D
:10024000EC03EC03ED03ED03EE03EF03EF03F00328
:10025000F003F103F103F203F203F303F303F403F6
:10026000F403F503F503F603F603F603F703F703C8
:10027000F803F803F803F903F903F903FA03FA039F
:10028000FA03FB03FB03FB03FC03FC03FC03FC037B
:10029000FD03FD03FD03FD03FD03FE03FE03FE035B
:1002A000FE03FE03FF03FF03FF03FF03FF03FF0340
:1002B000FF03FF03FF03FF03FF03FF03FF03FF032E
:1002C000FF03FF03FF03FF03FF03FF03FF03FF031E
:1002D000FF03FF03FF03FF03FF03FF03FF03FF030E
:1002E000FF03FF03FF03FF03FF03FF03FF03FF03FE
:1002F000FF03FE03FE03FE03FE03FE03FD03FD03F7
:10030000FD03FD03FD03FC03FC03FC03FC03FB03F3
:10031000FB03FB03FA03FA03FA03F903F903F903F6
:10032000F803F803F803F703F703F603F603F603FD
:10033000F503F503F403F403F303F303F203F20309
:10034000F103F103F003F003EF03EF03EE03ED031A
:10035000ED03EC03EC03EB03EB03EA03E903E9032E
:10036000E803E803E703E603E603E503E403E40345
:10037000E303E203E203E103E003DF03DE03DD0363
:10038000DD03DC03DB03DA03D903D803D703D60389
:10039000D503D403D303D203D103D003CF03CE03B9
:1003A000CD03CC03CB03CA03C903C803C703C603E9
:1003B000C503C403C303C203C003BF03BE03BD031D
:1003C000BC03BA03B903B703B603B503B403B2035E
:1003D000B103AF03AE03AD03AB03AA03A803A703A6
:1003E000A503A403A303A103A0039E039C039A03F4
:1003F000980397039503930391038F038D038C0355
:100400008A03890387038503830381037F037C03B6
:100410007B0379037603740372036F036E036B032C
:10042000690367036503620360035D035B035803AD
:100430005603530350034E034B0348034503430342
:1004400040033C033903360332032F032C032903F3
:10045000260322031F031B031703130310030C03BC
:10046000090305030103FD02F802F402EF02EB02A7
:10047000E602E202DD02D702D102CC02C702C202CA
:10048000BC02B602B002AA02A3029D0296028F022B
:1004900088028102780270026802600257024C02F0
:1004A000430238022E02220216020A02FF01EE0166
:1004B000DF01CD01BC01A4018E017501550134019C
:1004C0000D01DF0096004000010000000D0A636F7F
:1004D0006E7665727420616E676C653D21002062E6
:1004E0006173653D210020706F6C3D212073696E42
:1004F000653D210020616D706C3D210019BE94EFB7
:1005000002F019BC8AEF02F01850EA6E1750E96E3B
:10051000EF5012001750F66E1850F76E19503F0B3F
:10052000F86E0800F5501200120000011350146E0E
:100530001550166E17501A6EE9501B6EEA501C6E5D
:10054000F6501D6EF7501E6EF8501F6EF550206E5F
:1005500009500D6E0A500E6E0B500F6E0C50106E3F
:100560001DEF20F00101F16B000E216E080E226ECE
:1005700092809292928492969298929A9380939279
:10058000938493969398939A939C939E9490949229
:100590009484949C949E9590959295949596959814
:1005A000959A959C959E96909692969421EF05F03B
:1005B000F29A0001F2510301006F0001F3510301AF
:1005C000016FF28A0051096E01510A6E1200010199
:1005D000F12BF12DEEEF02F000EF03F02250EA6E66
:1005E0002150E96E0408216EE9063850EF6EE906E5
:1005F0003950EF6EE9063A50EF6EE9063B50EF6E68
:100600000950386E0A50396E0B503A6E020E385C43
:10061000D8B40EEF03F0D8A010EF03F01EEF03F0F4
:10062000F29AD89038343B6E00EEF4F03B50E92655
:100630003950EF6EE92A3A50EF6EF28AF12F22EF2D
:1006400003F012002250EA6E2150E96EEF503B6E2B
:10065000E92AEF503A6EE92AEF50396EE92AEF5055
:10066000386EE928216E12000201FD6F020EFD5D59
:10067000D8B43EEF03F0D8A040EF03F00980120099
:10068000D890FD35FE6F00EEF4F0FE51E926EF50F4
:10069000E92AEF10D8A45CEF03F0D890FD35FF6F86
:1006A00000EEF4F0FF51E926EF50E92AEF10D8A44C
:1006B0005CEF03F00980120009901200F80ED514C7
:1006C0000509D56E440E0001F86FD59AD596F294BF
:1006D000F28AF28E0201FB6BD890FB35FC6F00EEC4
:1006E000F4F0FC51E926EF6AE92AEF6AFB2B020ECF
:1006F000FB5DD8A46CEF03F01200F2A4BAEF03F094
:100700000001F851D66ED76AF22BD8B4F32B336AB6
:10071000D8903334306E00EEF4F03050E926EF50CC
:10072000E92AEF10D8B4B3EF03F0D8903334316E28
:10073000D8903334326E00EEF4F03250E926EF50A8
:10074000096EE92AEF500A6E0C6E09040B6E0B2835
:10075000D8B40C0600EEF4F03150E9260B50EF6EE1
:10076000E92A0C50EF6E332A020E335CD8A488EFCE
:1007700003F0F2940D50096E0E500A6E0F500B6E7E
:1007800010500C6E1D50F66E1E50F76E1F50F86E16
:100790002050F56E1B50E96E1C50EA6E1A50176E11
:1007A0001650156E1450136E11000001F96BFA6BA0
:1007B000FB6B070EFC6FFE6BFD6B12004304D8A4AD
:1007C000EAEF03F0010E096E44500A6E45500B6EBD
:1007D000E7EC02F00001FD51D8A40DEF04F0040E87
:1007E0003E5CD8A4FAEF03F0070EFC5DD8A4FAEF44
:1007F00003F0899880A4FFEF03F0800EF927FC51E5
:10080000D8B407EF04F0D890F933FC071200050EB6
:10081000FC6FFA6B010EFD6F1200FD05D8A428EFE6
:1008200004F080A416EF04F0800EFA27FC51D8B42F
:100830001EEF04F0D890FA33FC071200D890FA3378
:10084000D890FA33070EFC6FFB6B020EFD6F12009F
:10085000020EFD5DD8A468EF04F080A432EF04F02E
:10086000800EFB27FC51D8B43AEF04F0D890FB334C
:10087000FC071200040E3E5CD8B48988480EF95D6E
:10088000D8A461EF04F0300EFA5DD8B44BEF04F059
:10089000D8B05AEF04F0FD6B070EFC6FFA51FF6FF2
:1008A000FB5101017E6F0001F96BFA6BFB6B010ECE
:1008B000FE6F1200FD6B070EFC6FF96BFA6BFB6BA2
:1008C0001200FD6B070EFC6FF96BFA6BFB6B1200ED
:1008D000070EFC6FF96BFA6BFB6BFD6B1200DEEC25
:1008E00003F0F092F08812000201F86FF351E16E0C
:1008F000F451E26EF851FA6FF96B8FEF04F0F55195
:10090000F925176E000E096EF6510920186EF75181
:100910000920196E7EEC02F0E66E0201F92BF95106
:10092000FA5DD8A47FEF04F01200040104BF1200A6
:10093000010182517F5DD8B4A3EF04F0D8B0A3EFDA
:1009400004F07F51826FD880825180550201F26F8E
:100950000101815DD8B4B3EF04F0D8B0B3EF04F077
:1009600081510201F26F780E010180250401066FAA
:10097000000E096E040E0920076F0201F2510401F6
:10098000056F04ADC8EF04F0880E046FCAEF04F0E1
:10099000C80E046F0201F251010180278051825D6F
:1009A0001200080E816F806B826B7F6B0401049DC7
:1009B00095EF04F00201F16F0401786F080E010158
:1009C000816F806B010E826F010E7F6F0401049DA9
:1009D00095EF04F0840E040100131200080E0401C8
:1009E000016F200E026F040E036F030E0101845D80
:1009F000D8A402EF05F08C0E0201F06F0401046B25
:100A000005EF05F0C80E0201F06F0201F05104017C
:100A1000006F1200EC6FD890EC35EF6FD890EF3785
:100A2000D890EF37EF29EE6F04EE00F0EE51E92693
:100A3000ED51EF6E04EE00F0EF51E926800EEF6EFF
:100A40001200866BEF912A6A2B6A2C6A2D6A100EAF
:100A50002E6EC0EF1EF00401F9510201EB6F210E62
:100A6000EB5DD8A437EF05F0050E0101846F12008D
:100A700004011CBF40EF05F00201EA9142EF05F0CE
:100A80000201EA81EAB112002A502B5CD8A450EF8F
:100A900005F00101EFA112000201E56B62EF05F024
:100AA0002A502B5CD8B45EEF05F0D8B05EEF05F0AD
:100AB000D8802A502B54E56F62EF05F0D880200EC5
:100AC0002B54E56F080EE55DD8B46CEF05F0D8A0A7
:100AD0006CEF05F0080EE56FE551E86FE76B81EF0D
:100AE00005F02B50E725E66F01EE87F0E651E92689
:100AF000EF50096E04EE58F0E751E9260950EF6E09
:100B0000E72BE751E85DD8A471EF05F0580E04011A
:100B10001E6F040E1F6F0201E55104011D6F1CAD15
:100B200096EF05F0880E1C6F98EF05F0C80E1C6F4D
:100B30002B500201E525E96F1F0EE95DD8B4A5EF42
:100B400005F0D8A0A5EF05F0E96BE9512B6E080E72
:100B5000E55D0101EF91D8B4EF811200E36F2A281F
:100B6000E46F200EE45DD8B4E46B01EE87F02A5008
:100B7000E926E351EF6EE4512A6E120001EEA7F070
:100B80002D50E926EF50E16F2E2A2D28E26F100E2E
:100B9000E25DD8B4E26BE2512D6EE15112002D50AE
:100BA0002C5CE091D8A4E0810990E0B109801200AA
:100BB00038EC05F0080E2E5CD8B4E2EF05F0D8A0B2
:100BC000ECEF05F0040118BFECEF05F0080E020190
:100BD000ED6F030E0AEF05F01200236AC20E246EB9
:100BE000010E256E266A276A080E296E286A1200F1
:100BF0000401F9512F6E060E2F5CD8A4ABEF06F05E
:100C0000FB510201DE6F0401FA510201DF6F0101A5
:100C1000826B0201DE05D8A423EF06F0120E01015B
:100C2000826F780E0201F36F040EF46F0C0EF56FF5
:100C3000000EF66F000E4009F76F0101825174EC4F
:100C400004F08EEF06F0020EDE5DD8A43DEF06F054
:100C5000430E0101826F780E0201F36F040EF46FF0
:100C60001E0EF56F000EF66F000E4009F76F0101C2
:100C7000825174EC04F08EEF06F0030EDE5DD8A412
:100C80008CEF06F0DF51D8A459EF06F0040E0101F5
:100C9000826F780E0201F36F040EF46F620EF56F2F
:100CA000000EF66F000E4009F76F0101825174ECDF
:100CB00004F00201DF05D8A471EF06F0360E010141
:100CC000826F780E0201F36F040EF46F660EF56FFB
:100CD000000EF66F000E4009F76F0101825174ECAF
:100CE00004F0020E0201DF5DD8A48EEF06F01E0EA6
:100CF0000101826F780E0201F36F040EF46F9C0EF7
:100D0000F56F000EF66F000E4009F76F010182517A
:100D100074EC04F08EEF06F0220EDE5D01018251CC
:100D2000D8B4A9EF06F0080E816F0401FF51D8A4D2
:100D30009FEF06F0FE5101017F6FA2EF06F0FF0E5C
:100D400001017F6F030E846F806B0401049D95EF9A
:100D500004F0EAEF04F0050E2F5CD8A4BBEF06F018
:100D6000FA510101856F010E836FD1EC04F0060E7C
:100D70000101846F1200090E2F5CD8A4F1EF06F078
:100D8000060E0101846FD1EC04F0718871847182C8
:100D90007186400E04010C6F080E096F300E0A6F49
:100DA000040E0B6F800E086F7288728472827286D6
:100DB000400E146F080E116F400E126F040E136F69
:100DC000800E106F7388738473827386400E1C6F5D
:100DD000080E196F500E1A6F040E1B6F800E186FDD
:100DE00012000A0E2F5CD8A4FCEF06F0030E0101DE
:100DF000846F010EDAEF04F02F50D8A403EF07F050
:100E0000000EDAEF04F01200D8906C30CB6FD8905F
:100E1000CB33D890CB336CA41AEF07F0D8900401F1
:100E200004310201CD6FD890CD330F0ECD15CC6FAC
:100E300024EF07F0D890040100310201CD6FD89063
:100E4000CD330F0ECD15CC6FCB51D8A419EF08F0D0
:100E50000D0ECC5DD8A49EEF07F0CE6B04EE20F013
:100E6000CE51E926EF50096E04EEF8F0CE51E92696
:100E70000950EF6ECE2B080ECE5DD8A42EEF07F0F2
:100E80006D98EEEC04F0300E0401F8150201CD6F00
:100E9000CD51D8B4F8EF05F0200ECD5DD8A498EF71
:100EA00007F00401F9510201CF6F230ECF5DD8A4E2
:100EB0005FEF07F0060E0101846FD1EF04F0200E02
:100EC000CF5DD8A468EF07F0020E0101846F120015
:100ED000210ECF5DD8A489EF07F0FF0E01017F6FCF
:100EE000070E826F780E0201F36F040EF46F230E6B
:100EF000F56FF66BF76B0101825174EC04F0080E8C
:100F00000101816F030E846F806B0401049D95EFD6
:100F100004F0220ECF5DD8A497EF07F0060E010172
:100F2000846FD1EC04F00401FA510101866F1200C4
:100F3000400ECD5DD8A494EF08F01200090ECC5DF0
:100F4000D8A4C1EF07F0030E0101845DD8B495EF7A
:100F500004F0060E845DD8A4B7EF07F0846B830518
:100F6000D8A494EF08F085516E6E836B1200050EC5
:100F7000845DD8B41200040E845DD8B42BEF05F064
:100F80001200020ECC5DD8A4D8EF07F0030E0101C9
:100F9000845DD8B495EF04F0040E845DD8B42BEFD3
:100FA00005F0060E845DD8A494EF08F0846B12005F
:100FB000CC05D8A494EF08F0050E0101845DD8A4F7
:100FC000E5EF07F0846BEEEF04F0020E845DD8A429
:100FD0000DEF08F00401F9510201D06F200ED05D31
:100FE000D8A40BEF08F0D16B04EE20F0D151E92624
:100FF000EF50096E00EE23F0D151E9260950EF6E53
:10100000D12B070ED15DD8A4F4EF07F0060E010135
:10101000846FD1EC04F0EEEF04F0030E845DD8A4ED
:1010200017EF08F0EEEC04F00101846B1200EEEF14
:1010300004F06CA440EF08F0D890CB35D26FD89074
:10104000D237D890D237040ED227D229CD6F020ED4
:10105000D225CD6F04EE00F0CD51E926EF50D36FCD
:10106000030ED225CD6F04EE00F0CD51E926EF50EE
:10107000D46F030ECB5DD8A494EF08F038EF05F0E1
:10108000D890CB35D56FD890D537D890D537D529CE
:10109000CD6F04EE00F0CD51E926EF50D66F04EE8F
:1010A00000F0D551E926EF50D76FD7BF94EF08F085
:1010B000020ED525CD6F04EE00F0CD51E926EF509C
:1010C000D86F030ED525CD6F04EE00F0CD51E92683
:1010D000EF50D96F030ECB5DD8A494EF08F0D85130
:1010E000E16ED951E26ED651DB6FDC6B8FEF08F009
:1010F0002C28DA6F100EDA5DD8B4DA6BDA512D5C79
:10110000D8B48EEF08F0E650DD6F01EEA7F02C505A
:10111000E926DD51EF6EDA512C6E2E06DC2BDC5108
:10112000DB5DD8A478EF08F01200A1AAE7EF08F081
:10113000A19ACA6B68A6A0EF08F004EC07F06896C5
:101140000201CA2B040ECA5DD8A49AEF08F068A069
:10115000D9EF08F06A6A686A0101856B716A726A80
:10116000736A746A756A766A776A786A796A7A6A7B
:101170007B6A7C6A7D6A7E6A7F6A160E706E68A6DC
:10118000C5EF08F06896BFEF08F0846B836B6D982D
:10119000080E0401056F280E066F040E076F046B1E
:1011A000080E016F200E026F040E036F8C0E006F8D
:1011B000689068BA689A68B8689868ACE3EF08F015
:1011C000D8EC05F0689C68A2E7EF08F0689212007E
:1011D00095EC08F038EF05F06D6A140E6F6E6B0E2B
:1011E000696EA09AEDEC05F0686A6D6A6D86120072
:1011F000C76F010186510201C86FC851D8B41200EF
:101200002A28C96F200EC95DD8B4C96B0201C95123
:101210002B5CD8A410EF09F0E8EC08F006EF09F019
:10122000C751AEEF05F0010186510201C56FC551EE
:10123000D8A41EEF09F009902FEF09F0CFEC05F0CC
:101240000201C69309B0C683C6B32AEF09F009901C
:101250002FEF09F0BEEC05F00201C46F0980C45104
:10126000120013EC09F00201C26F12000201C16FFB
:10127000F8EF08F00101BA6BBB6BB76B120002010B
:10128000C06F0101BB05D8A44AEF09F00201C051AB
:1012900036EF09F012000201BD6F0101BB05D8A4B1
:1012A0007FEF09F00201BD390F0BBE6F0F0EBE15A7
:1012B000BF6FBA0EF66E000EF76E000EF86EBF51DD
:1012C000F626000E096EF7220950F8220900F550A3
:1012D00036EC09F00F0E0201BD15BE6FBA0EF66EA8
:1012E000000EF76E000EF86EBE51F626000E096E67
:1012F000F7220950F8220900F55036EF09F01200E4
:10130000BC6F4304D8A48DEF09F0010E096E445060
:101310000A6E45500B6EE7EC02F00101B751D8A4FC
:10132000B7EF09F0320E0201BC5DD8B49BEF09F0B3
:10133000D8B0B0EF09F0BC510101B86F2E0EB85D06
:10134000D8A4A7EF09F0436A780E3FEF09F0010E29
:10135000B76F2D0E3FEC09F00101B8514BEF09F0CA
:10136000230E3FEC09F00101B8514BEF09F0B7052E
:10137000D8A4C9EF09F00201BC510101B96F010EF7
:10138000BA6FB76B3D0E3FEC09F00101B9514BEF5D
:1013900009F0020EB75DD8B41200B76B210E3FEF13
:1013A00009F00201BA6BE8EC08F031EC09F0020137
:1013B000BA6FBB9109B0BB81BBA1E2EF09F0BA5192
:1013C00080EF09F012008988010E0101BE6FBF6B2A
:1013D000020E3E6EC80EBC6FBD6B12000201B86FEC
:1013E000B851D8A4F7EF09F03E6A89881200B80511
:1013F000D8A4FFEF09F0010E3E6E89981200020E8C
:10140000B85DD8A413EF0AF0096A0101BC510A6E55
:10141000BD510B6EE7EC02F0020E3E6E010E0101B3
:10142000BE6F89881200030EB85DD8A428EF0AF0B9
:10143000030E3E6E80A820EF0AF0B99921EF0AF062
:10144000B989B9B926EF0AF0899812008988120083
:10145000040EB85DD8A430EF0AF0040E3E6E898801
:101460001200020E3E5CD8A472EF0AF0000E34ECBB
:1014700003F00201B79309B0B783B7A372EF0AF084
:10148000280E0101BC5DBD11D8A460EF0AF01E0E4C
:10149000BF5DD8B452EF0AF0D8B052EF0AF0BF2BBC
:1014A00060EF0AF0F098070E0001FC6FF96BFA6B21
:1014B000FB6BFD6BE80E0101BC6F030EBD6FF08886
:1014C000096ABC510A6EBD510B6EE7EC02F00101D6
:1014D000BE05D8A46FEF0AF0BE6B89981200010E0A
:1014E000BE6F89881200436A1200010E436E12001B
:1014F0004304D8A484EF0AF0010E096E44500A6E2A
:1015000045500B6EE7EF02F012004304D8A4AEEF93
:101510000AF0010E34EC03F00201B69309B0B68371
:10152000B6A3AEEF0AF0020E0101B76FF098425079
:10153000D8A4A5EF0AF0070E0001FC6FF96BFA6B57
:10154000FB6BFD6BF088A6EF0AF0B76B010E096E1E
:1015500044500A6E45500B6EE7EF02F01200AE6B7E
:10156000AF6BDD6BDE6BE26BE36BE76BE86BEC6B39
:10157000ED6B12000001B205D8A4E4EF0AF0AE2929
:101580000201B46F140EB45DD8B4CAEF0AF0D8A04B
:10159000CBEF0AF0B46BB4510001AF5DD8B4E3EF08
:1015A0000AF0D890AE350201B56F00EE84F0B55167
:1015B000E9260001B051EF6EE92AB151EF6E020148
:1015C000B4510001AE6FB26B12000001E105D8A466
:1015D0000FEF0BF0DD290201B26F140EB25DD8B42B
:1015E000F5EF0AF0D8A0F6EF0AF0B26BB2510001A5
:1015F000DE5DD8B40EEF0BF0D890DD350201B36F8D
:1016000000EEB3F0B351E9260001DF51EF6EE92A95
:10161000E051EF6E0201B2510001DD6FE16B12008B
:101620000001E605D8A43AEF0BF0E2290201B06F01
:10163000140EB05DD8B420EF0BF0D8A021EF0BF062
:10164000B06BB0510001E35DD8B439EF0BF0D89026
:10165000E2350201B16F01EE00F0B151E92600015F
:10166000E451EF6EE92AE551EF6E0201B05100013D
:10167000E26FE66B12000001EB05D8A465EF0BF0FA
:10168000E7290201AE6F140EAE5DD8B44BEF0BF03C
:10169000D8A04CEF0BF0AE6BAE510001E85DD8B4B2
:1016A00064EF0BF0D890E7350201AF6F01EE2AF03E
:1016B000AF51E9260001E951EF6EE92AEA51EF6ED8
:1016C0000201AE510001E76FEB6B12000001F00563
:1016D000D8A490EF0BF0EC290201AC6F140EAC5DB6
:1016E000D8B476EF0BF0D8A077EF0BF0AC6BAC5121
:1016F0000001ED5DD8B48FEF0BF0D890EC3502010E
:10170000AD6F01EE54F0AD51E9260001EE51EF6EE0
:10171000E92AEF51EF6E0201AC510001EC6FF06B62
:101720001200AE51AF5DD8A49DEF0BF0510E020137
:10173000A86F7A0EA96FBAEF0BF0D890AF350201FF
:10174000AB6F00EE84F0AB51E926EF50A86FE92AA9
:10175000EF50A96F0001AF290201AA6F140EAA5D14
:10176000D8B4B6EF0BF0D8A0B7EF0BF0AA6BAA5124
:101770000001AF6F0201A851096EA9510A6E120053
:10178000DD51DE5DD8A4CCEF0BF0510E0201A46F49
:101790007A0EA56FE9EF0BF0D890DE350201A76F46
:1017A00000EEB3F0A751E926EF50A46FE92AEF50FD
:1017B000A56F0001DE290201A66F140EA65DD8B444
:1017C000E5EF0BF0D8A0E6EF0BF0A66BA6510001F9
:1017D000DE6F0201A451096EA5510A6E1200E2519A
:1017E000E35DD8A4FBEF0BF0510E0201A06F7A0E5F
:1017F000A16F18EF0CF0D890E3350201A36F01EE52
:1018000000F0A351E926EF50A06FE92AEF50A16F35
:101810000001E3290201A26F140EA25DD8B414EFF7
:101820000CF0D8A015EF0CF0A26BA2510001E36FF1
:101830000201A051096EA1510A6E1200E751E85D44
:10184000D8A42AEF0CF0510E02019C6F7A0E9D6F06
:1018500047EF0CF0D890E83502019F6F01EE2AF0B7
:101860009F51E926EF509C6FE92AEF509D6F0001D0
:10187000E82902019E6F140E9E5DD8B443EF0CF070
:10188000D8A044EF0CF09E6B9E510001E86F02015E
:101890009C51096E9D510A6E1200EC51ED5DD8A469
:1018A00059EF0CF0510E0201986F7A0E996F76EF96
:1018B0000CF0D890ED3502019B6F01EE54F09B5176
:1018C000E926EF50986FE92AEF50996F0001ED2952
:1018D00002019A6F140E9A5DD8B472EF0CF0D8A082
:1018E00073EF0CF09A6B9A510001ED6F0201985161
:1018F000096E99510A6E1200976F4204D8A484EFC2
:101900000CF0975136EF09F012004204D8A4B2EF60
:101910000CF0966B93519625F66E000E0A6E94515C
:101920000A20F76E95510A20F86EF89C0900F550D0
:10193000096E210E095CD8B4B2EF0CF093519625D4
:10194000F66E000E096E94510920F76E955109202C
:10195000F86EF89C0900F55036EC09F00201962B60
:101960008AEF0CF0120002018C6F4204D8A41BEF26
:101970000DF0010E4614916F9105D8A4EFEF0CF015
:101980008C518D6F300E8E6F300E8F6F300E906FCA
:10199000640E8D5DD8B4D0EF0CF0D8A0D5EF0CF06C
:1019A0009C0E8D278E2BC8EF0CF00A0E8D5DD8B4DF
:1019B000DDEF0CF0D8A0E2EF0CF0F60E8D278F2BA8
:1019C000D5EF0CF08D5190278E5136EC09F00201C5
:1019D0008F5136EC09F00201905136EF09F08C3945
:1019E0000F0B916F0F0E9115926FBA0EF66E000EDF
:1019F000F76E000EF86E9251F626000E096EF72271
:101A00000950F8220900F55036EC09F00F0E0201DA
:101A10008C15916FBA0EF66E000EF76E000EF86E12
:101A20009151F626000E096EF7220950F82209009E
:101A3000F55036EF09F012004204D8A4A6EF0DF0DD
:101A4000010E46148B6F8B05D8A49AEF0DF08151CF
:101A5000896F82518A6F300E846F300E856F300E21
:101A6000866F300E876F300E886F270E8A5DD8A480
:101A70003CEF0DF0100E895DD8B442EF0DF0D8A008
:101A800049EF0DF0F00E8927D80E8A23842B35EF0D
:101A90000DF0030E8A5DD8A450EF0DF0E80E895DBD
:101AA000D8B456EF0DF0D8A05DEF0DF0180E8927D1
:101AB000FC0E8A23852B49EF0DF0000E8A5DD8A419
:101AC00064EF0DF0640E895DD8B46AEF0DF0D8A014
:101AD00071EF0DF09C0E8927FF0E8A23862B5DEF98
:101AE0000DF0000E8A5DD8A478EF0DF00A0E895D26
:101AF000D8B47EEF0DF0D8A085EF0DF0F60E892753
:101B0000FF0E8A23872B71EF0DF0895188278451AE
:101B10007CEC0CF0020185517CEC0CF0020186514A
:101B20007CEC0CF0020187517CEC0CF00201885136
:101B30007CEF0CF08251096E0A6A0950836FB3EC96
:101B40000CF002018151836FB3EF0CF01200898613
:101B50008D808D828D848B80898A8B828A921200FF
:101B60000101E46B0001F16B1200010EE46F120041
:101B7000040EE46F1200070EE46F1200090EE46F0A
:101B800012000B0EE46F12007B6FD89076317F6FDE
:101B900075317E6F050E096ED8907F337E33092E26
:101BA000CCEF0DF00F0E7E15806FB00E8025010179
:101BB000C06FD890020175357E6F76357F6FD890F3
:101BC0007E377F37FC0E7E150101C16FD890020170
:101BD00078317F6F77317E6F050E096ED8907F3335
:101BE0007E33092EEEEF0DF00F0E7E15806F300E56
:101BF00080250101C26FD890020177357E6F78355C
:101C00007F6FD8907E377F37FC0E7E150101C36F42
:101C1000D89002017A317F6F79317E6F050E096E9F
:101C2000D8907F337E33092E10EF0EF00F0E7E1505
:101C3000806F300E80250101C46FD8900201793584
:101C40007E6F7A357F6FD8907E377F37FC0E7E159A
:101C50000101C56F02017B510101C66F02017C5178
:101C60000101C76F02017D510101C86FB5EF0DF091
:101C70006F6FD8906A31736F6931726F050E096E9C
:101C8000D89073337233092E40EF0EF00F0E721599
:101C9000746FB00E74250101C96FD89002016935C7
:101CA000726F6A35736FD89072377337FC0E721586
:101CB0000101CA6FD89002016C31736F6B31726F82
:101CC000050E096ED89073337233092E62EF0EF051
:101CD0000F0E7215746FB00E74250101CB6FD89082
:101CE00002016B35726F6C35736FD8907237733732
:101CF000FC0E72150101CC6FD89002016E31736F2A
:101D00006D31726F050E096ED89073337233092EE0
:101D100084EF0EF00F0E7215746F300E74250101F2
:101D2000CD6FD89002016D35726F6E35736FD8909C
:101D300072377337FC0E72150101CE6F02016F51BD
:101D40000101CF6F020170510101D06F0201715189
:101D50000101D16FB8EF0DF00201646FD8906131CD
:101D6000676F6031666F050E096ED8906733663312
:101D7000092EB5EF0EF00F0E6615686F300E682550
:101D80000101D26FD89002016035666F6135676FCF
:101D9000D89066376737FC0E66150101D36FD8906F
:101DA00002016331676F6231666F050E096ED8906C
:101DB00067336633092ED7EF0EF00F0E6615686F86
:101DC000B00E68250101D46FD89002016235666FAC
:101DD0006335676FD89066376737FC0E661501016B
:101DE000D56F020164510101D66F020165510101F5
:101DF000D76FBBEF0DF002015B6FD89058315E6F6B
:101E000057315D6F050E096ED8905E335D33092E34
:101E100004EF0FF00F0E5D155F6FB00E5F2501012F
:101E2000D86FD890020157355D6F58355E6FD890E6
:101E30005D375E37FC0E5D150101D96FD890020148
:101E40005A315E6F59315D6F050E096ED8905E3361
:101E50005D33092E26EF0FF00F0E5D155F6F300E0C
:101E60005F250101DA6FD890020159355D6F5A354F
:101E70005E6FD8905D375E37FC0E5D150101DB6F3C
:101E800002015B510101DC6F02015C510101DD6F58
:101E9000BEEF0DF00201526FD8904F31556F4E31A9
:101EA000546F050E096ED89055335433092E53EFF5
:101EB0000FF00F0E5415566FB00E56250101DE6F50
:101EC000D89002014E35546F4F35556FD890543726
:101ED0005537FC0E54150101DF6FD89002015131C6
:101EE000556F5031546F050E096ED89055335433E9
:101EF000092E75EF0FF00F0E5415566F300E562544
:101F00000101E06FD89002015035546F5135556F83
:101F1000D89054375537FC0E54150101E16F02017A
:101F200052510101E26F020153510101E36FC1EF10
:101F30000DF04C6F4C05D8A4A6EF0FF04D51D8B45E
:101F4000A4EF0FF08986120089961200020E4C5DF4
:101F5000D8A4B3EF0FF04D51D8B4B1EF0FF08D828C
:101F600012008D921200030E4C5DD8A4C0EF0FF04A
:101F70004D51D8B4BEEF0FF0898612008996120039
:101F8000040E4C5DD8A4CDEF0FF04D51D8B4CBEF7B
:101F90000FF08D8212008D921200050E4C5DD8A4B8
:101FA000DAEF0FF04D51D8B4D8EF0FF08D8012005A
:101FB0008D901200060E4C5DD8A4E7EF0FF04D5146
:101FC000D8B4E5EF0FF08D8012008D901200070E4F
:101FD0004C5DD8A4F4EF0FF04D51D8B4F2EF0FF0F0
:101FE0008D8412008D941200080E4C5DD8A401EF70
:101FF00010F04D51D8B4FFEF0FF08D8412008D9486
:102000001200090E4C5DD8A40EEF10F04D51D8B45B
:102010000CEF10F08B8012008B9012000A0E4C5DBA
:10202000D8A41BEF10F04D51D8B419EF10F08B80ED
:1020300012008B9012000B0E4C5DD8A428EF10F00C
:102040004D51D8B426EF10F0898A1200899A1200F7
:102050000C0E4C5DD8A434EF10F04D51D8B433EFD2
:1020600010F0898A1200899A1200FF6F02014D6BED
:10207000495199EC0FF0000000000000800E0201B1
:102080004A6F4A51D8B45DEF10F04A510101FF1573
:1020900002014B6F4B51D8A451EF10F08B9E52EFC1
:1020A00010F08B8E000000008A82000000008A92EF
:1020B000D8904A33000041EF10F0800E4A6F4A5129
:1020C000D8B479EF10F04A5148154B6F4B51D8A452
:1020D0006DEF10F08B9E6EEF10F08B8E0000000005
:1020E0008A82000000008A92D8904A3300005FEF95
:1020F00010F000000000010E4D6F495199EF0FF0F4
:10210000FF0E0201436F030E446FD8904431466FB7
:102110004331456F050E096ED89046334533092E7D
:102120008CEF10F00F0E4515476FB00E47250101DB
:10213000C06FD89002014335456F4435466FD89043
:1021400045374637FC0E45150101C16FD890020195
:102150004431466F4331456F050E096ED8904633C2
:102160004533092EAEEF10F00F0E4515476F300EB8
:1021700047250101C26FD89002014335456F4435B0
:10218000466FD89045374637FC0E45150101C36FA1
:10219000D89002014431466F4331456F050E096EF8
:1021A000D89046334533092ED0EF10F00F0E451569
:1021B000476F300E47250101C46FD89002014335A7
:1021C000456F4435466FD89045374637FC0E451568
:1021D0000101C56FC66BC76BC86BD8900201443153
:1021E000466F4331456F050E096ED890463345332F
:1021F000092EF5EF10F00F0E4515476FB00E47256D
:102200000101C96FD89002014335456F4435466FCF
:10221000D89045374637FC0E45150101CA6FD89056
:1022200002014431466F4331456F050E096ED89067
:1022300046334533092E17EF11F00F0E4515476F42
:10224000B00E47250101CB6FD89002014335456F91
:102250004435466FD89045374637FC0E4515010189
:10226000CC6FD89002014431466F4331456F050E63
:10227000096ED89046334533092E39EF11F00F0E11
:102280004515476F300E47250101CD6FD8900201EB
:102290004335456F4435466FD89045374637FC0E79
:1022A00045150101CE6FCF6BD06BD16BD890020179
:1022B0004431466F4331456F050E096ED890463361
:1022C0004533092E5EEF11F00F0E4515476F300EA6
:1022D00047250101D26FD89002014335456F44353F
:1022E000466FD89045374637FC0E45150101D36F30
:1022F000D89002014431466F4331456F050E096E97
:10230000D89046334533092E80EF11F00F0E451556
:10231000476FB00E47250101D46FD89002014335B5
:10232000456F4435466FD89045374637FC0E451506
:102330000101D56FD66BD76BD89002014431466F3F
:102340004331456F050E096ED89046334533092E4B
:10235000A4EF11F00F0E4515476FB00E4725010190
:10236000D86FD89002014335456F4435466FD890F9
:1023700045374637FC0E45150101D96FD89002014B
:102380004431466F4331456F050E096ED890463390
:102390004533092EC6EF11F00F0E4515476F300E6D
:1023A00047250101DA6FD89002014335456F443566
:1023B000466FD89045374637FC0E45150101DB6F57
:1023C000DC6BDD6BD89002014431466F4331456FC1
:1023D000050E096ED89046334533092EEAEF11F009
:1023E0000F0E4515476FB00E47250101DE6FD890DF
:1023F00002014335456F4435466FD890453746371F
:10240000FC0E45150101DF6FD89002014431466F83
:102410004331456F050E096ED89046334533092E7A
:102420000CEF12F00F0E4515476F300E47250101D6
:10243000E06FD89002014335456F4435466FD89020
:1024400045374637FC0E45150101E16FE26BE36B42
:10245000C1510201486F010E496F0101C05135ECB5
:1024600010F00101C3510201486F020E496F0101D2
:10247000C25135EC10F00101C5510201486F030E45
:10248000496F0101C45135EC10F00101CA5102013C
:10249000486F040E496F0101C95135EC10F001017C
:1024A000CC510201486F050E496F0101CB5135EC4B
:1024B00010F00101CE510201486F060E496F010173
:1024C000CD5135EC10F00101D3510201486F070ED8
:1024D000496F0101D25135EC10F00101D5510201D3
:1024E000486F080E496F0101D45135EC10F001011D
:1024F000D9510201486F090E496F0101D85135ECDD
:1025000010F00101DB510201486F0A0E496F010111
:10251000DA5135EC10F00101DF510201486F0B0E6A
:10252000496F0101DE5135EC10F00101E15102016A
:10253000486F0C0E496F0101E05135EC10F00000BE
:102540008B920000000000008B8200001200670EDA
:10255000E46F2B0EE56F010EE66F670EE96F2B0E31
:10256000EA6F010EEB6F670EEE6F2B0EEF6F010E31
:10257000F06F12000101E451D8B41200E405D8A4B0
:10258000D1EF12F0C1510201486F0101E451020183
:10259000496F0101C05135EC10F0020E0101E46FEA
:1025A0001200020EE45DD8A4E5EF12F0C35102015F
:1025B000486F0101E4510201496F0101C25135EC3C
:1025C00010F0030E0101E46F1200030EE45DD8A4C5
:1025D000FAEF12F0C5510201486F0101E451020106
:1025E000496F0101C45135EC10F00101E56B0D0E8E
:1025F000E46F1200040EE45DD8A40EEF13F0CA518C
:102600000201486F0101E4510201496F0101C95102
:1026100035EC10F0050E0101E46F1200050EE45DCB
:10262000D8A422EF13F0CC510201486F0101E4510C
:102630000201496F0101CB5135EC10F0060E01018A
:10264000E46F1200060EE45DD8A438EF13F0CE510B
:102650000201486F0101E4510201496F0101CD51AE
:1026600035EC10F0010E0101E56F0D0EE46F120064
:10267000070EE45DD8A44CEF13F0D3510201486F6C
:102680000101E4510201496F0101D25135EC10F012
:10269000080E0101E46F1200080EE45DD8A462EF99
:1026A00013F0D5510201486F0101E4510201496F55
:1026B0000101D45135EC10F0020E0101E56F0D0E51
:1026C000E46F1200090EE45DD8A476EF13F0D9513F
:1026D0000201486F0101E4510201496F0101D85123
:1026E00035EC10F00A0E0101E46F12000A0EE45DF1
:1026F000D8A48CEF13F0DB510201486F0101E451C3
:102700000201496F0101DA5135EC10F0030E0101AD
:10271000E56F0D0EE46F12000B0EE45DD8A4A0EF80
:1027200013F0DF510201486F0101E4510201496FCA
:102730000101DE5135EC10F00C0E0101E46F1200C6
:102740000C0EE45DD8A4B6EF13F0E1510201486F1E
:102750000101E4510201496F0101E05135EC10F033
:10276000040E0101E56F0D0EE46F12000D0EE45D25
:10277000D8A443EF14F000008B92E551D8A4DBEF0E
:1027800013F0C651D8B4C8EF13F08A86C9EF13F01E
:102790008A96C751D8B4D0EF13F08A88D1EF13F0DE
:1027A0008A98C851D8B4D8EF13F08C8E3CEF14F04F
:1027B0008C9E3CEF14F0E505D8A4F9EF13F0CF514F
:1027C000D8B4E6EF13F08C84E7EF13F08C94D0517B
:1027D000D8B4EEEF13F08B8CEFEF13F08B9CD1514C
:1027E000D8B4F6EF13F08C863CEF14F08C963CEFE7
:1027F00014F0020EE55DD8A410EF14F0D651D8B451
:1028000005EF14F08A8E06EF14F08A9ED751D8B4E3
:102810000DEF14F08C8A3CEF14F08C9A3CEF14F01E
:10282000030EE55DD8A427EF14F0DC51D8B41CEFFB
:1028300014F08C8C1DEF14F08C9CDD51D8B424EF77
:1028400014F08A8C3CEF14F08A9C3CEF14F0040ED8
:10285000E55DD8A43CEF14F0E251D8B433EF14F0A6
:102860008C8834EF14F08C98E351D8B43BEF14F01B
:102870008A8A3CEF14F08A9A0000000000008B82E4
:1028800000000001F16B1200020E3C5DD8A44BEF7A
:1028900014F0000E3B5DD8B45AEF14F0D8B05AEFE4
:1028A00014F03B513D6F3C513E6F010E0101E86F4A
:1028B00074EF14F0D880000E3B55416F040E3C5568
:1028C000426FD880000E41553D6F020E42553E6F5B
:1028D0003D51096E020E3E5D0910D8A472EF14F04E
:1028E0003D6B3E6B0101E86BD89002013D35416FB5
:1028F0003E35426FCA0EF66E000EF76E000EF86E91
:102900004151F6264251F722000E096EF8220900C5
:10291000F5503F6F0900F550406FD880FF0E3F55CE
:102920000101E66F030E020140550101E76FBB058F
:10293000D8A4F0EF14F0CC0E0201936F040E946F44
:10294000000E4009956F85EC0CF002013B51816F40
:102950003C51826F1CEC0DF0DE0E0201936F040EF1
:10296000946F000E4009956F85EC0CF002013D510B
:10297000816F3E51826F1CEC0DF0E60E0201936FE9
:10298000040E946F000E4009956F85EC0CF0010168
:10299000E851B3EC0CF0EC0E0201936F040E946F4F
:1029A000000E4009956F85EC0CF002013F51816FDC
:1029B0004051826F1CEC0DF0F40E0201936F040E77
:1029C000946F000E4009956F85EC0CF00101E65103
:1029D0000201816F0101E7510201826F1CEF0DF0CE
:1029E000120033515024356F34515120366F33511A
:1029F0005224376F34515320386F33515424396F78
:102A0000345155203A6F040E365DD8A40AEF15F004
:102A1000000E355DD8B410EF15F0D8A014EF15F006
:102A2000000E3527FC0E3623040E385DD8A41BEFAC
:102A300015F0000E375DD8B421EF15F0D8A025EFC2
:102A400015F0000E3727FC0E3823040E3A5DD8A48B
:102A50002CEF15F0000E395DD8B432EF15F0D8A088
:102A600036EF15F0000E3927FC0E3A2335513B6F37
:102A700036513C6F44EC14F00101E6514A6EE751C7
:102A80004B6EE851476E020137513B6F38513C6F36
:102A900044EC14F00101E6514C6EE7514D6EE851E3
:102AA000486E020139513B6F3A513C6F44EC14F0CF
:102AB0000101E6514E6EE7514F6EE851496E4A50A2
:102AC0000201756F4B50766F4C50776F4D50786F99
:102AD0004E50796F4F507A6F48507C6F49507D6FE0
:102AE0004750C4EF0DF02B5100015F2502012D6FFF
:102AF0002C510001602102012E6F2B510001612534
:102B000002012F6F2C51000162210201306F2B5105
:102B1000000163250201316F2C5100016421020183
:102B2000326F040E2E5DD8A498EF15F0000E2D5DC7
:102B3000D8B49EEF15F0D8A0A2EF15F0000E2D2707
:102B4000FC0E2E23040E305DD8A4A9EF15F0000E64
:102B50002F5DD8B4AFEF15F0D8A0B3EF15F0000E8D
:102B60002F27FC0E3023040E325DD8A4BAEF15F0E7
:102B7000000E315DD8B4C0EF15F0D8A0C4EF15F049
:102B8000000E3127FC0E32232D513B6F2E513C6F2E
:102B900044EC14F00101E651596EE7515A6EE851C8
:102BA000566E02012F513B6F30513C6F44EC14F0D4
:102BB0000101E6515B6EE7515C6EE851576E020110
:102BC00031513B6F32513C6F44EC14F00101E6513E
:102BD0005D6EE7515E6EE851586E59500201696FA3
:102BE0005A506A6F5B506B6F5C506C6F5D506D6FCD
:102BF0005E506E6F5750706F5850716F565038EF6F
:102C00000EF0255100016B250201276F26510001AE
:102C10006C210201286F255100016D250201296FE9
:102C2000265100016E2102012A6F040E285DD8A4EE
:102C30001CEF16F0000E275DD8B422EF16F0D8A0D6
:102C400026EF16F0000E2727FC0E2823040E2A5D1F
:102C5000D8A42DEF16F0000E295DD8B433EF16F08E
:102C6000D8A037EF16F0000E2927FC0E2A23275193
:102C70003B6F28513C6F44EC14F00101E651000118
:102C8000676F0101E7510001686F0101E851000120
:102C9000656F020129513B6F2A513C6F44EC14F0DF
:102CA0000101E6510001696F0101E75100016A6FFE
:102CB0000101E8510001666F1200670E235D096E85
:102CC0002B0E245D0910D8A472EF16F0FF0E606F72
:102CD000030E616FFF0E626F030E636F656B000E74
:102CE000ACEF0EF02351256F2451266F01EC16F046
:102CF000000167510201606F000168510201616FBC
:102D0000000169510201626F00016A510201636FA3
:102D1000000166510201656F00016551ACEF0EF0D4
:102D20001D510001752502011F6F1E510001762102
:102D30000201206F1D51000177250201216F1E51F4
:102D4000000178210201226F040E205DD8A4ABEFB0
:102D500016F0000E1F5DD8B4B1EF16F0D8A0B5EF95
:102D600016F0000E1F27FC0E2023040E225DD8A4AF
:102D7000BCEF16F0000E215DD8B4C2EF16F0D8A05B
:102D8000C6EF16F0000E2127FC0E22231F513B6FC9
:102D900020513C6F44EC14F00101E6510001716FC9
:102DA0000101E7510001726F0101E85100016F6FED
:102DB000020121513B6F22513C6F44EC14F00101A0
:102DC000E6510001736F0101E7510001746F0101C9
:102DD000E8510001706F1200670E1B5D096E2B0E2B
:102DE0001C5D0910D8A401EF17F0FF0E576F030EFA
:102DF000586FFF0E596F030E5A6F5C6B000EFBEF9E
:102E00000EF01B511D6F1C511E6F90EC16F000014F
:102E100071510201576F000172510201586F000198
:102E200073510201596F0001745102015A6F000180
:102E3000705102015C6F00016F51FBEF0EF01551F4
:102E400000017F250201176F165100018021020148
:102E5000186F1551000181250201196F16510001EB
:102E6000822102011A6F040E185DD8A43AEF17F000
:102E7000000E175DD8B440EF17F0D8A044EF17F05C
:102E8000000E1727FC0E1823040E1A5DD8A44BEF72
:102E900017F0000E195DD8B451EF17F0D8A055EF18
:102EA00017F0000E1927FC0E1A2317513B6F18510B
:102EB0003C6F44EC14F00101E65100017B6F01010D
:102EC000E75100017C6F0101E8510001796F0201B7
:102ED00019513B6F1A513C6F44EC14F00101E6515B
:102EE00000017D6F0101E75100017E6F0101E85192
:102EF00000017A6F1200670E135D096E2B0E145DD0
:102F00000910D8A490EF17F0FF0E4E6F030E4F6F0D
:102F1000FF0E506F030E516F536B000E4AEF0FF010
:102F20001351156F1451166F1FEC17F000017B51F0
:102F300002014E6F00017C5102014F6F00017D5173
:102F40000201506F00017E510201516F00017A5160
:102F50000201536F000179514AEF0FF00001F15166
:102F6000D8A4D0EF17F091EC0BF009500101FD6FE0
:102F70000A50FE6F510EFD5D096E7A0EFE5D09105E
:102F8000D8B4D0EF17F0010E0001F16F0101FD512F
:102F90000201336F0101FE510201346FF1EF14F0B1
:102FA00012000001F151D8A4F3EF17F0C0EC0BF0C0
:102FB00009500101FB6F0A50FC6F510EFB5D096E59
:102FC0007A0EFC5D0910D8B4F3EF17F0010E000182
:102FD000F16F0101FB5102012B6F0101FC51020154
:102FE0002C6F73EF15F012000001F151D8A416EF09
:102FF00018F0EFEC0BF009500101F96F0A50FA6F6D
:10300000510EF95D096E7A0EFA5D0910D8B416EF0B
:1030100018F0010E0001F16F0101F9510201236F57
:103020000101FA510201246F5DEF16F01200000158
:10303000F151D8A439EF18F01EEC0CF00950010141
:10304000F76F0A50F86F510EF75D096E7A0EF85D52
:103050000910D8B439EF18F0010E0001F16F010129
:10306000F75102011B6F0101F85102011C6FECEFD7
:1030700016F012000001F151D8A45CEF18F04DECED
:103080000CF009500101F56F0A50F66F510EF55D15
:10309000096E7A0EF65D0910D8B45CEF18F0010ED7
:1030A0000001F16F0101F5510201136F0101F651A9
:1030B0000201146F7BEF17F012003C50D8A468EFA8
:1030C00018F03D500001B06FB16B010EB26F1200ED
:1030D0003C04D8A47BEF18F03D50F36FF46B000E66
:1030E000F3250001B06F010E0101F4210001B16F61
:1030F000010EB26F1200020E3C5CD8A48FEF18F0E4
:103100003D50F36FF46B000EF3250001B06F020E1B
:103110000101F4210001B16F010EB26F1200030E24
:103120003C5CD8A4A3EF18F03D50F36FF46B000E95
:10313000F3250001B06F030E0101F4210001B16F0E
:10314000010EB26F1200040E3C5CD8A4AFEF18F071
:103150003D500001DF6FE06B010EE16F1200050EC4
:103160003C5CD8A4C3EF18F03D50F36FF46B000E35
:10317000F3250001DF6F010E0101F4210001E06F72
:10318000010EE16F1200060E3C5CD8A4D7EF18F0D8
:103190003D50F36FF46B000EF3250001DF6F020E5C
:1031A0000101F4210001E06F010EE16F1200070E32
:1031B0003C5CD8A4EBEF18F03D50F36FF46B000EBD
:1031C000F3250001DF6F030E0101F4210001E06F20
:1031D000010EE16F1200080E3C5CD8A411EF19F04B
:1031E0000001835102010183D8A4019300018305EA
:1031F00002010195D8B40185019780A20187018958
:1032000001B501A70199019B01A301B9018B01AB94
:10321000BFEF1EF03D500001E46FE56B010EE66F5D
:103220001200090E3C5CD8A440EF19F00001835154
:103230000201018FD8A4019F0001830502010291C0
:10324000D8B40281029380A20283028502B102A354
:103250000295029701AF02B5028702A7BFEF1EF0E9
:103260003D500101F36FF46B000EF3250001E46F94
:10327000010E0101F4210001E56F010EE66F12005D
:103280000A0E3C5CD8A46FEF19F0000183510201D3
:10329000028BD8A4029B000183050201029DD8B4D1
:1032A000028D029F80A2028F038102BD02AF0391B3
:1032B000039302AB03B1038303A3BFEF1EF03D50A2
:1032C0000101F36FF46B000EF3250001E46F020EB1
:1032D0000101F4210001E56F010EE66F12000B0EF3
:1032E0003C5CD8A49EEF19F00001835102010387D2
:1032F000D8A403970001830502010399D8B4038978
:10330000039B80A2038B038D03B903AB039D039F33
:1033100003A703BD038F03AFBFEF1EF03D500101B4
:10332000F36FF46B000EF3250001E46F030E01014F
:10333000F4210001E56F010EE66F12000C0E3C5CFB
:10334000D8A4C4EF19F00001835102010483D8A46A
:1033500004930001830502010495D8B40485049701
:1033600080A20487048904B504A70499049B04A3DC
:1033700004B9048B04ABBFEF1EF03D500001E96FB0
:10338000EA6B010EEB6F12000D0E3C5CD8A4F3EF5C
:1033900019F0000183510201048FD8A4049F000199
:1033A000830502010591D8B40581059380A20583A8
:1033B000058505B105A30595059704AF05B50587F6
:1033C00005A7BFEF1EF03D500101F36FF46B000E37
:1033D000F3250001E96F010E0101F4210001EA6FFC
:1033E000010EEB6F12000E0E3C5CD8A422EF1AF017
:1033F000000183510201058BD8A4059B00018305C0
:103400000201059DD8B4058D059F80A2058F068118
:1034100005BD05AF0691069305AB06B1068306A36D
:10342000BFEF1EF03D500101F36FF46B000EF3256A
:103430000001E96F020E0101F4210001EA6F010EA3
:10344000EB6F12000F0E3C5CD8A451EF1AF0000194
:10345000835102010687D8A4069700018305020163
:103460000699D8B40689069B80A2068B068D06B9FC
:1034700006AB069D069F06A706BD068F06AFBFEFEB
:103480001EF03D500101F36FF46B000EF3250001B7
:10349000E96F030E0101F4210001EA6F010EEB6FE9
:1034A0001200100E3C5CD8A477EF1AF00001835193
:1034B00002010783D8A40793000183050201079541
:1034C000D8B40785079780A20787078907B507A79C
:1034D0000799079B07A307B9078B07ABBFEF1EF040
:1034E0003D500001EE6FEF6B010EF06F1200110EF8
:1034F0003C5CD8A4A6EF1AF0000183510201078FAB
:10350000D8A4079F0001830502010891D8B408815F
:10351000089380A20883088508B108A30895089736
:1035200007AF08B5088708A7BFEF1EF03D5001019F
:10353000F36FF46B000EF3250001EE6F010E010135
:10354000F4210001EF6F010EF06F1200120E3C5CCF
:10355000D8A4D5EF1AF0000183510201088BD8A43A
:10356000089B000183050201089DD8B4088D089FBF
:1035700080A2088F098108BD08AF0991099308ABA3
:1035800009B1098309A3BFEF1EF03D500101F36F9C
:10359000F46B000EF3250001EE6F020E0101F42121
:1035A0000001EF6F010EF06F1200130E3C5CD8A407
:1035B00004EF1BF00001835102010987D8A4099789
:1035C0000001830502010999D8B40989099B80A2E9
:1035D000098B098D09B909AB099D099F09A709BD87
:1035E000098F09AFBFEF1EF03D500101F36FF46B7F
:1035F000000EF3250001EE6F030E0101F42100011E
:10360000EF6F010EF06F1200140E3C5CD8A41BEF9C
:103610001BF03D50D8A415EF1BF0898200018305F3
:10362000D8A415EF1BF0A7EC12F03D04D8A4BFEF0F
:103630001EF0899212002E0E3C5CD8B473EF0AF093
:103640002F0E3C5CD8A455EF1BF03F0E3D14F36FDA
:10365000F351D8A431EF1BF0140E446E456A39EFD4
:103660001BF03F0E3D14F36FF46BF351446EF451B5
:10367000456EC00E3D14F36F800EF35DD8A44BEF82
:103680001BF0010E096E44500A6E45500B6EE7ECBC
:1036900002F075EC0AF0C00E3D140101F36FF35116
:1036A000D8A4BFEF1EF073EF0AF0300E3C5CD8A434
:1036B00063EF1BF0280EBC5DBD11D8B4BFEF1EF048
:1036C0003D50EEEF09F0150E3C5CD8A471EF1BF0F5
:1036D0003D50D8B48C903D04D8A4BFEF1EF08C8030
:1036E0001200160E3C5CD8A47FEF1BF03D50D8B4FE
:1036F0008C923D04D8A4BFEF1EF08C821200170EEE
:103700003C5CD8A488EF1BF03D50EB6FEC6B1200D3
:10371000180E3C5CD8A499EF1BF0030E3D14F36F18
:10372000F46BF351EA6FE96BEB51E927EC51EA23B3
:103730001200190E3C5CD8A4C4EF1BF0010E3D141E
:10374000F36FF305D8A4AAEF1BF0E951506EEA51CC
:10375000516E1200020E3D14F36F020EF35DD8A4F9
:10376000B7EF1BF0E951526EEA51536E1200040E8E
:103770003D14F36F040EF35DD8A4C3EF1BF0E951C1
:10378000546EEA51556E12001A0E3C5CD8A4F8EF44
:103790001BF0010E3D14F36FF305D8A4D8EF1BF016
:1037A000E95100015F6F0101EA510001606F1200F1
:1037B000020E3D14F36F020EF35DD8A4E8EF1BF088
:1037C000E9510001616F0101EA510001626F1200CD
:1037D000040E3D14F36F040EF35DD8A4F7EF1BF055
:1037E000E9510001636F0101EA510001646F1200A9
:1037F0001B0E3C5CD8A45CEF1CF0010E3D14F36F73
:10380000F305D8A40CEF1CF0E95100016B6F010126
:10381000EA5100016C6F1200020E3D14F36F020EAC
:10382000F35DD8A41CEF1CF0E95100016D6F01019C
:10383000EA5100016E6F1200040E3D14F36F040E86
:10384000F35DD8A42CEF1CF0E9510001756F010164
:10385000EA510001766F1200080E3D14F36F080E56
:10386000F35DD8A43CEF1CF0E9510001776F010132
:10387000EA510001786F1200100E3D14F36F100E24
:10388000F35DD8A44CEF1CF0E95100017F6F0101FA
:10389000EA510001806F1200200E3D14F36F200EDC
:1038A000F35DD8A45BEF1CF0E9510001816F0101C9
:1038B000EA510001826F12001C0E3C5CD8A46FEF2D
:1038C0001CF0D880FF0E3D54F36FF46BD890F335A5
:1038D0004A6EF4354B6ED8904A364B3612001D0EA8
:1038E0003C5CD8A482EF1CF0D880FF0E3D54F36FEF
:1038F000F46BD890F3354C6EF4354D6ED8904C3651
:103900004D3612001E0E3C5CD8A495EF1CF0D880FA
:10391000FF0E3D54F36FF46BD890F3354E6EF435D3
:103920004F6ED8904E364F3612001F0E3C5CD8A416
:10393000C6EF1CF0010E3D14476E020E3D14F36FEE
:10394000D890F331486E040E3D14F36FD890F331E4
:10395000496ED89049320001F151D8A4BFEF1EF052
:10396000010EF16F4A500201756F4B50766F4C504B
:10397000776F4D50786F4E50796F4F507A6F485037
:103980007C6F49507D6F4750C4EF0DF0200E3C5CBA
:10399000D8A4D9EF1CF0D880FF0E3D54F36FF46B20
:1039A000D890F335596EF4355A6ED89059365A3648
:1039B0001200210E3C5CD8A4ECEF1CF0D880FF0E66
:1039C0003D54F36FF46BD890F3355B6EF4355C6E59
:1039D000D8905B365C361200220E3C5CD8A4FFEF18
:1039E0001CF0D880FF0E3D54F36FF46BD890F33584
:1039F0005D6EF4355E6ED8905D365E361200230E35
:103A00003C5CD8A430EF1DF0010E3D14566E020E42
:103A10003D14F36FD890F331576E040E3D14F36FDD
:103A2000D890F331586ED89058320001F151D8A493
:103A3000BFEF1EF0010EF16F59500201696F5A502D
:103A40006A6F5B506B6F5C506C6F5D506D6F5E505A
:103A50006E6F5750706F5850716F565038EF0EF0B0
:103A6000240E3C5CD8A446EF1DF0D880FF0E3D54D8
:103A7000F36FF46BD890F3350001676F0101F435F3
:103A80000001686FD890673768371200250E3C5CDC
:103A9000D8A45CEF1DF0D880FF0E3D54F36FF46B9B
:103AA000D890F3350001696F0101F43500016A6FA8
:103AB000D89069376A371200260E3C5CD8A48AEF8A
:103AC0001DF0010E3D140001656F020E3D14010151
:103AD000F36FD890F3310001666FF151D8A4BFEFB6
:103AE0001EF0010EF16F67510201606F0001685115
:103AF0000201616F000169510201626F00016A51A8
:103B00000201636F000166510201656F000165519A
:103B1000ACEF0EF0270E3C5CD8A4A0EF1DF0D880CF
:103B2000FF0E3D54F36FF46BD890F3350001716FC5
:103B30000101F4350001726FD890713772371200AD
:103B4000280E3C5CD8A4B6EF1DF0D880FF0E3D5483
:103B5000F36FF46BD890F3350001736F0101F43506
:103B60000001746FD890733774371200290E3C5CD3
:103B7000D8A4E4EF1DF0010E3D1400016F6F020E9A
:103B80003D140101F36FD890F3310001706FF151D2
:103B9000D8A4BFEF1EF0010EF16F71510201576FF3
:103BA000000172510201586F000173510201596FF7
:103BB0000001745102015A6F0001705102015C6FE3
:103BC00000016F51FBEF0EF02A0E3C5CD8A4FAEF17
:103BD0001DF0D880FF0E3D54F36FF46BD890F33591
:103BE00000017B6F0101F43500017C6FD8907B37B9
:103BF0007C3712002B0E3C5CD8A410EF1EF0D8804E
:103C0000FF0E3D54F36FF46BD890F33500017D6FD8
:103C10000101F43500017E6FD8907D377E371200A8
:103C20002C0E3C5CD8A43EEF1EF0010E3D140001AA
:103C3000796F020E3D140101F36FD890F33100014A
:103C40007A6FF151D8A4BFEF1EF0010EF16F7B51D6
:103C500002014E6F00017C5102014F6F00017D5146
:103C60000201506F00017E510201516F00017A5133
:103C70000201536F000179514AEF0FF02D0E3C5CA9
:103C8000D8A455EF1EF03D50D8A449EF1EF0000116
:103C9000836B3D04D8A4BFEF1EF0010E0001836FBB
:103CA00080A2BFEF1EF0A7EF12F0310E3C5CD8A44B
:103CB000A8EF1EF04204D8A4BFEF1EF0480E36EC69
:103CC00009F0530E36EC09F0490E36EC09F0230EDC
:103CD00036EC09F0310E36EC09F0200E36EC09F026
:103CE000760E36EC09F0310E36EC09F02E0E36EC7D
:103CF00009F0310E36EC09F0200E36EC09F0240EF6
:103D000036EC09F0340E0101F26F390EF25DD8B4D1
:103D10008FEF1EF0D8A08FEF1EF0070EF227F251A2
:103D200036EC09F0380E0101F26F390EF25DD8B4AD
:103D30009FEF1EF0D8A09FEF1EF0070EF227F25162
:103D400036EC09F00D0E36EC09F00A0E36EF09F0EC
:103D5000320E3C5CD8A4BFEF1EF04204D8A4BFEFE3
:103D60001EF04E0E3D5CD8A4B8EF1EF0BB6B1200E7
:103D7000590E3D5CD8A4BFEF1EF0010EBB6F1200C0
:103D8000E06AF29EC26A0F0EC16EC06A070EB46E80
:103D9000F26AA7EC0DF0D5EC03F03AEC09F0466AB4
:103DA000E3EC09F0096A0101BC510A6EBD510B6ECA
:103DB000E7EC02F089828C948B9C8C968A968A9888
:103DC0008C9E8A9E8C9A8C9C8A9C8C988A9A476A34
:103DD000486A496A4A6A4B6A4C6A4D6A4E6A4F6A37
:103DE000590E506E516AAE0E526E010E536E030E96
:103DF000546E556E566A576A586A596A5A6A5B6AAF
:103E00005C6A5D6A5E6A580E00015F6F020E606F49
:103E1000AD0E616F030E626F020E636F010E646F71
:103E2000656B666B676B686B696B6A6BAA0E6B6F11
:103E3000020E6C6F550E6D6F030E6E6F6F6B706BB5
:103E4000716B726B736B746BAA0E756F020E766F6B
:103E5000550E776F030E786F796B7A6B7B6B7C6B8B
:103E60007D6B7E6BAA0E7F6F020E806F550E816F89
:103E7000030E826FB06BB16BDF6BE06BE46BE56BD5
:103E8000E96BEA6BEE6BEF6BB26BE16BE66BEB6BC6
:103E9000F06B010E836FAFEC0AF0406A416AD09E6E
:103EA000F188F0925EEC03F0F28EF28C80A067EF66
:103EB0001FF0010E426E020E3E6EC80E0101BC6F75
:103EC000BD6B010E3F6E436AF09872EF1FF0426ABD
:103ED000020E3E6E280E0101BC6FBD6B3F6A010EE3
:103EE000436EF088140E446E456A78EC0AF0B0EC2C
:103EF0000DF080EC10F03F04D8A4A4EF1FF031ECDB
:103F00000AF0D8EC02F009500101ED6F0A50EE6F93
:103F1000ED51405C096EEE51415C0910D8B47BEF65
:103F20001FF0D8EC02F00950406E0A50416E82A496
:103F30007BEF1FF03F6AECEC08F0F40E0101BC6F60
:103F4000010EBD6F7BEF1FF04204D8A4DAEF1FF023
:103F500082A4CEEF1FF0D1EC09F00101BA05D8A47C
:103F600001EF20F0BA6BB8513C6EB9513D6E030EB3
:103F70003E5CD8A4CAEF1FF080A8C2EF1FF0EF9FED
:103F8000C3EF1FF0EF8FEFBFC9EF1FF08998CAEFA3
:103F90001FF089885DEC18F001EF20F0010E3F6EF4
:103FA000C80E0101BC6FBD6B020E3E6E406A416AD5
:103FB00001EF20F0280E0101BC5DBD11D8B401EF66
:103FC00020F00001FE05D8A401EF20F0FE6BFF51A8
:103FD0003C6E01017E513D6E030E3E5CD8A4FFEFA6
:103FE0001FF080A8F7EF1FF0F097F8EF1FF0F087B1
:103FF000F0B7FEEF1FF08998FFEF1FF089885DECA6
:1040000018F031EC0AF085EC0AF0BAEC0AF0E5ECB5
:104010000AF010EC0BF03BEC0BF066EC0BF0AEECA6
:1040200017F0D1EC17F0F4EC17F017EC18F03AECAD
:1040300018F0BAEC12F07BEF1FF0F0A27DEF03F066
:084040006FEC04F07DEF03F0CA
:020000040030CA
:0E0000002C0E3E1E008580000FC00FE00F404A
:00000001FF
