:020000040000FA
:04000000BDEF06F05A
:08000800A0EF06F01201000256
:1000100002000008D8040A000100010200010902E0
:1000200043000201008032090400000102020100C5
:100030000524001001042402020524060001052401
:100040000100010705820308000209040100020AF9
:1000500000000007050302080000070583020800EE
:1000600000000403090436034D00690063007200B8
:100070006F00630068006900700020005400650094
:10008000630068006E006F006C006F00670079000D
:100090002C00200049006E0063002E001E034A0061
:1000A00041004C004C004900420020005300650014
:1000B0007200690061006C002E003031323334353B
:1000C00036373839414243444546000000000100BC
:1000D0000100020003000300040005000500060003
:1000E000070007000800080009000A000A000B00CA
:1000F0000C000C000D000E000E000F000F00100091
:100100001100110012001300130014001500150057
:100110001600160017001800180019001A001A001F
:100120001B001C001C001D001D001E001F001F00E6
:1001300020002100210022002300230024002400AD
:1001400025002600260027002800280029002A0074
:100150002A002B002B002C002D002D002E002F003C
:100160002F00300031003100320032003300340003
:1001700034003500360036003700380038003900CA
:100180003A003A003B003B003C003D003D003E0091
:100190003F003F0040004100410042004200430058
:1001A000440044004500460046004700480048001F
:1001B00049004A004A004B004B004C004D004D00E6
:1001C0004E004F004F0050005100510052005200AD
:1001D0005300540054005500560056005700580074
:1001E000580059005A005A005B005B005C005D003B
:1001F0005D005E005F005F00600061006100620002
:1002000063006300640064006500660066006700C8
:100210006800680069006A006A006B006C006C008E
:100220006D006E006E006F006F0070007100710055
:10023000720073007300740075007500760077001B
:1002400077007800790079007A007A007B007C00E2
:100250007C007D007E007E007F00800080008100A9
:10026000820082008300840084008500850086006F
:10027000870087008800890089008A008B008B0036
:100280008C008D008D008E008F008F0090009100FB
:1002900091009200930093009400940095009600C2
:1002A000960097009800980099009A009A009B0089
:1002B0009C009C009D009E009E009F00A000A0004E
:1002C000A100A200A200A300A400A400A500A60013
:1002D000A600A700A800A800A900A900AA00AB00DA
:1002E000AB00AC00AD00AD00AE00AF00AF00B000A1
:1002F000B100B100B200B300B300B400B500B50066
:10030000B600B700B700B800B900B900BA00BB002A
:10031000BB00BC00BD00BD00BE00BF00BF00C000F0
:10032000C100C100C200C300C300C400C500C500B5
:10033000C600C700C700C800C900C900CA00CB007A
:10034000CB00CC00CD00CD00CE00CF00CF00D00040
:10035000D100D100D200D300D300D400D500D50005
:10036000D600D700D700D800D900D900DA00DB00CA
:10037000DB00DC00DD00DD00DE00DF00E000E0008F
:10038000E100E200E200E300E400E400E500E60052
:10039000E600E700E800E800E900EA00EA00EB0018
:1003A000EC00EC00ED00EE00EE00EF00F000F100DC
:1003B000F100F200F300F300F400F500F500F600A0
:1003C000F700F700F800F900F900FA00FB00FB0065
:1003D000FC00FD00FE00FE00FF0000010001010125
:1003E00002010201030104010401050106010701E4
:1003F00007010801090109010A010B010B010C01A8
:100400000D010D010E010F0110011001110112016A
:10041000120113011401140115011601170117012E
:100420001801190119011A011B011B011C011D01F1
:100430001E011E011F0120012001210122012201B4
:100440002301240125012501260127012701280177
:1004500029012A012A012B012C012C012D012E0139
:100460002F012F01300131013101320133013401FB
:1004700034013501360136013701380139013901BE
:100480003A013B013B013C013D013E013E013F0180
:100490004001400141014201430143014401450142
:1004A0004601460147014801480149014A014B0103
:1004B0004B014C014D014E014E014F0150015001C5
:1004C0005101520153015301540155015601560186
:1004D00057015801590159015A015B015C015C0146
:1004E0005D015E015E015F01600161016101620108
:1004F00063016401640165016601670167016801C8
:1005000069016A016A016B016C016D016D016E0187
:100510006F01700170017101720173017301740147
:100520007501760176017701780179017A017A0106
:100530007B017C017D017D017E017F0180018001C5
:100540008101820183018301840185018601870184
:100550008701880189018A018A018B018C018D0143
:100560008E018E018F019001910191019201930101
:1005700094019501950196019701980198019901BF
:100580009A019B019C019C019D019E019F01A0017C
:10059000A001A101A201A301A401A401A501A6013A
:1005A000A701A801A801A901AA01AB01AC01AC01F6
:1005B000AD01AE01AF01B001B001B101B201B301B3
:1005C000B401B401B501B601B701B801B901B9016F
:1005D000BA01BB01BC01BD01BD01BE01BF01C0012B
:1005E000C101C201C201C301C401C501C601C701E5
:1005F000C701C801C901CA01CB01CC01CC01CD01A1
:10060000CE01CF01D001D101D101D201D301D4015A
:10061000D501D601D601D701D801D901DA01DB0114
:10062000DC01DC01DD01DE01DF01E001E101E201CD
:10063000E201E301E401E501E601E701E801E90186
:10064000E901EA01EB01EC01ED01EE01EF01F0013E
:10065000F001F101F201F301F401F501F601F701F6
:10066000F801F801F901FA01FB01FC01FD01FE01AD
:10067000FF0100020002010202020302040205025D
:1006800006020702080209020A020A020B020C0211
:100690000D020E020F0210021102120213021402C6
:1006A0001502160217021702180219021A021B027B
:1006B0001C021D021E021F0220022102220223022E
:1006C00024022502260227022802290229022A02E0
:1006D0002B022C022D022E022F0230023102320296
:1006E00033023402350236023702380239023A0246
:1006F0003B023C023D023E023F02400241024202F6
:1007000043024402450246024702480249024A02A5
:100710004B024C024D024E024F0250025202530253
:100720005402550256025702580259025A025B02FD
:100730005C025D025E025F026002610262026402AC
:10074000650266026702680269026A026B026C0255
:100750006D026E02700271027202730274027502FF
:100760007602770279027A027B027C027D027E02A7
:100770007F0280028202830284028502860287024F
:1007800089028A028B028C028D028F0290029102F2
:1007900092029302950296029702980299029B0296
:1007A0009C029D029E02A002A102A202A302A50237
:1007B000A602A702A802AA02AB02AC02AD02AF02D7
:1007C000B002B102B302B402B502B702B802B90274
:1007D000BB02BC02BD02BF02C002C102C302C4020E
:1007E000C502C702C802CA02CB02CC02CE02CF02A7
:1007F000D102D202D302D502D602D802D902DB023C
:10080000DC02DE02DF02E102E202E402E502E702CC
:10081000E802EA02EB02ED02EE02F002F202F3025B
:10082000F502F602F802FA02FB02FD02FF020003E3
:10083000020304030503070309030A030C030E0361
:100840001003110313031503170319031B031C03E0
:100850001E03200322032403260328032A032C0358
:100860002E03300332033403360338033A033D03C7
:100870003F0341034303450348034A034C034F032B
:1008800051035403560359035B035E036003630380
:10089000660369036B036E037103740377037A03C2
:1008A0007E038103840388038B038F0393039703E1
:1008B0009B039F03A303A803AD03B203B803BE03C6
:1008C000C503CD03D603E203FE03FF032043726F8B
:1008D00073733D2120717561643D21002062617355
:1008E00065563D21206661633D212062617365414B
:1008F0003D2120637273413D210020546F555342C6
:100900003D210D0A4352536F75743D2100000100D3
:1009100040009600DF000D013401550175018E0184
:10092000A401BC01CD01DF01EE01FF010A021602A4
:1009300022022E02380243024C0257026002680271
:1009400070027802810288028F0296029D02A30241
:10095000AA02B002B602BC02C202C702CC02D10295
:10096000D702DD02E202E602EB02EF02F402F80235
:10097000FD020103050309030C031003130317030E
:100980001B031F032203260329032C032F03320317
:10099000360339033C0340034303450348034B0339
:1009A0004E0350035303560358035B035D03600378
:1009B00062036503670369036B036E036F037203CE
:1009C0007403760379037B037C037F038103830332
:1009D0008503870389038A038C038D038F039103A7
:1009E00093039503970398039A039C039E03A00324
:1009F000A103A303A403A503A703A803AA03AB03AE
:100A0000AD03AE03AF03B103B203B403B503B60342
:100A1000B703B903BA03BC03BD03BE03BF03C003DE
:100A2000C203C303C403C503C603C703C803C90382
:100A3000CA03CB03CC03CD03CE03CF03D003D10332
:100A4000D203D303D403D503D603D703D803D903E2
:100A5000DA03DB03DC03DD03DD03DE03DF03E00396
:100A6000E103E203E203E303E403E403E503E60353
:100A7000E603E703E803E803E903E903EA03EB031A
:100A8000EB03EC03EC03ED03ED03EE03EF03EF03E5
:100A9000F003F003F103F103F203F203F303F303B2
:100AA000F403F403F503F503F603F603F603F70383
:100AB000F703F803F803F803F903F903F903FA035A
:100AC000FA03FA03FB03FB03FB03FC03FC03FC0335
:100AD000FC03FD03FD03FD03FD03FD03FE03FE0315
:100AE000FE03FE03FE03FF03FF03FF03FF03FF03F9
:100AF000FF03FF03FF03FF03FF03FF03FF03FF03E6
:100B0000FF03FF03FF03FF03FF03FF03FF03FF03D5
:100B1000FF03FF03FF03FF03FF03FF03FF03FF03C5
:100B2000FF03FF03FF03FF03FF03FF03FF03FF03B5
:100B3000FF03FF03FE03FE03FE03FE03FE03FD03AC
:100B4000FD03FD03FD03FD03FC03FC03FC03FC03A9
:100B5000FB03FB03FB03FA03FA03FA03F903F903AC
:100B6000F903F803F803F803F703F703F603F603B2
:100B7000F603F503F503F403F403F303F303F203BD
:100B8000F203F103F103F003F003EF03EF03EE03CD
:100B9000ED03ED03EC03EC03EB03EB03EA03E903E2
:100BA000E903E803E803E703E603E603E503E403F8
:100BB000E403E303E203E203E103E003DF03DE0314
:100BC000DD03DD03DC03DB03DA03D903D803D7033A
:100BD000D603D503D403D303D203D103D003CF0369
:100BE000CE03CD03CC03CB03CA03C903C803C70399
:100BF000C603C503C403C303C203C003BF03BE03CC
:100C0000BD03BC03BA03B903B703B603B503B4030A
:100C1000B203B103AF03AE03AD03AB03AA03A80352
:100C2000A703A503A403A303A103A0039E039C039E
:100C30009A03980397039503930391038F038D03FE
:100C40008C038A03890387038503830381037F035E
:100C50007C037B0379037603740372036F036E03D3
:100C60006B03690367036503620360035D035B0352
:100C700058035603530350034E034B0348034503E5
:100C8000430340033C033903360332032F032C0391
:100C90002903260322031F031B0317031303100357
:100CA0000C03090305030103FD02F802F402EF023D
:100CB000EB02E602E202DD02D702D102CC02C70259
:100CC000C202BC02B602B002AA02A3029D029602B0
:100CD0008F02880281027802700268026002570265
:100CE0004C02430238022E02220216020A02FF01BF
:100CF000EE01DF01CD01BC01A4018E01750155019A
:100D000034010D01DF0096004000010000007D006D
:100D10007F001CBE9FEF06F01CBC95EF06F01B5039
:100D2000EA6E1A50E96EEF5012001A50F66E1B5020
:100D3000F76E1C503F0BF86E0800F55012001200C1
:100D400000011650176E1850196E1A501D6EE9509A
:100D50001E6EEA501F6EF650206EF750216EF8504E
:100D6000226EF550236E0C50106E0D50116E0E5009
:100D7000126E0F50136EE1EF26F00101EA6B000EC8
:100D8000246E080E256E92809282928492869298AA
:100D9000928A93809392938493969398939A939C38
:100DA000939E949094929484948C949E9590959212
:100DB000959495869588958A959C959E9690969201
:100DC000969455EF09F003019A6F9A51D8B4120026
:100DD0009A05D8A4F3EF06F00001230E0C6E0C2E3A
:100DE000EFEF06F012009A0700011F0E0C6E0C2E9A
:100DF000F7EF06F003019A519B6F9C6B08EF07F029
:100E00000001270E0C6E0C2E03EF07F003019C2B44
:100E10009C519B5DD8A400EF07F01200F29A0101EB
:100E200026510301986F010127510301996FF28A3E
:100E300098510C6E99510D6E12000101EA2BEA2DAA
:100E400024EF07F036EF07F02550EA6E2450E96EE4
:100E50000408246EE9063B50EF6EE9063C50EF6E45
:100E6000E9063D50EF6EE9063E50EF6E0C503B6ECA
:100E70000D503C6E0E503D6E040E3B5CD8B444EFFA
:100E800007F0D8A046EF07F054EF07F0F29AD89099
:100E90003B343E6E01EE28F03E50E9263C50EF6EAA
:100EA000E92A3D50EF6EF28AEA2F58EF07F0120060
:100EB0002550EA6E2450E96EEF503E6EE92AEF505D
:100EC0003D6EE92AEF503C6EE92AEF503B6EE9286F
:100ED000246E12000301956F040E955DD8B474EF73
:100EE00007F0D8A076EF07F00C801200D890953567
:100EF000966F01EE28F09651E926EF50E92AEF109F
:100F0000D8A492EF07F0D8909535976F01EE28F0AE
:100F10009751E926EF50E92AEF10D8A492EF07F095
:100F20000C8012000C901200F80ED5140509D56E35
:100F3000440E0101306FD59AD596F294F28AF28E62
:100F40000301936BD8909335946F01EE28F0945180
:100F5000E926EF6AE92AEF6A932B040E935DD8A481
:100F6000A2EF07F01200F2A4F0EF07F001013051F8
:100F7000D66ED76A262BD8B4272B366AD89036344B
:100F8000336E01EE28F03350E926EF50E92AEF10D6
:100F9000D8B4E9EF07F0D8903634346ED8903634B0
:100FA000356E01EE28F03550E926EF500C6EE92A37
:100FB000EF500D6E0F6E0C040E6E0E28D8B40F0697
:100FC00001EE28F03450E9260E50EF6EE92A0F505A
:100FD000EF6E362A040E365CD8A4BEEF07F0F2940A
:100FE00010500C6E11500D6E12500E6E13500F6E8D
:100FF0002050F66E2150F76E2250F86E2350F56E99
:101000001E50E96E1F50EA6E1D501A6E1950186E70
:101010001750166E11000101316B326B336B070EE6
:10102000346F366B356B12004604D8A420EF08F0FD
:10103000010E0C6E47500D6E48500E6E1DEC07F001
:1010400001013551D8A443EF08F0040E415CD8A447
:1010500030EF08F0070E345DD8A430EF08F089981F
:1010600080A635EF08F0800E31273451D8B43DEF1B
:1010700008F0D890313334071200050E346F326B0C
:10108000010E356F12003505D8A45EEF08F080A67A
:101090004CEF08F0800E32273451D8B454EF08F0EA
:1010A000D890323334071200D8903233D89032338C
:1010B000070E346F336B020E356F1200020E355D72
:1010C000D8A49CEF08F080A668EF08F0800E3327C4
:1010D0003451D8B470EF08F0D8903333340712008D
:1010E000040E415CD8B48988490E315DD8A495EFCF
:1010F00008F0200E325DD8B481EF08F0D8B08EEF42
:1011000008F0356B070E346F3251376F3351386F3B
:10111000316B326B336B010E366F1200356B070E7D
:10112000346F316B326B336B1200356B070E346FDB
:10113000316B326B336B1200070E346F316B326BD5
:10114000336B356B120014EC08F0F092F08812004B
:101150000301906F8B51E16E8C51E26E9051926F52
:10116000916BC3EF08F08D5191251A6E000E0C6E35
:101170008E510C201B6E8F510C201C6E89EC06F0DA
:10118000E66E0301912B9151925DD8A4B3EF08F064
:101190001200040104BF120001013C51395DD8B4B2
:1011A000D7EF08F0D8B0D7EF08F039513C6FD880AE
:1011B0003C513A5503018A6F01013B5DD8B4E7EF1A
:1011C00008F0D8B0E7EF08F03B5103018A6F780EC2
:1011D00001013A250401066F000E0C6E040E0C206E
:1011E000076F03018A510401056F04ADFCEF08F09D
:1011F000880E046FFEEF08F0C80E046F03018A51D9
:1012000001013A273A513C5D1200080E3B6F3A6BE0
:101210003C6B396B0401049DC9EF08F00301896F31
:101220000401786F080E01013B6F3A6B010E3C6FB1
:10123000010E396F0401049DC9EF08F0840E04010A
:1012400000131200080E0401016F200E026F040E3D
:10125000036F030E01013E5DD8A436EF09F08C0E3A
:101260000301886F0401046B39EF09F0C80E030114
:10127000886F030188510401006F1200846FD890B9
:101280008435876FD8908737D89087378729866FBE
:1012900004EE00F08651E9268551EF6E04EE00F071
:1012A0008751E926800EEF6E1200406BE8912D6A9F
:1012B0002E6A2F6A306A100E316E77EF21F004012A
:1012C000F9510301836F210E835DD8A46BEF09F000
:1012D000050E01013E6F120004011CBF74EF09F0FE
:1012E0000301829176EF09F00301828182B112003D
:1012F0002D502E5CD8A484EF09F00101E8A1120062
:1013000003017D6B96EF09F02D502E5CD8B492EF5F
:1013100009F0D8B092EF09F0D8802D502E547D6F8F
:1013200096EF09F0D880200E2E547D6F080E7D5D5B
:10133000D8B4A0EF09F0D8A0A0EF09F0080E7D6F97
:101340007D51806F7F6BB5EF09F02E507F257E6F4A
:1013500001EE41F07E51E926EF500C6E04EE58F09C
:101360007F51E9260C50EF6E7F2B7F51805DD8A412
:10137000A5EF09F0580E04011E6F040E1F6F030144
:101380007D5104011D6F1CADCAEF09F0880E1C6F62
:10139000CCEF09F0C80E1C6F2E5003017D25816F24
:1013A0001F0E815DD8B4D9EF09F0D8A0D9EF09F0AC
:1013B000816B81512E6E080E7D5D0101E891D8B4DC
:1013C000E88112007B6F2D287C6F200E7C5DD8B4E5
:1013D0007C6B01EE41F02D50E9267B51EF6E7C5184
:1013E0002D6E120001EE61F03050E926EF50796F5A
:1013F000312A30287A6F100E7A5DD8B47A6B7A5120
:10140000306E7951120030502F5C7891D8A47881D9
:101410000C9078B10C8012006CEC09F0080E315C75
:10142000D8B416EF0AF0D8A020EF0AF0040118BFD4
:1014300020EF0AF0080E0301856F030E3EEF09F05E
:101440001200266AC20E276E010E286E296A2A6AC9
:10145000080E2C6E2B6A12000401F951326E060E32
:10146000325CD8A4DFEF0AF0FB510301766F040170
:10147000FA510301776F01013C6B03017605D8A493
:1014800057EF0AF0120E01013C6F780E03018B6FCB
:10149000040E8C6F0C0E8D6F000E8E6F000E4009C7
:1014A0008F6F01013C51A8EC08F0C2EF0AF0020E68
:1014B000765DD8A471EF0AF0430E01013C6F780EFF
:1014C00003018B6F040E8C6F1E0E8D6F000E8E6FDE
:1014D000000E40098F6F01013C51A8EC08F0C2EFEB
:1014E0000AF0030E765DD8A4C0EF0AF07751D8A4B5
:1014F0008DEF0AF0040E01013C6F780E03018B6F33
:10150000040E8C6F620E8D6F000E8E6F000E400900
:101510008F6F01013C51A8EC08F003017705D8A4B6
:10152000A5EF0AF0360E01013C6F780E03018B6FB8
:10153000040E8C6F660E8D6F000E8E6F000E4009CC
:101540008F6F01013C51A8EC08F0020E0301775D9A
:10155000D8A4C2EF0AF01E0E01013C6F780E030101
:101560008B6F040E8C6F9C0E8D6F000E8E6F000EB5
:1015700040098F6F01013C51A8EC08F0C2EF0AF05E
:10158000220E765D01013C51D8B4DDEF0AF0080E61
:101590003B6F0401FF51D8A4D3EF0AF0FE510101C3
:1015A000396FD6EF0AF0FF0E0101396F030E3E6F5F
:1015B0003A6B0401049DC9EF08F01EEF09F0050E17
:1015C000325CD8A4EFEF0AF0FA5101013F6F010E2F
:1015D0003D6F05EC09F0060E01013E6F1200090E89
:1015E000325CD8A425EF0BF0060E01013E6F05EC2E
:1015F00009F07188718471827186400E04010C6F4C
:10160000080E096F300E0A6F040E0B6F800E086F04
:101610007288728472827286400E146F080E116F87
:10162000400E126F040E136F800E106F7388738458
:1016300073827386400E1C6F080E196F500E1A6F5E
:10164000040E1B6F800E186F12000A0E325CD8A4B5
:1016500030EF0BF0030E01013E6F010E0EEF09F0AB
:101660003250D8A437EF0BF0000E0EEF09F0120045
:10167000D8906C30636FD8906333D89063336CA488
:101680004EEF0BF0D890040104310301656FD89040
:1016900065330F0E6515646F58EF0BF0D890040199
:1016A00000310301656FD89065330F0E6515646FC7
:1016B0006351D8A44DEF0CF00D0E645DD8A4D2EFA9
:1016C0000BF0666B04EE20F06651E926EF500C6ECD
:1016D00004EEF8F06651E9260C50EF6E662B080E0A
:1016E000665DD8A462EF0BF06D9822EC09F0300E25
:1016F0000401F8150301656F6551D8B42CEF0AF0A9
:10170000200E655DD8A4CCEF0BF00401F951030164
:10171000676F230E675DD8A493EF0BF0060E0101EF
:101720003E6F05EF09F0200E675DD8A49CEF0BF02B
:10173000020E01013E6F1200210E675DD8A4BDEFBD
:101740000BF0FF0E0101396F070E3C6F780E03019D
:101750008B6F040E8C6F260E8D6F8E6B8F6B01015D
:101760003C51A8EC08F0080E01013B6F030E3E6FE0
:101770003A6B0401049DC9EF08F0220E675DD8A4FE
:10178000CBEF0BF0060E01013E6F05EC09F00401F2
:10179000FA510101406F1200400E655DD8A4C8EFF8
:1017A0000CF01200090E645DD8A4F5EF0BF0030EE7
:1017B00001013E5DD8B4C9EF08F0060E3E5DD8A425
:1017C000EBEF0BF03E6B3D05D8A4C8EF0CF03F519A
:1017D0006E6E3D6B1200050E3E5DD8B41200040E15
:1017E0003E5DD8B45FEF09F01200020E645DD8A42C
:1017F0000CEF0CF0030E01013E5DD8B4C9EF08F008
:10180000040E3E5DD8B45FEF09F0060E3E5DD8A42D
:10181000C8EF0CF03E6B12006405D8A4C8EF0CF0C2
:10182000050E01013E5DD8A419EF0CF03E6B22EFCE
:1018300009F0020E3E5DD8A441EF0CF00401F9510D
:101840000301686F200E685DD8A43FEF0CF0696B50
:1018500004EE20F06951E926EF500C6E00EE26F000
:101860006951E9260C50EF6E692B070E695DD8A40B
:1018700028EF0CF0060E01013E6F05EC09F022EF97
:1018800009F0030E3E5DD8A44BEF0CF022EC09F0FA
:1018900001013E6B120022EF09F06CA474EF0CF012
:1018A000D89063356A6FD8906A37D8906A37040E3B
:1018B0006A276A29656F020E6A25656F04EE00F0DB
:1018C0006551E926EF506B6F030E6A25656F04EED4
:1018D00000F06551E926EF506C6F030E635DD8A4EC
:1018E000C8EF0CF06CEF09F0D89063356D6FD890AD
:1018F0006D37D8906D376D29656F04EE00F0655136
:10190000E926EF506E6F04EE00F06D51E926EF50BE
:101910006F6F6FBFC8EF0CF0020E6D25656F04EEA0
:1019200000F06551E926EF50706F030E6D25656F6D
:1019300004EE00F06551E926EF50716F030E635D10
:10194000D8A4C8EF0CF07051E16E7151E26E6E5187
:10195000736F746BC3EF0CF02F28726F100E725DF3
:10196000D8B4726B7251305CD8B4C2EF0CF0E65050
:10197000756F01EE61F02F50E9267551EF6E7251CF
:101980002F6E3106742B7451735DD8A4ACEF0CF03C
:101990001200A1AA1BEF0DF0A19A626B68A6D4EF0A
:1019A0000CF038EC0BF068960301622B040E625DBC
:1019B000D8A4CEEF0CF068A00DEF0DF06A6A686A4B
:1019C00001013F6B716A726A736A746A756A766A3A
:1019D000776A786A796A7A6A7B6A7C6A7D6A7E6AE3
:1019E0007F6A160E706E68A6F9EF0CF06896F3EF3A
:1019F0000CF03E6B3D6B6D98080E0401056F280ED0
:101A0000066F040E076F046B080E016F200E026F45
:101A1000040E036F8C0E006F689068BA689A68B8FD
:101A2000689868AC17EF0DF00CEC0AF0689C68A29F
:101A30001BEF0DF068921200C9EC0CF06CEF09F08E
:101A40006D6A140E6F6E6B0E696EA09A21EC0AF02F
:101A5000686A6D6A6D8612005F6F01014051030173
:101A6000606F6051D8B412002D28616F200E615D47
:101A7000D8B4616B030161512E5CD8A444EF0DF022
:101A80001CEC0DF03AEF0DF05F51E2EF09F00101AF
:101A9000405103015D6F5D51D8A452EF0DF00C90E1
:101AA00063EF0DF003EC0AF003015E930CB05E836C
:101AB0005EB35EEF0DF00C9063EF0DF0F2EC09F009
:101AC00003015C6F0C805C51120047EC0DF00301C8
:101AD0005A6F12000301596F2CEF0DF00101746B66
:101AE000756B716B12000301586F01017505D8A465
:101AF0007EEF0DF0030158516AEF0DF01200030163
:101B0000556F01017505D8A4B3EF0DF003015539E8
:101B10000F0B566F0F0E5615576FBA0EF66E000E5E
:101B2000F76E000EF86E5751F626000E0C6EF72277
:101B30000C50F8220900F5506AEC0DF00F0E03016D
:101B40005515566FBA0EF66E000EF76E000EF86E53
:101B50005651F626000E0C6EF7220C50F8220900A2
:101B6000F5506AEF0DF01200546F4604D8A4C1EF8F
:101B70000DF0010E0C6E47500D6E48500E6E1DECB0
:101B800007F001017151D8A4EBEF0DF0220E030113
:101B9000545DD8B4CFEF0DF0D8B0E4EF0DF0545150
:101BA0000101726F1E0E725DD8A4DBEF0DF0466A64
:101BB000780E73EF0DF0010E716F2D0E73EC0DF0BA
:101BC000010172517FEF0DF0230E73EC0DF0010156
:101BD00072517FEF0DF07105D8A4FDEF0DF00301F8
:101BE00054510101736F010E746F716B3D0E73ECF4
:101BF0000DF0010173517FEF0DF0020E715DD8B44D
:101C00001200716B210E73EF0DF00301526B1CEC8F
:101C10000DF065EC0DF00301526F53910CB0538140
:101C200053A116EF0EF05251B4EF0DF01200898857
:101C3000010E0101786F796B020E416EC80E766F4E
:101C4000776B12000301506F5051D8A42BEF0EF0A8
:101C5000416A898812005005D8A433EF0EF0010EB6
:101C6000416E89981200020E505DD8A447EF0EF025
:101C70000C6A010176510D6E77510E6E1DEC07F066
:101C8000020E416E010E0101786F89881200030E69
:101C9000505DD8A45CEF0EF0030E416E80A854EFA7
:101CA0000EF0519955EF0EF0518951B95AEF0EF0DF
:101CB0008998120089881200040E505DD8A464EF40
:101CC0000EF0040E416E89881200020E415CD8A409
:101CD000A4EF0EF0000E6AEC07F003014F930CB076
:101CE0004F834FA3A4EF0EF0280E0101765D77110C
:101CF000D8A492EF0EF01E0E795DD8B486EF0EF0E8
:101D0000D8B086EF0EF0792B92EF0EF0F098070E18
:101D1000346F316B326B336B356BE80E766F030EBD
:101D2000776FF0880C6A76510D6E77510E6E1DEC50
:101D300007F001017805D8A4A1EF0EF0786B89981F
:101D40001200010E786F89881200466A1200010E97
:101D5000466E12004604D8A4B6EF0EF0010E0C6ECB
:101D600047500D6E48500E6E1DEF07F012004604EE
:101D7000D8A4DFEF0EF0010E6AEC07F003014E93DA
:101D80000CB04E834EA3DFEF0EF0020E0101716F17
:101D9000F0984550D8A4D6EF0EF0070E346F316B93
:101DA000326B336B356BF088D7EF0EF0716B010E31
:101DB0000C6E47500D6E48500E6E1DEF07F012006E
:101DC0000001786B746B756BD56BD16BD26BA56BA7
:101DD000A66B0101006B016B7A6B7B6B7C6B7D6B7F
:101DE0007E6B7F6B806B816B826B836B120000015B
:101DF0007805D8A421EF0FF0742903014C6F140E5D
:101E00004C5DD8B407EF0FF0D8A008EF0FF04C6B83
:101E10004C510001755DD8B420EF0FF0D8907435A7
:101E200003014D6F00EE4AF04D51E9260001765155
:101E3000EF6EE92A7751EF6E03014C510001746F88
:101E4000786B12000001D505D8A44CEF0FF0D12912
:101E500003014A6F140E4A5DD8B432EF0FF0D8A0D8
:101E600033EF0FF04A6B4A510001D25DD8B44BEF0B
:101E70000FF0D890D13503014B6F00EEA7F04B5116
:101E8000E9260001D351EF6EE92AD451EF6E030128
:101E90004A510001D16FD56B1200020E0001A52539
:101EA0000301476F140E475DD8B45AEF0FF0D8A066
:101EB0005BEF0FF0476B47510001A65DD8B481EF8F
:101EC0000FF0D890A5350301486F00EE79F0485126
:101ED000E9264351EF6EE92A4451EF6E0001A5292E
:101EE0000301486FD8904835496F00EE79F04951A9
:101EF000E9264551EF6EE92A4651EF6E4751000140
:101F0000A56F1200010100290301416F140E415D0C
:101F1000D8B48EEF0FF0D8A08FEF0FF0416B415186
:101F20000101015DD8B4A5EF0FF0D8900035030191
:101F3000426F00EED6F04251E9263F51EF6EE92A9A
:101F40004051EF6E41510101006F120000017451C8
:101F5000755DD8A4B3EF0FF0510E03013B6F7A0EFD
:101F60003C6FD0EF0FF0D890753503013E6F00EE57
:101F70004AF03E51E926EF503B6FE92AEF503C6FA3
:101F80000001752903013D6F140E3D5DD8B4CCEFFF
:101F90000FF0D8A0CDEF0FF03D6B3D510001756FF4
:101FA00003013B510C6E3C510D6E12000001D151EA
:101FB000D25DD8A4E3EF0FF0510E0301376F7A0E14
:101FC000386F00EF10F0D890D23503013A6F00EE71
:101FD000A7F03A51E926EF50376FE92AEF50386FF2
:101FE0000001D2290301396F140E395DD8B4FCEF1A
:101FF0000FF0D8A0FDEF0FF0396B39510001D26F0F
:10200000030137510C6E38510D6E12000001A551BD
:10201000A65DD8A416EF10F001017C51806F7D51B0
:10202000816F7E51826F7F51836F1200D890A635E9
:102030000301356F00EE79F03551E926EF500101CB
:10204000806FE92AEF50816F0001A6290301356FE7
:10205000D8903535366F00EE79F03651E926EF50DD
:102060000101826FE92AEF50836F80517C6F8151AB
:102070007D6F82517E6F83517F6F020E0001A62516
:102080000301346F140E345DD8B44AEF10F0D8A0B9
:102090004BEF10F0346B34510001A66F12000101B8
:1020A0000051015DD8A45EEF10F07A510301306F4A
:1020B00001017B510301316F81EF10F0D8900135A0
:1020C0000301336F00EED6F03351E926EF50306F45
:1020D000E92AEF50316F305101017A6F030131511C
:1020E00001017B6F01290301326F140E325DD8B4F8
:1020F0007DEF10F0D8A07EEF10F0326B325101016D
:10210000016F030130510C6E31510D6E120003014D
:102110002F6F4504D8A490EF10F02F516AEF0DF007
:1021200012004504D8A49BEF10F00D0E6AEC0DF0E0
:102130000A0E6AEF0DF012004504D8A4C9EF10F0A2
:102140002E6B2B512E25F66E000E0D6E2C510D2090
:10215000F76E2D510D20F86EF89C0900F5500C6EAD
:10216000210E0C5CD8B4C9EF10F02B512E25F66E61
:10217000000E0C6E2C510C20F76E2D510C20F86EB9
:10218000F89C0900F5506AEC0DF003012E2BA1EF2D
:1021900010F012000301286F4504D8A4FCEF10F0E2
:1021A00028390F0B296F0F0E29152A6FBA0EF66EFC
:1021B000000EF76E000EF86E2A51F626000E0C6E19
:1021C000F7220C50F8220900F5506AEC0DF00F0EC2
:1021D00003012815296FBA0EF66E000EF76E000E79
:1021E000F86E2951F626000E0C6EF7220C50F822DC
:1021F0000900F5506AEF0DF012000301216F45044C
:10220000D8A465EF11F0010E4914266F2605D8A455
:1022100039EF11F02151226F300E236F300E246FF1
:10222000300E256F640E225DD8B41AEF11F0D8A0DD
:102230001FEF11F09C0E2227232B12EF11F00A0E34
:10224000225DD8B427EF11F0D8A02CEF11F0F60ED4
:102250002227242B1FEF11F02251252723516AEC4E
:102260000DF0030124516AEC0DF0030125516AEFD2
:102270000DF021390F0B266F0F0E2615276FBA0EA2
:10228000F66E000EF76E000EF86E2751F626000E61
:102290000C6EF7220C50F8220900F5506AEC0DF094
:1022A0000F0E03012115266FBA0EF66E000EF76EA3
:1022B000000EF86E2651F626000E0C6EF7220C501A
:1022C000F8220900F5506AEF0DF012004504D8A479
:1022D000F0EF11F0010E4914206F2005D8A4E4EFAF
:1022E00011F016511E6F17511F6F300E196F300EFF
:1022F0001A6F300E1B6F300E1C6F300E1D6F270EC5
:102300001F5DD8A486EF11F0100E1E5DD8B48CEFBF
:1023100011F0D8A093EF11F0F00E1E27D80E1F2356
:10232000192B7FEF11F0030E1F5DD8A49AEF11F067
:10233000E80E1E5DD8B4A0EF11F0D8A0A7EF11F001
:10234000180E1E27FC0E1F231A2B93EF11F0000E00
:102350001F5DD8A4AEEF11F0640E1E5DD8B4B4EFCB
:1023600011F0D8A0BBEF11F09C0E1E27FF0E1F230B
:102370001B2BA7EF11F0000E1F5DD8A4C2EF11F0C8
:102380000A0E1E5DD8B4C8EF11F0D8A0CFEF11F03F
:10239000F60E1E27FF0E1F231C2BBBEF11F01E5144
:1023A0001D27195187EC10F003011A5187EC10F02A
:1023B00003011B5187EC10F003011C5187EC10F056
:1023C00003011D5187EF10F017510C6E0D6A0C5070
:1023D000186FFDEC10F003011651186FFDEF10F0AF
:1023E00012008D808B828B808C848D828D848A926A
:1023F00012000101A66B1F6B966B0301156B0F0E8C
:10240000155DD8B40DEF12F0D8B00DEF12F0010148
:10241000976B0301152BFFEF11F01200136FD8908B
:102420001335146F01EE84F01451E9261151EF6E4B
:10243000E92A1251EF6E1351D8A422EF12F00101D4
:10244000968112001305D8A429EF12F0010196839A
:102450001200020E135DD8A430EF12F00101968530
:10246000120003010E6F085101018A6F0301095127
:1024700001018B6F03010A5101018C6F03010B51A4
:1024800001018D6F03010C5101018E6F03010D518C
:1024900001018F6F03010E510101906F916B0301D8
:1024A0000F510101926F936B030110510101946F61
:1024B000956B96871200D8900431066F0331056F33
:1024C000050E0C6ED890063305330C2E62EF12F019
:1024D0000F0E0515076F100E07250101976FD89095
:1024E00003010335056F0435066FD89005370637AD
:1024F000FC0E05150101986F010E1F6F010EA66FEE
:102500001200D890FF310301016F0201FE31030177
:10251000006F050E0C6ED890013300330C2E8BEF3C
:1025200012F00F0E0015026F100E02250101996FB7
:10253000D8900201FE350301006F0201FF3503014F
:10254000016FD89000370137FC0E001501019A6F1A
:10255000010E1F6F020EA66F1200D890FA31FC6FA9
:10256000F931FB6F050E0C6ED890FC33FB330C2E4B
:10257000B4EF12F00F0EFB15FD6F900EFD2501015B
:102580009B6FD8900201F935FB6FFA35FC6FD8903C
:10259000FB37FC37FC0EFB1501019C6F010E1F6F12
:1025A000030EA66F1200D890EB31F76FEA31F66F89
:1025B000050E0C6ED890F733F6330C2EDAEF12F0CE
:1025C0000F0EF615F86F900EF82501019D6FD8904B
:1025D0000201EA35F66FEB35F76FD890F637F7372B
:1025E000FC0EF61501019E6FD8900201ED31F76FD8
:1025F000EC31F66F050E0C6ED890F733F6330C2ED7
:10260000FCEF12F00F0EF615F86F900EF825010191
:102610009F6FD8900201EC35F66FED35F76FD890CB
:10262000F637F737FC0EF6150101A06FD8900201BE
:10263000EF31F76FEE31F66F050E0C6ED890F73371
:10264000F6330C2E1EEF13F00F0EF615F86F100E6A
:10265000F8250101A16FD8900201EE35F66FEF3534
:10266000F76FD890F637F737FC0EF6150101A26F19
:102670000201F051F111D8A442EF13F00101A36B54
:1026800044EF13F00101A36B0201F251F311D8A43E
:102690004EEF13F00101A46B50EF13F00101A46B96
:1026A0000201F451F511D8A45AEF13F00101A56B02
:1026B0005CEF13F00101A56B010E1F6F040EA66FF6
:1026C000120001011F51D8A4EBEF13F0010E961573
:1026D0000201E96FE905D8A47CEF13F001018451F0
:1026E0000301036F010185510301046F5BEC12F0DC
:1026F000FE0E010196171200020E0101961502014D
:10270000E96F020EE95DD8A494EF13F00101865140
:102710000201FE6F010187510201FF6F81EC12F08F
:10272000FD0E010196171200040E0101961502011B
:10273000E96F040EE95DD8A4ACEF13F001018851F4
:102740000201F96F010189510201FA6FADEC12F03B
:10275000FB0E010196171200080E010196150201E9
:10276000E96F080EE95DD8A4EBEF13F001018A517F
:102770000201EA6F01018B510201EB6F01018C51E3
:102780000201EC6F01018D510201ED6F01018E51CB
:102790000201EE6F01018F510201EF6F01019051B3
:1027A0000201F06F010191510201F16F010192519B
:1027B0000201F26F010193510201F36F0101945183
:1027C0000201F46F010195510201F56FD3EC12F093
:1027D000F70E010196171200E76FE705D8A4F9EF8D
:1027E00013F0E851D8B4F7EF13F08D8012008D90FC
:1027F0001200020EE75DD8A406EF14F0E851D8B439
:1028000004EF14F08B8212008B921200030EE75D2E
:10281000D8A413EF14F0E851D8B411EF14F08D8060
:1028200012008D901200040EE75DD8A420EF14F082
:10283000E851D8B41EEF14F08B8212008B92120074
:10284000080EE75DD8A42CEF14F0E851D8B42BEFB4
:1028500014F08B8012008B9012000201E26FE86B83
:10286000E451ECEC13F0000000000000800E0201C7
:10287000E56FE551D8B453EF14F0E551E215E66F7A
:10288000E651D8A447EF14F08B9E48EF14F08B8EDE
:10289000000000008A82000000008A92D890E53390
:1028A000000039EF14F0800EE56FE551D8B46FEFFA
:1028B00014F0E551E315E66FE651D8A463EF14F088
:1028C0008B9E64EF14F08B8E000000008A82000063
:1028D00000008A92D890E533000055EF14F0000014
:1028E0000000010EE86FE451ECEF13F00201DD6B24
:1028F000020EDE6FD890DE31E06FDD31DF6F050E46
:102900000C6ED890E033DF330C2E81EF14F00F0EF5
:10291000DF15E16F100EE1250101976FD8900201DC
:10292000DD35DF6FDE35E06FD890DF37E037FC0E46
:10293000DF150101986F0201DD6BDE6BD890DE318F
:10294000E06FDD31DF6F050E0C6ED890E033DF33C2
:102950000C2EA5EF14F00F0EDF15E16F100EE12520
:102960000101996FD8900201DD35DF6FDE35E06F30
:10297000D890DF37E037FC0EDF1501019A6F0201B6
:10298000DD6BDE6BD890DE31E06FDD31DF6F050E81
:102990000C6ED890E033DF330C2EC9EF14F00F0E1D
:1029A000DF15E16F900EE12501019B6FD8900201C8
:1029B000DD35DF6FDE35E06FD890DF37E037FC0EB6
:1029C000DF1501019C6F98510201E36F010EE46F66
:1029D000010197512DEC14F001019A510201E36FAE
:1029E000020EE46F010199512DEC14F001019C518C
:1029F0000201E36F030EE46F01019B512DEC14F013
:102A000000008C948D920000000000008C848D8268
:102A1000000012000101A651D8B41200A605D8A4E6
:102A200021EF15F098510201E36F0101A651020157
:102A3000E46F010197512DEC14F0050E0101A66F12
:102A40001200020EA65DD8A435EF15F09A510201CE
:102A5000E36F0101A6510201E46F010199512DECD0
:102A600014F0070E0101A66F1200030EA65DD8A494
:102A700049EF15F09C510201E36F0101A6510201DB
:102A8000E46F01019B512DEC14F0060E0101A66FBD
:102A90001200040EA65DD8A45DEF15F09E51020150
:102AA000E36F0101A6510201E46F01019D512DEC7C
:102AB00014F0080E0101A66F1200080EA65DD8A43E
:102AC0007DEF15F0A0510201E36F0101A651020153
:102AD000E46F01019F512DEC14F00101A25102019C
:102AE000E36F0101A6510201E46F0101A1512DEC38
:102AF00014F0090E0101A66F1200050EA65DD8A400
:102B00008BEF15F000008C940000000000008C8416
:102B100000001F6B1200060EA65DD8A499EF15F0F9
:102B200000008C940000000000008C8400001F6BEB
:102B30001200070EA65DD8A4A7EF15F000008D9235
:102B40000000000000008D8200001F6B1200090EC3
:102B5000A65DD8A4CEEF15F000008D928D940000F4
:102B6000000000008D828D84A351D8B4BBEF15F016
:102B70008A86BCEF15F08A96A451D8B4C3EF15F03D
:102B80008C8EC4EF15F08C9EA551D8B4CBEF15F008
:102B90008C8CCCEF15F08C9C00001F6B1200010197
:102BA000AB6BA76BA86BA96BAA6BAC6B1200DB6F4E
:102BB000DB05D8A4EAEF15F001010F51D8A4EAEF24
:102BC00015F00201D9510101A76F0201DA5101018B
:102BD000A86FAB81020E0201DB5DD8A4F8EF15F0FF
:102BE000D9510101A96F0201DA510101AA6FAB832A
:102BF0000201DC51D8A401EF16F0010E0101AC6F07
:102C000012000101AC6B1200D5510101A76F020146
:102C1000D6510101A86F0201D7510101A96F02012C
:102C2000D8510101AA6FAC6B030EAB131200D16F28
:102C3000020E4914D36F020ED35DD8A48FEF16F0A5
:102C4000D0510C6E0D6A0C50D26FD2390F0BD36F6E
:102C50000F0ED315D46FBA0EF66E000EF76E000E7F
:102C6000F86ED451F626000E0C6EF7220C50F822A6
:102C70000900F5506AEC0DF00F0E0201D215D36F6A
:102C8000BA0EF66E000EF76E000EF86ED351F626F1
:102C9000000E0C6EF7220C50F8220900F5506AEC79
:102CA0000DF00201CF51D26FD2390F0BD36F0F0E3F
:102CB000D315D46FBA0EF66E000EF76E000EF86ED6
:102CC000D451F626000E0C6EF7220C50F8220900A3
:102CD000F5506AEC0DF00F0E0201D215D36FBA0E4B
:102CE000F66E000EF76E000EF86ED351F626000E4B
:102CF0000C6EF7220C50F8220900F5506AEC0DF02A
:102D0000200E0201D15DD8A489EF16F0200E6AEFE3
:102D10000DF00D0E6AEC0DF00A0E6AEF0DF0D051B9
:102D20000C6E0D6A0C50D26F6AEC0DF00201CF519F
:102D3000D26F6AEC0DF00D0E0201D15DD8A4A7EFA1
:102D400016F00D0E6AEC0DF00A0E6AEF0DF012008F
:102D50004504D8A4C9EF16F0770E0201CF6FD06FEB
:102D6000200E17EC16F00101A7510201CF6F0101EF
:102D7000A8510201D06F200E17EC16F00101A951E5
:102D80000201CF6F0101AA510201D06F0D0E17EFA2
:102D900016F012000101AC05D8A4D2EF16F0AC6B0E
:102DA000A8EF16F02251D8B4EBEF16F0030E6AEC40
:102DB00007F00201CE950CB0CE85CEA5EBEF16F054
:102DC000A8EC16F0030E0C6E010124510D6E255176
:102DD0000E6E1DEF07F012000F0E0101AD6F270EF2
:102DE000AE6F1200C751800A0C6E800E0C5CD8A426
:102DF000FCEF16F0000EC65DD8B402EF17F0D8A0B5
:102E000008EF17F0C651C86FC751C96F0FEF17F021
:102E1000C61DC86FC71DC96FC82BD8B4C92BD890A1
:102E2000C835CC6FC935CD6FCA0EF66E000EF76E81
:102E3000000EF86ECC51F626CD51F722000E0C6E26
:102E4000F8220900F550CA6F0900F550CB6FCA513E
:102E50000C6ECB510D6E120001010205D8A45DEF7E
:102E600017F00201C251C66FC351C76FF2EC16F0E2
:102E70000C500201C46F0D50C56FC351800A0C6E17
:102E8000800E0C5CD8A447EF17F0000EC25DD8B4DA
:102E90004DEF17F0D8A053EF17F0FF0EC427030E25
:102EA000C52358EF17F0D880FF0EC457030EC5573F
:102EB000D890C533C43367EF17F0FF0E0201C22567
:102EC000C46F030EC321C56FD890C533C433030E3E
:102ED000C55DD8A46EEF17F0FF0EC45DD8B478EFCF
:102EE00017F0D8A078EF17F0FF0EC46F030EC56F70
:102EF000C4510301116F0201C5510301126F010E8C
:102F00000EEF12F0BF6F01010205D8A4ABEF17F06E
:102F10000201BD51C66FBE51C76FF2EC16F00C50E6
:102F20000201C06F0D50C16FBE51800A0C6E800E41
:102F30000C5CD8A49EEF17F0000EBD5DD8B4B0EFC6
:102F400017F0D8B0B0EF17F0C01FC11FC02BD8B416
:102F5000C12BB0EF17F00201BD51C06FBE51C16F60
:102F6000C051D96FC151DA6FBF51DC6F010ED7EF7D
:102F700015F04FEC10F00C500201BB6F0D50BC6F00
:102F8000BB510101AD5D0C6E0201BC510101AE5D92
:102F90000C10D8B4D3EF17F00201BB51C26FBC5173
:102FA000C36F2CEC17F001012205D8A4E7EF17F04E
:102FB0002005D8A40EEF18F0206B0201BB51BD6FA5
:102FC000BC51BE6F000E82EC17F00EEF18F0030E2E
:102FD000225DD8A401EF18F0AD510201BB5D0C6E6B
:102FE0000101AE510201BC5D0C10D8B40EEF18F017
:102FF000BB51BD6FBC51BE6F010E82EC17F00EEFDE
:1030000018F0020E225DD8A40EEF18F00201BB5199
:10301000BD6FBC51BE6F010E82EC17F00201BB51B7
:103020000101AD6F0201BC510101AE6F12000F0E24
:103030000101AF6F270EB06FB16BB26BB36B1200B3
:10304000AA51AB11D8A44EEF18F0A95101010C5DA3
:10305000D8A42FEF18F00201A85101010B5DD8B4DC
:103060003EEF18F0D8A03EEF18F0010E0201B66F47
:10307000A851AC6FA951AD6F7CEF18F0020E0201A0
:10308000B66FD880A85101010B550201AC6FA95150
:1030900001010C550201AD6F7CEF18F0A95101013F
:1030A0000C5DD8A458EF18F00201A85101010B5D86
:1030B000D8B46EEF18F0D8A06EEF18F0040E02012D
:1030C000B66FD88001010B510201A855AC6F010108
:1030D0000C510201A955AD6F7CEF18F0030E0201EF
:1030E000B66FD88001010D510201A855AC6F0101E6
:1030F0000E510201A955AD6FD890AD31AF6FAC3113
:10310000AE6FD890AC35B76FAD35B86F030E006EAB
:10311000D890B737B837002E88EF18F0D890AC3574
:10312000B96FAD35BA6FD890B937BA37B751B9253D
:10313000B06FB851BA21B16F030E01010A5DD8A476
:10314000A4EF18F0200E095DD8B4AFEF18F0D8B096
:10315000AFEF18F00201AE51B027AF51B123030E0B
:1031600001010A5DD8A4B7EF18F00D0E095DD8B4BF
:10317000C2EF18F0D8B0C2EF18F00201AE51B0277C
:10318000AF51B123020E01010A5DD8A4CAEF18F0B5
:10319000FB0E095DD8B4D5EF18F0D8B0D5EF18F014
:1031A0000201AE51B027AF51B123020E01010A5DF9
:1031B000D8A4DDEF18F0E90E095DD8B4E8EF18F0F7
:1031C000D8B0E8EF18F00201AE51B027AF51B123EB
:1031D000020E01010A5DD8A4F0EF18F0D90E095DC6
:1031E000D8B4FBEF18F0D8B0FBEF18F00201AE51E5
:1031F000B027AF51B123020E01010A5DD8A403EF3D
:1032000019F0C90E095DD8B40EEF19F0D8B00EEF61
:1032100019F00201AE51B027AF51B123020E0101E6
:103220000A5DD8A416EF19F0BA0E095DD8B421EFE3
:1032300019F0D8B021EF19F00201AE51B027AF510B
:10324000B123020E01010A5DD8A429EF19F0AB0EDB
:10325000095DD8B434EF19F0D8B034EF19F0020199
:10326000AE51B027AF51B123020E01010A5DD8A4BF
:103270003CEF19F09D0E095DD8B447EF19F0D8B0B6
:1032800047EF19F00201AE51B027AF51B123020E42
:1032900001010A5DD8A44FEF19F0900E095DD8B472
:1032A0005AEF19F0D8B05AEF19F00201AE51B02719
:1032B000AF51B123020E01010A5DD8A462EF19F0EB
:1032C000830E095DD8B46DEF19F0D8B06DEF19F029
:1032D0000201AE51B027AF51B123020E01010A5DC8
:1032E000D8A475EF19F0770E095DD8B480EF19F006
:1032F000D8B080EF19F00201AE51B027AF51B12321
:10330000020E01010A5DD8A488EF19F06B0E095D69
:10331000D8B493EF19F0D8B093EF19F00201AE5181
:10332000B027AF51B123020E01010A5DD8A49BEF73
:1033300019F05F0E095DD8B4A6EF19F0D8B0A6EF6A
:1033400019F00201AE51B027AF51B123D89002015C
:10335000B131B36FB031B26F040E0C6ED890B3338D
:10336000B2330C2EAEEF19F0020EB65DD8A4C1EF49
:1033700019F0000EB225B46F040EB321B56FDFEF64
:1033800019F0030EB65DD8A4CEEF19F0000EB225E9
:10339000B46F080EB321B56FDFEF19F0040EB65D00
:1033A000D8A4DBEF19F0000EB225B46F0C0EB321D8
:1033B000B56FDFEF19F0B251B46FB351B56F0101C2
:1033C000B305D8A473EF1AF0CC0E03012B6F080ECF
:1033D0002C6F000E40092D6F9CEC10F0010109517B
:1033E0000301166F01010A510301176F66EC11F01A
:1033F0002F0E87EC10F001010B510301166F010134
:103400000C510301176F66EC11F02F0E87EC10F0D2
:1034100001010D510301166F01010E510301176FD8
:1034200066EC11F0D40E03012B6F080E2C6F000E0A
:1034300040092D6F9CEC10F00201B651FDEC10F02C
:10344000DC0E03012B6F080E2C6F000E40092D6F50
:103450009CEC10F00201AC510301166F0201AD515A
:103460000301176F66EC11F0E40E03012B6F080ED9
:103470002C6F000E40092D6F9CEC10F00201B05132
:103480000301166F0201B1510301176F66EC11F0D1
:10349000EA0E03012B6F080E2C6F000E40092D6FF2
:1034A0009CEC10F00201B2510301166F0201B351FE
:1034B0000301176F66EC11F0F20E03012B6F080E7B
:1034C0002C6F000E40092D6F9CEC10F00201B451DE
:1034D0000301166F0201B5510301176F66EC11F07D
:1034E000200E87EC10F00201B4510C6EB5510D6E38
:1034F00012009A519B11D8A484EF1AF098519E6F34
:1035000099519F6F94EF1AF0D89001010D35020187
:10351000A26F01010E350201A36FD880A251985508
:103520009E6FA35199559F6FD8909E35A26F9F357E
:10353000A36FD890A237A337D890A237A337A25150
:103540009E25A46FA3519F21A56FA4519E25A06F16
:10355000A5519F21A16F030E01010A5DD8A4B3EF0D
:103560001AF00D0E095DD8B4D0EF1AF0D8B0D0EF34
:103570001AF0000E02019F5DD8A4C1EF1AF0010EEF
:103580009E5DA695D8B4C7EF1AF0D8B0A685000EF8
:10359000A6B5010E0C6E0D6A0C50A0270D50A1238C
:1035A000020E01010A5DD8A4D8EF1AF0E90E095DF8
:1035B000D8B4F5EF1AF0D8B0F5EF1AF0000E02010A
:1035C0009F5DD8A4E6EF1AF0010E9E5DA699D8B4CF
:1035D000ECEF1AF0D8B0A689000EA6B9010E0C6E59
:1035E0000D6A0C50A0270D50A123020E01010A5DA7
:1035F000D8A4FDEF1AF0C90E095DD8B41AEF1BF07C
:10360000D8B01AEF1BF0000E02019F5DD8A40BEF9B
:103610001BF0010E9E5DA69DD8B411EF1BF0D8B033
:10362000A68D000EA6BD010E0C6E0D6A0C50A027D3
:103630000D50A123020E01010A5DD8A422EF1BF058
:10364000AB0E095DD8B43FEF1BF0D8B03FEF1BF0D5
:10365000000E02019F5DD8A430EF1BF0010E9E5DAD
:10366000A791D8B436EF1BF0D8B0A781000EA7B150
:10367000010E0C6E0D6A0C50A0270D50A123D8909E
:103680000201A1319D6FA0319C6F050E0C6ED89088
:103690009D339C330C2E47EF1BF09C510301116F9F
:1036A00002019D510301126F020E0EEF12F0936F93
:1036B00001010505D8A46FEF1BF002018F51A86F1F
:1036C0009051A96F9151AA6F9251AB6F20EC18F0F5
:1036D0000C500201946F0D50956F9CEF1BF0060586
:1036E000D8A480EF1BF002018F51946F9051956F19
:1036F00091059211D8A49CEF1BF0958F9CEF1BF0C5
:10370000020191519211D8A48CEF1BF08F51946F4C
:103710009051956F9CEF1BF0D89001010D3502017F
:10372000966F01010E350201976FD88096518F5523
:10373000946F97519055956F0101B305D8A4B8EFD8
:103740001BF0FA0E03012B6F080E2C6F000E4009C0
:103750002D6F9CEC10F0020194510301166F0201D1
:1037600095510301176F66EC11F0200E87EC10F0F5
:103770000101B351D8A4C7EF1BF002019451D96FD6
:103780009551DA6F9351DC6F020ED7EF15F01200EE
:1037900006EC10F001010F51D8A4B0EF1CF0B305F6
:1037A000D8A4F4EF1BF0020E03012B6F090E2C6F4F
:1037B000000E40092D6F9CEC10F0010180510301B7
:1037C000166F010181510301176F66EC11F02F0E86
:1037D00087EC10F0010182510301166F0101835142
:1037E0000301176F66EC11F001018051AF5D0C6EA3
:1037F0008151B05D0C1002018D95D8A48D85010119
:103800008251B15D0C6E8351B25D0C1002018D9737
:10381000D8A48D878D998DA58DB78D898DA923EF1E
:103820001CF0010180510201986F010181510201D8
:10383000996F0101825102019A6F010183510201C6
:103840009B6F79EC1AF00101B305D8A43CEF1CF092
:10385000805102018F6F010181510201906F0101BE
:1038600082510201916F010183510201926F000E9A
:1038700057EC1BF00101B36B2205D8A459EF1CF0E3
:103880002105D8A4A6EF1CF0216B805102018F6F97
:10389000010181510201906F010182510201916F7A
:1038A000010183510201926F000E57EC1BF0A6EF4D
:1038B0001CF0030E225DD8A48FEF1CF08051AF5D89
:1038C0000C6E8151B05D0C1002018E93D8A48E83D2
:1038D00001018251B15D0C6E8351B25D0C10020189
:1038E0008E95D8A48E858E978EA38EB58E878EA743
:1038F000A6EF1CF00101805102018F6F010181517F
:103900000201906F010182510201916F0101835107
:103910000201926F010E57EC1BF0A6EF1CF0020E95
:10392000225DD8A4A6EF1CF0805102018F6F010127
:1039300081510201906F010182510201916F0101D9
:1039400083510201926F010E57EC1BF0010180516F
:10395000AF6F8151B06F8251B16F8351B26F12005E
:1039600080510201D56F010181510201D66F010121
:1039700082510201D76F010183510201D86F04EF18
:1039800016F0020E865DD8A4C8EF1CF0000E855D0F
:10399000D8B4D7EF1CF0D8B0D7EF1CF08551876FA3
:1039A0008651886F010E0101B66FF1EF1CF0D880CF
:1039B000000E85558B6F040E86558C6FD880000ED7
:1039C0008B55876F020E8C55886F87510C6E020ED7
:1039D000885D0C10D8A4EFEF1CF0876B886B010199
:1039E000B66BD890020187358B6F88358C6F0C0EC3
:1039F000F66E090EF76E000EF86E8B51F6268C519E
:103A0000F722000E0C6EF8220900F550896F0900AC
:103A1000F5508A6FD880FF0E89550101B46F030EEF
:103A200002018A550101B56F12007D510101102577
:103A300002017F6F7E51010111210201806F7D51D2
:103A4000010112250201816F7E5101011321020142
:103A5000826F7D51010114250201836F7E510101A6
:103A600015210201846F040E805DD8A43AEF1DF089
:103A7000000E7F5DD8B440EF1DF0D8A044EF1DF0DC
:103A8000000E7F27FC0E8023040E825DD8A44BEF2E
:103A90001DF0000E815DD8B451EF1DF0D8A055EF98
:103AA0001DF0000E8127FC0E8223040E845DD8A435
:103AB0005CEF1DF0000E835DD8B462EF1DF0D8A05E
:103AC00066EF1DF0000E8327FC0E84237F51856F67
:103AD0008051866FC1EC1CF00101B451166FB551D5
:103AE000176FB6511C6F02018151856F8251866F2D
:103AF000C1EC1CF00101B451186FB551196FB651EA
:103B00001D6F02018351856F8451866FC1EC1CF0DB
:103B10000101B4511A6FB5511B6FB6511E6F16518A
:103B20000301086F010117510301096F01011851C9
:103B300003010A6F0101195103010B6F01011A51B1
:103B400003010C6F01011B5103010D6F01011D5198
:103B500003010F6F01011E510301106F01011C5180
:103B600031EF12F0D6EC0FF00C5002017B6F0D50CC
:103B70007C6F510E7B5D0C6E7A0E7C5D0C10D8B4A0
:103B8000C8EF1DF07B517D6F7C517E6F15EF1DF0EE
:103B90001200A6EC0FF00C500201796F0D507A6FF5
:103BA000510E795D0C6E7A0E7A5D0C10D8B4E3EF8D
:103BB0001DF079510301116F02017A510301126F57
:103BC000000E0EEF12F012003F50D8A4EFEF1DF0E0
:103BD00040500001766F776B010E786F12003F0442
:103BE000D8A403EF1EF0405002016D6F6E6B000E03
:103BF0006D250001766F010E02016E210001776FC5
:103C0000010E786F1200020E3F5CD8A418EF1EF070
:103C1000405002016D6F6E6B000E6D250001766FD6
:103C2000020E02016E210001776F010E786F120003
:103C3000030E3F5CD8A42DEF1EF0405002016D6FC3
:103C40006E6B000E6D250001766F030E02016E2172
:103C50000001776F010E786F1200040E3F5CD8A44C
:103C60003BEF1EF04050D8B48A9A4004D8A476EFB7
:103C700021F08A8A1200050E3F5CD8A456EF1EF090
:103C8000030E401402016C6F6C05D8A44BEF1EF0BC
:103C90008A888A9C1200020E6C5DD8A453EF1EF035
:103CA0008A988A8C12008A988A9C12000D0E3F5CBA
:103CB000D8A488EF1EF04050D8A461EF1EF0226B0C
:103CC00012004004D8A468EF1EF0010E226F12000B
:103CD000020E405CD8A477EF1EF0020E226F030E96
:103CE0000C6E24510D6E25510E6E1DEF07F0030E64
:103CF000405CD8A486EF1EF0030E226F030E0C6EFC
:103D000024510D6E25510E6E1DEF07F0226B12002F
:103D10000E0E3F5CD8A4A6EF1EF0405002016D6F5E
:103D20006E6BD8906D350101246F02016E35010173
:103D3000256FD8902437253724512511D8A476EF44
:103D400021F0C80E246F256B226B1200090E3F5C18
:103D5000D8A4AEEF1EF0010E216F1200060E3F5CDC
:103D6000D8A4B6EF1EF0010E206F1200070E3F5CC4
:103D7000D8A4C5EF1EF04050D8B4026B4004D8A4BC
:103D800076EF21F0010E026F1200080E3F5CD8A4FE
:103D9000D7EF1EF07F0E401402016D6F6E6B6D51F8
:103DA0000101036F02016E510101046F12000A0E3E
:103DB0003F5CD8A4F2EF1EF04050D8A4E2EF1EF012
:103DC000056B066B4004D8A4E9EF1EF0010E056FE9
:103DD000066B020E405CD8A476EF21F0056B010E55
:103DE000066F12000B0E3F5CD8A404EF1FF07F0E8D
:103DF000401402016D6F6E6B6D510101076F02017E
:103E00006E510101086F12000C0E3F5CD8A426EF22
:103E10001FF0405002016D6F6E6BD8906D3501013F
:103E2000096F02016E3501010A6FD89009370A3710
:103E3000D89009350B6F0A350C6FD89009350D6F86
:103E40000A350E6FD8900D370E3712000F0E3F5CFB
:103E5000D8A45EEF1FF04004D8A43DEF1FF0010E80
:103E60000F6F2251236F020E226F030E0C6E24512E
:103E70000D6E25510E6E1DEF07F00F6B2351226F53
:103E8000020E225D0201729FD8B4728F030E0101EF
:103E9000225D02017391D8B47381739372AF73B1D1
:103EA000738373A35DEF1FF0030E0C6E01012451A9
:103EB0000D6E25510E6E1DEF07F01200170E3F5CC0
:103EC000D8A46CEF1FF04050D8B48C904004D8A414
:103ED00076EF21F08C801200180E3F5CD8A47AEFA8
:103EE0001FF04050D8B48C924004D8A476EF21F053
:103EF0008C821200190E3F5CD8A488EF1FF040504E
:103F0000D8B48A9E4004D8A476EF21F08A8E12009D
:103F1000100E3F5CD8A494EF1FF040500001D36F07
:103F2000D46B010ED56F1200110E3F5CD8A4A9EF1F
:103F30001FF0405002016D6F6E6B000E6D25000189
:103F4000D36F010E02016E210001D46F010ED56FF7
:103F50001200120E3F5CD8A4BEEF1FF040500201C9
:103F60006D6F6E6B000E6D250001D36F020E0201A6
:103F70006E210001D46F010ED56F1200130E3F5C4D
:103F8000D8A4D3EF1FF0405002016D6F6E6B000E8E
:103F90006D250001D36F030E02016E210001D46F65
:103FA000010ED56F1200140E3F5CD8A4DCEF1FF099
:103FB0004050B96FBA6B1200150E3F5CD8A4EFEFFA
:103FC0001FF0030E401402016D6F6E6B6D51010105
:103FD000B86FB76BB951B727BA51B8231200160E94
:103FE0003F5CD8A41EEF20F0010E401402016D6F5B
:103FF0006D05D8A402EF20F00101B751106FB85140
:10400000116F1200020E40146D6F020E6D5DD8A488
:1040100010EF20F00101B751126FB851136F120069
:10402000040E40146D6F040E6D5DD8A41DEF20F0DA
:104030000101B751146FB851156F12001A0E3F5C91
:10404000D8A435EF20F0D880FF0E405402016D6FE8
:104050006E6BD8906D350101166F02016E3501014E
:10406000176FD8901637173712001B0E3F5CD8A475
:104070004CEF20F0D880FF0E405402016D6F6E6B44
:10408000D8906D350101186F02016E350101196F6D
:10409000D8901837193712001C0E3F5CD8A463EF74
:1040A00020F0D880FF0E405402016D6F6E6BD890E7
:1040B0006D3501011A6F02016E3501011B6FD89039
:1040C0001A371B3712001D0E3F5CD8A4A0EF20F05A
:1040D000010E40141C6F020E401402016D6FD89047
:1040E0006D3101011D6F040E401402016D6FD890F7
:1040F0006D3101011E6FD8901E3316510301086FF8
:10410000010117510301096F0101185103010A6FE1
:104110000101195103010B6F01011A5103010C6FC9
:1041200001011B5103010D6F01011D5103010F6FAF
:1041300001011E510301106F01011C5131EF12F0FA
:104140001E0E3F5CD8B4A5EF0EF01F0E3F5CD8A446
:10415000DBEF20F03F0E401402016D6F6D51D8A4CB
:10416000B7EF20F0140E476E486ABFEF20F03F0E05
:1041700040146D6F6E6B6D51476E6E51486EC00E80
:1041800040146D6F800E6D5DD8A4D1EF20F0010E4C
:104190000C6E47500D6E48500E6E1DEC07F0A7ECEC
:1041A0000EF0C00E401402016D6F6D51D8A476EF71
:1041B00021F0A5EF0EF0200E3F5CD8A4E9EF20F02F
:1041C000280E765D7711D8B476EF21F0405022EFBB
:1041D0000EF0210E3F5CD8A43CEF21F04504D8A49A
:1041E00076EF21F0480E6AEC0DF0530E6AEC0DF0FC
:1041F000490E6AEC0DF0230E6AEC0DF0320E6AECFB
:104200000DF0200E6AEC0DF0760E6AEC0DF0300E1B
:104210006AEC0DF02E0E6AEC0DF0310E6AEC0DF02A
:10422000200E6AEC0DF0240E6AEC0DF0340E020143
:104230006C6F390E6C5DD8B423EF21F0D8A023EF5A
:1042400021F0070E6C276C516AEC0DF0390E02015B
:104250006C6F390E6C5DD8B433EF21F0D8A033EF1A
:1042600021F0070E6C276C516AEC0DF00D0E6AEC14
:104270000DF00A0E6AEF0DF0220E3F5CD8A454EF49
:1042800021F04504D8A476EF21F04E0E405CD8A46E
:104290004CEF21F0756B1200590E405CD8A453EF1F
:1042A00021F0010E756F1200230E3F5CD8A476EF4B
:1042B00021F091EC10F00E0E03012B6F0D0E2C6F00
:1042C000000E40092D6F9CEC10F04950CAEC10F024
:1042D000100E03012B6F0D0E2C6F000E40092D6F79
:1042E0009CEC10F04050496ECAEF10F01200E06AEA
:1042F000F29EC26A0F0EC16EC06A070EB46EF26AF9
:10430000F1EC11F00BEC08F06EEC0DF0496A17ECD3
:104310000EF00C6A010176510D6E77510E6E1DEC98
:1043200007F0DDEF21F0686F6BB19AEF21F0C09ECE
:104330009BEF21F0C08E68350C6E0C363C0E0C16CF
:10434000C30EC2140C10C26EC2800101BC51E3EC5A
:1043500006F0C282C2B2AAEF21F0C45002016A6F15
:10436000C350696F810E0101BB5DD8B4BBEF21F072
:10437000D8A0CAEF21F000010B0E0C6EB40E0D6E2A
:104380000D2EC0EF21F00C2EBEEF21F0000000003A
:10439000D0EF21F000013F0E0C6E0C2ECDEF21F07E
:1043A000C290020169510C6E6A510D6E1200020139
:1043B000656F6B81655193EF21F0870E0101E9175D
:1043C000928492829280870EE9156009E96FE93143
:1043D0000E6EE8310D6E0E320D320E320D320D5072
:1043E0000C6E0F0E0C160F0E0C140D6EF00EC11489
:1043F0000D10C16EEB6BEB390C6E300E0C16CF0E40
:10440000C1140C10C16E080EEC6FED6B0D0EEC6F4D
:10441000ED6BF80EC0140609C06EEC51BB6FC70EF1
:10442000C016150EBC6FD2EF25F00101E16BBE6B1B
:104430000F0EDF6F270EE06FE80EE26F030EE36FE3
:10444000E46BE56B0201616B100E615DD8B44DEF5A
:1044500022F0D8B04DEF22F0D8906135626F02EEB5
:1044600000F06251E926EF6AE92AEF6AD8906135D7
:10447000626F02EE20F06251E926EF6AE92AEF6AE4
:10448000D8906135626F01EEBFF06251E926EF6AA4
:10449000E92AEF6A612B24EF22F00101BD6B1200C3
:1044A000D8900101E13502015C6F02EE00F05C5131
:1044B000E9264851EF6EE92A4951EF6ED890010183
:1044C000E13502015C6F02EE20F05C51E9264A51B1
:1044D000EF6EE92A4B51EF6E0101E12902015C6F99
:1044E0000F0E5C150101E16FE151D8A4E4EF23F058
:1044F00002014C6B4E6B4D6B100E4C5DD8B49CEFB3
:1045000022F0D8B09CEF22F0D8904C355C6F02EED0
:1045100020F05C51E926EF500C6EE92AEF500D6E49
:104520000C040D10D8A498EF22F04D2B99EF22F037
:104530004E2B4C2B7CEF22F04D514E5DD8B4A9EFA1
:1045400022F0D8B0A9EF22F0010E526F536BABEFFF
:1045500022F0526B536B4C6B546B556B566B576B15
:10456000100E4C5DD8B4F0EF22F0D8B0F0EF22F08E
:10457000D8904C355C6F02EE20F05C51E926EF508C
:104580000C6EE92AEF500D6E0C50525D0E6E0D5000
:10459000535D0E10D8A4EDEF22F0000E575DD8A4A5
:1045A000D4EF22F0040E565DD8B4EDEF22F0D8B06F
:1045B000EDEF22F0D8904C355D6F02EE00F05D51CA
:1045C000E926EF500C6EE92AEF500D6E0C5054277F
:1045D0000D505523562BD8B4572B4C2BB0EF22F04F
:1045E000D89055335433D890553354334C6B506B6B
:1045F000516B100E4C5DD8B42FEF23F0D8B02FEFD5
:1046000023F0D8904C355C6F02EE20F05C51E92627
:10461000EF500C6EE92AEF500D6E0C50525D0E6E8D
:104620000D50535D0E10D8A428EF23F0D8904C35D0
:104630005D6F02EE00F05D51E926EF500C6EE92A45
:10464000EF500D6E0C5050270D5051232CEF23F0DE
:1046500054515027555151234C2BF9EF22F0040EA1
:104660000C6ED890513350330C2E31EF23F0010EE5
:104670004F6F800E01010D2502015C6FFF0E0101DD
:104680000E2102015D6F0101E35102015D5DD8A4BD
:104690004EEF23F00101E25102015C5D5F93D8B45B
:1046A00054EF23F0D8B05F83000E0101E35DD8A47E
:1046B0005CEF23F07F0EE25D02015F95D8B463EFFB
:1046C00023F0D8B05F855F875FB35FA55F975FA773
:1046D000B2EF23F0D8800101E25107550201586F73
:1046E0000101E35108550201596F0101E25107250B
:1046F00002015A6F0101E351082102015B6F515120
:10470000595DD8A486EF23F05051585D5F99D8B415
:104710008CEF23F0D8A05F8951515B5DD8A493EF53
:1047200023F050515A5D5F9BD8B499EF23F0D8B075
:104730005F8B5F8D5FB95FAB5F9D0101E45102014B
:10474000525D0C6E0101E5510201535D0C105F9F3B
:10475000D8B45F8F60815FBD5FAF609160A1B2EF41
:1047600023F04F6B01017505D8A4BEEF23F021059E
:10477000D8A4BEEF23F0216B010EB36F02014F05E9
:10478000D8A4E4EF23F050510101E26F020151512E
:104790000101E36F020152510101E46F0201535123
:1047A0000101E56F020150510301436F02015151B4
:1047B0000301446F020152510301456F020153513D
:1047C0000301466F4DEF0FF01200D890BE35020185
:1047D000466F01EEBFF04651E9260101FC51EF6E34
:1047E000E92AFD51EF6EBE290201466F0F0E4615F4
:1047F0000101BE6FFE6B0201406B416B100E0101A7
:10480000FE5DD8B41CEF24F0D8B01CEF24F0D89093
:10481000FE350201466F01EEBFF04651E926EF502A
:104820000C6EE92AEF500D6E0C5040270D504123BD
:104830000101FE2BFEEF23F0040E0C6ED890020156
:1048400041BFD880413340330C2E1EEF24F0FF0EC1
:10485000446F030E456F0101FF6BDF510325020119
:10486000426F0101E05104210201436F4551800A6A
:104870000C6E4351800A0C5CD8A441EF24F04251E5
:10488000445DD8B44BEF24F0D8B04BEF24F0445142
:10489000426F4551436F4351800A0C6E4151800A6B
:1048A0000C5CD8A456EF24F04051425DD8B45CEFC4
:1048B00024F0D8B05FEF24F0010E0101FF6F010179
:1048C000FF51D8A4A1EF24F0D880DF510355020195
:1048D000426F0101E05104550201436F441D466FD0
:1048E000451D476F462BD8B4472B4751800A0C6EA5
:1048F0004351800A0C5CD8A480EF24F04251465DFD
:10490000D8B48DEF24F0D8A08DEF24F0441D426F71
:10491000451D436F422BD8B4432B4351800A0C6E84
:104920004151800A0C5CD8A498EF24F04051425DBC
:10493000D8B49EEF24F0D8A0A1EF24F0010E01011D
:10494000FF6F0101FF05D8A4B8EF24F00201405128
:104950000101DF6F020141510101E06F020140518D
:1049600003013F6F020141510301406F82EF0FF0DD
:104970001200020E6AEC07F00101FA910CB0FA8104
:10498000FAA1D1EF25F0BD51D8A49EEF25F0010E7C
:10499000BD6F83A686EF25F0010ED7EC21F00C50F9
:1049A0000101F06F0D50F16F020ED7EC21F00C50A9
:1049B0000101F26F0D50F36F0F51D8A473EF25F082
:1049C00083A822EF25F0F66BF76B82AC04EF25F09D
:1049D000F1510A5DD8A4EFEF24F0F051095DD8B48D
:1049E000FBEF24F0D8A0FBEF24F0F051F46FF1516D
:1049F000F56F60EF25F0D8800B51F255F46F0C5134
:104A0000F355F56F60EF25F0F3510A5DD8A40BEF75
:104A100025F0F251095DD8B419EF25F0D8A019EFAF
:104A200025F00B51F225F46F0C51F321F56F60EF77
:104A300025F0D8800D51F055F46F0E51F155F56FFA
:104A400060EF25F0010EF66FF76B82AC46EF25F0B4
:104A5000F1510A5DD8A42FEF25F0F051095DD8B4CB
:104A60003EEF25F0D8A03EEF25F0D8800D51F0554F
:104A7000F46F0E51F155F56F60EF25F00B51F225F3
:104A8000F46F0C51F321F56F60EF25F0F3510A5DDF
:104A9000D8A44DEF25F0F251095DD8B45CEF25F0B4
:104AA000D8A05CEF25F0D8800B51F255F46F0C5173
:104AB000F355F56F60EF25F0F051F46FF151F56F9C
:104AC000F4510201486F0101F5510201496F0101E2
:104AD000F65102014A6F0101F75102014B6F50EC90
:104AE00022F0CAEF25F0F0510301436F0101F151AB
:104AF0000301446F0101F2510301456F0101F351BC
:104B00000301466F4DEC0FF0CAEF25F0F46BF56B27
:104B1000010EF66FF76BF4510201486F0101F55178
:104B20000201496F0101F65102014A6F0101F7517B
:104B300002014B6F50EC22F0CAEF25F0BD6B83A64B
:104B4000C2EF25F0000ED7EC21F00C500101EE6F02
:104B50000D50EF6F83BAB3EF25F0EE51F86FEF51C0
:104B6000F96FBAEF25F0EE1DF86FEF1DF96FF82B16
:104B7000D8B4F92BF851FC6FF951FD6FE5EC23F037
:104B8000CAEF25F0F86BF96BF851FC6FF951FD6F26
:104B9000E5EC23F0020E0C6E0A0E0D6E0E6A1DEF90
:104BA00007F012008A9A8A988A9C166B176B186B0A
:104BB000196B1A6B1B6B1C6B1D6B1E6B9C0E106FA5
:104BC000116BF10E126F010E136F460E146F030E70
:104BD000156F0001D36BD46B0101026B010E036FE3
:104BE000046B056B066B010E076F086B206B216B66
:104BF000226B236BC80E246F256BC40E096F020E47
:104C00000A6FD89009350B6F0A350C6FD8900935AB
:104C10000D6F0A350E6FD8900D370E370F6BE0EC25
:104C20000EF015EC22F0F9EC11F0ECEC16F017ECAC
:104C300018F0CFEC15F0436A446AD09EF188F092E8
:104C400094EC07F0F28EF28C010E456E020E416E6E
:104C5000C80E0101766F776B010E426E466AF098BE
:104C6000140E476E486AAAEC0EF0020E0C6E0A0E85
:104C70000D6E0E6A1DEC07F076EC14F002017D6BF0
:104C80007E6B15EC1DF04204D8A46CEF26F065ECA9
:104C90000EF00EEC07F00C500101E66F0D50E76FBF
:104CA000E651435C0C6EE751445C0C10D8B443EF02
:104CB00026F00EEC07F00C50436E0D50446E82A4AB
:104CC00043EF26F0426A20EC0DF0F40E0101766FFE
:104CD000010E776F43EF26F04504D8A4A2EF26F02B
:104CE00082A496EF26F005EC0EF001017405D8A41D
:104CF000C7EF26F0746B72513F6E7351406E030E16
:104D0000415CD8A492EF26F080A88AEF26F0E89DB7
:104D10008BEF26F0E88DE8BD91EF26F0899892EFB1
:104D200026F08988E4EC1DF0C7EF26F0010E426EF4
:104D3000C80E0101766F776B020E416E436A446ABA
:104D4000C7EF26F0280E0101765D7711D8B4C7EFC2
:104D500026F03605D8A4C7EF26F0366B37513F6EE4
:104D60003851406E030E415CD8A4C5EF26F080A8F0
:104D7000BDEF26F0E995BEEF26F0E985E9B5C4EF71
:104D800026F08998C5EF26F08988E4EC1DF065ECE3
:104D90000EF0B7EC0EF0B9EC24F0F7EC0EF022ECCC
:104DA0000FF0C9EC1DF0B2EC1DF0C8EC1BF0B9EC33
:104DB00017F061EC13F00AEC15F0CAEC16F043EFB3
:104DC00026F0F0A2B3EF07F0A3EC08F0B3EF07F082
:020000040030CA
:0E0000002C0E3E1E008580000FC00FE00F404A
:00000001FF
