:020000040000FA
:040000009AEF02F081
:080008007DEF02F0120100027D
:1000100002000008D8040A000100010200010902E0
:1000200043000201008032090400000102020100C5
:100030000524001001042402020524060001052401
:100040000100010705820308000209040100020AF9
:1000500000000007050302080000070583020800EE
:1000600000000403090436034D00690063007200B8
:100070006F00630068006900700020005400650094
:10008000630068006E006F006C006F00670079000D
:100090002C00200049006E0063002E001E034A0061
:1000A00041004C004C004900420020005300650014
:1000B0007200690061006C002E003031323334353B
:1000C000363738394142434445460000010040007C
:1000D0009600DF000D013401550175018E01A40168
:1000E000BC01CD01DF01EE01FF010A02160222026E
:1000F0002E02380243024C0257026002680270026C
:100100007802810288028F0296029D02A302AA024F
:10011000B002B602BC02C202C702CC02D102D702B0
:10012000DD02E202E602EB02EF02F402F802FD0257
:100130000103050309030C031003130317031B0337
:100140001F032203260329032C032F033203360344
:1001500039033C0340034303450348034B034E0369
:1001600050035303560358035B035D0360036203AC
:100170006503670369036B036E036F037203740304
:10018000760379037B037C037F0381038303850369
:10019000870389038A038C038D038F0391039303E1
:1001A0009503970398039A039C039E03A003A1035E
:1001B000A303A403A503A703A803AA03AB03AD03EA
:1001C000AE03AF03B103B203B403B503B603B70381
:1001D000B903BA03BC03BD03BE03BF03C003C2031C
:1001E000C303C403C503C603C703C803C903CA03C3
:1001F000CB03CC03CD03CE03CF03D003D103D20373
:10020000D303D403D503D603D703D803D903DA0322
:10021000DB03DC03DD03DD03DE03DF03E003E103D7
:10022000E203E203E303E403E403E503E603E60396
:10023000E703E803E803E903E903EA03EB03EB035D
:10024000EC03EC03ED03ED03EE03EF03EF03F00328
:10025000F003F103F103F203F203F303F303F403F6
:10026000F403F503F503F603F603F603F703F703C8
:10027000F803F803F803F903F903F903FA03FA039F
:10028000FA03FB03FB03FB03FC03FC03FC03FC037B
:10029000FD03FD03FD03FD03FD03FE03FE03FE035B
:1002A000FE03FE03FF03FF03FF03FF03FF03FF0340
:1002B000FF03FF03FF03FF03FF03FF03FF03FF032E
:1002C000FF03FF03FF03FF03FF03FF03FF03FF031E
:1002D000FF03FF03FF03FF03FF03FF03FF03FF030E
:1002E000FF03FF03FF03FF03FF03FF03FF03FF03FE
:1002F000FF03FE03FE03FE03FE03FE03FD03FD03F7
:10030000FD03FD03FD03FC03FC03FC03FC03FB03F3
:10031000FB03FB03FA03FA03FA03F903F903F903F6
:10032000F803F803F803F703F703F603F603F603FD
:10033000F503F503F403F403F303F303F203F20309
:10034000F103F103F003F003EF03EF03EE03ED031A
:10035000ED03EC03EC03EB03EB03EA03E903E9032E
:10036000E803E803E703E603E603E503E403E40345
:10037000E303E203E203E103E003DF03DE03DD0363
:10038000DD03DC03DB03DA03D903D803D703D60389
:10039000D503D403D303D203D103D003CF03CE03B9
:1003A000CD03CC03CB03CA03C903C803C703C603E9
:1003B000C503C403C303C203C003BF03BE03BD031D
:1003C000BC03BA03B903B703B603B503B403B2035E
:1003D000B103AF03AE03AD03AB03AA03A803A703A6
:1003E000A503A403A303A103A0039E039C039A03F4
:1003F000980397039503930391038F038D038C0355
:100400008A03890387038503830381037F037C03B6
:100410007B0379037603740372036F036E036B032C
:10042000690367036503620360035D035B035803AD
:100430005603530350034E034B0348034503430342
:1004400040033C033903360332032F032C032903F3
:10045000260322031F031B031703130310030C03BC
:10046000090305030103FD02F802F402EF02EB02A7
:10047000E602E202DD02D702D102CC02C702C202CA
:10048000BC02B602B002AA02A3029D0296028F022B
:1004900088028102780270026802600257024C02F0
:1004A000430238022E02220216020A02FF01EE0166
:1004B000DF01CD01BC01A4018E017501550134019C
:1004C0000D01DF00960040000100000018BE7CEF27
:1004D00002F018BC72EF02F01750EA6E1650E96E87
:1004E000EF5012001650F66E1750F76E18503F0B73
:1004F000F86E0800F5501200120000011250136E41
:100500001450156E1650196EE9501A6EEA501B6E93
:10051000F6501C6EF7501D6EF8501E6EF5501F6E93
:1005200008500C6E09500D6E0A500E6E0B500F6E77
:100530005DEF12F00101226B000E206E080E216E9D
:1005400092809292928492969298929A93809392A9
:10055000938493969398939A939C939E9490949259
:100560009484949C949EFCEF04F0F29A0001B8519C
:100570000101B66F0001B9510101B76FF28AB6519E
:10058000086EB751096E12000101222B222DCBEF0C
:1005900002F0DDEF02F02150EA6E2050E96E04080F
:1005A000206EE9063750EF6EE9063850EF6EE90627
:1005B0003950EF6EE9063A50EF6E0850376E095029
:1005C000386E0A50396E020E375CD8B4EBEF02F089
:1005D000D8A0EDEF02F0FBEF02F0F29AD89037349A
:1005E0003A6E00EEBAF03A50E9263850EF6EE92A3A
:1005F0003950EF6EF28A222FFFEF02F012002150E5
:10060000EA6E2050E96EEF503A6EE92AEF50396EEB
:10061000E92AEF50386EE92AEF50376EE928206E4C
:1006200012000101B36F020EB35DD8B41BEF03F0EB
:10063000D8A01DEF03F008801200D890B335B46F36
:1006400000EEBAF0B451E926EF50E92AEF10D8A431
:1006500039EF03F0D890B335B56F00EEBAF0B5516D
:10066000E926EF50E92AEF10D8A439EF03F008800B
:10067000120008901200F80ED5140509D56E440E2C
:100680000001BE6FD59AD596F294F28AF28E0101DE
:10069000B16BD890B135B26F00EEBAF0B251E92625
:1006A000EF6AE92AEF6AB12B020EB15DD8A449EFD7
:1006B00003F01200F2A497EF03F00001BE51D66ED2
:1006C000D76AB82BD8B4B92B326AD89032342F6E8F
:1006D00000EEBAF02F50E926EF50E92AEF10D8B417
:1006E00090EF03F0D8903234306ED8903234316EBF
:1006F00000EEBAF03150E926EF50086EE92AEF50CB
:10070000096E0B6E08040A6E0A28D8B40B0600EEB8
:10071000BAF03050E9260A50EF6EE92A0B50EF6E1E
:10072000322A020E325CD8A465EF03F0F2940C502A
:10073000086E0D50096E0E500A6E0F500B6E1C5055
:10074000F66E1D50F76E1E50F86E1F50F56E1A5063
:10075000E96E1B50EA6E1950166E1550146E135048
:10076000126E11000001BF6BC06BC16B070EC26F30
:10077000C46BC36B12004204D8A4C7EF03F0010E90
:10078000086E4350096E44500A6EC4EC02F000013A
:10079000C351D8A4EAEF03F0040E3D5CD8A4D7EF10
:1007A00003F0070EC25DD8A4D7EF03F0899880A4A8
:1007B000DCEF03F0800EBF27C251D8B4E4EF03F0A2
:1007C000D890BF33C2071200050EC26FC06B010E76
:1007D000C36F1200C305D8A405EF04F080A4F3EFA3
:1007E00003F0800EC027C251D8B4FBEF03F0D890BD
:1007F000C033C2071200D890C033D890C033070E60
:10080000C26FC16B020EC36F1200020EC35DD8A48B
:1008100043EF04F080A40FEF04F0800EC127C25113
:10082000D8B417EF04F0D890C133C2071200040EF9
:100830003D5CD8B48988590EBF5DD8A43CEF04F064
:10084000160EC05DD8B428EF04F0D8B035EF04F030
:10085000C36B070EC26FC051C56FC151C66FBF6B6E
:10086000C06BC16B010EC46F1200C36B070EC26F69
:10087000BF6BC06BC16B1200C36B070EC26FBF6B47
:10088000C06BC16B1200070EC26FBF6BC06BC16B38
:10089000C36B1200BBEC03F0F092F0881200010170
:1008A000AE6FA951E16EAA51E26EAE51B06FAF6B5F
:1008B0006AEF04F0AB51AF25166E000E086EAC5116
:1008C0000820176EAD510820186E66EC02F0E66E37
:1008D0000101AF2BAF51B05DD8A45AEF04F0120064
:1008E000040104BF12000001CA51C75DD8B47EEFF5
:1008F00004F0D8B07EEF04F0C751CA6FD880CA5157
:10090000C8550101A86F0001C95DD8B48EEF04F08D
:10091000D8B08EEF04F0C9510101A86F780E000124
:10092000C8250401066F000E086E040E0820076F2C
:100930000101A8510401056F04ADA3EF04F0880E76
:10094000046FA5EF04F0C80E046F0101A851000167
:10095000C827C851CA5D1200080EC96FC86BCA6BA0
:10096000C76B0401049D70EF04F00101A76F04013F
:10097000786F080E0001C96FC86B010ECA6F010EB7
:10098000C76F0401049D70EF04F0840E040100138E
:100990001200080E0401016F200E026F040E036F97
:1009A000030E0001CC5DD8A4DDEF04F08C0E010134
:1009B000A66F0401046BE0EF04F0C80E0101A66FFE
:1009C0000101A6510401006F1200A26FD890A23558
:1009D000A56FD890A537D890A537A529A46F04EEA8
:1009E00000F0A451E926A351EF6E04EE00F0A551EA
:1009F000E926800EEF6E12000001CE6B01012091FE
:100A0000296A2A6A2B6A2C6A100E2D6E55EF11F096
:100A10000401F9510101A16F210EA15DD8A414EFC9
:100A200005F0050E0001CC6F120004011CBF1DEF84
:100A300005F00101A0911FEF05F00101A081A0B117
:100A4000120029502A5CD8A42BEF05F020A1120037
:100A50009B6B3DEF05F029502A5CD8B439EF05F0C7
:100A6000D8B039EF05F0D88029502A549B6F3DEF5C
:100A700005F0D880200E2A549B6F080E9B5DD8B4D9
:100A800047EF05F0D8A047EF05F0080E9B6F9B518C
:100A90009E6F9D6B5CEF05F02A509D259C6F00EECC
:100AA000CFF09C51E926EF50086E04EE58F09D51AE
:100AB000E9260850EF6E9D2B9D519E5DD8A44CEF0A
:100AC00005F0580E04011E6F040E1F6F01019B51AB
:100AD00004011D6F1CAD71EF05F0880E1C6F73EFE4
:100AE00005F0C80E1C6F2A5001019B259F6F1F0E39
:100AF0009F5DD8B480EF05F0D8A080EF05F09F6B24
:100B00009F512A6E080E9B5D2091D8B4208112005F
:100B1000996F29289A6F200E9A5DD8B49A6B00EECF
:100B2000CFF02950E9269951EF6E9A51296E1200A3
:100B300000EEEFF02C50E926EF50976F2D2A2C286D
:100B4000986F100E985DD8B4986B98512C6E975191
:100B500012002C502B5C9691D8A49681089096B1E7
:100B60000880120015EC05F0080E2D5CD8B4BCEF1F
:100B700005F0D8A0C6EF05F0040118BFC6EF05F0D8
:100B8000080E0101A36F030EE5EF04F01200226AC4
:100B9000C20E236E010E246E256A266A080E286E88
:100BA000276A12000401F9512E6E060E2E5CD8A49D
:100BB00085EF06F0FB510101946F0401FA51010128
:100BC000956F0001CA6B01019405D8A4FDEF05F0F3
:100BD000120E0001CA6F780E0101A96F040EAA6FF0
:100BE0000C0EAB6F000EAC6F000E4009AD6F000134
:100BF000CA514FEC04F068EF06F0020E945DD8A4E1
:100C000017EF06F0430E0001CA6F780E0101A96FBD
:100C1000040EAA6F1E0EAB6F000EAC6F000E4009E3
:100C2000AD6F0001CA514FEC04F068EF06F0030EFF
:100C3000945DD8A466EF06F09551D8A433EF06F082
:100C4000040E0001CA6F780E0101A96F040EAA6F8D
:100C5000620EAB6F000EAC6F000E4009AD6F00016D
:100C6000CA514FEC04F001019505D8A44BEF06F0F2
:100C7000360E0001CA6F780E0101A96F040EAA6F2B
:100C8000660EAB6F000EAC6F000E4009AD6F000139
:100C9000CA514FEC04F0020E0101955DD8A468EF33
:100CA00006F01E0E0001CA6F780E0101A96F040E36
:100CB000AA6F9C0EAB6F000EAC6F000E4009AD6FBB
:100CC0000001CA514FEC04F068EF06F0220E945D6B
:100CD0000001CA51D8B483EF06F0080EC96F0401B1
:100CE000FF51D8A479EF06F0FE510001C76F7CEFE9
:100CF00006F0FF0E0001C76F030ECC6FC86B040136
:100D0000049D70EF04F0C5EF04F0050E2E5CD8A42E
:100D100095EF06F0FA510001CD6F010ECB6FACECF0
:100D200004F0060E0001CC6F1200090E2E5CD8A450
:100D3000CBEF06F0060E0001CC6FACEC04F071882E
:100D4000718471827186400E04010C6F080E096F68
:100D5000300E0A6F040E0B6F800E086F728872845B
:100D600072827286400E146F080E116F400E126F61
:100D7000040E136F800E106F7388738473827386F2
:100D8000400E1C6F080E196F500E1A6F040E1B6F69
:100D9000800E186F12000A0E2E5CD8A4D6EF06F053
:100DA000030E0001CC6F010EB5EF04F02E50D8A455
:100DB000DDEF06F0000EB5EF04F01200D8906C30B5
:100DC000816FD8908133D89081336CA4F4EF06F012
:100DD000D890040104310101836FD89083330F0E42
:100DE0008315826FFEEF06F0D890040100310101F7
:100DF000836FD89083330F0E8315826F8151D8A4EF
:100E0000F3EF07F00D0E825DD8A478EF07F0846B46
:100E100004EE20F08451E926EF50086E04EEF8F05D
:100E20008451E9260850EF6E842B080E845DD8A407
:100E300008EF07F06D98C9EC04F0300E0401F815C6
:100E40000101836F8351D8B4D2EF05F0200E835D8A
:100E5000D8A472EF07F00401F9510101856F230E48
:100E6000855DD8A439EF07F0060E0001CC6FACEF1A
:100E700004F0200E855DD8A442EF07F0020E0001B9
:100E8000CC6F1200210E855DD8A463EF07F0FF0E32
:100E90000001C76F070ECA6F780E0101A96F040E1B
:100EA000AA6F220EAB6FAC6BAD6B0001CA514FEC59
:100EB00004F0080E0001C96F030ECC6FC86B04016B
:100EC000049D70EF04F0220E855DD8A471EF07F049
:100ED000060E0001CC6FACEC04F00401FA510001E5
:100EE000CE6F1200400E835DD8A46EEF08F01200A2
:100EF000090E825DD8A49BEF07F0030E0001CC5DC4
:100F0000D8B470EF04F0060ECC5DD8A491EF07F0D2
:100F1000CC6BCB05D8A46EEF08F0CD516E6ECB6BC9
:100F20001200050ECC5DD8B41200040ECC5DD8B40E
:100F300008EF05F01200020E825DD8A4B2EF07F0B0
:100F4000030E0001CC5DD8B470EF04F0040ECC5D4C
:100F5000D8B408EF05F0060ECC5DD8A46EEF08F00B
:100F6000CC6B12008205D8A46EEF08F0050E0001CC
:100F7000CC5DD8A4BFEF07F0CC6BC9EF04F0020E34
:100F8000CC5DD8A4E7EF07F00401F9510101866FA9
:100F9000200E865DD8A4E5EF07F0876B04EE20F005
:100FA0008751E926EF50086E00EE22F08751E926BE
:100FB0000850EF6E872B070E875DD8A4CEEF07F0A1
:100FC000060E0001CC6FACEC04F0C9EF04F0030E88
:100FD000CC5DD8A4F1EF07F0C9EC04F00001CC6BB4
:100FE0001200C9EF04F06CA41AEF08F0D890813514
:100FF000886FD8908837D8908837040E882788293A
:10100000836F020E8825836F04EE00F08351E9267A
:10101000EF50896F030E8825836F04EE00F0835133
:10102000E926EF508A6F030E815DD8A46EEF08F0B9
:1010300015EF05F0D89081358B6FD8908B37D8900D
:101040008B378B29836F04EE00F08351E926EF5034
:101050008C6F04EE00F08B51E926EF508D6F8DBF41
:101060006EEF08F0020E8B25836F04EE00F08351C3
:10107000E926EF508E6F030E8B25836F04EE00F090
:101080008351E926EF508F6F030E815DD8A46EEF78
:1010900008F08E51E16E8F51E26E8C51916F926B20
:1010A00069EF08F02B28906F100E905DD8B4906B0C
:1010B00090512C5CD8B468EF08F0E650936F00EEC6
:1010C000EFF02B50E9269351EF6E90512B6E2D06C9
:1010D000922B9251915DD8A452EF08F01200A1AA70
:1010E000C1EF08F0A19A806B68A67AEF08F0DEECF9
:1010F00006F068960101802B040E805DD8A474EF81
:1011000008F068A0B3EF08F06A6A686A0001CD6B66
:10111000716A726A736A746A756A766A776A786ADB
:10112000796A7A6A7B6A7C6A7D6A7E6A7F6A160E51
:10113000706E68A69FEF08F0689699EF08F0CC6B88
:10114000CB6B6D98080E0401056F280E066F040E18
:10115000076F046B080E016F200E026F040E036F01
:101160008C0E006F689068BA689A68B8689868AC26
:10117000BDEF08F0B2EC05F0689C68A2C1EF08F082
:10118000689212006FEC08F015EF05F06D6A140E0E
:101190006F6E6B0E696EA09AC7EC05F0686A6D6A97
:1011A0006D8612007D6F0001CE5101017E6F7E5170
:1011B000D8B4120029287F6F200E7F5DD8B47F6BD2
:1011C00001017F512A5CD8A4EAEF08F0C2EC08F0D4
:1011D000E0EF08F07D5188EF05F00001CE510101EC
:1011E0007B6F7B51D8A4F8EF08F0089009EF09F065
:1011F000A9EC05F001017C9308B07C837CB304EF7B
:1012000009F0089009EF09F098EC05F001017A6FF8
:1012100008807A511200EDEC08F00101786F12009D
:101220000101776FD2EF08F00101036B046B00013D
:10123000FF6B12000101766F0405D8A423EF09F0BB
:10124000765110EF09F01200736F0405D8A455EF22
:1012500009F073390F0B746F0F0E7415756FBA0E9A
:10126000F66E000EF76E000EF86E7551F626000E43
:10127000086EF7220850F8220900F55010EC09F02A
:101280000F0E01017315746FBA0EF66E000EF76E35
:10129000000EF86E7451F626000E086EF722085004
:1012A000F8220900F55010EF09F01200726F4204A5
:1012B000D8A463EF09F0010E086E4350096E445044
:1012C0000A6EC4EC02F00001FF51D8A48FEF09F0C0
:1012D000180E0101725DD8B471EF09F0D8B088EF33
:1012E00009F07251006F7251026F140E005DD8A4A4
:1012F0007EEF09F0426A780E1AEF09F0010E000144
:10130000FF6F2D0E1AEC09F00101005124EF09F0D6
:10131000230E1AEC09F00101005124EF09F0FF053A
:10132000D8A4A2EF09F001017251016F7251022796
:10133000020E0001FF6F3D0E1AEC09F00101015190
:1013400024EF09F0020EFF5DD8A4BAEF09F0010105
:101350007251025DD8A4B4EF09F02E0E1AEC09F018
:10136000030E0001FF6F12002A0E1AEC09F00001B3
:10137000FF6B1200030EFF5DD8A4D3EF09F001014B
:101380007229D8A4CDEF09F02E0E1AEC09F0010E47
:101390000101036F0001FF6B12002A0E1AEC09F025
:1013A0000001FF6B1200040EFF5DD8A4DCEF09F012
:1013B000FF6B210E1AEF09F0FF6B210E1AEF09F0F7
:1013C0000101706BC2EC08F00BEC09F00101706FC9
:1013D000719108B0718171A1F1EF09F0705156EF70
:1013E00009F012008988010E0101076F086B020ED7
:1013F0003D6EC80E056F066B12006E6F6E51D8A45D
:1014000005EF0AF03D6A898812006E05D8A40DEF39
:101410000AF0010E3D6E89981200020E6E5DD8A48E
:1014200020EF0AF0086A0551096E06510A6EC4ECF5
:1014300002F0020E3D6E010E0101076F8988120055
:10144000030E6E5DD8A435EF0AF0030E3D6E80A842
:101450002DEF0AF06F992EEF0AF06F896FB933EF15
:101460000AF08998120089881200040E6E5DD8A4D3
:101470003DEF0AF0040E3D6E89881200020E3D5CBD
:10148000D8A47EEF0AF0000E11EC03F001016D9379
:1014900008B06D836DA37EEF0AF0280E055D06117E
:1014A000D8A46CEF0AF01E0E085DD8B45EEF0AF007
:1014B000D8B05EEF0AF0082B6CEF0AF0F098070E38
:1014C0000001C26FBF6BC06BC16BC36BE80E010143
:1014D000056F030E066FF088086A0551096E065104
:1014E0000A6EC4EC02F001010705D8A47BEF0AF0F4
:1014F000076B89981200010E076F89881200426AF3
:101500001200010E426E12004204D8A490EF0AF0BD
:10151000010E086E4350096E44500A6EC4EF02F08B
:1015200012004204D8A4B9EF0AF0010E11EC03F046
:1015300001016C9308B06C836CA3B9EF0AF0040E40
:101540000001FF6FF0984150D8A4B0EF0AF0070EE9
:10155000C26FBF6BC06BC16BC36BF088B1EF0AF099
:10156000FF6B010E086E4350096E44500A6EC4EFC3
:1015700002F01200836B846BB26BB36B120000013C
:101580008705D8A4E9EF0AF0832901016A6F140ED8
:101590006A5DD8B4CFEF0AF0D8A0D0EF0AF06A6B3A
:1015A0006A510001845DD8B4E8EF0AF0D890833521
:1015B00001016B6F00EE59F06B51E9260001855176
:1015C000EF6EE92A8651EF6E01016A510001836FC7
:1015D000876B12000001B605D8A414EF0BF0B229F6
:1015E0000101686F140E685DD8B4FAEF0AF0D8A054
:1015F000FBEF0AF0686B68510001B35DD8B413EFDC
:101600000BF0D890B2350101696F00EE88F0695196
:10161000E9260001B451EF6EE92AB551EF6E0101E0
:1016200068510001B26FB66B12008351845DD8A47B
:1016300021EF0BF0510E0101646F7A0E656F3EEFE2
:101640000BF0D89084350101676F00EE59F06751B7
:10165000E926EF50646FE92AEF50656F0001842995
:101660000101666F140E665DD8B43AEF0BF0D8A096
:101670003BEF0BF0666B66510001846F0101645112
:10168000086E6551096E1200B251B35DD8A450EFD7
:101690000BF0510E0101606F7A0E616F6DEF0BF070
:1016A000D890B3350101636F00EE88F06351E926ED
:1016B000EF50606FE92AEF50616F0001B32901011B
:1016C000626F140E625DD8B469EF0BF0D8A06AEFB8
:1016D0000BF0626B62510001B36F01016051086E43
:1016E0006151096E120089868B808B828B8C8A9265
:1016F00012000101156B0001B76B1200010E156F8E
:101700001200030E156F12005B6FD89058315E6F98
:1017100057315D6F050E086ED8905E335D33082E2D
:101720008CEF0BF00F0E5D155F6F300E5F25096FAC
:10173000D89057355D6F58355E6FD8905D375E37FE
:10174000FC0E5D150A6FD8905A315E6F59315D6F8E
:10175000050E086ED8905E335D33082EAAEF0BF0AD
:101760000F0E5D155F6FB00E5F250B6FD89059356A
:101770005D6F5A355E6FD8905D375E37FC0E5D1534
:101780000C6F5B510D6F5C510E6F7EEF0BF0526F63
:10179000D8904F31556F4E31546F050E086ED8906A
:1017A00055335433082ECFEF0BF00F0E5415566FF0
:1017B000300E56250F6FD8904E35546F4F35556FFC
:1017C000D89054375537FC0E5415106FD8905131BE
:1017D000556F5031546F050E086ED8905533543301
:1017E000082EEDEF0BF00F0E5415566FB00E562568
:1017F000116FD8905035546F5135556FD89054377C
:101800005537FC0E5415126F5251136F5351146F0C
:1018100081EF0BF04C6F4C05D8A417EF0CF04D5135
:10182000D8B415EF0CF08986120089961200020ECA
:101830004C5DD8A424EF0CF04D51D8B422EF0CF03D
:101840008986120089961200030E4C5DD8A431EFF0
:101850000CF04D51D8B42FEF0CF08B8012008B9010
:101860001200040E4C5DD8A43DEF0CF04D51D8B4DD
:101870003CEF0CF08B8012008B901200476F4D6B89
:1018800049510AEC0CF0000000000000800E01013C
:101890004A6F4A51D8B463EF0CF04A5147154B6F69
:1018A0004B51D8A457EF0CF08B9E58EF0CF08B8E59
:1018B000000000008A82000000008A92D8904A331B
:1018C000000049EF0CF0800E4A6F4A51D8B47FEF08
:1018D0000CF04A5148154B6F4B51D8A473EF0CF0E4
:1018E0008B9E74EF0CF08B8E000000008A8200004B
:1018F00000008A92D8904A33000065EF0CF0000097
:101900000000010E4D6F49510AEF0CF0FF0E01016E
:10191000426F030E436FD8904331456F4231446F9D
:10192000050E086ED89045334433082E92EF0CF024
:101930000F0E4415466F300E4625096FD89042357C
:10194000446F4335456FD89044374537FC0E4415F6
:101950000A6FD8904331456F4231446F050E086ECF
:10196000D89045334433082EB0EF0CF00F0E4415D9
:10197000466FB00E46250B6FD8904235446F433505
:10198000456FD89044374537FC0E44150C6F0D6BEE
:101990000E6BD8904331456F4231446F050E086E8F
:1019A000D89045334433082ED0EF0CF00F0E441579
:1019B000466F300E46250F6FD8904235446F433541
:1019C000456FD89044374537FC0E4415106FD890BA
:1019D0004331456F4231446F050E086ED890453350
:1019E0004433082EEEEF0CF00F0E4415466FB00E88
:1019F0004625116FD8904235446F4335456FD890D6
:101A000044374537FC0E4415126F136B146B0A51A3
:101A1000486F010E496F09513EEC0CF001010C5169
:101A2000486F020E496F0B513EEC0CF00101105152
:101A3000486F030E496F0F513EEC0CF0010112513B
:101A4000486F040E496F11513EEC0CF000008B9270
:101A50008B9C0000000000008B828B8C0000120029
:101A600001011551D8B412001505D8A443EF0DF0AB
:101A70000A51486F1551496F09513EEC0CF0020EA6
:101A80000101156F1200020E155DD8A454EF0DF080
:101A90000C51486F1551496F0B513EEC0CF0010190
:101AA000166B050E156F1200030E155DD8A464EFBA
:101AB0000DF01051486F1551496F0F513EEC0CF06D
:101AC000040E0101156F1200040E155DD8A476EF07
:101AD0000DF01251486F1551496F11513EEC0CF049
:101AE000010E0101166F050E156F1200050E155D32
:101AF000D8A4B3EF0DF000001651D8A497EF0DF065
:101B00008B920D51D8B488EF0DF08A8C89EF0DF0CF
:101B10008A9C0E51D8B490EF0DF08A8A91EF0DF0A7
:101B20008A9A0000000000008B82B0EF0DF01605CD
:101B3000D8A4B0EF0DF08B9C1351D8B4A3EF0DF0E7
:101B40008A88A4EF0DF08A981451D8B4ABEF0DF049
:101B50008A86ACEF0DF08A960000000000008B8CA6
:101B600000000001B76B1200020E3B5DD8A4BBEF72
:101B70000DF0000E3A5DD8B4C9EF0DF0D8B0C9EF42
:101B80000DF03A513C6F3B513D6F010E196FE2EF82
:101B90000DF0D880000E3A55406F040E3B55416F52
:101BA000D880000E40553C6F020E41553D6F3C51B0
:101BB000086E020E3D5D0810D8A4E1EF0DF03C6BFD
:101BC0003D6B196BD8903C35406F3D35416FCA0E67
:101BD000F66E000EF76E000EF86E4051F62641517B
:101BE000F722000E086EF8220900F5503E6F09003A
:101BF000F5503F6FD880FF0E3E55176F030E3F55CF
:101C0000186F120034514B24366F35514C20376F0A
:101C100034514D24386F35514E20396F040E375DE5
:101C2000D8A415EF0EF0000E365DD8B41BEF0EF001
:101C3000D8A01FEF0EF0000E3627FC0E3723040E3F
:101C4000395DD8A426EF0EF0000E385DD8B42CEF25
:101C50000EF0D8A030EF0EF0000E3827FC0E39231E
:101C600036513A6F37513B6FB4EC0DF0010117510B
:101C7000476E1851486E1951456E38513A6F3951B7
:101C80003B6FB4EC0DF001011751496E18514A6ECB
:101C90001951466E12003251346F3351356F02ECD8
:101CA0000EF047500101576F4850586F4950596F17
:101CB0004A505A6F46505C6F455084EF0BF02C51E0
:101CC00055242E6F2D5156202F6F2C515724306FD5
:101CD0002D515820316F040E2F5DD8A472EF0EF0F5
:101CE000000E2E5DD8B478EF0EF0D8A07CEF0EF089
:101CF000000E2E27FC0E2F23040E315DD8A483EF97
:101D00000EF0000E305DD8B489EF0EF0D8A08DEF44
:101D10000EF0000E3027FC0E31232E513A6F2F515A
:101D20003B6FB4EC0DF001011751516E1851526E1A
:101D300019514F6E30513A6F31513B6FB4EC0DF089
:101D400001011751536E1851546E1951506E120003
:101D50002A512C6F2B512D6F5FEC0EF05150010169
:101D60004E6F52504F6F5350506F5450516F5050F0
:101D7000536F4F50C7EF0BF00001B751D8A4DBEF02
:101D80000EF015EC0BF008500101286F0950296F77
:101D9000510E285D086E7A0E295D0810D8B4DBEF6D
:101DA0000EF0010E0001B76F01012851326F295169
:101DB000336F4BEF0EF012000001B751D8A4FBEFC8
:101DC0000EF044EC0BF008500101266F0950276F0C
:101DD000510E265D086E7A0E275D0810D8B4FBEF11
:101DE0000EF0010E0001B76F010126512A6F275135
:101DF0002B6FA8EF0EF012003B50D8A407EF0FF0A6
:101E00003C500001856F866B010E876F12003B040A
:101E1000D8A41BEF0FF03C500101246F256B000E7E
:101E200024250001856F010E010125210001866F27
:101E3000010E876F1200020E3B5CD8A430EF0FF04A
:101E40003C500101246F256B000E24250001856F95
:101E5000020E010125210001866F010E876F12001D
:101E6000030E3B5CD8A445EF0FF03C500101246FFA
:101E7000256B000E24250001856F030E010125212D
:101E80000001866F010E876F1200040E3B5CD8A420
:101E900051EF0FF03C500001B46FB56B010EB66FFF
:101EA0001200050E3B5CD8A466EF0FF03C50010118
:101EB000246F256B000E24250001B46F010E010173
:101EC00025210001B56F010EB66F1200060E3B5CB6
:101ED000D8A47BEF0FF03C500101246F256B000E5E
:101EE00024250001B46F020E010125210001B56F08
:101EF000010EB66F1200070E3B5CD8A490EF0FF0F6
:101F00003C500101246F256B000E24250001B46FA5
:101F1000030E010125210001B56F010EB66F1200FD
:101F2000140E3B5CD8B47FEF0AF0150E3B5CD8A4CE
:101F3000CBEF0FF03F0E3C140101246F2451D8A4C5
:101F4000A7EF0FF0140E436E446AAFEF0FF03F0E91
:101F50003C14246F256B2451436E2551446EC00EF2
:101F60003C14246F800E245DD8A4C1EF0FF0010E45
:101F7000086E4350096E44500A6EC4EC02F081ECC6
:101F80000AF0C00E3C140101246F2451D8A454EF70
:101F900011F07FEF0AF0160E3B5CD8A4DAEF0FF0D9
:101FA000280E0101055D0611D8B454EF11F03C5024
:101FB000FDEF09F0080E3B5CD8A4E4EF0FF03C50B5
:101FC00001011C6F1D6B1200090E3B5CD8A4F6EFDB
:101FD0000FF0030E3C140101246F256B24511B6F7D
:101FE0001A6B1C511A271D511B2312000A0E3B5C51
:101FF000D8A42FEF10F0010E3C140101246F24052A
:10200000D8A408EF10F01A514B6E1B514C6E120001
:10201000020E3C14246F020E245DD8A415EF10F0BC
:102020001A514D6E1B514E6E1200040E3C14246F5B
:10203000040E245DD8A422EF10F01A51556E1B51E6
:10204000566E1200080E3C14246F080E245DD8A4AE
:102050002EEF10F01A51576E1B51586E12000B0ED6
:102060003B5CD8A443EF10F0D880FF0E3C54010134
:10207000246F256BD8902435476E2535486ED8904F
:102080004736483612000C0E3B5CD8A457EF10F0D0
:10209000D880FF0E3C540101246F256BD890243565
:1020A000496E25354A6ED89049364A3612000D0ED3
:1020B0003B5CD8A47BEF10F0010E3C14456E020E81
:1020C0003C140101246FD8902431466E0001B751B1
:1020D000D8A454EF11F0010EB76F47500101576FAC
:1020E0004850586F4950596F4A505A6F46505C6F6C
:1020F000455084EF0BF00E0E3B5CD8A48FEF10F030
:10210000D880FF0E3C540101246F256BD8902435F4
:10211000516E2535526ED8905136523612000F0E40
:102120003B5CD8A4A3EF10F0D880FF0E3C54010113
:10213000246F256BD8902435536E2535546ED89076
:10214000533654361200100E3B5CD8A4C7EF10F083
:10215000010E3C144F6E020E3C140101246FD89006
:102160002431506E0001B751D8A454EF11F0010E84
:10217000B76F515001014E6F52504F6F5350506F17
:102180005450516F5050536F4F50C7EF0BF0110E1A
:102190003B5CD8A4D4EF10F03C50D8A4D2EF10F0A0
:1021A0008992120089821200120E3B5CD8A4E1EFE2
:1021B00010F03C50D8A4DFEF10F0899A1200898A01
:1021C0001200130E3B5CD8A4EEEF10F03C50D8A4E4
:1021D000ECEF10F08A9E12008A8E1200170E3B5C04
:1021E000D8A43BEF11F04104D8A454EF11F0480EED
:1021F00010EC09F0590E10EC09F0440E10EC09F047
:10220000200E10EC09F0760E10EC09F0310E10ECF7
:1022100009F02E0E10EC09F0310E10EC09F0200E32
:1022200010EC09F0240E10EC09F0350E0101236FBB
:10223000390E235DD8B422EF11F0D8A022EF11F0AF
:10224000070E2327235110EC09F0390E0101236FEB
:10225000390E235DD8B432EF11F0D8A032EF11F06F
:10226000070E2327235110EC09F00D0E10EC09F096
:102270000A0E10EF09F0180E3B5CD8A454EF11F0D1
:102280004104D8A454EF11F04E0E3C5CD8A44CEF9E
:1022900011F00101046B1200590E3C5CD8A454EFFC
:1022A00011F0010E0101046F1200E06AF29EC26A91
:1022B0000F0EC16EC06A070EB46EF26A73EC0BF0BB
:1022C000B2EC03F014EC09F0F2EC09F0086A010139
:1022D0000551096E06510A6EC4EC02F08A9C8A9A76
:1022E0008A988A96456A466A476A486A496A4A6A83
:1022F000E70E4B6E4C6A920E4D6E010E4E6E4F6A9B
:10230000506A516A526A536A546AE70E556E566AA9
:10231000920E576E010E586E0001856B866BB46B82
:10232000B56B876BB66B8992899A8A9EBAEC0AF074
:102330003F6A406AD09EF188F0923BEC03F0F28E47
:10234000F28C80A0B2EF11F0010E416E020E3D6ED4
:10235000C80E0101056F066B010E3E6E426AF098D1
:10236000BDEF11F0416A020E3D6E280E0101056FAE
:10237000066B3E6A010E426EF088140E436E446A8C
:1023800084EC0AF079EC0BF086EC0CF03E04D8A457
:10239000EFEF11F03EEC0AF0B5EC02F0085001014D
:1023A0001E6F09501F6F1E513F5C086E1F51405C2D
:1023B0000810D8B4C6EF11F0B5EC02F008503F6E2B
:1023C0000950406E82A4C6EF11F03E6AC6EC08F0D8
:1023D000F40E0101056F010E066FC6EF11F0410406
:1023E000D8A425EF12F082A419EF12F0E0EC09F066
:1023F00001010305D8A44DEF12F0036B00513B6EB1
:1024000001513C6E030E3D5CD8A415EF12F080A87C
:102410000DEF12F0209F0EEF12F0208F20BF14EF6F
:1024200012F0899815EF12F08988FCEC0EF04DEF50
:1024300012F0010E3E6EC80E0101056F066B020E12
:102440003D6E3F6A406A4DEF12F0280E0101055DB6
:102450000611D8B44DEF12F00001C405D8A44DEF19
:1024600012F0C46BC5513B6EC6513C6E030E3D5C11
:10247000D8A44BEF12F080A842EF12F0010121978F
:1024800044EF12F00101218721B74AEF12F0899839
:102490004BEF12F08988FCEC0EF03EEC0AF091EC68
:1024A0000AF0BFEC0AF0EAEC0AF0BCEC0EF0DCEC4F
:1024B0000EF030EC0DF0C6EF11F0F0A25AEF03F081
:0824C0004AEC04F05AEF03F0AE
:020000040030CA
:0E0000002C0E3E1E008580000FC00FE00F404A
:00000001FF
