:020000040000FA
:040000009DEF01F07F
:0800080000011250136E00010B
:100010001450156E00011650196E0001E9501A6E49
:10002000EA501B6E0001F6501C6EF7501D6EF85022
:100030001E6EF5501F6E000108500C6E09500D6EBB
:100040000A500E6E0B500F6E4AEF14F012010002B0
:1000500002000008D8040A000100010200010902A0
:100060004300020100803209040000010202010085
:1000700005240010010424020205240600010524C1
:100080000100010705820308000209040100020AB9
:1000900000000007050302080000070583020800AE
:1000A00000000403090436034D0069006300720078
:1000B0006F00630068006900700020005400650054
:1000C000630068006E006F006C006F0067007900CD
:1000D0002C00200049006E0063002E001E034A0021
:1000E00041004C004C0049004200200053006500D4
:1000F0007200690061006C002E00303132333435FB
:100100003637383941424344454600000300060073
:1001100009000C000F001200150019001C001F0040
:100120002200250028002B002F0032003500380067
:100130003B003E004100440048004B004E0051008F
:10014000540057005A005D006000630066006A00BA
:100150006D0070007300760079007C007F008200E3
:10016000850088008B008E009100940097009A0013
:100170009D00A000A300A600A900AC00AF00B20043
:10018000B500B800BB00BE00C100C300C600C90076
:10019000CC00CF00D200D500D800DA00DD00E000AE
:1001A000E300E600E900EB00EE00F100F400F600E9
:1001B000F900FC00FF0001010401070109010C0125
:1001C0000F0111011401170119011C011F01210167
:1001D0002401260129012B012E01300133013601B2
:1001E00038013A013D013F01420144014701490103
:1001F0004C014E0150015301550157015A015C0158
:100200005E0161016301650167016A016C016E01B4
:10021000700172017401770179017B017D017F0119
:10022000810183018501870189018B018D018F0186
:10023000910193019501970199019B019D019E01F7
:10024000A001A201A401A601A701A901AB01AD0172
:10025000AE01B001B201B301B501B701B801BA01F5
:10026000BB01BD01BF01C001C201C301C501C6017F
:10027000C701C901CA01CC01CD01CE01D001D10114
:10028000D201D401D501D601D701D901DA01DB01B0
:10029000DC01DD01DE01DF01E101E201E301E40156
:1002A000E501E601E701E801E901E901EA01EB0105
:1002B000EC01ED01EE01EF01EF01F001F101F201BE
:1002C000F201F301F401F401F501F601F601F70181
:1002D000F701F801F801F901F901FA01FA01FB014E
:1002E000FB01FC01FC01FC01FD01FD01FD01FE0122
:1002F000FE01FE01FE01FF01FF01FF01FF01FF0101
:10030000FF01FF01FF01FF01FF01FF0118BE9CEF8C
:1003100001F018BC92EF01F01750EA6E1650E96E2A
:10032000EF5012001650F66E1750F76E18503F0B34
:10033000F86E0800F55012001200FF6B000E206EE0
:10034000080E216E92809282929492969298928A4E
:1003500093809392938493969398939A939C939E6D
:10036000949094929484949C949E22EF04F0F29A38
:100370000001C55102019D6F0001C65102019E6F2F
:10038000F28A9D51086E9E51096E12000001FF2BEA
:10039000FF2DCDEF01F0DFEF01F02150EA6E20508C
:1003A000E96E0408206EE9063750EF6EE906385012
:1003B000EF6EE9063950EF6EE9063A50EF6E0850DD
:1003C000376E0950386E0A50396E030E375CD8B458
:1003D000EDEF01F0D8A0EFEF01F0FDEF01F0F29AA0
:1003E000D89037343A6E00EEC7F03A50E9263850CC
:1003F000EF6EE92A3950EF6EF28AFF2F01EF02F01B
:1004000012002150EA6E2050E96EEF503A6EE92A50
:10041000EF50396EE92AEF50386EE92AEF50376E07
:10042000E928206E120002019A6F030E9A5DD8B47B
:100430001DEF02F0D8A01FEF02F008801200D89044
:100440009A359B6F00EEC7F09B51E926EF50E92AE1
:10045000EF10D8A43BEF02F0D8909A359C6F00EED5
:10046000C7F09C51E926EF50E92AEF10D8A43BEFE2
:1004700002F00880120008901200F80ED514050949
:10048000D56E440E0001CD6FD59AD596F294F28ABE
:10049000F28E0201986BD8909835996F00EEC7F0F4
:1004A0009951E926EF6AE92AEF6A982B030E985DC5
:1004B000D8A44BEF02F01200F2A499EF02F0000171
:1004C000CD51D66ED76AC52BD8B4C62B326AD89018
:1004D00032342F6E00EEC7F02F50E926EF50E92A94
:1004E000EF10D8B492EF02F0D8903234306ED8903A
:1004F0003234316E00EEC7F03150E926EF50086E0D
:10050000E92AEF50096E0B6E08040A6E0A28D8B467
:100510000B0600EEC7F03050E9260A50EF6EE92ACC
:100520000B50EF6E322A030E325CD8A467EF02F054
:10053000F2940C50086E0D50096E0E500A6E0F505A
:100540000B6E1C50F66E1D50F76E1E50F86E1F504D
:10055000F56E1A50E96E1B50EA6E1950166E155062
:10056000146E1350126E11005104D8A4C0EF02F0A3
:10057000010E086E4F50096E50500A6EC6EF01F022
:1005800012005104D8A4E8EF02F0010E13EC02F0BF
:100590000201979308B0978397A3E8EF02F0020E49
:1005A000436EF0985704D8A4DFEF02F0070E3E6EBA
:1005B0003B6A3C6A3D6A3F6AF088E0EF02F0436ABA
:1005C000010E086E4F50096E50500A6EC6EF01F0D2
:1005D00012003B6A3C6A3D6A070E3E6E406A3F6A03
:1005E00012005104D8A4FDEF02F0010E086E4F5026
:1005F000096E50500A6EC6EC01F03F50D8A414EFBB
:1006000003F080AA06EF03F0800E3B263E50D8B4DC
:100610000EEF03F0D8903B323E061200050E3E6E00
:100620003C6A010E3F6E12003F04D8A42FEF03F086
:1006300080AA1DEF03F0800E3C263E50D8B425EF73
:1006400003F0D8903C323E061200D8903C32D8904D
:100650003C32070E3E6E3D6A020E3F6E1200020EE5
:100660003F5CD8A469EF03F080AA39EF03F0800E55
:100670003D263E50D8B441EF03F0D8903D323E06BF
:100680001200530E3B5CD8A462EF03F0250E3C5CD5
:10069000D8B44EEF03F0D8B05BEF03F03F6A070E1B
:1006A0003E6E3C50416E3D50426E3B6A3C6A3D6A34
:1006B000010E406E12003F6A070E3E6E3B6A3C6AB6
:1006C0003D6A12003F6A070E3E6E3B6A3C6A3D6A15
:1006D0001200070E3E6E3B6A3C6A3D6A3F6A12009A
:1006E000F1EC02F0F092F08812000201946F8F5149
:1006F000E16E9051E26E9451966F956B90EF03F01E
:1007000091519525166E000E086E92510820176EB5
:1007100093510820186E86EC01F0E66E0201952BCD
:100720009551965DD8A480EF03F01200040104BF38
:1007300012000001D151CE5DD8B4A4EF03F0D8B0BF
:10074000A4EF03F0CE51D16FD880D151CF55020123
:100750008E6F0001D05DD8B4B4EF03F0D8B0B4EF21
:1007600003F0D05102018E6F780E0001CF250401F5
:10077000066F000E086E040E0820076F02018E51EE
:100780000401056F04ADC9EF03F0880E046FCBEFD1
:1007900003F0C80E046F02018E510001CF27CF5124
:1007A000D15D1200080ED06FCF6BD16BCE6B040100
:1007B000049D96EF03F002018D6F0401786F080E1F
:1007C0000001D06FCF6B010ED16F010ECE6F04010F
:1007D000049D96EF03F0840E040100131200080E2E
:1007E0000401016F200E026F040E036F030E00015F
:1007F000D35DD8A403EF04F08C0E02018C6F0401CA
:10080000046B06EF04F0C80E02018C6F02018C51DC
:100810000401006F1200886FD89088358B6FD890D4
:100820008B37D8908B378B298A6F04EE00F08A5172
:10083000E9268951EF6E04EE00F08B51E926800E17
:10084000EF6E1200D56B02011A91296A2A6A2B6A8F
:100850002C6A100E2D6E6FEF13F00401F951020196
:10086000876F210E875DD8A439EF04F0050E0001D3
:10087000D36F120004011CBF42EF04F00201869105
:1008800044EF04F00201868186B1120029502A5CEF
:10089000D8A450EF04F01AA11200816B62EF04F0AB
:1008A00029502A5CD8B45EEF04F0D8B05EEF04F0B3
:1008B000D88029502A54816F62EF04F0D880200E2E
:1008C0002A54816F080E815DD8B46CEF04F0D8A073
:1008D0006CEF04F0080E816F8151846F836B81EFA0
:1008E00004F02A508325826F00EED6F08251E9266B
:1008F000EF50086E04EE58F08351E9260850EF6E71
:10090000832B8351845DD8A471EF04F0580E040149
:100910001E6F040E1F6F0201815104011D6F1CAD7B
:1009200096EF04F0880E1C6F98EF04F0C80E1C6F51
:100930002A5002018125856F1F0E855DD8B4A5EF71
:1009400004F0D8A0A5EF04F0856B85512A6E080E3F
:10095000815D1A91D8B41A8112007F6F2928806FA7
:10096000200E805DD8B4806B00EED6F02950E926C9
:100970007F51EF6E8051296E120002EE00F02C5074
:10098000E926EF507D6F2D2A2C287E6F100E7E5D9C
:10099000D8B47E6B7E512C6E7D5112002C502B5C96
:1009A0007C91D8A47C8108907CB1088012003AEC3C
:1009B00004F0080E2D5CD8B4E1EF04F0D8A0EBEF02
:1009C00004F0040118BFEBEF04F0080E0201896F78
:1009D000030E0BEF04F01200226AC20E236E010E0A
:1009E000246E256A266A080E286E276A1200040102
:1009F000F9512E6E060E2E5CD8A4AAEF05F0FB511D
:100A000002017A6F0401FA5102017B6F0001D16B80
:100A100002017A05D8A422EF05F0120E0001D16F71
:100A2000780E02018F6F040E906F4C0E916F000EC6
:100A3000926F000E4009936F0001D15175EC03F0E5
:100A40008DEF05F0020E7A5DD8A43CEF05F0430E61
:100A50000001D16F780E02018F6F040E906F5E0E51
:100A6000916F000E926F000E4009936F0001D151FB
:100A700075EC03F08DEF05F0030E7A5DD8A48BEFD3
:100A800005F07B51D8A458EF05F0040E0001D16F9A
:100A9000780E02018F6F040E906FA20E916F000E00
:100AA000926F000E4009936F0001D15175EC03F075
:100AB00002017B05D8A470EF05F0360E0001D16F5E
:100AC000780E02018F6F040E906FA60E916F000ECC
:100AD000926F000E4009936F0001D15175EC03F045
:100AE000020E02017B5DD8A48DEF05F01E0E000101
:100AF000D16F780E02018F6F040E906FDC0E916F34
:100B0000000E926F000E4009936F0001D15175ECF9
:100B100003F08DEF05F0220E7A5D0001D151D8B4BB
:100B2000A8EF05F0080ED06F0401FF51D8A49EEF86
:100B300005F0FE510001CE6FA1EF05F0FF0E0001A0
:100B4000CE6F030ED36FCF6B0401049D96EF03F0BD
:100B5000EBEF03F0050E2E5CD8A4BAEF05F0FA51C6
:100B60000001D46F010ED26FD2EC03F0060E00012B
:100B7000D36F1200090E2E5CD8A4F0EF05F0060E1C
:100B80000001D36FD2EC03F0718871847182718699
:100B9000400E04010C6F080E096F300E0A6F040E30
:100BA0000B6F800E086F7288728472827286400E9C
:100BB000146F080E116F400E126F040E136F800E2B
:100BC000106F7388738473827386400E1C6F080ED7
:100BD000196F500E1A6F040E1B6F800E186F1200E3
:100BE0000A0E2E5CD8A4FBEF05F0030E0001D36FB4
:100BF000010EDBEF03F02E50D8A402EF06F0000E3A
:100C0000DBEF03F01200D8906C30676FD890673339
:100C1000D89067336CA419EF06F0D8900401043122
:100C20000201696FD89069330F0E6915686F23EF61
:100C300006F0D890040100310201696FD890693341
:100C40000F0E6915686F6751D8A418EF07F00D0EE5
:100C5000685DD8A49DEF06F06A6B04EE20F06A513F
:100C6000E926EF50086E04EEF8F06A51E9260850C4
:100C7000EF6E6A2B080E6A5DD8A42DEF06F06D9812
:100C8000EFEC03F0300E0401F8150201696F6951B1
:100C9000D8B4F7EF04F0200E695DD8A497EF06F002
:100CA0000401F95102016B6F230E6B5DD8A45EEF56
:100CB00006F0060E0001D36FD2EF03F0200E6B5D3D
:100CC000D8A467EF06F0020E0001D36F1200210EC8
:100CD0006B5DD8A488EF06F0FF0E0001CE6F070E03
:100CE000D16F780E02018F6F040E906F220E916FFC
:100CF000926B936B0001D15175EC03F0080E00016B
:100D0000D06F030ED36FCF6B0401049D96EF03F0F9
:100D1000220E6B5DD8A496EF06F0060E0001D36F8D
:100D2000D2EC03F00401FA510001D56F1200400E1D
:100D3000695DD8A493EF07F01200090E685DD8A48E
:100D4000C0EF06F0030E0001D35DD8B496EF03F0B8
:100D5000060ED35DD8A4B6EF06F0D36BD205D8A4A7
:100D600093EF07F0D4516E6ED26B1200050ED35D77
:100D7000D8B41200040ED35DD8B42DEF04F01200E5
:100D8000020E685DD8A4D7EF06F0030E0001D35D14
:100D9000D8B496EF03F0040ED35DD8B42DEF04F071
:100DA000060ED35DD8A493EF07F0D36B120068054D
:100DB000D8A493EF07F0050E0001D35DD8A4E4EFAB
:100DC00006F0D36BEFEF03F0020ED35DD8A40CEF67
:100DD00007F00401F95102016C6F200E6C5DD8A47C
:100DE0000AEF07F06D6B04EE20F06D51E926EF502D
:100DF000086E00EE22F06D51E9260850EF6E6D2B63
:100E0000070E6D5DD8A4F3EF06F0060E0001D36F58
:100E1000D2EC03F0EFEF03F0030ED35DD8A416EF8E
:100E200007F0EFEC03F00001D36B1200EFEF03F0DB
:100E30006CA43FEF07F0D89067356E6FD8906E378F
:100E4000D8906E37040E6E27020E6E25696F04EE81
:100E500000F06951E926EF506F6F030E6E25696F40
:100E600004EE00F06951E926EF50706F6E29696F4A
:100E7000030E675DD8A493EF07F03AEF04F0D89023
:100E80006735716FD8907137D890713704EE00F0E4
:100E90007151E926EF50726F72BF93EF07F0020EA7
:100EA0007125696F04EE00F06951E926EF50736F08
:100EB000030E7125696F04EE00F06951E926EF50C9
:100EC000746F7129696F04EE00F06951E926EF50E3
:100ED000756F030E675DD8A493EF07F07351E16E51
:100EE0007451E26E7551776F786B8EEF07F02B2897
:100EF000766F100E765DD8B4766B76512C5CD8B4D4
:100F00008DEF07F0E650796F02EE00F02B50E926E6
:100F10007951EF6E76512B6E2D06782B7851775DD7
:100F2000D8A477EF07F01200A1AAE7EF07F0A19A83
:100F3000666B68A69FEF07F003EC06F06896020167
:100F4000662B040E665DD8A499EF07F068A0D9EF70
:100F500007F06A6A686A0001D46B716A726A736A20
:100F6000746A756A766A776A786A796A100E7A6E38
:100F70007B6A7C6A7D6A7E6A7F6A160E706E68A6DE
:100F8000C5EF07F06896BFEF07F0D36BD26B6D9893
:100F9000080E0401056F280E066F040E076F046B20
:100FA000080E016F200E026F040E036F8C0E006F8F
:100FB000689068BA689A68B8689868ACE3EF07F018
:100FC000D7EC04F0689C68A2E7EF07F06892120083
:100FD00094EC07F03AEF04F06D6A140E6F6E6B0E2E
:100FE000696EA09AECEC04F0686A6D6A6D86120076
:100FF000636F0001D5510201646F6451D8B41200CF
:101000002928656F200E655DD8B4656B02016551B6
:101010002A5CD8A410EF08F0E8EC07F006EF08F01F
:101020006351ADEF04F00001D5510201616F6151D0
:10103000D8A41EEF08F008902FEF08F0CEEC04F0D3
:101040000201629308B0628362B32AEF08F008904D
:101050002FEF08F0BDEC04F00201606F08806051D2
:10106000120013EC08F002015E6F120002015D6FC6
:10107000F8EF07F0466A476A436A120002015C6FA4
:101080004704D8A447EF08F05C5136EF08F012008F
:101090000201596F4704D8A47AEF08F059390F0BB1
:1010A0005A6F0F0E5A155B6FFA0EF66E000EF76E42
:1010B000000EF86E5B51F626000E086EF7220850FF
:1010C000F8220900F55036EC08F00F0E0201591510
:1010D0005A6FFA0EF66E000EF76E000EF86E5A5149
:1010E000F626000E086EF7220850F8220900F55087
:1010F00036EF08F01200586F5104D8A488EF08F0BA
:10110000010E086E4F50096E50500A6EC6EC01F089
:101110004350D8A4AEEF08F0270E0201585DD8B4B2
:1011200095EF08F0D8B0A8EF08F05851446E230EA0
:10113000445CD8A4A0EF08F0516A780E3EEF08F0A6
:10114000010E436E2D0E3EEC08F0445048EF08F0BF
:10115000230E3EEC08F0445048EF08F04304D8A4B6
:10116000BEEF08F002015851456E010E466E436A0B
:101170003D0E3EEC08F0455048EF08F0020E435C8F
:10118000D8B41200436A210E3EEF08F00201566BFC
:10119000E8EC07F031EC08F00201566F579108B007
:1011A000578157A1D7EF08F056517BEF08F0120096
:1011B0008988010E4D6E4E6A020E4C6EC80E4A6E44
:1011C0004B6A12000201546F5451D8A4EBEF08F09F
:1011D0004C6A898812005405D8A4F3EF08F0010E78
:1011E0004C6E89981200020E545DD8A405EF09F0E8
:1011F000086A4A50096E4B500A6EC6EC01F0020EA6
:101200004C6E010E4D6E89881200030E545DD8A4F9
:1012100019EF09F0030E4C6E80A812EF09F05599F2
:1012200013EF09F0558955B918EF09F089981200A4
:1012300089881200020E4C5CD8A457EF09F0000E0A
:1012400013EC02F00201539308B0538353A357EFFA
:1012500009F0280E4A5C4B10D8A446EF09F01E0E88
:101260004E5CD8B43AEF09F0D8B03AEF09F04E2A04
:1012700046EF09F0F098070E3E6E3B6A3C6A3D6A05
:101280003F6AE80E4A6E030E4B6EF088086A4A50B9
:10129000096E4B500A6EC6EC01F04D04D8A454EF11
:1012A00009F04D6A89981200010E4D6E898812006E
:1012B0008B828A868A8889868B808B8C8A8A8984AD
:1012C0008A9212000001C16BC26BC36BC46B120027
:1012D0000001FE6B12004E6F4E05D8A473EF09F0AB
:1012E0008B9286EF09F04E51D8A47AEF09F08A96D6
:1012F00086EF09F0020E4E5DD8A482EF09F08A98BD
:1013000086EF09F0030E4E5DD8B489960000000008
:101310000000800E516F5151D8B4A5EF09F0515122
:101320004F15526F5251D8A499EF09F08B9E9AEF46
:1013300009F08B8E000000008A82000000008A9273
:10134000D890513300008BEF09F0800E516F51514E
:10135000D8B4C1EF09F051515015526F5251D8A471
:10136000B5EF09F08B9EB6EF09F08B8E0000000000
:101370008A82000000008A92D89051330000A7EFC3
:1013800009F000004E05D8A4C8EF09F08B821200C6
:101390004E51D8A4CEEF09F08A861200020E4E5D9F
:1013A000D8A4D5EF09F08A881200030E4E5DD8B498
:1013B000898612004D6F4D05D8A4ECEF09F0010E9F
:1013C0000001FE6FF65102014F6F0001F75102015B
:1013D000506F010E6BEF09F04D51D8A4FDEF09F0ED
:1013E000020E0001FE6FF85102014F6F0001F9512A
:1013F0000201506F000E6BEF09F0020E4D5DD8A494
:101400000FEF0AF0030E0001FE6FFA5102014F6F59
:101410000001FB510201506F020E6BEF09F0030E49
:101420004D5DD8A421EF0AF0040E0001FE6FFC51BF
:1014300002014F6F0001FD510201506F030E6BEF6F
:1014400009F01200456F4505D8A46AEF0AF0D8905C
:1014500047314B6F46314A6F050E086ED8904B33BB
:101460004A33082E2EEF0AF00F0E4A154C6F100E5D
:101470004C250001F66FD890020146354A6F47357A
:101480004B6FD8904A374B37FC0E4A150001F76F67
:10149000D890020149314B6F48314A6F050E086EF2
:1014A000D8904B334A33082E50EF0AF00F0E4A15EE
:1014B0004C6F900E4C25106FD89048354A6F4935C7
:1014C0004B6FD8904A374B37FC0E4A15116F010EFF
:1014D000DAEF09F04551D8A4B1EF0AF0D8904731BE
:1014E0004B6F46314A6F050E086ED8904B334A3326
:1014F000082E75EF0AF00F0E4A154C6F100E4C2592
:101500000001F86FD890020146354A6F47354B6F9E
:10151000D8904A374B37FC0E4A150001F96FD89026
:10152000020149314B6F48314A6F050E086ED89061
:101530004B334A33082E97EF0AF00F0E4A154C6FC3
:10154000900E4C25126FD89048354A6F49354B6F35
:10155000D8904A374B37FC0E4A15136F000EDAEF5E
:1015600009F0020E455DD8A4F9EF0AF0D890473192
:101570004B6F46314A6F050E086ED8904B334A3395
:10158000082EBDEF0AF00F0E4A154C6F100E4C25B9
:101590000001FA6FD890020146354A6F47354B6F0C
:1015A000D8904A374B37FC0E4A150001FB6FD89094
:1015B000020149314B6F48314A6F050E086ED890D1
:1015C0004B334A33082EDFEF0AF00F0E4A154C6FEB
:1015D000900E4C25146FD89048354A6F49354B6FA3
:1015E000D8904A374B37FC0E4A15156F020EDAEFCA
:1015F00009F0030E455DD8A441EF0BF0D8904731B8
:101600004B6F46314A6F050E086ED8904B334A3304
:10161000082E05EF0BF00F0E4A154C6F100E4C25DF
:101620000001FC6FD890020146354A6F47354B6F79
:10163000D8904A374B37FC0E4A150001FD6FD89001
:10164000020149314B6F48314A6F050E086ED89040
:101650004B334A33082E27EF0BF00F0E4A154C6F11
:10166000900E4C25166FD89048354A6F49354B6F10
:10167000D8904A374B37FC0E4A15176F030EDAEF36
:1016800009F012000001FE51D8B41200FE05D8A4E2
:1016900054EF0BF0050EFE6F020110514F6F115108
:1016A000506F010E6BEF09F0020EFE5DD8A463EFE0
:1016B0000BF0060EFE6F020112514F6F1351506F67
:1016C000000E6BEF09F0030EFE5DD8A472EF0BF075
:1016D000070EFE6F020114514F6F1551506F020E2D
:1016E0006BEF09F0040EFE5DD8A481EF0BF0080E3D
:1016F000FE6F020116514F6F1751506F030E6BEFC3
:1017000009F0050EFE5DD8A48EEF0BF0FE6B8B90FA
:101710000000000000008B80C16B1200060EFE5D11
:10172000D8A49BEF0BF0FE6B8B9C00000000000028
:101730008B8CC26B1200070EFE5DD8A4A8EF0BF0D5
:10174000FE6B8A9A0000000000008A8AC36B1200B8
:10175000080EFE5DD8A4B4EF0BF0FE6B8994000078
:10176000000000008984C46B12000001B96BBA6BE1
:10177000BB6BBC6BBD6BBE6BBF6BC06B12005D6A9D
:10178000020E5E6EFF0E00015F6F030E606F616BF5
:10179000020E626FFF0E636F030E646F12003D6FE7
:1017A0003D05D8A409EF0CF0020E0001B925020195
:1017B000426F280E425DD8B4E1EF0BF0D8A0E2EF03
:1017C0000BF0426B42510001BD5DD8B4B5EF0CF097
:1017D000D890B9350201436F00EE65F04351E92618
:1017E0003E51EF6EE92A3F51EF6E0001B929020127
:1017F000436FD8904335446F00EE65F04451E926BD
:101800004051EF6EE92A4151EF6E42510001B96F2C
:1018100012003D51D8A442EF0CF0020E0001BA258F
:101820000201426F280E425DD8B41AEF0CF0D8A026
:101830001BEF0CF0426B42510001BE5DD8B4B5EF16
:101840000CF0D890BA350201436F01EE00F043511D
:10185000E9263E51EF6EE92A3F51EF6E0001BA29A9
:101860000201436FD8904335446F01EE00F04451BC
:10187000E9264051EF6EE92A4151EF6E42510001D5
:10188000BA6F1200020E3D5DD8A47CEF0CF0020E80
:101890000001BB250201426F280E425DD8B454EF0F
:1018A0000CF0D8A055EF0CF0426B42510001BF5D27
:1018B000D8B4B5EF0CF0D890BB350201436F01EE00
:1018C00054F04351E9263E51EF6EE92A3F51EF6E45
:1018D0000001BB290201436FD8904335446F01EEEC
:1018E00054F04451E9264051EF6EE92A4151EF6E20
:1018F00042510001BB6F1200030E3D5DD8A4B5EF4D
:101900000CF0020E0001BC250201426F280E425D60
:10191000D8B48EEF0CF0D8A08FEF0CF0426B425190
:101920000001C05DD8B4B5EF0CF0D890BC35020111
:10193000436F01EEA8F04351E9263E51EF6EE92ACC
:101940003F51EF6E0001BC290201436FD89043352F
:10195000446F01EEA8F04451E9264051EF6EE92AA8
:101960004151EF6E42510001BC6F1200346F010E05
:101970003A6F3405D8A4F7EF0CF00001B951BD5D02
:10198000D8A4C7EF0CF002013A6BB1EF0DF0D8907C
:10199000BD3502013B6F00EE65F03B51E926EF508B
:1019A000356FE92AEF50366F0001BD2902013B6F08
:1019B000D8903B353C6F00EE65F03C51E926EF5086
:1019C000376FE92AEF50386F020E0001BD25020182
:1019D000396F280E395DD8B4F1EF0CF0D8A0F2EFD2
:1019E0000CF0396B39510001BD6FB1EF0DF034517E
:1019F000D8A435EF0DF00001BA51BE5DD8A405EFB3
:101A00000DF002013A6BB1EF0DF0D890BE35020136
:101A10003B6F01EE00F03B51E926EF50356FE92AAC
:101A2000EF50366F0001BE2902013B6FD8903B3565
:101A30003C6F01EE00F03C51E926EF50376FE92A88
:101A4000EF50386F020E0001BE250201396F280EDB
:101A5000395DD8B42FEF0DF0D8A030EF0DF0396B11
:101A600039510001BE6FB1EF0DF0020E345DD8A404
:101A700074EF0DF00001BB51BF5DD8A444EF0DF031
:101A800002013A6BB1EF0DF0D890BF3502013B6F08
:101A900001EE54F03B51E926EF50356FE92AEF5043
:101AA000366F0001BF2902013B6FD8903B353C6F78
:101AB00001EE54F03C51E926EF50376FE92AEF5020
:101AC000386F020E0001BF250201396F280E395D03
:101AD000D8B46EEF0DF0D8A06FEF0DF0396B39511F
:101AE0000001BF6FB1EF0DF0030E345DD8A4B1EF6C
:101AF0000DF00001BC51C05DD8A483EF0DF00201D0
:101B00003A6BB1EF0DF0D890C03502013B6F01EE9A
:101B1000A8F03B51E926EF50356FE92AEF50366FB8
:101B20000001C02902013B6FD8903B353C6F01EEAC
:101B3000A8F03C51E926EF50376FE92AEF50386F93
:101B4000020E0001C0250201396F280E395DD8B49C
:101B5000ADEF0DF0D8A0AEEF0DF0396B39510001AB
:101B6000C06F02013A511200010E2D5DD8A4BBEFE7
:101B70000DF0000E2C5DD8B40AEF0EF0D8B00AEFCD
:101B80000EF0D8902C35326F2D35336F0A0EF66E6D
:101B9000010EF76E000EF86E3251F6263351F72221
:101BA000000E0A6EF8220900F550086E0900F55083
:101BB000096ED880FF0E08540101FC6F010E095414
:101BC000FD6FD880FF0E02012C55306F000E2D5591
:101BD000316FD8903035326F3135336F0A0EF66E73
:101BE000010EF76E000EF86E3251F6263351F722D1
:101BF000000E0A6EF8220900F550086E0900F55033
:101C0000096ED880FF0E08540101FE6F010E0954C1
:101C1000FF6F1200020E2D5DD8A411EF0EF0000E22
:101C20002C5DD8B465EF0EF0D8B065EF0EF0D8801B
:101C3000FF0E2C552E6F010E2D552F6FD8902E357F
:101C4000326F2F35336F0A0EF66E010EF76E000EEF
:101C5000F86E3251F6263351F722000E0A6EF82242
:101C60000900F550086E0900F550096ED880FF0E86
:101C700008540101FC6F010E0954FD6F000E0201B2
:101C80002C25306FFF0E2D21316FD8903035326FFB
:101C90003135336F0A0EF66E010EF76E000EF86ED8
:101CA0003251F6263351F722000E0A6EF82209004F
:101CB000F550086E0900F550096E000E0824010168
:101CC000FE6F020E0920FF6F1200030E2D5DD8A4D7
:101CD0006CEF0EF0000E2C5DD8B4BFEF0EF0D8B054
:101CE000BFEF0EF0000E2C252E6FFE0E2D212F6F54
:101CF000D8902E35326F2F35336F0A0EF66E010EE7
:101D0000F76E000EF86E3251F6263351F722000EB0
:101D10000A6EF8220900F550086E0900F550096EA8
:101D2000000E08240101FC6F020E0920FD6FD8800F
:101D3000FF0E02012C55306F020E2D55316FD890D9
:101D40003035326F3135336F0A0EF66E010EF76E95
:101D5000000EF86E3251F6263351F722000E0A6E4D
:101D6000F8220900F550086E0900F550096E000EC2
:101D700008240101FE6F020E0920FF6F1200D880B7
:101D8000FF0E2C552E6F030E2D552F6FD8902E352C
:101D9000326F2F35336F0A0EF66E010EF76E000E9E
:101DA000F86E3251F6263351F722000E0A6EF822F1
:101DB0000900F550086E0900F550096E000E082460
:101DC0000101FC6F020E0920FD6F000E02012C259F
:101DD000306FFD0E2D21316FD8903035326F313597
:101DE000336F0A0EF66E010EF76E000EF86E32516A
:101DF000F6263351F722000E0A6EF8220900F5503C
:101E0000086E0900F550096ED880FF0E08540101D4
:101E1000FE6F010E0954FF6F1200296F2A512C6FBB
:101E20002B512D6FB4EC0DF00101FC5102013E6FFE
:101E30000101FD5102013F6F0101FE510201406F9E
:101E40000101FF510201416F2951CFEF0BF0000159
:101E5000C15102012781D8A427910001C25102017A
:101E60002783D8A42793278527B127A32795000187
:101E7000C35102012787D8A42797278927B527A709
:101E800027990001C4510201278BD8A4279B278DD5
:101E900027B927AB279D27ADE5EF0FF05828266F10
:101EA000030E2615586E5804D8A477EF0FF0010ED4
:101EB000B6EC0CF00201266F3551226F3651236FBC
:101EC0003751246F3851256F2605D8A4E5EF0FF060
:101ED000010E0001C16F02012251466F2351476F6D
:101EE0002451486F2551496F010E22EF0AF05850D6
:101EF000D8A49BEF0FF0000EB6EC0CF00201266F99
:101F00003551226F3651236F3751246F3851256F69
:101F10002605D8A4E5EF0FF0010E0001C26F020103
:101F20002251466F2351476F2451486F2551496F05
:101F3000000E22EF0AF0020E585CD8A4C0EF0FF09A
:101F4000020EB6EC0CF00201266F3551226F3651AD
:101F5000236F3751246F3851256F2605D8A4E5EF3C
:101F60000FF0010E0001C36F02012251466F235191
:101F7000476F2451486F2551496F020E22EF0AF036
:101F8000030E585CD8A4E5EF0FF0030EB6EC0CF08E
:101F90000201266F3551226F3651236F3751246F5E
:101FA0003851256F2605D8A4E5EF0FF0010E00018A
:101FB000C36F02012251466F2351476F2451486F6E
:101FC0002551496F030E22EF0AF012005250D8A497
:101FD0001BEF10F080B044EF10F0000161510201DE
:101FE0003E6F0001625102013F6F00016351020127
:101FF000406F000164510201416F010ECFEC0BF004
:102000005D5002013E6F5E503F6F00015F51020163
:10201000406F000160510201416F000ECFEC0BF0E8
:102020000A0E536E010E526E020E086EC80E096E35
:102030000A6AC6EF01F05204D8A443EF10F0020E72
:1020400013EC02F00201219708B0218721A744EF89
:1020500010F080B035EF10F00A0E536E020E086ECD
:10206000320E096E0A6AC6EF01F05350D8A43BEF56
:1020700010F0526A12005306020E086E320E096EFC
:102080000A6AC6EF01F0526A1200040E485CD8A436
:1020900055EF10F0495002011D6F1E6B1D512A6F44
:1020A0001E512B6F010E0DEF0FF0050E485CD8A4EA
:1020B0006BEF10F0495002011F6F206B000E1F25BF
:1020C0001D6F010E20211E6F1D512A6F1E512B6F97
:1020D000010E0DEF0FF0060E485CD8A481EF10F052
:1020E000495002011F6F206B000E1F251D6F020E4D
:1020F00020211E6F1D512A6F1E512B6F010E0DEFF7
:102100000FF0070E485CD8A497EF10F04950020179
:102110001F6F206B000E1F251D6F030E20211E6FE9
:102120001D512A6F1E512B6F010E0DEF0FF04850FD
:10213000D8A4A6EF10F0495002011D6F1E6B1D516F
:102140002A6F1E512B6F000E0DEF0FF04804D8A41C
:10215000BBEF10F0495002011F6F206B000E1F25CE
:102160001D6F010E20211E6F1D512A6F1E512B6FF6
:10217000000E0DEF0FF0020E485CD8A4D1EF10F066
:10218000495002011F6F206B000E1F251D6F020EAC
:1021900020211E6F1D512A6F1E512B6F000E0DEF57
:1021A0000FF0030E485CD8A4E7EF10F0495002018D
:1021B0001F6F206B000E1F251D6F030E20211E6F49
:1021C0001D512A6F1E512B6F000E0DEF0FF0080EE0
:1021D000485CD8A4F5EF10F04950D8B48A9C490463
:1021E000D8A46EEF13F08A8C1200090E485CD8A4B4
:1021F000FEEF10F04950596E5A6A12000A0E485C00
:10220000D8A40EEF11F0495002011F6F206B000E91
:102210001F25596E010E20215A6E12000B0E485CCC
:10222000D8A41EEF11F0495002011F6F206B000E61
:102230001F25596E020E20215A6E12000C0E485CAA
:10224000D8A42EEF11F0495002011F6F206B000E31
:102250001F25596E030E20215A6E12000D0E485C88
:10226000D8A437EF11F049505B6E5C6A12000E0E75
:10227000485CD8A447EF11F0495002011F6F206B52
:10228000000E1F255B6E010E20215C6E12000F0EEA
:10229000485CD8A457EF11F0495002011F6F206B22
:1022A000000E1F255B6E020E20215C6E1200100EC8
:1022B000485CD8A467EF11F0495002011F6F206BF2
:1022C000000E1F255B6E030E20215C6E1200110EA6
:1022D000485CD8A4AFEF11F04904D8A47CEF11F00A
:1022E000595002013E6F5A503F6F5B50406F5C5037
:1022F000416F010ECFEF0BF04950D8A48CEF11F0D5
:10230000595002013E6F5A503F6F5B50406F5C5016
:10231000416F000ECFEF0BF0020E495CD8A49DEF89
:1023200011F0595002013E6F5A503F6F5B50406FA1
:102330005C50416F020ECFEF0BF0030E495CD8A446
:10234000AEEF11F0595002013E6F5A503F6F5B5093
:10235000406F5C50416F030ECFEF0BF01200120E76
:10236000485CD8A4BDEF11F04950D8B48A9E490406
:10237000D8A46EEF13F08A8E1200130E485CD8A416
:10238000C6EF11F049505D6E5E6A1200140E485C93
:10239000D8A4D6EF11F0495002011F6F206B000E38
:1023A0001F255D6E010E20215E6E1200150E485C29
:1023B000D8A4E6EF11F0495002011F6F206B000E08
:1023C0001F255D6E020E20215E6E1200160E485C07
:1023D000D8A4F6EF11F0495002011F6F206B000ED8
:1023E0001F255D6E030E20215E6E1200170E485CE5
:1023F000D8A400EF12F0495000015F6F606B12002B
:10240000180E485CD8A413EF12F0495002011F6F58
:10241000206B000E1F2500015F6F010E02012021BD
:102420000001606F1200190E485CD8A426EF12F06C
:10243000495002011F6F206B000E1F2500015F6FC6
:10244000020E020120210001606F12001A0E485C8A
:10245000D8A439EF12F0495002011F6F206B000E13
:102460001F2500015F6F030E020120210001606F34
:1024700012001B0E485CD8A443EF12F04950000133
:10248000616F626B12001C0E485CD8A456EF12F00C
:10249000495002011F6F206B000E1F250001616F64
:1024A000010E020120210001626F12001D0E485C26
:1024B000D8A469EF12F0495002011F6F206B000E83
:1024C0001F250001616F020E020120210001626FD1
:1024D00012001E0E485CD8A47CEF12F04950020195
:1024E0001F6F206B000E1F250001616F030E02019C
:1024F00020210001626F12001F0E485CD8A486EFF5
:1025000012F049500001636F646B1200200E485CAA
:10251000D8A499EF12F0495002011F6F206B000EF2
:102520001F250001636F010E020120210001646F6D
:102530001200210E485CD8A4ACEF12F04950020101
:102540001F6F206B000E1F250001636F020E02013A
:1025500020210001646F1200220E485CD8A4BFEF56
:1025600012F0495002011F6F206B000E1F25000161
:10257000636F030E020120210001646F1200230E1D
:10258000485CD8A4C6EF12F0516A1200240E485CD1
:10259000D8A4FCEF12F03F0E491402011F6F1F5127
:1025A000D8A4D8EF12F0140E4F6E506AE0EF12F07C
:1025B0003F0E49141F6F206B1F514F6E2051506EFC
:1025C000C00E49141F6F800E1F5DD8A4F2EF12F0E9
:1025D000010E516E010E086E4F50096E50500A6E7A
:1025E000C6EC01F0C00E491402011F6F1F51D8A4A0
:1025F0006EEF13F0516A1200250E485CD8A40AEF62
:1026000013F0280E4A5C4B10D8B46EEF13F049500B
:10261000E2EF08F0260E485CD8A457EF13F05750AD
:10262000D8A46EEF13F0510E36EC08F0530E36ECD2
:1026300008F0430E36EC08F0200E36EC08F0760E6B
:1026400036EC08F0310E36EC08F02E0E36EC08F0C1
:10265000310E36EC08F0200E36EC08F0240E36EC85
:1026600008F0350E02011C6F390E1C5DD8B43EEF28
:1026700013F0D8A03EEF13F0070E1C271C5136ECC8
:1026800008F0330E02011C6F390E1C5DD8B44EEFFA
:1026900013F0D8A04EEF13F0070E1C271C5136EC98
:1026A00008F00D0E36EC08F00A0E36EF08F0270E93
:1026B000485CD8A46EEF13F05750D8A46EEF13F017
:1026C0004E0E495CD8A467EF13F0476A1200590E0A
:1026D000495CD8A46EEF13F0010E476E1200E06A59
:1026E000F29EC26A0F0EC16EC06A070EB46EF26A25
:1026F00058EC09F0E9EC02F03AEC08F0D8EC08F0FC
:10270000086A4A50096E4B500A6EC6EC01F08A9E68
:102710008A9CB5EC0BF062EC09F0BFEC0BF0526A4E
:10272000556A566AD09EF188F0923DEC02F0F28E26
:10273000F28C80B2A8EF13F0576A020E4C6EC80EEE
:102740004A6E4B6A010E546E516AF098B3EF13F063
:10275000010E576E020E4C6E280E4A6E4B6A546A7A
:10276000010E516EF088140E4F6E506AB4EC02F0F8
:1027700068EC09F05404D8A4E2EF13F01AEC09F065
:10278000B7EC01F008500201186F0950196F185189
:10279000555C086E1951565C0810D8B4BAEF13F0A6
:1027A000B7EC01F00850556E0950566E82A4BAEF8E
:1027B00013F0546AECEC07F0F40E4A6E010E4B6E07
:1027C000BAEF13F05750D8A418EF14F082A40DEF0D
:1027D00014F0C6EC08F04604D8A43EEF14F0466AA4
:1027E0004450486E4550496E030E4C5CD8A409EF26
:1027F00014F080A800EF14F002011A9F02EF14F009
:1028000002011A8F1ABF08EF14F0899809EF14F02B
:10281000898845EC10F03EEF14F0010E546EC80E9E
:102820004A6E4B6A020E4C6E556A566A3EEF14F0C1
:10283000280E4A5C4B10D8B43EEF14F04004D8A4E4
:102840003EEF14F0406A4150486E4250496E030E0C
:102850004C5CD8A43CEF14F080A833EF14F00201D4
:102860001B9735EF14F002011B871BB73BEF14F0E9
:1028700089983CEF14F0898845EC10F01AEC09F0C7
:10288000C1EC02F027EC0FF042EC0BF0E6EC0FF09D
:10289000BAEF13F0F0A25CEF02F070EC03F05CEF23
:0228A00002F044
:020000040030CA
:0E0000002C0E3E1E008580000FC00FE00F404A
:00000001FF
