:020000040000FA
:0400000017EF00F006
:0800080006EF00F000011150A9
:10001000126EE950136EEA50146E07500B6E0850C2
:100020000C6E09500D6E0A500E6E79EF04F092902E
:100030009282928492869298928A938093829384F9
:1000400093969398939A939C939E9480948294848D
:1000500094869488948A948C949E48EF04F0D851A6
:10006000DA6FD951DB6FDC6BDD6B48EF00F000011C
:10007000600E076E210E086E082E3CEF00F0072E72
:100080003AEF00F0000000000000DC2BD8B4DD2BBC
:10009000DC51DA5D076EDD51DB5D0710D8A437EF68
:1000A00000F01200D46F010ED45DD8B45BEF00F005
:1000B000D8A05CEF00F01200F29AD890D435D76F38
:1000C00000EE1BF0D751E926D551EF6EE92AD65143
:1000D000EF6EF28A12000001D16F010ED15DD8B42B
:1000E00075EF00F0D8A077EF00F007801200D890ED
:1000F000D135D26F00EE1BF0D251E926EF50E92A3C
:10010000EF10D8A493EF00F0D890D135D36F00EE64
:100110001BF0D351E926EF50E92AEF10D8A493EF52
:1001200000F00780120007901200F80ED5140509A0
:10013000D56E630E1D6ED59AD596F294F28AF28E24
:100140000001CF6BD890CF35D06F00EE1BF0D051AF
:10015000E926EF6AE92AEF6ACF2BCF05D8A4A2EFF0
:1001600000F01200F2A4EDEF00F01D50D66ED76A39
:10017000192AD8B41A2A186AD8901834156E00EEC5
:100180001BF01550E926EF50E92AEF10D8B4E7EF3D
:1001900000F0D8901834166ED8901834176E00EE10
:1001A0001BF01750E926EF50076EE92AEF50086E52
:1001B0000A6E0704096E0928D8B40A0600EE1BF07F
:1001C0001650E9260950EF6EE92A0A50EF6E182AF8
:1001D0001804D8A4BCEF00F0F2940B50076E0C503A
:1001E000086E0D50096E0E500A6E1350E96E1450D1
:1001F000EA6E1250116E11008988206A640E1E6E1C
:100200001F6A1E500001D56F1F50D66F000E52EFAF
:1002100000F0640E1E5C1F10D8A413EF01F0000163
:10022000CE6B16EF01F0010E0001CE6FCE51120021
:10023000000E6BEC00F00001CD9107B0CD81CDA197
:100240004DEF01F0640E1E5C1F10D8A437EF01F0D3
:100250001E0E205CD8B433EF01F0D8B033EF01F0BC
:10026000202A37EF01F0840E1E6E030E1F6E1E5003
:10027000D56F1F50D66F000E52EC00F080A845EFEE
:1002800001F00001CD9747EF01F00001CD87CDB718
:100290004CEF01F08998120089881200810EAF6E30
:1002A000AC841200AC6AAB6A4EEC01F09D9A9D984A
:1002B000948E948CAC8AAB8EAB881200AB8E1200FD
:1002C0000001CC6F9EA862EF01F0CC51AD6E120020
:1002D000736A746A1200C86F020E7324CA6F500EDC
:1002E000CA5DD8B477EF01F0D8A078EF01F0CA6BFF
:1002F000CA51745CD8B48DEF01F000EE21F0735058
:10030000E926C851EF6E7328CB6F00EE21F0CB5178
:10031000E926C951EF6ECA51736E12007350745CB6
:10032000D8A496EF01F0C56BB4EF01F0010EC56FD4
:1003300000EE21F07450E926EF50756E7428C76FF7
:1003400000EE21F0C751E926EF50766E020E7424BC
:10035000C66F500EC65DD8B4B1EF01F0D8A0B2EFB1
:1003600001F0C66BC651746EC5511200776A7C6A83
:100370001200C36F300EC325C46F390EC45DD8B4EC
:10038000C7EF01F0D8A0C7EF01F0070EC427C45192
:1003900012000001C06FC0390F0BC26FB9EC01F041
:1003A0000001C16F60EC01F00F0E0001C015C26FBB
:1003B000B9EC01F00001C16F60EC01F0200E60EFBC
:1003C00001F07C04D8A4F5EF01F07C6A7E500001B6
:1003D000C96F7D506BEC01F07D50C9EC01F07E508F
:1003E000C9EC01F0200EC9EF01F012007750D8A43B
:1003F0000BEF02F0AE50786E7A6E130E785CD8B4C4
:1004000005EF02F0D8B009EF02F08980010E776E97
:100410001200899012007704D8A415EF02F0AE50B4
:10042000796E7A26020E776E1200020E775CD8A4DF
:1004300027EF02F0AE507B6E7A507B5CD8A424EF9D
:1004400002F0030E776E12008990776A1200030E95
:10045000775CD8A43DEF02F0AE507A6E7A28D8A42B
:100460003AEF02F078507D6E79507E6E010E7C6E10
:10047000776A12008990776A12008990776A120071
:100480008A968A988A8C8A8E8A9A010E0001D86F81
:10049000D96B2FEC00F08A8A0001936BA46BA56BDB
:1004A00012000001A46B010EA56F1200BE6FBE51B9
:1004B000D8A463EF02F0BF51D8B461EF02F08A8C88
:1004C00012008A9C1200BE05D8A46EEF02F0BF5144
:1004D000D8B46DEF02F08A8E12008A9E1200B86FB7
:1004E000BF6BBB5156EC02F00000000000000000A2
:1004F000800E0001BC6FBC51D8B49BEF02F0BC5120
:10050000B815BD6FBD51D8A489EF02F08A968AEF65
:1005100002F08A8600000000000000008A880000C7
:100520000000000000008A98D890BC330000000052
:1005300000007BEF02F0800EBC6FBC51D8B4BDEF61
:1005400002F0BC51B915BD6FBD51D8A4ABEF02F09C
:100550008A96ACEF02F08A860000000000000000DE
:100560008A8800000000000000008A98D890BC3300
:100570000000000000009DEF02F0800EBC6FBC5137
:10058000D8B4DFEF02F0BC51BA15BD6FBD51D8A48D
:10059000CDEF02F08A96CEEF02F08A8600000000CE
:1005A000000000008A8800000000000000008A9817
:1005B000D890BC33000000000000BFEF02F0000044
:1005C00000000000010EBF6FBB5156EF02F0B56B8B
:1005D000050EB55DD8B42CEF03F0D8B02CEF03F0C6
:1005E000D890B535B76F400EB725B66F0A0EB96F04
:1005F000BC0EBA6FBB6BB6516FEC02F00A0E000175
:10060000B96FBC0EBA6F010EBB6FB6516FEC02F042
:100610000001B96BBA6BBB6BB6516FEC02F0000115
:10062000B96BBA6B010EBB6FB6516FEC02F0100ED6
:100630000001B96FBA6BBB6BB6516FEC02F0100ED4
:100640000001B96FBA6B010EBB6FB6516FEC02F0CF
:100650000001B52BE8EF02F0B56B050EB55DD8B41F
:1006600060EF03F0D8B060EF03F0D890B535B76F06
:10067000400EB725B66F0A0EB96FBA6BBB6BB65199
:100680006FEC02F01A0E0001B96FBA6BBB6BB6517A
:100690006FEC02F00A0E0001B96FBA6B010EBB6F6E
:1006A000B6516FEC02F01A0E0001B96FBA6B010E71
:1006B000BB6FB6516FEC02F00001B52B2DEF03F0CC
:1006C0001200AF6F0A0EB26F010EAF15B46FB40512
:1006D000D8A46DEF03F01A0EB26F1E0EAF15B16FF6
:1006E0000A0EB15DD8B47BEF03F0D8B07BEF03F016
:1006F000B36B7FEF03F0F60EB127010EB36FB18D30
:100700004F0E60EC01F0550E60EC01F0540E60EC01
:1007100001F0200E60EC01F00001B151C9EC01F0D4
:100720000001B251C9EC01F00001B051C9EC01F077
:100730000001B351C9EC01F00D0E60EC01F00A0E9E
:1007400060EC01F00001B251B96FB051BA6FB35112
:10075000BB6FB1516FEF02F00001A551D8B4120088
:10076000A505D8A4EBEF03F000EE94F0A451E92620
:10077000EF50076E0728D8B4E8EF03F0A429AE6F56
:1007800000EE94F0AE51E926EF50B06F00EE94F019
:10079000A451E926EF5061EC03F0020E0001A427FA
:1007A0000E0EA45DD8B4DBEF03F0D8A0DBEF03F0AE
:1007B000020EA56F120000EE94F0A451E926EF504E
:1007C000076E0728D8A4E7EF03F0020EA56F12000A
:1007D000020EA56F1200020EA55DD8A4F3EF03F080
:1007E000A56B936B1200A56B936B12000001AD6BB0
:1007F000140EAD5DD8B408EF04F0D8B008EF04F0E3
:1008000000EE7FF0AD51E926EF6AAD2BF8EF03F073
:10081000010E936FE7EC02F00001936B120051EFB1
:1008200002F0AB6F946FAC51956FFF0E966F120094
:10083000A96F010EAA6F130EA95DD8B424EF04F0BE
:10084000D8A024EF04F0AA6BAA5112000001935122
:10085000D8A447EF04F08EEC01F00001A76FA705C4
:10086000D8A447EF04F0755018EC04F00001A86F0D
:10087000A805D8A446EF04F08980010E936F765046
:10088000AC6F755011EC04F051EF02F0899012003A
:10089000E06AF29EC26A070EC16EF26AB6EC01F01F
:1008A00040EC02F0FCEC00F068EC01F08980D09E96
:1008B00052EC01F05EEC01F095EC00F09D8AF28EB6
:1008C000F28CF6EC03F009EC01F00001A66FA651E2
:1008D000D8A46FEF04F018EC01F063EF04F018EC0B
:1008E00001F0E1EC01F026EC04F0ACEC03F06FEF6A
:1008F00004F09EAAB2EF00F09D8AF6EC01F0B2EF90
:0209000000F005
:020000040030CA
:0E0000000026060E000080000FC00FE00F402B
:00000001FF
