:020000040000FA
:0400000008EF01F014
:0800080006EF01F0000000000A
:100010000000000004040404040004000A0A0000B4
:10002000000000000A0A1F0A1F0A0A00040F140E2B
:10003000051E04001819020408130300081414080C
:1000400015120D000404040000000000020408085A
:1000500008040200080402020204080004150E0449
:100060000E1504000004041F04040000000000003A
:10007000040408000000001F000000000000000051
:100080000000040000010204081000000E11131506
:1000900019110E00040C040404040E000E110106D4
:1000A00008101F001F01020601110E0002060A12AD
:1000B0001F0202001F101E0101110E000708101E72
:1000C00011110E001F010204080808000E11110E84
:1000D00011110E000E11110F01021C00000004008E
:1000E00004000000000004000404080002040810DA
:1000F0000804020000001F001F00000008040201A5
:10010000020408000E110204040004000E11151769
:1001100016100F00040A11111F1111001E11111EDB
:1001200011111E000E11101010110E001E111111D0
:1001300011111E001F10101E10101F001F10101E86
:10014000101010000F10101013110F001111111FBB
:10015000111111000E04040404040E000101010138
:1001600001110E00111214181412110010101010A9
:1001700010101F00111B1515111111001111191567
:10018000131111000E11111111110E001E11111E6B
:10019000101010000E11111115120D001E11111E5C
:1001A000141211000E11100E01110E001F04040490
:1001B000040404001111111111110E00111111117B
:1001C000110A040011111115151B110011110A0457
:1001D0000A11110011110A04040404001F01020491
:1001E00008101F001F18181818181F000010080406
:1001F000020100001F03030303031F000000040AA1
:10020000110000000000000000001F00BBEF01F023
:1002100092909292928492869298929A93809382EC
:10022000938493869388938A938C938E94809482FC
:100230009484949C948E9590959295949596959887
:10024000959A959C959E969096929684A2EF0BF027
:100250000001F86FF851D8B41200F805D8A43AEFAD
:1002600001F000010A0E056E052E34EF01F00000CA
:1002700000001200F8070001070E056E052E3EEF84
:1002800001F00000F851F96FFA6B4EEF01F0000138
:100290000E0E056E052E4AEF01F0FA2BFA51F95DAC
:1002A000D8A447EF01F01200B886AC84030EAF6EFD
:1002B000010EB06E1200AC6AAB6A54EC01F09D9A6C
:1002C0009D98948E948CAC8AAB8EAB881200F76F9D
:1002D0009EA868EF01F0F751AD6E12009EAA77EF6D
:1002E00001F0AE500001F56F9E9A7BEF01F0000126
:1002F000F69181EF01F0ABA280EF01F0AB98AB88F3
:10030000F6810590F6B10580F5511200B18ECF0E41
:10031000B1143009B16EB192B26AB36A136A146A49
:10032000B180A082120013500101F06F1450F16FE0
:10033000F26BF36BF151F76FF051F66FF56BF46BF5
:10034000B250F86FB350F96FFA6BFB6BF451F825AC
:10035000FC6FF551F921FD6FF651FA21FE6FF7514F
:10036000FB21FF6FFC51056EFD51066EFE51076EBD
:10037000FF51086E1200A1A2C2EF01F0A192132A50
:10038000D8B4142A11000A0E156E0001F16FF26B39
:10039000F36BF46BF3511E6EF2511D6EF1511C6E36
:1003A0001B6A040E006ED8901C361D361E36002EB9
:1003B000D3EF01F0166A1200EC6FEC51D8A4E3EF12
:1003C00001F0166A1200EC51156EED6FEE6BEF6BDB
:1003D000F06BEF511E6EEE511D6EED511C6E1B6ADF
:1003E000040E006ED8901C361D361E36002EF2EF1D
:1003F00001F093EC01F005500001ED6F0650EE6F37
:100400000750EF6F0850F06FED511B24176EEE513F
:100410001C20186EEF511D20196EF0511E201A6E0F
:10042000010E166E12001604D8A42EEF02F093EC03
:1004300001F005500001E86F0650E96F0750EA6FC0
:100440000850EB6FE8511B24176EE9511C20186E01
:10045000EA511D20196EEB511E201A6E120016046F
:10046000D8A46CEF02F093EC01F005500001E06FAE
:100470000650E16F0750E26F0850E36F1A5CD8A492
:100480004EEF02F0E251195CD8A44EEF02F0E151B8
:10049000185CD8A44EEF02F0E051175CD8B46CEFB2
:1004A00002F0D8B06CEF02F0116A93EC01F0055045
:1004B0000001E46F0650E56F0750E66F0850E76FE4
:1004C000E4511B24176EE5511C20186EE6511D20C7
:1004D000196EE7511E201A6E120093EC01F00550C0
:1004E0000001DC6F0650DD6F0750DE6F0850DF6FD4
:1004F000B40EDC251F6EC40EDD21206E040EDE213D
:10050000216E000EDF21226E120093EC01F00550E7
:100510000001D86F0650D96F0750DA6F0850DB6FB3
:10052000225CD8A4A0EF02F0DA51215CD8A4A0EF9D
:1005300002F0D951205CD8A4A0EF02F0D8511F5C82
:10054000D8B4BCEF02F0D8B0BCEF02F0B40ED8259E
:100550001F6EC40ED921206E040EDA21216E000E0A
:10056000DB21226E1004D8A4B9EF02F0106A89983A
:100570001200010E106E89881200236A246A276A0D
:1005800012002750120082A2C9EF02F0D76BCBEF06
:1005900002F0010ED76F82A0D0EF02F0020ED72733
:1005A00084B0D5EF02F0800ED7271204D8B4D783D9
:1005B000D7511200D46F020E2324D56FF00ED55DF3
:1005C000D8B4E6EF02F0D8A0E7EF02F0D56BD55132
:1005D000245CD8B401EF03F001EE00F02350E926CB
:1005E000D451EF6E2328D66FC3EC02F00C6E01EEEF
:1005F00000F00001D651E9260C50EF6ED551236E64
:1006000012008D9012002350245CD8B4000C01EE2F
:1006100000F02450E926EF50256E24280001D36F06
:1006200001EE00F0D351E926EF50266E020E24248D
:10063000D26FF00ED25DD8B421EF03F0D8A022EF34
:1006400003F0D26BD251246E010C2750D8A434EFA2
:1006500003F003EC03F00001D16FD105D8A44BEFF8
:1006600003F0010E276E12002704D8A440EF03F018
:100670009EA84BEF03F02550AD6E020E276E1200C0
:10068000020E275CD8A44BEF03F09EA84BEF03F0BB
:100690002650AD6E276A12000001D06F2E04D8A438
:1006A00055EF03F0D05167EF01F01200286A2E6A6F
:1006B000120028501200CD6FCE6FCE1DCF6FCE51DD
:1006C000DAEF02F0286A1200CC6F300E4CEC03F027
:1006D0000001CC51296E010E286E12002850D8B4AA
:1006E00012002804D8A47BEF03F0310E4CEC03F089
:1006F000020E286E1200020E285CD8A4A2EF03F0AE
:10070000320E4CEC03F08982010E28EC01F0899244
:1007100093EC01F005500001C86F0650C96F0750F7
:10072000CA6F0850CB6F680EC8252A6E890EC92182
:100730002B6E090ECA212C6E000ECB212D6E030EDE
:10074000286E1200030E285CD8A4F6EF03F080B4E4
:10075000C7EF03F0330E4CEC03F08980010E28EC58
:1007600001F0811C0001C36F8990126A2E50D8A439
:10077000BDEF03F0C3515BEC03F0720E295CD8A40B
:10078000C5EF03F0010E286E1200286A1200720EE7
:10079000295CD8A4F6EF03F093EC01F005500001BA
:1007A000C46F0650C56F0750C66F0850C76F2D5CE9
:1007B000D8A4E7EF03F0C6512C5CD8A4E7EF03F010
:1007C000C5512B5CD8A4E7EF03F0C4512A5CD8B420
:1007D000F6EF03F0D8B0F6EF03F0286A010E126EC0
:1007E000000E5BEC03F0210E4CEF03F012002F6AB9
:1007F000306A0001826B8A6B120082511200000184
:10080000C16F2F28C26F500EC25DD8B40BEF04F039
:10081000D8A00CEF04F0C26BC251305CD8B41AEF10
:1008200004F000EE31F02F50E926C151EF6EC251B5
:100830002F6E12008D9012002F50305CD8B4000C37
:1008400000EE31F03050E926EF50816F3028C06F54
:10085000500EC05DD8B430EF04F0D8A031EF04F0F2
:10086000C06BC051306E010C8C6A8D82010E28EC79
:1008700001F08D92120000018A51D8B412008A054D
:10088000D8A44AEF04F08451FFEC03F0020E0001FB
:100890008A6F1200020E8A5DD8A40DEF05F0300EAB
:1008A000835DD8A475EF04F0842B8451D8B473EF22
:1008B00004F093EC01F005500001BC6F0650BD6FD1
:1008C0000750BE6F0850BF6F480EBC25866FE80EFC
:1008D000BD21876F010EBE21886F000EBF21896F79
:1008E000030E8A6F12008A6B1200310E835DD8A44A
:1008F000C5EF04F08551D8B499EF04F0850793EC67
:1009000001F005500001BC6F0650BD6F0750BE6F6F
:100910000850BF6F480EBC25866FE80EBD21876F5B
:10092000010EBE21886F000EBF21896F030E8A6FF2
:100930001200800E845DD8B4C3EF04F08451D8A4B3
:10094000A5EF04F0842BA7EF04F0D8908437010EB4
:10095000856F93EC01F005500001BC6F0650BD6F30
:100960000750BE6F0850BF6F480EBC25866FE80E5B
:10097000BD21876F010EBE21886F000EBF21896FD8
:10098000030E8A6F12008A6B1200320E835DD8A4A8
:10099000ECEF04F08551D8B4EAEF04F08507841F2A
:1009A00093EC01F005500001BC6F0650BD6F07507D
:1009B000BE6F0850BF6F480EBC25866FE80EBD2184
:1009C000876F010EBE21886F000EBF21896F030E55
:1009D0008A6F12008A6B12008551D8B40BEF05F0B4
:1009E000850793EC01F005500001BC6F0650BD6F08
:1009F0000750BE6F0850BF6F480EBC25866FE80ECB
:100A0000BD21876F010EBE21886F000EBF21896F47
:100A1000030E8A6F12008A6B1200030E8A5DD8A43F
:100A200035EF05F093EC01F005500001BC6F065066
:100A3000BD6F0750BE6F0850BF6F895DD8A42DEF02
:100A400005F0BE51885DD8A42DEF05F0BD51875D3E
:100A5000D8A42DEF05F0BC51865DD8B435EF05F074
:100A6000D8B035EF05F0010E8A6F1200BB6F836FAF
:100A7000300E835DD8A442EF05F0846BFF0E856FC6
:100A80006AEF05F0310E835DD8A44CEF05F0846B5E
:100A9000010E856F6AEF05F0320E835DD8A457EF23
:100AA00005F0AA0E846F1F0E856F6AEF05F0330EF6
:100AB000835DD8A462EF05F0FF0E846F0F0E856F83
:100AC0006AEF05F0340E835DD8A46AEF05F0846BFD
:100AD0000F0E856F010E8A6F120000018251D8A49B
:100AE00089EF05F084A4A6EF05F01CEC04F00001EA
:100AF000BA6FBA05D8A4A6EF05F081518C6E00013B
:100B0000070E056E052E82EF05F00000010E826FC4
:100B100012008205D8A498EF05F08D820001070E1F
:100B2000056E052E91EF05F00000020E826F120097
:100B3000020E825DD8A4A6EF05F08D920001070E8B
:100B4000056E052EA1EF05F00000826B1200B56B5B
:100B5000050EB55DD8B4EEEF05F0D8B0EEEF05F0B8
:100B6000B66B060EB76FB551006E100EB86F00521F
:100B7000D8B4C0EF05F0D890B833002EBBEF05F025
:100B8000B751800A056E800E055CD8B4CBEF05F036
:100B9000D8A0E7EF05F0D890B637B251B725F66E7A
:100BA000000EB7BFFF0E066EB3510620F76EB451AC
:100BB0000620F86EF89C0900F550056EB851051432
:100BC000B96FB951D8A4B62BB707C0EF05F0B6512D
:100BD000FFEC03F00001B52BA8EF05F0000EFFECD1
:100BE00003F0000EFFEF03F0A86F200EA85DA9919F
:100BF000D8B4FDEF05F0D8A0A9817F0EA85DA99318
:100C0000D8B405EF06F0D8B0A983A995A9A1A9B3D6
:100C1000A985A9B51200600EA85DD8B413EF06F03F
:100C2000D8A015EF06F0E00EA827E00EA827A851DF
:100C3000D8A424EF06F00C0EB26F000EB36F000EB6
:100C40004009B46FA7EF05F0A805D8A431EF06F06E
:100C5000140EB26F000EB36F000E4009B46FA7EF11
:100C600005F0020EA85DD8A43FEF06F01C0EB26F8F
:100C7000000EB36F000E4009B46FA7EF05F0030E2E
:100C8000A85DD8A44DEF06F0240EB26F000EB36F2E
:100C9000000E4009B46FA7EF05F0040EA85DD8A4BC
:100CA0005BEF06F02C0EB26F000EB36F000E400922
:100CB000B46FA7EF05F0050EA85DD8A469EF06F0A4
:100CC000340EB26F000EB36F000E4009B46FA7EF81
:100CD00005F0060EA85DD8A477EF06F03C0EB26FC3
:100CE000000EB36F000E4009B46FA7EF05F0070EBA
:100CF000A85DD8A485EF06F0440EB26F000EB36F66
:100D0000000E4009B46FA7EF05F0080EA85DD8A447
:100D100093EF06F04C0EB26F000EB36F000E400959
:100D2000B46FA7EF05F0090EA85DD8A4A1EF06F0F7
:100D3000540EB26F000EB36F000E4009B46FA7EFF0
:100D400005F00A0EA85DD8A4AFEF06F05C0EB26FF6
:100D5000000EB36F000E4009B46FA7EF05F00B0E45
:100D6000A85DD8A4BDEF06F0640EB26F000EB36F9D
:100D7000000E4009B46FA7EF05F00C0EA85DD8A4D3
:100D8000CBEF06F06C0EB26F000EB36F000E400991
:100D9000B46FA7EF05F00D0EA85DD8A4D9EF06F04B
:100DA000740EB26F000EB36F000E4009B46FA7EF60
:100DB00005F00E0EA85DD8A4E7EF06F07C0EB26F2A
:100DC000000EB36F000E4009B46FA7EF05F00F0ED1
:100DD000A85DD8A4F5EF06F0840EB26F000EB36FD5
:100DE000000E4009B46FA7EF05F0100EA85DD8A45F
:100DF00003EF07F08C0EB26F000EB36F000E4009C8
:100E0000B46FA7EF05F0110EA85DD8A411EF07F09D
:100E1000940EB26F000EB36F000E4009B46FA7EFCF
:100E200005F0120EA85DD8A41FEF07F09C0EB26F5C
:100E3000000EB36F000E4009B46FA7EF05F0130E5C
:100E4000A85DD8A42DEF07F0A40EB26F000EB36F0B
:100E5000000E4009B46FA7EF05F0140EA85DD8A4EA
:100E60003BEF07F0AC0EB26F000EB36F000E4009FF
:100E7000B46FA7EF05F0150EA85DD8A449EF07F0F1
:100E8000B40EB26F000EB36F000E4009B46FA7EF3F
:100E900005F0160EA85DD8A457EF07F0BC0EB26F90
:100EA000000EB36F000E4009B46FA7EF05F0170EE8
:100EB000A85DD8A465EF07F0C40EB26F000EB36F43
:100EC000000E4009B46FA7EF05F0180EA85DD8A476
:100ED00073EF07F0CC0EB26F000EB36F000E400937
:100EE000B46FA7EF05F0190EA85DD8A481EF07F045
:100EF000D40EB26F000EB36F000E4009B46FA7EFAF
:100F000005F01A0EA85DD8A48FEF07F0DC0EB26FC3
:100F1000000EB36F000E4009B46FA7EF05F01B0E73
:100F2000A85DD8A49DEF07F0E40EB26F000EB36F7A
:100F3000000E4009B46FA7EF05F01C0EA85DD8A401
:100F4000ABEF07F0EC0EB26F000EB36F000E40096E
:100F5000B46FA7EF05F01D0EA85DD8A4B9EF07F098
:100F6000F40EB26F000EB36F000E4009B46FA7EF1E
:100F700005F01E0EA85DD8A4C7EF07F0FC0EB26FF7
:100F8000000EB36F000E4009B46FA7EF05F01F0EFF
:100F9000A85DD8A4D5EF07F0040EB26F010EB36FB1
:100FA000000E4009B46FA7EF05F0200EA85DD8A48D
:100FB000E3EF07F00C0EB26F010EB36F000E4009A5
:100FC000B46FA7EF05F0210EA85DD8A4F1EF07F0EC
:100FD000140EB26F010EB36F000E4009B46FA7EF8D
:100FE00005F0220EA85DD8A4FFEF07F01C0EB26F2B
:100FF000010EB36F000E4009B46FA7EF05F0230E8A
:10100000A85DD8A40DEF08F0240EB26F010EB36FE7
:10101000000E4009B46FA7EF05F0240EA85DD8A418
:101020001BEF08F02C0EB26F010EB36F000E4009DB
:10103000B46FA7EF05F0250EA85DD8A429EF08F03E
:10104000340EB26F010EB36F000E4009B46FA7EFFC
:1010500005F0260EA85DD8A437EF08F03C0EB26F5D
:10106000010EB36F000E4009B46FA7EF05F0270E15
:10107000A85DD8A445EF08F0440EB26F010EB36F1F
:10108000000E4009B46FA7EF05F0280EA85DD8A4A4
:1010900053EF08F04C0EB26F010EB36F000E400913
:1010A000B46FA7EF05F0290EA85DD8A461EF08F092
:1010B000540EB26F010EB36F000E4009B46FA7EF6C
:1010C00005F02A0EA85DD8A46FEF08F05C0EB26F91
:1010D000010EB36F000E4009B46FA7EF05F02B0EA1
:1010E000A85DD8A47DEF08F0640EB26F010EB36F57
:1010F000000E4009B46FA7EF05F02C0EA85DD8A430
:101100008BEF08F06C0EB26F010EB36F000E40094A
:10111000B46FA7EF05F02D0EA85DD8A499EF08F0E5
:10112000740EB26F010EB36F000E4009B46FA7EFDB
:1011300005F02E0EA85DD8A4A7EF08F07C0EB26FC4
:10114000010EB36F000E4009B46FA7EF05F02F0E2C
:10115000A85DD8A4B5EF08F0840EB26F010EB36F8E
:10116000000E4009B46FA7EF05F0300EA85DD8A4BB
:10117000C3EF08F08C0EB26F010EB36F000E400982
:10118000B46FA7EF05F0310EA85DD8A4D1EF08F039
:10119000940EB26F010EB36F000E4009B46FA7EF4B
:1011A00005F0320EA85DD8A4DFEF08F09C0EB26FF8
:1011B000010EB36F000E4009B46FA7EF05F0330EB8
:1011C000A85DD8A4EDEF08F0A40EB26F010EB36FC6
:1011D000000E4009B46FA7EF05F0340EA85DD8A447
:1011E000FBEF08F0AC0EB26F010EB36F000E4009BA
:1011F000B46FA7EF05F0350EA85DD8A409EF09F08C
:10120000B40EB26F010EB36F000E4009B46FA7EFBA
:1012100005F0360EA85DD8A417EF09F0BC0EB26F2A
:10122000010EB36F000E4009B46FA7EF05F0370E43
:10123000A85DD8A425EF09F0C40EB26F010EB36FFC
:10124000000E4009B46FA7EF05F0380EA85DD8A4D2
:1012500033EF09F0CC0EB26F010EB36F000E4009F0
:10126000B46FA7EF05F0390EA85DD8A441EF09F0DF
:10127000D40EB26F010EB36F000E4009B46FA7EF2A
:1012800005F03A0EA85DD8A44FEF09F0DC0EB26F5E
:10129000010EB36F000E4009B46FA7EF05F03B0ECF
:1012A000A85DD8A45DEF09F0E40EB26F010EB36F34
:1012B000000E4009B46FA7EF05F03C0EA85DD8A45E
:1012C0006BEF09F0EC0EB26F010EB36F000E400928
:1012D000B46FA7EF05F03D0EA85DD8A479EF09F033
:1012E000F40EB26F010EB36F000E4009B46FA7EF9A
:1012F00005F03E0EA85DD8A487EF09F0FC0EB26F92
:10130000010EB36F000E4009B46FA7EF05F03F0E5A
:10131000A85DD8A495EF09F0040EB26F020EB36F6A
:10132000000E4009B46FA7EF05F01200116A00012A
:10133000906B916B8D80120011501200020E000113
:101340009025A66F780EA65DD8B4AAEF09F0D8A0B4
:10135000ABEF09F0A66BA651915DD8B4C1EF09F0CF
:1013600002EE00F09051E9268C51EF6E9029A76FA4
:1013700002EE00F0A751E9268D51EF6EA651906F55
:1013800012008D90120000019051915DD8B4000CB4
:1013900002EE00F09151E926EF508E6F9129A56F72
:1013A00002EE00F0A551E926EF508F6F020E912555
:1013B000A46F780EA45DD8B4E1EF09F0D8A0E2EFF5
:1013C00009F0A46BA451916F010C82A2ECEF09F01B
:1013D0000001A26BEFEF09F0010E0001A26F82A0E5
:1013E000F4EF09F0020EA22784B0F9EF09F0800EA5
:1013F000A227A21DA36FA251DAEF02F06EEC01F05A
:101400000001A06FA19105B0A181A1A10BEF0AF08D
:10141000A0518B6F010C000C1150D8A420EF0AF0E2
:10142000FEEC09F000019F6F9F05D8A434EF0AF08D
:101430008B518C6F13EC02F0010E116E8D90120027
:101440001104D8A434EF0AF0FEEC09F000019F6FFC
:101450009F05D8A434EF0AF08B518D6F13EC02F086
:101460009EEC09F0116A8D801200010E986F520EE9
:101470008E5D9B91D8B49B81500E8E5D9B93D8B4AA
:101480009B839B959BA19BB39B85410E8E5D9B97F8
:10149000D8B49B879B999BA59BB79B89720E8E5D49
:1014A0009B9BD8B49B8B9B9D9BA99BBB9B8D490E03
:1014B0008E5D9B9FD8B49B8F9C919BAD9BBF9C8165
:1014C000430E8E5D9C93D8B49C839C959CA19CB349
:1014D0009C85570E8E5D9C97D8B49C879C999CA543
:1014E0009CB79C894D0E8E5D9C9BD8B49C8B9C9D1B
:1014F0009CA99CBB9C8D530E8E5D9C9FD8B49C8FE9
:101500009D919CAD9CBF9D81440E8E5D9D93D8B4F2
:101510009D839D959DA19DB39D859DB591EF0AF0FD
:10152000986B520E8F5D9D97D8B49D87720E8F5D1C
:101530009D99D8B49D899D9B9DA79DB99D8B490E72
:101540008F5D9D9DD8B49D8D9D9F9DAB9DBD9D8FB5
:10155000430E8F5D9E91D8B49E819E939DAF9EB1A8
:101560009E834D0E8F5D9E95D8B49E859E979EA3BB
:101570009EB59E87530E8F5D9E99D8B49E899E9B83
:101580009EA79EB99E8B9EABD0EF0AF08E1D996FE1
:1015900099299A6F8F519A5DD8B4D0EF0AF0986B61
:1015A000010E986F1200C3EC09F00001936F9305D0
:1015B000D8A4A1EF0BF035EC0AF00001946F94056C
:1015C000D8A4A0EF0BF08D80500E8E5DD8A4ECEF68
:1015D0000AF08F51FFEF03F0410E8E5DD8A4F4EFB7
:1015E0000AF08F51F4EF05F0520E8E5DD8A4FCEF97
:1015F0000AF08E5164EF03F0720E8E5DD8A404EFF2
:101600000BF08E5164EF03F0490E8E5DD8A417EFF6
:101610000BF0898A010E28EC01F0899A010E28EC62
:1016200001F0898A010E28EC01F0E5EF09F0430E84
:101630008E5DD8A426EF0BF096EC09F0F7EC03F0E2
:1016400056EC03F0BDEC02F08D801200570E8E5D5B
:10165000D8A42EEF0BF08F51DCEF01F04D0E8E5D14
:10166000D8A458EF0BF09CEC09F00001926F59ECF4
:1016700003F00001936FD8909335946FD89094370E
:1016800094519227FDEC03F00001936F9339F00B16
:10169000946F9227C1EC02F00001936F9331946F25
:1016A00094339431C00B946F922792515BEF03F007
:1016B000530E8E5DD8B4E5EF09F0440E8E5DD8A4CC
:1016C0009FEF0BF0300E8F5D9699D8B49689310E4E
:1016D0008F5D969BD8B4968B969D96A996BB968D5A
:1016E000320E8F5D969FD8B4968F979196AD96BF28
:1016F0009781330E8F5D9793D8B49783979597A171
:1017000097B39785340E8F5D9797D8B4978797993D
:1017100097A597B7978997A991EF0BF08F5136EF5F
:1017200005F0350E8F5DD8A4A1EF0BF02E50D8A494
:101730009DEF0BF0010E2E6E12002E6A12001200A9
:101740008D901200E06AF29EC26A0F0EC16EC06AEE
:10175000070EB46E5BEC01F0F26A8D808988010E91
:10176000106E899089928D92898A640E28EC01F01E
:10177000899A640E28EC01F0898A96EC09F0BDEC98
:1017800002F0F7EC03F056EC03F086EC01F06DECA0
:1017900002F0C3EC01F0126AD09EF28CF28E62EC81
:1017A00003F034EC04F02FEC02F085EC02F00CECCA
:1017B0000AF0D3EC0AF03BEC04F06DEC05F06EECB3
:0A17C00003F025EC03F0D3EF0BF06B
:020000040030CA
:0E000000000C3E1E008580000FC00FE00F4078
:00000001FF
