:020000040000FA
:04000000C1EF00F05C
:08000800A4EF00F01201000258
:1000100002000008D8040A000100010200010902E0
:1000200043000201008032090400000102020100C5
:100030000524001001042402020524060001052401
:100040000100010705820308000209040100020AF9
:1000500000000007050302080000070583020800EE
:1000600000000403090436034D00690063007200B8
:100070006F00630068006900700020005400650094
:10008000630068006E006F006C006F00670079000D
:100090002C00200049006E0063002E001E034A0061
:1000A00041004C004C004900420020005300650014
:1000B0007200690061006C002E003031323334353B
:1000C000363738394142434445461400EE02320087
:1000D000450164009600960078002C015A00140037
:1000E000EE023200450164009600960078002C0173
:1000F0005A001400EE02320045016400960096009A
:1001000078002C015A001400EE0232004501640010
:100110009600960078002C015A0019BEA3EF00F05B
:1001200019BC99EF00F01850EA6E1750E96EEF50C5
:1001300012001750F66E1850F76E19503F0BF86EFC
:100140000800F5501200120000011350146E1550F3
:10015000166E17501A6EE9501B6EEA501C6EF65060
:100160001D6EF7501E6EF8501F6EF550206E085031
:100170000D6E09500E6E0A500F6E0B50106ECCEFC4
:1001800017F0FF6B000E216E080E226E9280928295
:10019000928492869298928A939093929384939663
:1001A0009398939A939C939E948094929484949C15
:1001B000949E80EF03F01B511D6F1C511E6F1F6B2F
:1001C000206BF2EF00F00001FF0E086E0E0E096EBC
:1001D000092EE8EF00F0082EE6EF00F002011F2BD9
:1001E000D8B4202B1F511D5D086E20511E5D0810D4
:1001F000D8A4E3EF00F01200F29A55500201196FF3
:1002000056501A6FF28A1951086E1A51096E12006F
:100210000001FF2BFF2D0FEF01F021EF01F0225025
:10022000EA6E2150E96E0408216EE9063850EF6E3F
:10023000E9063950EF6EE9063A50EF6EE9063B5099
:10024000EF6E0850386E0950396E0A503A6E020E41
:10025000385CD8B42FEF01F0D8A031EF01F03FEFB8
:1002600001F0F29AD89038343B6E00EE57F03B50D4
:10027000E9263950EF6EE92A3A50EF6EF28AFF2FE5
:1002800043EF01F012002250EA6E2150E96EEF5068
:100290003B6EE92AEF503A6EE92AEF50396EE92AAF
:1002A000EF50386EE928216E12000201166F020E1F
:1002B000165DD8B45FEF01F0D8A061EF01F00880BF
:1002C0001200D8901635176F00EE57F01751E92637
:1002D000EF50E92AEF10D8A47DEF01F0D890163541
:1002E000186F00EE57F01851E926EF50E92AEF1089
:1002F000D8A47DEF01F00880120008901200F80EDB
:10030000D5140509D56E440E5B6ED59AD596F29438
:10031000F28AF28E0201146BD8901435156F00EE3C
:1003200057F01551E926EF6AE92AEF6A142B020EFD
:10033000145DD8A48CEF01F01200F2A4D9EF01F003
:100340005B50D66ED76A552AD8B4562A336AD890ED
:100350003334306E00EE57F03050E926EF50E92A82
:10036000EF10D8B4D2EF01F0D8903334316ED8907A
:100370003334326E00EE57F03250E926EF50086EFB
:10038000E92AEF50096E0B6E08040A6E0A28D8B4E9
:100390000B0600EE57F03150E9260A50EF6EE92ABD
:1003A0000B50EF6E332A020E335CD8A4A7EF01F096
:1003B000F2940D50086E0E50096E0F500A6E1050D8
:1003C0000B6E1D50F66E1E50F76E1F50F86E2050CB
:1003D000F56E1B50E96E1C50EA6E1A50176E1650DF
:1003E000156E1450136E1100B18ECF0EB11430097A
:1003F000B16EB192B26AB36A5C6A5D6AB180A08282
:1004000012005C500201046F5D50056F066B076BB4
:1004100005510B6F04510A6F096B086BB2500C6FDA
:10042000B3500D6F0E6B0F6B08510C25106F0951F7
:100430000D21116F0A510E21126F0B510F21136FF5
:100440001051086E1151096E12510A6E13510B6E44
:100450001200A1A29DEF01F0A1925C2AD8B45D2AFE
:100460009DEF01F05E6A5F6A606B070E616F636B00
:10047000626B12004304D8A446EF02F0010E086E2E
:100480004450096E45500A6E08EC01F000016251BB
:10049000D8A469EF02F0040E3E5CD8A456EF02F037
:1004A000070E615DD8A456EF02F0899880AA5BEF31
:1004B00002F0800E5E266151D8B463EF02F0D8904E
:1004C0005E3261071200050E616F5F6A010E626F96
:1004D00012006205D8A484EF02F080AA72EF02F045
:1004E000800E5F266151D8B47AEF02F0D8905F3267
:1004F00061071200D8905F32D8905F32070E616FAB
:10050000606B020E626F1200020E625DD8A4C2EF31
:1005100002F080AA8EEF02F0800E60276151D8B4FD
:1005200096EF02F0D890603361071200040E3E5C33
:10053000D8B48988750E5E5CD8A4BBEF02F02E0E8D
:100540005F5CD8B4A7EF02F0D8B0B4EF02F0626BF2
:10055000070E616F5F50646F6051656F5E6A5F6A1E
:10056000606B010E636F1200626B070E616F5E6A53
:100570005F6A606B1200626B070E616F5E6A5F6A92
:10058000606B1200070E616F5E6A5F6A606B626B80
:1005900012003AEC02F0F092F08812000101FE6FB6
:1005A000FC51E16EFD51E26EFE510201036F01014B
:1005B000FF6BEDEF02F000510101FF25176E000EF9
:1005C000086E020101510820186E02510820196EB0
:1005D0008DEC00F0E66E0101FF2BFF510201035D7F
:1005E000D8A4DBEF02F01200040104BF12000001E6
:1005F0006951665DD8B402EF03F0D8B002EF03F0A2
:100600006651696FD880695167550101FB6F000120
:10061000685DD8B412EF03F0D8B012EF03F0685160
:100620000101FB6F780E000167250401066F000EC3
:10063000086E040E0820076F0101FB510401056FCD
:1006400004AD27EF03F0880E046F29EF03F0C80E06
:10065000046F0101FB51000167276751695D1200BA
:10066000080E686F676B696B666B0401049DF4EF9D
:1006700002F00101FA6F0401786F080E0001686F43
:10068000676B010E696F010E666F0401049DF4EF44
:1006900002F0840E040100131200080E0401016F21
:1006A000200E026F040E036F030E00016B5DD8A4D1
:1006B00061EF03F08C0E0101F96F0401046B64EF2C
:1006C00003F0C80E0101F96F0101F9510401006F37
:1006D0001200F56FD890F535F86FD890F837D890AC
:1006E000F837F829F76F04EE00F0F751E926F651D4
:1006F000EF6E04EE00F0F851E926800EEF6E120066
:100700006D6BFD912A6A2B6A2C6A2D6A100E2E6E73
:10071000F2EF16F00401F9510101F46F210EF45DBE
:10072000D8A496EF03F0050E00016B6F12000401D0
:100730001CBF9FEF03F00101F391A1EF03F0010152
:10074000F381F3B112002A502B5CD8A4AFEF03F071
:100750000001FDA112000101EE6BC1EF03F02A5070
:100760002B5CD8B4BDEF03F0D8B0BDEF03F0D88058
:100770002A502B54EE6FC1EF03F0D880200E2B547B
:10078000EE6F080EEE5DD8B4CBEF03F0D8A0CBEF40
:1007900003F0080EEE6FEE51F16FF06BE0EF03F037
:1007A0002B50F025EF6F00EE6EF0EF51E926EF5081
:1007B000086E04EE58F0F051E9260850EF6EF02B69
:1007C000F051F15DD8A4D0EF03F0580E04011E6F74
:1007D000040E1F6F0101EE5104011D6F1CADF5EFFA
:1007E00003F0880E1C6FF7EF03F0C80E1C6F2B5040
:1007F0000101EE25F26F1F0EF25DD8B404EF04F094
:10080000D8A004EF04F0F26BF2512B6E080EEE5DEF
:100810000001FD91D8B4FD811200EC6F2A28ED6F24
:10082000200EED5DD8B4ED6B00EE6EF02A50E92697
:10083000EC51EF6EED512A6E120000EE8EF02D504D
:10084000E926EF50EA6F2E2A2D28EB6F100EEB5D94
:10085000D8B4EB6BEB512D6EEA5112002D502C5C8D
:10086000E991D8A4E9810890E9B10880120097ECD9
:1008700003F0080E2E5CD8B441EF04F0D8A04BEF83
:1008800004F0040118BF4BEF04F0080E0101F66FED
:10089000030E69EF03F01200236AC20E246E010EEC
:1008A000256E266A276A080E296E286A120004013E
:1008B000F9512F6E060E2F5CD8A40FEF05F0FB51F7
:1008C0000101E76F0401FA510101E86F0001696B52
:1008D0000101E705D8A483EF04F0120E0001696F4F
:1008E000780E0101FC6F040EFD6F0C0E0201006F0B
:1008F000000E016F000E4009026F00016951CEEC3D
:1009000002F0F2EF04F0020EE75DD8A49EEF04F0CF
:10091000430E0001696F780E0101FC6F040EFD6F3C
:100920001E0E0201006F000E016F000E4009026FE3
:1009300000016951CEEC02F0F2EF04F0030EE75D26
:10094000D8A4F0EF04F0E851D8A4BBEF04F0040EF3
:100950000001696F780E0101FC6F040EFD6F620EDD
:100960000201006F000E016F000E4009026F0001CE
:100970006951CEEC02F00101E805D8A4D4EF04F0EF
:10098000360E0001696F780E0101FC6F040EFD6FD9
:10099000660E0201006F000E016F000E4009026F2B
:1009A00000016951CEEC02F0020E0101E85DD8A40D
:1009B000F2EF04F01E0E0001696F780E0101FC6F6A
:1009C000040EFD6F9C0E0201006F000E016F000E01
:1009D0004009026F00016951CEEC02F0F2EF04F021
:1009E000220EE75D00016951D8B40DEF05F0080E45
:1009F000686F0401FF51D8A403EF05F0FE51000118
:100A0000666F06EF05F0FF0E0001666F030E6B6F59
:100A1000676B0401049DF4EF02F049EF03F0050E4B
:100A20002F5CD8A41FEF05F0FA5100016C6F010E86
:100A30006A6F30EC03F0060E00016B6F1200090EB6
:100A40002F5CD8A455EF05F0060E00016B6F30EC5B
:100A500003F07188718471827186400E04010C6FFD
:100A6000080E096F300E0A6F040E0B6F800E086FB0
:100A70007288728472827286400E146F080E116F33
:100A8000400E126F040E136F800E106F7388738404
:100A900073827386400E1C6F080E196F500E1A6F0A
:100AA000040E1B6F800E186F12000A0E2F5CD8A464
:100AB00060EF05F0030E00016B6F010E39EF03F0DC
:100AC0002F50D8A467EF05F0000E39EF03F01200A5
:100AD000D8906C30D46FD890D433D890D4336CA4E1
:100AE0007EEF05F0D890040104310101D66FD89053
:100AF000D6330F0ED615D56F88EF05F0D8900401C8
:100B000000310101D66FD890D6330F0ED615D56FB0
:100B1000D451D8A47EEF06F00D0ED55DD8A403EF16
:100B200006F0D76B04EE20F0D751E926EF50086E9F
:100B300004EEF8F0D751E9260850EF6ED72B080ED7
:100B4000D75DD8A492EF05F06D984DEC03F0300E10
:100B50000401F8150101D66FD651D8B457EF04F04F
:100B6000200ED65DD8A4FDEF05F00401F951010176
:100B7000D86F230ED85DD8A4C3EF05F0060E000190
:100B80006B6F30EF03F0200ED85DD8A4CCEF05F0EA
:100B9000020E00016B6F1200210ED85DD8A4EEEF9B
:100BA00005F0FF0E0001666F070E696F780E0101F8
:100BB000FC6F040EFD6F230E0201006F016B026BD0
:100BC00000016951CEEC02F0080E0001686F030EBF
:100BD0006B6F676B0401049DF4EF02F0220ED85D89
:100BE000D8A4FCEF05F0060E00016B6F30EC03F0AB
:100BF0000401FA5100016D6F1200400ED65DD8A4B9
:100C0000F9EF06F01200090ED55DD8A426EF06F024
:100C1000030E00016B5DD8B4F4EF02F0060E6B5DBD
:100C2000D8A41CEF06F06B6B6A05D8A4F9EF06F0A8
:100C30006C516E6E6A6B1200050E6B5DD8B41200BB
:100C4000040E6B5DD8B48AEF03F01200020ED55D7E
:100C5000D8A43DEF06F0030E00016B5DD8B4F4EFAD
:100C600002F0040E6B5DD8B48AEF03F0060E6B5DE4
:100C7000D8A4F9EF06F06B6B1200D505D8A4F9EFF4
:100C800006F0050E00016B5DD8A44AEF06F06B6B11
:100C90004DEF03F0020E6B5DD8A472EF06F0040175
:100CA000F9510101D96F200ED95DD8A470EF06F07B
:100CB000DA6B04EE20F0DA51E926EF50086E00EE10
:100CC00023F0DA51E9260850EF6EDA2B070EDA5DD1
:100CD000D8A459EF06F0060E00016B6F30EC03F05C
:100CE0004DEF03F0030E6B5DD8A47CEF06F04DECE6
:100CF00003F000016B6B12004DEF03F06CA4A5EF45
:100D000006F0D890D435DB6FD890DB37D890DB373E
:100D1000040EDB27DB29D66F020EDB25D66F04EE2F
:100D200000F0D651E926EF50DC6F030EDB25D66FBD
:100D300004EE00F0D651E926EF50DD6F030ED45DCE
:100D4000D8A4F9EF06F097EF03F0D890D435DE6F12
:100D5000D890DE37D890DE37DE29D66F04EE00F06B
:100D6000D651E926EF50DF6F04EE00F0DE51E926A0
:100D7000EF50E06FE0BFF9EF06F0020EDE25D66F10
:100D800004EE00F0D651E926EF50E16F030EDE25A8
:100D9000D66F04EE00F0D651E926EF50E26F030E55
:100DA000D45DD8A4F9EF06F0E151E16EE251E26EB4
:100DB000DF51E46FE56BF4EF06F02C28E36F100EC3
:100DC000E35DD8B4E36BE3512D5CD8B4F3EF06F0E8
:100DD000E650E66F00EE8EF02C50E926E651EF6EFD
:100DE000E3512C6E2E06E52BE551E45DD8A4DDEF32
:100DF00006F01200A1AA4CEF07F0A19AD36B68A6E7
:100E000005EF07F068EC05F068960101D32B040E9E
:100E1000D35DD8A4FFEF06F068A03EEF07F06A6A42
:100E2000686A00016C6B716A726A736A746A756AC7
:100E3000766A776A786A796A7A6A7B6A7C6A7D6A96
:100E40007E6A7F6A160E706E68A62AEF07F06896B3
:100E500024EF07F06B6B6A6B6D98080E0401056F49
:100E6000280E066F040E076F046B080E016F200E2C
:100E7000026F040E036F8C0E006F689068BA689A58
:100E800068B8689868AC48EF07F037EC04F0689CE5
:100E900068A24CEF07F068921200FAEC06F097EFA8
:100EA00003F06D6A140E6F6E6B0E696EA09A4CECB7
:100EB00004F0686A6D6A6D861200D06F00016D5192
:100EC0000101D16FD151D8B412002A28D26F200E5F
:100ED000D25DD8B4D26B0101D2512B5CD8A475EF8E
:100EE00007F04DEC07F06BEF07F0D0510DEF04F079
:100EF00000016D510101CE6FCE51D8A483EF07F0F0
:100F0000089094EF07F02EEC04F00101CF9308B0A5
:100F1000CF83CFB38FEF07F0089094EF07F01DEC6D
:100F200004F00101CD6F0880CD51120078EC07F07C
:100F30000101CB6F12000101CA6F5DEF07F00001E4
:100F4000A16BA26B9E6B12000101C96F0001A2058B
:100F5000D8A4AFEF07F00101C9519BEF07F01200D1
:100F60000101C66F0001A205D8A4E4EF07F001015A
:100F7000C6390F0BC76F0F0EC715C86FBA0EF66EC6
:100F8000000EF76E000EF86EC851F626000E086EC1
:100F9000F7220850F8220900F5509BEC07F00F0EDD
:100FA0000101C615C76FBA0EF66E000EF76E000E81
:100FB000F86EC751F626000E086EF7220850F82288
:100FC0000900F5509BEF07F01200C56F4304D8A449
:100FD000F2EF07F0010E086E4450096E45500A6E9C
:100FE00008EC01F000019E51D8A41CEF08F0300E6F
:100FF0000101C55DD8B400EF08F0D8B015EF08F0D6
:10100000C55100019F6F2C0E9F5DD8A40CEF08F016
:10101000436A780EA4EF07F0010E9E6F2D0EA4EC2C
:1010200007F000019F51B0EF07F0230EA4EC07F08A
:1010300000019F51B0EF07F09E05D8A42EEF08F0F5
:101040000101C5510001A06F010EA16F9E6B3D0E05
:10105000A4EC07F00001A051B0EF07F0020E9E5D76
:10106000D8B412009E6B210EA4EF07F00101C36BF0
:101070004DEC07F096EC07F00101C36FC49108B086
:10108000C481C4A147EF08F0C351E5EF07F0120097
:10109000436A1200010E436E12004304D8A459EFB4
:1010A00008F0010E086E4450096E45500A6E08EFB4
:1010B00001F012004304D8A482EF08F0010E55ECB1
:1010C00001F00101C29308B0C283C2A382EF08F00D
:1010D000020E00019E6FF0984204D8A479EF08F048
:1010E000070E616F5E6A5F6A606B626BF0887AEF11
:1010F00008F09E6B010E086E4450096E45500A6E52
:1011000008EF01F012008988010E0001A56FA66B9F
:10111000020E3E6EC80EA36FA46B12000101C06FD9
:10112000C051D8A497EF08F03E6A89881200C00524
:10113000D8A49FEF08F0010E3E6E89981200020EAF
:10114000C05DD8A4B3EF08F0086A0001A351096E8E
:10115000A4510A6E08EC01F0020E3E6E010E000171
:10116000A56F89881200030EC05DD8A4C8EF08F0EF
:10117000030E3E6E80A8C0EF08F0C199C1EF08F0E1
:10118000C189C1B9C6EF08F0899812008988120098
:10119000040EC05DD8A4D0EF08F0040E3E6E89881E
:1011A0001200020E3E5CD8A410EF09F0000E55ECC0
:1011B00001F00101BF9308B0BF83BFA310EF09F096
:1011C000280E0001A35DA411D8A4FEEF08F01E0EA6
:1011D000A65DD8B4F2EF08F0D8B0F2EF08F0A62B75
:1011E000FEEF08F0F098070E616F5E6A5F6A606B51
:1011F000626BE80EA36F030EA46FF088086AA35118
:10120000096EA4510A6E08EC01F00001A505D8A4EE
:101210000DEF09F0A56B89981200010EA56F898862
:1012200012000101BD6B040EBD5DD8B464EF09F07E
:10123000D8B064EF09F0D890BD35BE6F00EEA7F0CE
:10124000BE51E926EF6AE92AEF6AD890BD35BE6F34
:1012500000EEAFF0BE51E926EF6AE92AEF6AD890B6
:10126000BD35BE6F00EEDFF0BE51E926EF6AE92A18
:10127000EF6A00EEE7F0BD51E926EF6A00EEEBF011
:10128000BD51E926010EEF6ED890BD35BE6F00EE60
:10129000B7F0BE51E926C40EEF6EE92A0E0EEF6ECE
:1012A000D890BD35BE6F00EED7F0BE51E9262C0EAA
:1012B000EF6EE92A010EEF6E00EEF7F0BD51E92660
:1012C000EF6ABD2B13EF09F01200B96FD890B93552
:1012D000BC6F00EEB7F0BC51E926BA51EF6EE92AB7
:1012E000BB51EF6E1200B76F00EEF7F0B751E92671
:1012F000EF6AD890B735B86F00EEA7F0B851E9267D
:10130000EF6AE92AEF6AD890B735B86F00EEAFF010
:10131000B851E926EF6AE92AEF6AD890B735B86F75
:1013200000EEDFF0B851E926EF6AE92AEF6A00EE35
:10133000E7F0B751E926EF6A00EEEBF0B751E92686
:10134000010EEF6ED890B735B86F00EED7F0B851F8
:10135000E9262C0EEF6EE92A010EEF6E1200B56F32
:1013600000EEF7F0B551E926010EEF6ED890B535D5
:10137000B66F00EEA7F0B651E926EF6AE92AEF6AE8
:10138000D890B535B66F00EEAFF0B651E926EF6AEA
:10139000E92AEF6AD890B535B66F00EEDFF0B651A6
:1013A000E926EF6AE92AEF6A00EEE7F0B551E9268F
:1013B000EF6A00EEEBF0B551E926010EEF6EB55184
:1013C000D8A4EBEF09F020510001D76F01012151A2
:1013D0000001D86F1200B505D8A4F7EF09F0345119
:1013E0000001D96F010135510001DA6F1200020EC0
:1013F000B55DD8A404EF0AF048510001DB6F01018C
:1014000049510001DC6F1200030EB55DD8A410EF46
:101410000AF05C510001DD6F01015D510001DE6FDA
:101420001200B36FB351D8A439EF0AF0B451800A57
:10143000086E800E085CD8B424EF0AF0D8A024EF20
:101440000AF08A9C25EF0AF08A8C8A8E0001030E2E
:10145000086E082E29EF0AF08A9E0101B45100019E
:10146000A727000E0101B4BFFF0E086E0001A823DC
:101470001200B305D8A460EF0AF0B451800A086ED8
:10148000800E085CD8B44BEF0AF0D8A04BEF0AF0FE
:101490008A924CEF0AF08A828A800001030E086E5D
:1014A000082E50EF0AF08A900101B4510001A927DB
:1014B000000E0101B4BFFF0E086E0001AA23120046
:1014C000020EB35DD8A488EF0AF0B451800A086E0A
:1014D000800E085CD8B473EF0AF0D8A073EF0AF05E
:1014E0008A9874EF0AF08A888A860001030E086ED3
:1014F000082E78EF0AF08A960101B4510001AB275B
:10150000000E0101B4BFFF0E086E0001AC231200F3
:10151000030EB35DD8A4AFEF0AF0B451800A086E91
:10152000800E085CD8B49BEF0AF0D8A09BEF0AF0BD
:101530008B9C9CEF0AF08B8C8B8E0001030E086E47
:10154000082EA0EF0AF08B9E0101B4510001AD27D7
:10155000000E0101B4BFFF0E086E0001AE231200A1
:10156000B16FD890B135B26F00EEAFF0B251E9264D
:10157000EF6AE92AEF6AD890B135B26F00EEDFF07A
:10158000B251E926EF6AE92AEF6A00EEE7F0B151BD
:10159000E926EF6A12000101AB6FD890AB35AC6F52
:1015A000D890AB35AD6F00EEB7F0AD51E926EF50F6
:1015B000086EE92AEF50096E0B6E08040A6E0A28BD
:1015C000D8B40B0600EEA7F0AC51E9260A50EF6E36
:1015D000E92A0B50EF6ED890AB35AC6FD890AB3595
:1015E000AD6F00EEA7F0AD51E926EF50086EE92A85
:1015F000EF50096E00EEEFF0AC51E9260850EF6EA7
:10160000E92A0950EF6ED890AB35AC6FD890AC3763
:1016100001EC02F008500101AD6F0950AE6F0A50A5
:10162000AF6F0B50B06F900EAD25086E010EAE215E
:10163000096E000EAF210A6E000EB0210B6E01EE96
:1016400000F0AC51E9260850EF6EE92A0950EF6E20
:10165000E92A0A50EF6EE92A0B50EF6E00EE4EF0C9
:10166000AB51E926010EEF6E12009F6FD8909F35A7
:10167000A36FD8909F35A46F00EEA7F0A351E92681
:10168000EF50086EE92AEF50096E00EEAFF0A4515A
:10169000E926EF500A6EE92AEF500B6E08500A5CFB
:1016A0000C6E09500B5C0C10A791D8B4A781D89090
:1016B0009F35A56F00EEDFF0A551E926EF50E92A2E
:1016C000EF10A783D8A4A793A785A7B1A7A3A79531
:1016D000A7A58EEF0BF000EEEBF09F51E926010E6F
:1016E000EF6E00EEE7F09F51E926EF6AD8909F3544
:1016F000A36FD890A33701EC02F000EEBFF0010118
:10170000A351E9260850EF6EE92A0950EF6EE92A45
:101710000A50EF6EE92A0B50EF6E1200D8909F35F9
:10172000A36F00EEDFF0A351E926EF50E92AEF1096
:10173000D8A4D9EF0BF0D8909F35A46FD8909F35DF
:10174000A56F00EEA7F0A451E926EF50086EE92A34
:10175000EF50096E00EEAFF0A551E926EF500A6E8A
:10176000E92AEF500B6E09500B5CD8A4BAEF0BF0CE
:1017700008500A5CD8B4C8EF0BF0D8A0C8EF0BF043
:1017800000EEE7F09F51E926010EEF6ECEEF0BF071
:1017900000EEE7F09F51E926FF0EEF6ED8909F35DF
:1017A000A36F00EEDFF0A351E926010EEF6EE92AE8
:1017B000EF6A00EEE7F09F51E926EF50B46F9F51BA
:1017C00011EC0AF000EEE7F001019F51E926EF501D
:1017D000086E800A096E800E095CD8B414EF0CF014
:1017E000D8A014EF0CF0D8909F35A36FD8909F35F8
:1017F000A46F00EEAFF0A351E926EF50086EE92A7E
:10180000EF50096E00EEA7F0A451E926EF500A6EE2
:10181000E92AEF500B6ED88008500A54A06F095087
:101820000B54A16F33EF0CF0D8909F35A36FD89075
:101830009F35A46F00EEA7F0A351E926EF50086E84
:10184000E92AEF50096E00EEAFF0A451E926EF50FF
:101850000A6EE92AEF500B6ED88008500A54A06F28
:1018600009500B54A16FA151800A086E800E085CCC
:10187000D8A43DEF0CF0000EA05DD8B4C3EF0CF07F
:10188000D8A0C3EF0CF0D8909F35A36F00EEDFF027
:10189000A351E926EF50086EE92AEF50096EA151D5
:1018A000095CD8A456EF0CF0A051085CD8B47CEFCA
:1018B0000CF0D8A07CEF0CF0D8909F35A46FD89096
:1018C0009F35A56F00EEDFF0A551E926EF50086EB9
:1018D000E92AEF50096E0B6E08040A6E0A28D8B484
:1018E0000B0600EEDFF0A451E9260A50EF6EE92A5C
:1018F0000B50EF6EE1EF0CF0D8909F35A36FD890AE
:101900009F35A46F00EEDFF0A351E926EF50086E7B
:10191000E92AEF50096E00EED7F0A451E926EF5006
:101920000A6EE92AEF500B6E09500B5CD8A49BEFAE
:101930000CF008500A5CD8B4C1EF0CF0D8A0C1EF8D
:101940000CF0D8909F35A56FD8909F35A66F00EE0C
:10195000DFF0A651E926EF50086EE92AEF50096E34
:10196000010E08240A6E000ED8B0010E09240B6E79
:1019700000EEDFF0A551E9260A50EF6EE92A0B5080
:10198000EF6EE1EF0CF0D8909F35A36FD8909F35A4
:10199000A46F00EEDFF0A451E926EF50086EE92AAB
:1019A000EF50096E0B6E08040A6E0A28D8B40B06B5
:1019B00000EEDFF0A351E9260A50EF6EE92A0B5042
:1019C000EF6EA26B9F51D8A461EF0DF00001F751AB
:1019D000D8A430EF0DF0D8900101A235A36FCA0E44
:1019E000F66E000EF76E000EF86EA351F626000E8E
:1019F0000A6EF7220A50F8220900F550086E090015
:101A0000F550096E0001E05DD8A409EF0DF0085013
:101A1000DF5DD8B414EF0DF0D8A014EF0DF0020E76
:101A20000101A227EBEF0CF00101A229A36FD890CE
:101A3000A335A46FCA0EF66E000EF76E000EF86E98
:101A4000A451F626000E086EF7220850F82209006D
:101A5000F5500001CF6F0900F550D06FDEEF0EF0AA
:101A6000D8900101A235A36F01EE10F0A351E92631
:101A7000EF50086EE92AEF50096E0001E05DD8A42E
:101A800044EF0DF00850DF5DD8B44FEF0DF0D8A053
:101A90004FEF0DF0020E0101A22730EF0DF0010112
:101AA000A229A36FD890A335A46F01EE10F0A45122
:101AB000E926EF500001CF6FE92AEF50D06FDEEF3B
:101AC0000EF09F05D8A4E0EF0DF00001F851D8A466
:101AD000AFEF0DF0D8900101A235A36FDE0EF66EC8
:101AE000000EF76E000EF86EA351F626000E0A6E79
:101AF000F7220A50F8220900F550086E0900F55047
:101B0000096E0001E25DD8A488EF0DF00850E15D98
:101B1000D8B493EF0DF0D8A093EF0DF0020E0101B1
:101B2000A2276AEF0DF00101A229A36FD890A33577
:101B3000A46FDE0EF66E000EF76E000EF86EA45166
:101B4000F626000E086EF7220850F8220900F5501C
:101B50000001D16F0900F550D26FDEEF0EF0D89082
:101B60000101A235A36F01EE24F0A351E926EF5045
:101B7000086EE92AEF50096E0001E25DD8A4C3EFB8
:101B80000DF00850E15DD8B4CEEF0DF0D8A0CEEF47
:101B90000DF0020E0101A227AFEF0DF00101A22905
:101BA000A36FD890A335A46F01EE24F0A451E926C9
:101BB000EF500001D16FE92AEF50D26FDEEF0EF047
:101BC000020E9F5DD8A460EF0EF00001F951D8A479
:101BD0002FEF0EF0D8900101A235A36FF20EF66E32
:101BE000000EF76E000EF86EA351F626000E0A6E78
:101BF000F7220A50F8220900F550086E0900F55046
:101C0000096E0001E45DD8A408EF0EF00850E35D12
:101C1000D8B413EF0EF0D8A013EF0EF0020E0101AE
:101C2000A227EAEF0DF00101A229A36FD890A335F6
:101C3000A46FF20EF66E000EF76E000EF86EA45151
:101C4000F626000E086EF7220850F8220900F5501B
:101C50000001D36F0900F550D46FDEEF0EF0D8907D
:101C60000101A235A36F01EE38F0A351E926EF5030
:101C7000086EE92AEF50096E0001E45DD8A443EF35
:101C80000EF00850E35DD8B44EEF0EF0D8A04EEF42
:101C90000EF0020E0101A2272FEF0EF00101A22982
:101CA000A36FD890A335A46F01EE38F0A451E926B4
:101CB000EF500001D36FE92AEF50D46FDEEF0EF042
:101CC000030E9F5DD8A4DEEF0EF00001FA51D8A4F8
:101CD000AFEF0EF0D8900101A235A36F060EF66E9D
:101CE000010EF76E000EF86EA351F626000E0A6E76
:101CF000F7220A50F8220900F550086E0900F55045
:101D0000096E0001E65DD8A488EF0EF00850E55D8D
:101D1000D8B493EF0EF0D8A093EF0EF0020E0101AD
:101D2000A2276AEF0EF00101A229A36FD890A33574
:101D3000A46F060EF66E010EF76E000EF86EA4513B
:101D4000F626000E086EF7220850F8220900F5501A
:101D50000001D56F0900F550D66FDEEF0EF0D89078
:101D60000101A235A36F01EE4CF0A351E926EF501B
:101D7000086EE92AEF50096E0001E65DD8A4C3EFB2
:101D80000EF00850E55DD8B4CEEF0EF0D8A0CEEF3F
:101D90000EF0020E0101A227AFEF0EF00101A22901
:101DA000A36FD890A335A46F01EE4CF0A451E9269F
:101DB000EF500001D56FE92AEF50D66FD89001019E
:101DC0009F35A36FD890A33701EC02F000EEBFF06F
:101DD0000101A351E9260850EF6EE92A0950EF6E80
:101DE000E92A0A50EF6EE92A0B50EF6E1200986F45
:101DF00099519B6F9A519C6FD89098359D6F00EECA
:101E0000B7F09D51E926EF50086EE92AEF50096EB0
:101E10009C51095CD8A40FEF0FF09B51085CD8B41B
:101E200015EF0FF0D8B027EF0FF0D89098359E6FD0
:101E300000EEB7F09E51E926EF50086EE92AEF5008
:101E4000096E9C6F08049B6F9B29D8B49C07D8909F
:101E500098359D6F00EEAFF09D51E9269B51EF6ED6
:101E6000E92A9C51EF6E00EEEBF09851E926EF5015
:101E7000086E0804D8A463EF0FF000EEEBF0985161
:101E8000E926EF6AD89098359D6FD8909D3701EC80
:101E900002F000EEBFF001019D51E9260850EF6EFF
:101EA000E92A0950EF6EE92A0A50EF6EE92A0B5031
:101EB000EF6ED89098359D6F00EECFF09D51E926DA
:101EC000EF6AE92AEF6A1200906FD8909035966F0A
:101ED00000EEA7F09651E926EF50926FE92AEF50F5
:101EE000936F7F0E915DD8B4A1EF0FF0D8A0A1EF52
:101EF0000FF07F0E9115966F976B9651946F9751D7
:101F0000956F9351955DD8A488EF0FF09251945D31
:101F1000D8B48EEF0FF0D8B09CEF0FF0D88092516C
:101F20009455926F93519555936F9251996F935128
:101F30009A6F9051F7EF0EF0996B9A6B9051F7EF03
:101F40000EF09151946F956B945192279551932374
:101F50009251996F93519A6F9051F7EF0EF00101E2
:101F6000886F00EEEBF08851E926EF50D8A4FBEF24
:101F70000FF001EC02F0085001018B6F09508C6FDB
:101F80000A508D6F0B508E6FD89088358F6FD89018
:101F90008F3700EEBFF08F51E926EF50086EE92A27
:101FA000EF50096EE92AEF500A6EE92AEF500B6EE6
:101FB000D8808B510854896F8C5109548A6FD890FE
:101FC00088358B6F00EECFF08B51E926EF50086E0D
:101FD000E92AEF50096E8A51095CD8A4F2EF0FF09C
:101FE0008951085CD8B4FBEF0FF0D8B0FBEF0FF0CD
:101FF000885135EF0BF01200466A476A486A496A11
:102000004A6A4B6A4C6A4D6A4E6A4F6A506A516A14
:10201000040E526E040E536E040E546E12008A9E0D
:102020008A908A968B9E8A9C8A928A988B9C8A8AAE
:102030008B9212008A9A010E02011B6F1C6BDBEC63
:1020400000F08A8A12008B8212008B921200020E1C
:102050004E5CD8A42FEF10F0000EAFEC0FF0020E84
:102060004F5CD8A437EF10F0010EAFEC0FF0020E6A
:10207000505CD8A43FEF10F0020EAFEC0FF0020E50
:10208000515CD8A447EF10F0030EAFEF0FF0120031
:1020900001017A6F010E80147F6F000E80B4010E73
:1020A000806F000E80B6010E816F010E8214826F68
:1020B00000EE4EF07A51E926EF50086E0804D8A4DD
:1020C0008DEF11F001EC02F0085001017B6F095017
:1020D0007C6F0A507D6F0B507E6FD8907A35836F7E
:1020E000D890833701EE00F08351E926EF50086E57
:1020F000E92AEF50096EE92AEF500A6EE92AEF50FB
:102100000B6E7E510B5CD8A492EF10F07D510A5CEF
:10211000D8A492EF10F07C51095CD8A492EF10F093
:102120007B51085CD8B48DEF11F0D8B08DEF11F071
:1021300000EE46F07A51E926EF50086E0804D8A464
:1021400026EF11F001EE7FF07A51E926EF50086E8C
:1021500000EE4AF07A51E926EF50096E0850095C0A
:10216000D8A4BEEF10F07A51B0EC0AF000EE4EF0B9
:1021700001017A51E926020EEF6E1200D8907A35ED
:10218000836F00EEEFF08351E926EF50E92AEF105C
:10219000D8B41BEF11F0FF0EB46F7A5111EC0AF0B6
:1021A000D89001017A35836FD8907A35846F00EE2C
:1021B000EFF08451E926EF50086EE92AEF50096EDE
:1021C0000B6E08040A6E0A28D8B40B0600EEEFF076
:1021D0008351E9260A50EF6EE92A0B50EF6ED89032
:1021E0007A35836FD890833701EC02F008500101F3
:1021F000846F0950856F0A50866F0B50876F900E61
:102200008425086E010E8521096E000E86210A6E56
:10221000000E87210B6E01EE00F08351E926085075
:10222000EF6EE92A0950EF6EE92A0A50EF6EE92AAB
:102230000B50EF6E12007A51B0EC0AF000EE4EF047
:1022400001017A51E926020EEF6E1200D8907A351C
:10225000836F00EEEFF08351E926EF50E92AEF108B
:10226000D8B483EF11F0FF0EB46F7A5111EC0AF07D
:10227000D89001017A35836FD8907A35846F00EE5B
:10228000EFF08451E926EF50086EE92AEF50096E0D
:102290000B6E08040A6E0A28D8B40B0600EEEFF0A5
:1022A0008351E9260A50EF6EE92A0B50EF6ED89061
:1022B0007A35836FD890833701EC02F00850010122
:1022C000846F0950856F0A50866F0B50876F900E90
:1022D0008425086E010E8521096E000E86210A6E86
:1022E000000E87210B6E01EE00F08351E9260850A5
:1022F000EF6EE92A0950EF6EE92A0A50EF6EE92ADB
:102300000B50EF6E12007A51B0EC0AF000EE4EF076
:1023100001017A51E926020EEF6E1200000E48EC20
:1023200010F0010E48EC10F0020E48EC10F0030E15
:1023300048EF10F0040E525CD8B4B1EF11F000EE8B
:102340004EF05250E926EF50086E020E085CD8A4F9
:1023500024EF12F07451996F75519A6F5250F7EF44
:102360000EF0040E535CD8B4C3EF11F07451BA6F81
:102370007551BB6F535065EC09F000EE4EF05350B1
:10238000E926EF6A1200030E5414796F040E795D8A
:10239000D8B424EF12F0030E3D14766F700E3D1486
:1023A000776FD8907731786FD8907833D89078332A
:1023B000800E3D14796F800E795DD8B4782B7651FC
:1023C000D8A4F0EF11F0D8907835796F01EE10F0C5
:1023D0007951E9267451EF6EE92A7551EF6E1200BA
:1023E0007605D8A401EF12F0D8907835796F01EE18
:1023F00024F07951E9267451EF6EE92A7551EF6E98
:102400001200020E765DD8A413EF12F0D890783542
:10241000796F01EE38F07951E9267451EF6EE92AAF
:102420007551EF6E1200030E765DD8A424EF12F002
:10243000D8907835796F01EE4CF07951E9267451D6
:10244000EF6EE92A7551EF6E12003C50D8A433EFBD
:1024500012F03D500101626F636B6251746F635102
:10246000756F9AEF11F03C04D8A447EF12F03D507D
:102470000101646F656B000E6425626F010E6521BA
:10248000636F6251746F6351756F9AEF11F0020EB2
:102490003C5CD8A45CEF12F03D500101646F656BA9
:1024A000000E6425626F020E6521636F6251746FC6
:1024B0006351756F9AEF11F0030E3C5CD8A471EF75
:1024C00012F03D500101646F656B000E6425626F70
:1024D000030E6521636F6251746F6351756F9AEFDC
:1024E00011F0040E3C5CD8A486EF12F03D500101BF
:1024F000646F656B000E6425626F040E6521636F67
:102500006251746F6351756F9AEF11F0050E3C5C68
:10251000D8A49BEF12F03D500101646F656B000E73
:102520006425626F050E6521636F6251746F63519C
:10253000756F9AEF11F0060E3C5CD8A4B0EF12F064
:102540003D500101646F656B000E6425626F060EDD
:102550006521636F6251746F6351756F9AEF11F06B
:10256000070E3C5CD8A4C5EF12F03D500101646F2A
:10257000656B000E6425626F070E6521636F625103
:10258000746F6351756F9AEF11F0080E3C5CD8A41C
:10259000DAEF12F03D500101646F656B000E6425A7
:1025A000626F080E6521636F6251746F6351756FBE
:1025B0009AEF11F0090E3C5CD8A4EFEF12F03D50F9
:1025C0000101646F656B000E6425626F090E652161
:1025D000636F6251746F6351756F9AEF11F00A0E59
:1025E0003C5CD8A404EF13F03D500101646F656BAF
:1025F000000E6425626F0A0E6521636F6251746F6D
:102600006351756F9AEF11F00B0E3C5CD8A419EF73
:1026100013F03D500101646F656B000E6425626F1D
:102620000B0E6521636F6251746F6351756F9AEF82
:1026300011F00C0E3C5CD8A42EEF13F03D500101BC
:10264000646F656B000E6425626F0C0E6521636F0D
:102650006251746F6351756F9AEF11F00D0E3C5C0F
:10266000D8A443EF13F03D500101646F656B000E79
:102670006425626F0D0E6521636F6251746F635143
:10268000756F9AEF11F00E0E3C5CD8A458EF13F062
:102690003D500101646F656B000E6425626F0E0E84
:1026A0006521636F6251746F6351756F9AEF11F01A
:1026B0000F0E3C5CD8A46DEF13F03D500101646F28
:1026C000656B000E6425626F0F0E6521636F6251AA
:1026D000746F6351756F9AEF11F0100E3C5CD8A4C3
:1026E00082EF13F03D500101646F656B000E6425AD
:1026F000626F100E6521636F6251746F6351756F65
:102700009AEF11F0110E3C5CD8A497EF13F03D50F6
:102710000101646F656B000E6425626F110E652107
:10272000636F6251746F6351756F9AEF11F0120EFF
:102730003C5CD8A4ACEF13F03D500101646F656BB5
:10274000000E6425626F120E6521636F6251746F13
:102750006351756F9AEF11F0130E3C5CD8A4C1EF72
:1027600013F03D500101646F656B000E6425626FCC
:10277000130E6521636F6251746F6351756F9AEF29
:1027800011F0140E3C5CD8A4D6EF13F03D500101BB
:10279000646F656B000E6425626F140E6521636FB4
:1027A0006251746F6351756F9AEF11F0150E3C5CB6
:1027B000D8A4EBEF13F03D500101646F656B000E80
:1027C0006425626F150E6521636F6251746F6351EA
:1027D000756F9AEF11F0160E3C5CD8A400EF14F060
:1027E0003D500101646F656B000E6425626F160E2B
:1027F0006521636F6251746F6351756F9AEF11F0C9
:10280000170E3C5CD8A415EF14F03D500101646F25
:10281000656B000E6425626F170E6521636F625150
:10282000746F6351756F9AEF11F0180E3C5CD8A469
:102830002AEF14F03D500101646F656B000E6425B2
:10284000626F180E6521636F6251746F6351756F0B
:102850009AEF11F0190E3C5CD8A45FEF14F03D50D4
:1028600001016985D8A469953D046997D8B4698741
:10287000699969A569B76989020E3D5C699BD8B4FD
:10288000698B699D69A969BB698D030E3D5C699F70
:10289000D8B4698F6A9169AD69BF6A816AA158EF3E
:1028A00014F03D50526E040E536E040E546E12001E
:1028B000040E526E040E536E040E546E12001A0E65
:1028C0003C5CD8A494EF14F03D5001016A85D8A473
:1028D0006A953D046A97D8B46A876A996AA56AB707
:1028E0006A89020E3D5C6A9BD8B46A8B6A9D6AA9AC
:1028F0006ABB6A8D030E3D5C6A9FD8B46A8F6B9188
:102900006AAD6ABF6B816BA18DEF14F0040E526E3D
:102910003D50536E040E546E1200040E526E040E9F
:10292000536E040E546E12001B0E3C5CD8A4FBEFD9
:1029300014F0030E3D140101606F6B85D8A46B95F4
:1029400060056B97D8B46B876B996BA56BB76B8978
:10295000020E605D6B9BD8B46B8B6B9D6BA96BBBE0
:102960006B8D030E605D6B9FD8B46B8F6C916BADFC
:102970006BBF6C816CA1F4EF14F0040E526E040E68
:10298000536E700E3D14616F6C83D8A46C93100E5F
:10299000615D6C95D8B46C856C976CA36CB56C87D5
:1029A000200E615D6C99D8B46C896C9B6CA76CB976
:1029B0006C8B300E615D6C9DD8B46C8D6C9F6CAB74
:1029C0006CBD6C8F400E615D6D91D8B46D816D935F
:1029D0006CAF6DB16D836DA3F1EF14F03D50546E8B
:1029E0001200040E546E1200040E526E040E536E4A
:1029F000040E546E12001C0E3C5CD8A40BEF15F0B4
:102A0000020E4E5CD8A4F1EF16F03D500101916F1B
:102A1000000E64EF0FF01D0E3C5CD8A41BEF15F008
:102A2000020E4F5CD8A4F1EF16F03D500101916FFA
:102A3000010E64EF0FF01E0E3C5CD8A42BEF15F0D6
:102A4000020E505CD8A4F1EF16F03D500101916FD9
:102A5000020E64EF0FF01F0E3C5CD8A43BEF15F0A4
:102A6000020E515CD8A4F1EF16F03D500101916FB8
:102A7000030E64EF0FF0200E3C5CD8A444EF15F079
:102A80004E6A000ECBEF0AF0210E3C5CD8A44DEF4D
:102A900015F04F6A010ECBEF0AF0220E3C5CD8A471
:102AA00056EF15F0506A020ECBEF0AF0230E3C5C95
:102AB000D8A45FEF15F0516A030ECBEF0AF0240E95
:102AC0003C5CD8A474EF15F04E6A4F6A506A516AA4
:102AD000000ECBEC0AF0010ECBEC0AF0020ECBECB0
:102AE0000AF0030ECBEF0AF02B0E3C5CD8A480EF6B
:102AF00015F01AEC10F04E6A4F6A506A516A1200D3
:102B00002A0E3C5CD8A48FEF15F0010E3D14010194
:102B1000646F6451D8B425EF10F023EF10F0250E48
:102B20003C5CD8A4ACEF15F00F0E3D140101646FAE
:102B30006451D8A49EEF15F0466A1200010E466E4D
:102B4000F00E3D14646F6451D8A4A9EF15F04A6AE1
:102B50001200010E4A6E1200260E3C5CD8A4C9EF8A
:102B600015F00F0E3D140101646F6451D8A4BBEF42
:102B700015F0476A1200010E476EF00E3D14646FA7
:102B80006451D8A4C6EF15F04B6A1200010E4B6ECB
:102B90001200270E3C5CD8A4E6EF15F00F0E3D1492
:102BA0000101646F6451D8A4D8EF15F0486A12008F
:102BB000010E486EF00E3D14646F6451D8A4E3EF2B
:102BC00015F04C6A1200010E4C6E1200280E3C5C8F
:102BD000D8A403EF16F00F0E3D140101646F645189
:102BE000D8A4F5EF15F0496A1200010E496EF00EF7
:102BF0003D14646F6451D8A400EF16F04D6A1200C2
:102C0000010E4D6E1200290E3C5CD8A43EEF16F06A
:102C1000030E3D140101606F708FD8A4709F600592
:102C20007191D8B47181719370AF71B17183020EDB
:102C3000605D7195D8B47185719771A371B5718715
:102C4000030E605D7199D8B47189719B71A771B9D8
:102C5000718B71ABF1EF16F000EE4EF06051E9268A
:102C6000EF6AF00E3D14646F6451D8A43BEF16F088
:102C7000605173EF09F06051AFEF09F02C0E3C5C2E
:102C8000D8B448EF08F02D0E3C5CD8A479EF16F0CC
:102C90003F0E3D140101646F6451D8A455EF16F046
:102CA000140E446E456A5DEF16F03F0E3D14646FDE
:102CB000656B6451446E6551456EC00E3D14646F82
:102CC000800E645DD8A46FEF16F0010E086E4450BC
:102CD000096E45500A6E08EC01F04AEC08F0C00E8F
:102CE0003D140101646F6451D8A4F1EF16F048EF70
:102CF00008F02E0E3C5CD8A487EF16F0280EA35DDA
:102D0000A411D8B4F1EF16F03D508EEF08F02F0E5D
:102D10003C5CD8A4DAEF16F04250D8A4F1EF16F0DC
:102D2000750E9BEC07F0530E9BEC07F0540E9BECDA
:102D300007F0450E9BEC07F0500E9BEC07F0200EC1
:102D40009BEC07F0760E9BEC07F0310E9BEC07F046
:102D50002E0E9BEC07F0310E9BEC07F0200E9BEC47
:102D600007F0240E9BEC07F0370E0101606F390E5F
:102D7000605DD8B4C1EF16F0D8A0C1EF16F0070E11
:102D8000602760519BEC07F0350E0101606F390E32
:102D9000605DD8B4D1EF16F0D8A0D1EF16F0070ED1
:102DA000602760519BEC07F00D0E9BEC07F00A0EBC
:102DB0009BEF07F0300E3C5CD8A4F1EF16F04250C8
:102DC000D8A4F1EF16F04E0E3D5CD8A4EAEF16F051
:102DD000A26B1200590E3D5CD8A4F1EF16F0010E63
:102DE000A26F1200E06AF29EC26A0F0EC16EC06A44
:102DF000070EB46EF26A32EC02F09FEC07F083EC3F
:102E000008F00FEC10F01AEC10F011EC09F0F4ECF3
:102E100001F0406A416AD09EF188F0927FEC01F0A7
:102E2000F28CF28E80B223EF17F0426A020E3E6EF1
:102E3000C80E0001A36FA46B010E3F6E48EC08F0B2
:102E4000F0982FEF17F0010E426E020E3E6E280E24
:102E50000001A36FA46B3F6A4AEC08F0F088140EDF
:102E6000446E456A4DEC08F0086A0001A351096EF2
:102E7000A4510A6E08EC01F0FCEC0FF03F04D8A45A
:102E800067EF17F0D1EC08F0FCEC00F008500001FF
:102E9000FB6F0950FC6FFB51405C086EFC51415CBC
:102EA0000810D8B43EEF17F0FCEC00F00850406E6C
:102EB0000950416E82A43EEF17F03F6A51EC07F0D3
:102EC000F40E0001A36F010EA46F3EEF17F0425005
:102ED000D8A49DEF17F082A491EF17F036EC08F01C
:102EE0000001A105D8A4C2EF17F0A16B9F513C6E61
:102EF000A0513D6E030E3E5CD8A48DEF17F080A864
:102F000085EF17F0FD9F86EF17F0FD8FFDBF8CEF6B
:102F100017F089988DEF17F0898825EC12F0C2EF31
:102F200017F0010E3F6EC80E0001A36FA46B020ED6
:102F30003E6E406A416AC2EF17F0280E0001A35DA1
:102F4000A411D8B4C2EF17F06305D8A4C2EF17F0EC
:102F5000636B64513C6E65513D6E030E3E5CD8A4BC
:102F6000C0EF17F080A8B8EF17F0FE97B9EF17F091
:102F7000FE87FEB7BFEF17F08998C0EF17F089887A
:102F800025EC12F0D1EC08F05AEC08F027EC10F028
:102F90008EEC11F03EEF17F0F0A229EF02F0C9EC31
:062FA00002F029EF02F02F
:020000040030CA
:0E0000002C0E3E1E008580000FC00FE00F404A
:00000001FF
