:020000040000FA
:0400000019EF01F003
:08000800FCEF00F01201000200
:1000100002000008D8040A000100010200010902E0
:1000200043000201008032090400000102020100C5
:100030000524001001042402020524060001052401
:100040000100010705820308000209040100020AF9
:1000500000000007050302080000070583020800EE
:1000600000000403090436034D00690063007200B8
:100070006F00630068006900700020005400650094
:10008000630068006E006F006C006F00670079000D
:100090002C00200049006E0063002E001E034A0061
:1000A00041004C004C004900420020005300650014
:1000B0007200690061006C002E0000000001091749
:1000C000232D363F464D52585D62666B6F73767ACC
:1000D0007D808385888B8D8F919496989A9C9D9F27
:1000E000A1A3A4A6A7A9AAACADAFB0B1B3B4B5B64D
:1000F000B7B8BABBBCBDBEBFC0C1C2C3C4C5C6C70A
:10010000C8C9CACACBCCCDCDCECFD0D0D1D2D3D313
:10011000D4D5D5D6D7D7D8D8D9DADADBDBDCDDDD54
:10012000DEDEDFDFE0E0E1E1E2E2E3E3E4E4E5E5B7
:10013000E6E6E7E7E7E8E8E9E9E9EAEAEBEBEBEC32
:10014000ECECEDEDEEEEEEEFEFEFF0F0F0F1F1F1C3
:10015000F2F2F2F2F3F3F3F3F4F4F4F4F5F5F5F567
:10016000F6F6F6F6F7F7F7F7F8F8F8F8F8F8F9F919
:10017000F9F9F9FAFAFAFAFAFBFBFBFBFBFBFCFCD8
:10018000FCFCFCFCFCFCFCFCFCFDFDFDFDFDFDFDA8
:10019000FEFEFEFEFEFEFEFEFEFEFEFEFEFFFFFF7C
:1001A000FFFFFFFFFFFFFFFFFFFFFFFFFFFFFFFF5F
:1001B000FFFFFFFFFFFFFFFFFFFF3031323334351A
:1001C0003637383941424344454618BEFBEF00F00C
:1001D00018BCF1EF00F01750EA6E1650E96EEF50C0
:1001E00012001650F66E1750F76E18503F0BF86E4F
:1001F0000800F5501200120000011250136E145046
:10020000156E1650196EE9501A6EEA501B6EF650B4
:100210001C6EF7501D6EF8501E6EF5501F6E085084
:100220000C6E09500D6E0A500E6E0B500F6E1EEFC5
:100230001BF0FC6B000E206E080E216E92909292C5
:10024000929492969298929A938093829394939692
:100250009398939A939C939E949094929484949C54
:10026000948E9AEF03F0F29A00019C510101C26F43
:1002700000019D510101C36FF28AC251086EC35142
:10028000096E12000001FC2BFC2D49EF01F05BEF21
:1002900001F02150EA6E2050E96E0408206EE90654
:1002A0004750EF6EE9064850EF6EE9064950EF6E91
:1002B000E9064A50EF6E0850476E0950486E0A50E2
:1002C000496E050E475CD8B469EF01F0D8A06BEF1A
:1002D00001F079EF01F0F29AD89047344A6E00EEBF
:1002E0009EF04A50E9264850EF6EE92A4950EF6ED9
:1002F000F28AFC2F7DEF01F012002150EA6E2050AF
:10030000E96EEF504A6EE92AEF50496EE92AEF5044
:10031000486EE92AEF50476EE928206E120001016D
:10032000BF6F050EBF5DD8B499EF01F0D8A09BEF69
:1003300001F008801200D890BF35C06F00EE9EF02B
:10034000C051E926EF50E92AEF10D8A4B7EF01F029
:10035000D890BF35C16F00EE9EF0C151E926EF5035
:10036000E92AEF10D8A4B7EF01F008801200089036
:100370001200F80ED5140509D56E440EA86FD59A53
:10038000D596F294F28AF28E0101BD6BD890BD35FC
:10039000BE6F00EE9EF0BE51E926EF6AE92AEF6AD1
:1003A000BD2B050EBD5DD8A4C6EF01F01200F2A46E
:1003B00014EF02F00001A851D66ED76A9C2BD8B476
:1003C0009D2B426AD89042343F6E00EE9EF03F5023
:1003D000E926EF50E92AEF10D8B40DEF02F0D890DB
:1003E0004234406ED8904234416E00EE9EF041504F
:1003F000E926EF50086EE92AEF50096E0B6E0804EB
:100400000A6E0A28D8B40B0600EE9EF04050E9268A
:100410000A50EF6EE92A0B50EF6E422A050E425C3D
:10042000D8A4E2EF01F0F2940C50086E0D50096E62
:100430000E500A6E0F500B6E1C50F66E1D50F76E6C
:100440001E50F86E1F50F56E1A50E96E1B50EA6E82
:100450001950166E1550146E1350126E110062056D
:10046000D8A43BEF02F0020E086E6051096E615194
:100470000A6E42EF01F0120000016205D8A465EF98
:1004800002F0020E8FEC01F00101BC9308B0BC83B6
:10049000BCA365EF02F0030E266E020E2B6E000168
:1004A0006E05D8A45CEF02F0070E256E226A236A5F
:1004B000246A266A5DEF02F02B6A020E086E605114
:1004C000096E61510A6E42EF01F012006205D8A474
:1004D00072EF02F0020E086E6051096E61510A6EF1
:1004E00042EC01F02650D8A489EF02F081A27BEF04
:1004F00002F0800E22262550D8B483EF02F0D89067
:10050000223225061200050E256E236A010E266E84
:1005100012002604D8A4A4EF02F081A292EF02F008
:10052000800E23262550D8B49AEF02F0D8902332BB
:1005300025061200D8902332D8902332070E256E5C
:10054000246A020E266E1200020E265CD8A4E0EF8A
:1005500002F081A2AEEF02F0800E24262550D8B41E
:10056000B6EF02F0D890243225061200320E225C3B
:10057000D8A4D9EF02F0250E235CD8B4C3EF02F063
:10058000D8B0D2EF02F0266A070E256E2250286EF0
:100590002350296E24502A6E226A236A246A010E8F
:1005A000276E1200266A070E256E226A236A246AC5
:1005B0001200266A070E256E226A236A246A120038
:1005C000030E265CD8B41200070E256E226A236A39
:1005D000246A266A120066EF02F00101B96FB45175
:1005E000E16EB551E26EB951BB6FBA6B08EF03F023
:1005F000B651BA25166E000E086EB7510820176E58
:10060000B8510820186EE5EC00F0E66E0101BA2B37
:10061000BA51BB5DD8A4F8EF02F01200040104BF88
:1006200012000001AC51A95DD8B41CEF03F0D8B0A2
:100630001CEF03F0A951AC6FD880AC51AA55010151
:10064000B36F0001AB5DD8B42CEF03F0D8B02CEF42
:1006500003F0AB510101B36F780E0001AA2504012C
:10066000066F000E086E040E0820076F0101B351DB
:100670000401056F04AD41EF03F0880E046F43EFF2
:1006800003F0C80E046F0101B3510001AA27AA515B
:10069000AC5D1200080EAB6FAA6BAC6BA96B0401CA
:1006A000049D0EEF03F00101B26F0401786F080E94
:1006B0000001AB6FAA6B010EAC6F010EA96F0401B4
:1006C000049D0EEF03F0840E040100131200080EC7
:1006D0000401016F200E026F040E036F030E000170
:1006E000AE5DD8A47BEF03F08C0E0101B16F040165
:1006F000046B7EEF03F0C80E0101B16F0101B1512F
:100700000401006F1200AD6FD890AD35B06FD89076
:10071000B037D890B037B029AF6F04EE00F0AF51CA
:10072000E926AE51EF6E04EE00F0B051E926800EDE
:10073000EF6E1200B06BFA91396A3A6A3B6A3C6A12
:10074000100E3D6ED0EF19F00401F9510101AC6FAC
:10075000210EAC5DD8A4B0EF03F0050E0001AE6F22
:10076000120004011CBFB9EF03F00101AB91BBEF14
:1007700003F00101AB81ABB1120039503A5CD8A44F
:10078000C9EF03F00001FAA112000101A66BDBEF33
:1007900003F039503A5CD8B4D7EF03F0D8B0D7EFB4
:1007A00003F0D88039503A54A66FDBEF03F0D880BD
:1007B000200E3A54A66F080EA65DD8B4E5EF03F0FC
:1007C000D8A0E5EF03F0080EA66FA651A96FA86B9D
:1007D000FAEF03F03A50A825A76F00EEB1F0A75149
:1007E000E926EF50086E04EE58F0A851E9260850AB
:1007F000EF6EA82BA851A95DD8A4EAEF03F0580E1C
:1008000004011E6F040E1F6F0101A65104011D6F2C
:100810001CAD0FEF04F0880E1C6F11EF04F0C80E32
:100820001C6F3A500101A625AA6F1F0EAA5DD8B40D
:100830001EEF04F0D8A01EEF04F0AA6BAA513A6E86
:10084000080EA65D0001FA91D8B4FA811200A46FD7
:100850003928A56F200EA55DD8B4A56B00EEB1F0C8
:100860003950E926A451EF6EA551396E120000EE01
:10087000D1F03C50E926EF50A26F3D2A3C28A36FEF
:10088000100EA35DD8B4A36BA3513C6EA25112000D
:100890003C503B5CA191D8A4A1810890A1B10880F3
:1008A0001200B1EC03F0080E3D5CD8B45BEF04F02D
:1008B000D8A065EF04F0040118BF65EF04F0080E3E
:1008C0000101AE6F030E83EF03F01200326AC20E15
:1008D000336E010E346E356A366A080E386E376A2A
:1008E00012000401F9513E6E060E3E5CD8A424EFBE
:1008F00005F0FB5101019F6F0401FA510101A06F46
:100900000001AC6B01019F05D8A49CEF04F0120E0E
:100910000001AC6F780E0101B46F040EB56F0C0EC0
:10092000B66F000EB76F000E4009B86F0001AC51F2
:10093000EDEC02F007EF05F0020E9F5DD8A4B6EFD4
:1009400004F0430E0001AC6F780E0101B46F040E89
:10095000B56F1E0EB66F000EB76F000E4009B86F70
:100960000001AC51EDEC02F007EF05F0030E9F5DC6
:10097000D8A405EF05F0A051D8A4D2EF04F0040EDE
:100980000001AC6F780E0101B46F040EB56F620EFA
:10099000B66F000EB76F000E4009B86F0001AC5182
:1009A000EDEC02F00101A005D8A4EAEF04F0360E48
:1009B0000001AC6F780E0101B46F040EB56F660EC6
:1009C000B66F000EB76F000E4009B86F0001AC5152
:1009D000EDEC02F0020E0101A05DD8A407EF05F0D6
:1009E0001E0E0001AC6F780E0101B46F040EB56FDE
:1009F0009C0EB66F000EB76F000E4009B86F000175
:100A0000AC51EDEC02F007EF05F0220E9F5D000106
:100A1000AC51D8B422EF05F0080EAB6F0401FF51C2
:100A2000D8A418EF05F0FE510001A96F1BEF05F0E7
:100A3000FF0E0001A96F030EAE6FAA6B0401049DA7
:100A40000EEF03F063EF03F0050E3E5CD8A434EF25
:100A500005F0FA510001AF6F010EAD6F4AEC03F0E3
:100A6000060E0001AE6F1200090E3E5CD8A46AEFBC
:100A700005F0060E0001AE6F4AEC03F07188718438
:100A800071827186400E04010C6F080E096F300EE2
:100A90000A6F040E0B6F800E086F72887284728268
:100AA0007286400E146F080E116F400E126F040E06
:100AB000136F800E106F7388738473827386400E79
:100AC0001C6F080E196F500E1A6F040E1B6F800EEC
:100AD000186F12000A0E3E5CD8A475EF05F0030EE5
:100AE0000001AE6F010E53EF03F03E50D8A47CEF2F
:100AF00005F0000E53EF03F01200D8906C308C6FAD
:100B0000D8908C33D8908C336CA493EF05F0D890A8
:100B10000401043101018E6FD8908E330F0E8E15B3
:100B20008D6F9DEF05F0D8900401003101018E6FAB
:100B3000D8908E330F0E8E158D6F8C51D8A492EFF6
:100B400006F00D0E8D5DD8A417EF06F08F6B04EE46
:100B500020F08F51E926EF50086E04EEF8F08F5127
:100B6000E9260850EF6E8F2B080E8F5DD8A4A7EFF3
:100B700005F06D9867EC03F0300E0401F8150101E3
:100B80008E6F8E51D8B471EF04F0200E8E5DD8A414
:100B900011EF06F00401F9510101906F230E905DF1
:100BA000D8A4D8EF05F0060E0001AE6F4AEF03F0AF
:100BB000200E905DD8A4E1EF05F0020E0001AE6FAB
:100BC0001200210E905DD8A402EF06F0FF0E000186
:100BD000A96F070EAC6F780E0101B46F040EB56FEC
:100BE000320EB66FB76BB86B0001AC51EDEC02F092
:100BF000080E0001AB6F030EAE6FAA6B0401049DDB
:100C00000EEF03F0220E905DD8A410EF06F0060E52
:100C10000001AE6F4AEC03F00401FA510001B06F1D
:100C20001200400E8E5DD8A40DEF07F01200090EE1
:100C30008D5DD8A43AEF06F0030E0001AE5DD8B486
:100C40000EEF03F0060EAE5DD8A430EF06F0AE6BEB
:100C5000AD05D8A40DEF07F0AF516E6EAD6B12006D
:100C6000050EAE5DD8B41200040EAE5DD8B4A4EF8C
:100C700003F01200020E8D5DD8A451EF06F0030EB2
:100C80000001AE5DD8B40EEF03F0040EAE5DD8B433
:100C9000A4EF03F0060EAE5DD8A40DEF07F0AE6B27
:100CA00012008D05D8A40DEF07F0050E0001AE5D12
:100CB000D8A45EEF06F0AE6B67EF03F0020EAE5DF8
:100CC000D8A486EF06F00401F9510101916F200EBE
:100CD000915DD8A484EF06F0926B04EE20F092515F
:100CE000E926EF50086E00EE32F09251E9260850E6
:100CF000EF6E922B070E925DD8A46DEF06F0060EF4
:100D00000001AE6F4AEC03F067EF03F0030EAE5D37
:100D1000D8A490EF06F067EC03F00001AE6B120070
:100D200067EF03F06CA4B9EF06F0D8908C35936FA1
:100D3000D8909337D8909337040E932793298E6FCA
:100D4000020E93258E6F04EE00F08E51E926EF50CF
:100D5000946F030E93258E6F04EE00F08E51E926FA
:100D6000EF50956F030E8C5DD8A40DEF07F0B1EF37
:100D700003F0D8908C35966FD8909637D8909637E8
:100D800096298E6F04EE00F08E51E926EF50976F92
:100D900004EE00F09651E926EF50986F98BF0DEFE2
:100DA00007F0020E96258E6F04EE00F08E51E926B4
:100DB000EF50996F030E96258E6F04EE00F08E5162
:100DC000E926EF509A6F030E8C5DD8A40DEF07F063
:100DD0009951E16E9A51E26E97519C6F9D6B08EFAD
:100DE00007F03B289B6F100E9B5DD8B49B6B9B510B
:100DF0003C5CD8B407EF07F0E6509E6F00EED1F0F0
:100E00003B50E9269E51EF6E9B513B6E3D069D2B5C
:100E10009D519C5DD8A4F1EF06F01200A1AA60EFED
:100E200007F0A19A8B6B68A619EF07F07DEC05F02F
:100E3000689601018B2B040E8B5DD8A413EF07F08D
:100E400068A052EF07F06A6A686A0001AF6B716AC6
:100E5000726A736A746A756A766A776A786A796A96
:100E60007A6A7B6A7C6A7D6A7E6A7F6A160E706E19
:100E700068A63EEF07F0689638EF07F0AE6BAD6BF3
:100E80006D98080E0401056F280E066F040E076F9B
:100E9000046B080E016F200E026F040E036F8C0EA0
:100EA000006F689068BA689A68B8689868AC5CEF38
:100EB00007F051EC04F0689C68A260EF07F06892BC
:100EC00012000EEC07F0B1EF03F06D6A140E6F6EB6
:100ED0006B0E696EA09A66EC04F0686A6D6A6D86A6
:100EE0001200886F0001B0510101896F8951D8B497
:100EF000120039288A6F200E8A5DD8B48A6B0101EE
:100F00008A513A5CD8A489EF07F061EC07F07FEFD3
:100F100007F0885127EF04F00001B0510101866FFE
:100F20008651D8A497EF07F00890A8EF07F048EC97
:100F300004F00101879308B0878387B3A3EF07F01C
:100F40000890A8EF07F037EC04F00101856F0880E6
:100F5000855112008CEC07F00101836F1200010132
:100F6000826F71EF07F00101816FAFEF07F00101B0
:100F70007E6F7E390F0B7F6F0F0E7F15806FBA0E5D
:100F8000F66E010EF76E000EF86E8051F626000E1A
:100F9000086EF7220850F8220900F550AFEC07F070
:100FA0000F0E01017E157F6FBA0EF66E010EF76E01
:100FB000000EF86E7F51F626000E086EF7220850DC
:100FC000F8220900F550AFEF07F07D6F020E086EB2
:100FD00000016051096E61510A6E42EC01F02B5024
:100FE000D8A422EF08F0280E01017D5DD8B4FCEFF3
:100FF00007F0D8B018EF08F07D512C6E0A0E2C5C6B
:10100000D8A40CEF08F00001626B2F04D8A442EFC3
:1010100008F0780EB3EF07F0010E2B6E2F04D8A462
:1010200042EF08F02D0EB3EC07F02C50B7EF07F0AD
:101030002F04D8A442EF08F0230EB3EC07F02C5095
:10104000B7EF07F02B04D8A436EF08F001017D516B
:101050002D6E010E2E6E2B6A2F04D8A442EF08F0DD
:101060003D0EB3EC07F02D50B7EF07F0020E2B5CEE
:10107000D8B412002B6A2F04D8A442EF08F0210E36
:10108000B3EF07F0120001017B6B61EC07F0AAECF3
:1010900007F001017B6F7C9108B07C817CA154EF4B
:1010A00008F07B51E5EF07F012000101796F7951EB
:1010B000D8A45EEF08F04D6A898812007905D8A49B
:1010C00066EF08F0010E4D6E89981200020E795DF0
:1010D000D8A478EF08F0086A4B50096E4C500A6E9D
:1010E00042EC01F0020E4D6E010E4E6E8988120028
:1010F000030E795DD8A48CEF08F0030E4D6E80A826
:1011000085EF08F07A9986EF08F07A897AB98BEF43
:1011100008F08998120089881200020E4D5CD8A44C
:10112000C1EF08F04E04D8A4A9EF08F0000E8FEC30
:1011300001F00101789508B0788578A5A9EF08F04D
:10114000086A4B50096E4C500A6E42EC01F04E6A30
:1011500089984E50D8A4C1EF08F0000E8FEC01F032
:101160000101789908B0788978A9C1EF08F0086A78
:101170004B50096E4C500A6E42EC01F0010E4E6E5F
:1011800089881200000172510101646F00017351DE
:101190000101656F000174510101666F00019451F6
:1011A0000101686F696B6A6B6B6B6C6B6D6B6E6B5F
:1011B0006F6B00018D51D8A4E1EF08F0955101014A
:1011C000696F00018E51D8A4E9EF08F09651010132
:1011D0006A6F00018F51D8A4F1EF08F09751010117
:1011E0006B6F00019051D8A4F9EF08F098510101FC
:1011F0006C6F00019151D8A401EF09F099510101E0
:101200006D6F00019251D8A409EF09F09A510101C4
:101210006E6F00019351D8A411EF09F09B510101A9
:101220006F6F8B9C8A9C8A9A8A9E00018D51D8B4DC
:1012300089908E51D8B489928F51D8B489949051A5
:10124000D8B489969151D8B4899A9251D8B48B90D8
:101250009351D8B48B9201016451D8A48A8C655102
:10126000D8A48A8A6651D8A48A8E6851D8A48B8C57
:1012700000018D5101017285D8A472956951728760
:10128000D8B47297728972B572A7729972B989804F
:1012900000018E510101728BD8A4729B6A51728D2C
:1012A000D8B4729D728F72BB72AD729F72BF898209
:1012B00000018F5101017381D8A473916B51738325
:1012C000D8B47393738573B173A3739573B589841D
:1012D0000001905101017387D8A473976C517389F1
:1012E000D8B47399738B73B773A9739B73BB8986D7
:1012F000000191510101738DD8A4739D6D51738FBD
:10130000D8B4739F748173BD73AF749174B1898ABB
:101310000001925101017483D8A474936E517485B5
:10132000D8B47495748774B374A5749774B78B80AC
:101330000001935101017489D8A474996F51748B81
:10134000D8B4749B748D74B974AB749D74BD8B8266
:10135000676B6451D8B4B3EF09F064076451D8A443
:10136000B3EF09F08A9C6551D8B4BDEF09F0650769
:101370006551D8A4BDEF09F08A9A6651D8B4C7EF79
:1013800009F066076651D8A4C7EF09F08A9E685134
:10139000D8B4D1EF09F068076851D8A4D1EF09F0AB
:1013A0008B9C6951D8B4DBEF09F069076951D8A467
:1013B000DBEF09F089906A51D8B4E5EF09F06A07CC
:1013C0006A51D8A4E5EF09F089926B51D8B4EFEFD8
:1013D00009F06B076B51D8A4EFEF09F089946C51B9
:1013E000D8B4F9EF09F06C076C51D8A4F9EF09F003
:1013F00089966D51D8B403EF0AF06D076D51D8A4EA
:1014000003EF0AF0899A6E51D8B40DEF0AF06E0717
:101410006E51D8A40DEF0AF08B906F51D8B417EF2E
:101420000AF06F076F51D8A417EF0AF08B920001F2
:10143000070E086E082E1AEF0AF00101672B67519C
:10144000D8A4A9EF09F0120001015F6FC00E5F156B
:10145000606F6051D8A442EF0AF03F0E5F15626FD3
:10146000636B62510001E26F010163510001E36FA0
:10147000E251E311D8A43FEF0AF0E16B1200010E34
:10148000E16F1200400E605DD8A45EEF0AF0030E1B
:101490005F150001E46F3C0E01015F15626F636B25
:1014A00062510001E56F010163510001E66F040E16
:1014B000E527000EE623020EE16F1200800E605D4C
:1014C000D8A479EF0AF01F0E5F15616F612B61518F
:1014D000626F636BD89062350001E76F010163357D
:1014E0000001E86FD890E737E837D890E737E8375A
:1014F0001200C00E605DD8A48BEF0AF0010E5F15DC
:10150000626F6205D8A489EF0AF0010E0001F76F3F
:1015100012000001F76B12000001650501015E91E8
:10152000D8B45E810001660501015E93D8B45E8384
:101530005E855EB15EA35E955EA5BBEF0AF0040E0C
:101540008FEC01F001015E9708B05E875EA7BBEFEC
:101550000AF000016705D8A4B5EF0AF0FF0E726F1C
:10156000FF0E736FFF0E746F12006851726F695136
:10157000736F6A51746F12005A51800A086E810E9F
:10158000085CD8A4C6EF0AF0000E595DD8B4D2EFBB
:101590000AF0D8B0D2EF0AF059515B6F00018C6BA2
:1015A0000FEF0BF05A51800A086E820E085CD8A427
:1015B000DCEF0AF0000E595DD8B4F0EF0AF0D8B0B5
:1015C000F0EF0AF0000E59255C6FFF0E5A215D6F97
:1015D000D880FF0E5C555B6F00018C6B0FEF0BF03A
:1015E0005A51800A086E830E085CD8A4FAEF0AF0FC
:1015F000000E595DD8B408EF0BF0D8B008EF0BF02F
:10160000000E59255B6F010E00018C6F0FEF0BF080
:10161000D880FF0E59555B6F010E00018C6FBA0E1A
:10162000F66E000EF76E000EF86E01015B51F626A5
:10163000000E086EF7220850F8220900F55000014C
:101640008B6F120000018851800A086E010152510F
:10165000800A085CD8A430EF0BF051510001875D7F
:10166000D8B43EEF0BF0D8A03EEF0BF0000187514D
:101670000101516F000188510101526F00018A512F
:10168000800A086E01015251800A085CD8A44CEF10
:101690000BF051510001895DD8B45AEF0BF0D8B06E
:1016A0005AEF0BF0000189510101516F00018A517D
:1016B0000101526F0101515100017B250101536F5E
:1016C000525100017C210101546F515100017F25CD
:1016D0000101556F5251000180210101566F515196
:1016E000000183250101576F52510001842101013E
:1016F000586F5451800A086E830E085CD8A483EF9B
:101700000BF0FF0E535DD8B48DEF0BF0D8A08DEF2A
:101710000BF0000E5327FC0E54235651800A086E1E
:10172000830E085CD8A497EF0BF0FF0E555DD8B47C
:10173000A1EF0BF0D8A0A1EF0BF0000E5527FC0E87
:1017400056235851800A086E830E085CD8A4ABEF6C
:101750000BF0FF0E575DD8B4B5EF0BF0D8A0B5EF86
:101760000BF0000E5727FC0E58235351596F54515C
:101770005A6FBCEC0AF0D880FF0E00018B55786FD1
:101780008C51756F01015551596F56515A6FBCEC10
:101790000AF0D880FF0E00018B55796F8C51766F5F
:1017A00001015751596F58515A6FBCEC0AF0D8805B
:1017B000FF0E00018B557A6F8C51776F7851726FE5
:1017C0007951736F7A51746F7551D8B4EBEF0BF098
:1017D0008A88ECEF0BF08A987651D8B4F3EF0BF0CF
:1017E0008A86F4EF0BF08A967751D8B4FBEF0BF0B2
:1017F0008A84FCEF0BF08A946505D8A413EF0CF0F3
:10180000D8907231686FD8907331696FD890743105
:101810006A6F010E666F040E086E6351096E6451A3
:101820000A6E42EF01F012004F04D8A446EF0DF00B
:10183000010E8FEC01F001014E9308B04E834EA3D0
:1018400046EF0DF0010E086E5050096E51500A6EB1
:1018500042EC01F05E500101516F5F50526F22EC7B
:101860000BF00101496B5550D8A4A6EF0CF0525073
:101870005E2653505F225F50800A086E830E085C1C
:10188000D8A445EF0CF0FF0E5E5CD8B44FEF0CF01F
:10189000D8A04FEF0CF0000E5E26FC0E5F22D88021
:1018A0005A505E544A6F5B505F544B6F800A086E0B
:1018B000820E085CD8A45FEF0CF0000E4A5D4E99D2
:1018C000D8B465EF0CF0D8A04E894B51800A086E51
:1018D0007E0E085CD8A46FEF0CF0000E4A5D4E9BA4
:1018E000D8B475EF0CF0D8B04E8B4E8D4EB94EABD0
:1018F0004E9D4EAD91EF0CF05B50800A086E5F502C
:10190000800A085CD8A487EF0CF05E505A5CD8B40B
:101910008DEF0CF0D8B020EF0DF0010E496F20EFE5
:101920000DF05B50800A086E5F50800A085CD8A4F6
:101930009CEF0CF05E505A5CD8B4A2EF0CF0D8A02B
:1019400020EF0DF0010E496F20EF0DF05F50800A7F
:10195000086E5350800A085CD8A4B1EF0CF05250C6
:101960005E5CD8B4B7EF0CF0D8A0C0EF0CF0D88014
:101970005E5052545E6E5F5053545F6ECBEF0CF06E
:10198000000E5E26040E5F22D8805E5052545E6EBA
:101990005F5053545F6ED8805A505E544A6F5B500C
:1019A0005F544B6F800A086E820E085CD8A4DBEF90
:1019B0000CF0000E4A5D4F95D8B4E1EF0CF0D8A0C2
:1019C0004F854B51800A086E7E0E085CD8A4EBEF61
:1019D0000CF0000E4A5D4F97D8B4F1EF0CF0D8B080
:1019E0004F874F894FB54FA74F994FA90DEF0DF076
:1019F0005B50800A086E5F50800A085CD8A403EF31
:101A00000DF05E505A5CD8B409EF0DF0D8A020EF6D
:101A10000DF0010E496F20EF0DF05B50800A086E4B
:101A20005F50800A085CD8A418EF0DF05E505A5C35
:101A3000D8B41EEF0DF0D8B020EF0DF0010E496FB5
:101A40004905D8A446EF0DF05404D8A42DEF0DF0AD
:101A50005C505E6E5D505F6E12005A505E6E5B5061
:101A60005F6E5550D8A439EF0DF0010E556E3AEF68
:101A70000DF0556A5A504C6F5B504D6F5C505A6E6A
:101A80005D505B6E4C515C6E4D515D6E120030507E
:101A9000D8A452EF0DF031500001EF6FF06B010E42
:101AA000EC6F12003004D8A466EF0DF03150010144
:101AB000466F476B000E46250001EF6F010E0101D6
:101AC00047210001F06F010EEC6F1200020E305C36
:101AD000D8A47BEF0DF031500101466F476B000E2B
:101AE00046250001EF6F020E010147210001F06F52
:101AF000010EEC6F1200030E305CD8A490EF0DF0D5
:101B000031500101466F476B000E46250001EF6F13
:101B1000030E010147210001F06F010EEC6F12006E
:101B2000040E305CD8A4A5EF0DF031500101466FD2
:101B3000476BD89046350001876F0101473500019A
:101B4000886FD890873788371200050E305CD8A48C
:101B5000C7EF0DF031500101466F476BD890463505
:101B60000001896F0101473500018A6FD8908937DC
:101B70008A37FC0E895D086E030E8A5D0810D8A4B2
:101B80000DEF12F0FF0E896F030E8A6F12000C0E1C
:101B9000305CD8A4DEEF0DF031500101466F476B89
:101BA000D89046350001EF6F010147350001F06F15
:101BB000D890EF37F037010EEC6F1200060E305C54
:101BC000D8A4E9EF0DF0D880FF0E31540001786FF2
:101BD0001200070E305CD8A4F4EF0DF0D880FF0E91
:101BE00031540001796F1200080E305CD8A4FFEF69
:101BF0000DF0D880FF0E315400017A6F1200090EEB
:101C0000305CD8A455EF0EF0010E31140101466F7F
:101C10004651D8A410EF0EF00001756B13EF0EF0D3
:101C2000010E0001756F020E31140101466F46511D
:101C3000D8A41FEF0EF00001766B22EF0EF0010E1C
:101C40000001766F040E31140101466F4651D8A48D
:101C50002EEF0EF00001776B31EF0EF0010E000158
:101C6000776F75516F6F7651706F75516F6F7851D7
:101C7000726F7951736F7A51746F7551D8B444EFA4
:101C80000EF08A8845EF0EF08A987651D8B44CEF62
:101C90000EF08A864DEF0EF08A967751D8B453EF46
:101CA0000EF08A8412008A9412000A0E305CD8A4C6
:101CB0005DEF0EF00001626B12000B0E305CD8A4D9
:101CC0009AEF0EF03F0E31140101466F4651D8A431
:101CD00070EF0EF0080E0001606F616B7BEF0EF08D
:101CE0003F0E3114466F476B46510001606F010192
:101CF00047510001616FC00E31140101466F800E23
:101D0000465DD8A48FEF0EF0010E0001626F020E47
:101D1000086E6051096E61510A6E42EC01F0C00E0E
:101D200031140101466F4651D8A40DEF12F00001A5
:101D3000626B12000D0E305CD8A4E3EF0EF03F0E84
:101D400031140101466F4651D8A4ADEF0EF00001E9
:101D5000636B020E646FC1EF0EF03F0E3114466FDD
:101D6000476BD89046350001636F0101473500018C
:101D7000646F040E006ED89063376437002EBBEF9B
:101D80000EF0400E31140101466F400E465DD8A49E
:101D9000CFEF0EF0010E0001676FD1EF0EF00001E2
:101DA000676B800E31140101466F800E465DD8A42A
:101DB000DFEF0EF00001666B010E656F120000018F
:101DC000666B656B12000E0E305CD8A466EF0FF0E8
:101DD000020E31140101466F020E465DD8A4F6EFE3
:101DE0000EF000018D6B956BFAEF0EF0010E000105
:101DF0008D6F8990040E31140101466F040E465D0B
:101E0000D8A408EF0FF000018E6B966B0CEF0FF06B
:101E1000010E00018E6F8992080E31140101466F88
:101E2000080E465DD8A41AEF0FF000018F6B976B78
:101E30001EEF0FF0010E00018F6F8994100E311408
:101E40000101466F100E465DD8A42CEF0FF0000183
:101E5000906B986B30EF0FF0010E0001906F899638
:101E6000200E31140101466F200E465DD8A43EEFCE
:101E70000FF00001916B996B42EF0FF0010E000122
:101E8000916F899A400E31140101466F400E465DF4
:101E9000D8A450EF0FF00001926B9A6B54EF0FF043
:101EA000010E0001926F8B90800E31140101466F7C
:101EB000800E465DD8A461EF0FF00001936B9B6B21
:101EC0001200010E0001936F8B9212000F0E305C16
:101ED000D8A47AEF0FF000018D51D8A473EF0FF062
:101EE0003150956F12003150D8B489903104D8B474
:101EF00089801200100E305CD8A48EEF0FF0000124
:101F00008E51D8A487EF0FF03150966F12003150E8
:101F1000D8B489923104D8B489821200110E305C91
:101F2000D8A4A2EF0FF000018F51D8A49BEF0FF0BF
:101F30003150976F12003150D8B489943104D8B41D
:101F400089841200120E305CD8A4B6EF0FF00001A5
:101F50009051D8A4AFEF0FF03150986F120031506C
:101F6000D8B489963104D8B489861200130E305C37
:101F7000D8A4CAEF0FF000019151D8A4C3EF0FF01D
:101F80003150996F12003150D8B4899A3104D8B4C5
:101F9000898A1200140E305CD8A4DEEF0FF0000125
:101FA0009251D8A4D7EF0FF031509A6F12003150F0
:101FB000D8B48B903104D8B48B801200150E305CED
:101FC000D8A4F2EF0FF000019351D8A4EBEF0FF07B
:101FD00031509B6F12003150D8B48B923104D8B479
:101FE0008B821200160E305CD8A4FBEF0FF031503C
:101FF0000001946F1200170E305CD8A403EF10F0AC
:10200000315024EF0AF0180E305CD8A40BEF10F01A
:10201000315055EF08F0190E305CD8A415EF10F0D0
:10202000315000017D6F7E6B12001A0E305CD8A417
:1020300027EF10F031500101466F476B4651000108
:102040007C6F7B6B7D517B277E517C2312001B0EA6
:10205000305CD8A431EF10F031500001816F826BF9
:1020600012001C0E305CD8A443EF10F03150010177
:10207000466F476B46510001806F7F6B81517F2710
:102080008251802312001D0E305CD8A44DEF10F059
:1020900031500001856F866B12001E0E305CD8A493
:1020A0005FEF10F031500101466F476B4651000160
:1020B000846F836B855183278651842312001F0E02
:1020C000305CD8A40FEF11F0010E31140101466FFE
:1020D0004605D8A40DEF11F0020E3114476F020E21
:1020E000475DD8A478EF10F0010E546E79EF10F030
:1020F000546A58505A6E59505B6E56505C6E575029
:102100005D6EC00E3114466F400E465DD8A48EEF52
:1021100010F0F40E506E516AABEF10F0C00E311497
:10212000466F800E465DD8A49BEF10F0E80E506E0F
:10213000516AABEF10F0C00E3114466FC00E465D11
:10214000D8A4A8EF10F0D00E506E516AABEF10F08B
:10215000640E506E516A3C0E3114466F4651D8A43D
:10216000B7EF10F0010E526E536AC2EF10F03C0E42
:102170003114466FD8904631476F486B4751526EC5
:102180004851536E5950800A086E5750800A085CB7
:10219000D8A4CDEF10F05650585CD8B4DDEF10F055
:1021A000D8A0DDEF10F0D88058505654446F5950E5
:1021B0005754456F556AE6EF10F0D8805650585482
:1021C000446F57505954456F010E556E4551800A62
:1021D000086E820E085CD8A4F0EF10F0000E445D8B
:1021E000D8B4FFEF10F0D8A0FFEF10F05550D8A4EE
:1021F000FEEF10F0010E556EFFEF10F0556A5650CD
:102200005E6E57505F6E010E4F6E010E086E50509D
:10221000096E51500A6E42EF01F04F6A1200200E13
:10222000305CD8A421EF11F031500101466F476BAB
:10223000D8904635566E4735576ED8905636573635
:102240001200210E305CD8A433EF11F0315001019F
:10225000466F476BD8904635586E4735596ED890C3
:10226000583659361200220E305CD8A43EEF11F0D9
:10227000D880FF0E31540001726F1200230E305CC3
:10228000D8A449EF11F0D880FF0E31540001736FCC
:102290001200240E305CD8A454EF11F0D880FF0E49
:1022A00031540001746F1200250E305CD8A48CEFFD
:1022B00011F0010E31140101466F4651D8A466EFAA
:1022C00011F000016F6B8A986AEF11F0010E0001A6
:1022D0006F6F8A88020E31140101466F4651D8A4EF
:1022E00077EF11F00001706B8A967BEF11F0010E11
:1022F0000001706F8A86040E31140101466F465149
:10230000D8A487EF11F00001716B8A941200010EBE
:102310000001716F8A841200260E305CD8A4DAEFB7
:1023200011F000016E51D8A40DEF12F0530EAFEC76
:1023300007F0440EAFEC07F0490EAFEC07F0200EAB
:10234000AFEC07F0760EAFEC07F0310EAFEC07F014
:102350002E0EAFEC07F0320EAFEC07F0200EAFEC14
:1023600007F0240EAFEC07F0330E0101436F390E76
:10237000435DD8B4C1EF11F0D8A0C1EF11F0070E42
:1023800043274351AFEC07F0320E0101436F390E82
:10239000435DD8B4D1EF11F0D8A0D1EF11F0070E02
:1023A00043274351AFEC07F00D0EAFEC07F00A0ED8
:1023B000AFEF07F0270E305CD8A4F3EF11F0000167
:1023C0006E51D8A40DEF12F04E0E315CD8A4EBEF95
:1023D00011F02F6A1200590E315CD8A4F2EF11F0FF
:1023E000010E2F6E1200280E305CD8A40DEF12F0F3
:1023F000BA0EF66E000EF76E000EF86E3150F6262D
:10240000000E086EF7220850F8220900F55000016E
:102410008B6FD880FF0E8B55726F12000001E16B3D
:10242000E26BE36B040EE56FE66B200EE76FE86B83
:10243000E751E96FE851EA6F010EF76FEB6BEC6B58
:10244000ED6B020EEE6F1200EC6BD880EF51ED5584
:10245000F16FF051EE55F26FF705D8A476EF12F058
:10246000F251800A086E7E0E085CD8A43AEF12F092
:10247000000EF15DD8B453EF12F0D8B053EF12F064
:10248000D880000EED550101416F040E0001EE559C
:102490000101426F41510001EF25F16F01014251ED
:1024A0000001F021F26FF251800A086E820E085C82
:1024B000D8A45DEF12F0000EF15DD8B476EF12F003
:1024C000D8A076EF12F0D880EF51ED550101416FA1
:1024D0000001F051EE550101426F000E412500014F
:1024E000F16FFC0E010142210001F26FF251800AEE
:1024F000086E800E085CD8A480EF12F0000EF15D2B
:10250000D8B486EF12F0D8A08BEF12F0F151F36F30
:10251000F251F46F1200F11DF36FF21DF46FF32B03
:10252000D8B4F42B12004051800A086E800E085C6B
:10253000D8A49DEF12F0000E3F5DD8B4A8EF12F0C2
:10254000D8B0A8EF12F0000E3F27040E402312006F
:102550004051800A086E830E085CD8A4B2EF12F0D6
:10256000FF0E3F5DD8B4BCEF12F0D8A0BCEF12F064
:10257000000E3F27FC0E4023120001013E6F3E512A
:10258000D8A4C9EF12F00001E751E96FE851EA6FF2
:1025900012003E05D8A4E1EF12F0000E0001E85D44
:1025A000D8A4D5EF12F0080EE75DD8B4F2EF12F020
:1025B000D8A0F2EF12F0D890E831EA6FE731E96F76
:1025C0001200020E3E5DD8A4EDEF12F0D89000018B
:1025D000E735E96FE835EA6F12000001E751E96F6E
:1025E000E851EA6F12000001FF6FF251800A086E95
:1025F000800E085CD8A4FFEF12F0000EF15DD8B495
:1026000005EF13F0D8A00BEF13F0010E0101386FA6
:10261000396B0FEF13F0FF0E0101386F396F020EA7
:102620000001FF5DD8A48CEF13F0D890F231F2BF17
:1026300080090101376F0001F1310101366FD89037
:102640000001F43101013D6F0001F33101013C6FE4
:102650003D510001E35DD8A432EF13F001013C517C
:102660000001E25DD8B456EF13F0D8B056EF13F086
:10267000E2510101366F0001E3510101376F0001A2
:10268000F251800A086E800E085CD8A44AEF13F05D
:10269000000EF15DD8B456EF13F0D8B056EF13F03A
:1026A0000101361F371F362BD8B4372B01013451A7
:1026B0003625006F35513721016F00513625026FE5
:1026C00001513721036F010E0001F31501013C6F29
:1026D0003D6B3C513D11D8B472EF13F038510227D5
:1026E0003951032300513F6F0151406F93EC12F0B9
:1026F00001013F51006F4051016F02513F6F035183
:10270000406F93EC12F001013F51026F4051036F93
:10271000010E0001F66F1200040EFF5DD8A470EFE9
:1027200014F0D890F231F2BF80090101376F000137
:10273000F1310101366FD890373137BDC009376F9D
:102740003633030E0001F31501013A6F3B6BD8904D
:102750000001F43101013D6F0001F33101013C6FD3
:10276000D8903D333C333D510001E35DD8A4BDEF2B
:1027700013F001013C510001E25DD8B4E3EF13F026
:10278000D8B0E3EF13F0E2510101366F0001E351DD
:102790000101376F3A6B3B6B0001F251800A086E02
:1027A000800E085CD8A4D7EF13F0000EF15DD8B40A
:1027B000E3EF13F0D8B0E3EF13F00101361F371F3A
:1027C000362BD8B4372B0101006B016B026B036B06
:1027D000046B056B3A513B11D8B41CEF14F03A0569
:1027E0003B11D8A4FAEF13F03851026F3951036F3F
:1027F0001CEF14F0020E3A5D3B11D8A40AEF14F05E
:102800003851026F3951036F3851046F3951056FD8
:102810001CEF14F0030E3A5D3B11D8A41CEF14F02A
:102820003851006F3951016F3851026F3951036FC0
:102830003851046F3951056F345136253C6F35518D
:1028400037213D6F3C5100273D5101230051362572
:102850003C6F015137213D6F3C5102273D5103230D
:10286000025136253C6F035137213D6F3C510427FF
:102870003D51052304513625066F05513721076F59
:1028800000513F6F0151406F93EC12F001013F5135
:10289000006F4051016F02513F6F0351406F93EC45
:1028A00012F001013F51026F4051036F04513F6F1D
:1028B0000551406F93EC12F001013F51046F4051FC
:1028C000056F06513F6F0751406F93EC12F0010105
:1028D0003F51066F4051076F030E0001F66F120063
:1028E000080EFF5DD8A42DEF16F0D890F231F2BF9C
:1028F00080090101376F0001F1310101366FD89075
:1029000037333633D890373137BBE009376F36333A
:10291000070E0001F31501013A6F3B6BD8900001DF
:10292000F43101013D6F0001F33101013C6FD8909A
:102930003D333C33D8903D333C333D510001E35DA2
:10294000D8A4A7EF14F001013C510001E25DD8B416
:10295000CDEF14F0D8B0CDEF14F0E2510101366F95
:102960000001E3510101376F3A6B3B6B0001F251FB
:10297000800A086E800E085CD8A4C1EF14F0000E27
:10298000F15DD8B4CDEF14F0D8B0CDEF14F0010163
:10299000361F371F362BD8B4372B0101006B016B64
:1029A000026B036B046B056B066B076B086B096BA3
:1029B0000A6B0B6B0C6B0D6B3A513B11D8B486EF65
:1029C00015F03A053B11D8A4ECEF14F03851026F22
:1029D0003951036F86EF15F0020E3A5D3B11D8A412
:1029E000FCEF14F03851026F3951036F3851086F02
:1029F0003951096F86EF15F0030E3A5D3B11D8A4EB
:102A000010EF15F03851026F3951036F3851066FCE
:102A10003951076F38510A6F39510B6F86EF15F036
:102A2000040E3A5D3B11D8A428EF15F03851026F1F
:102A30003951036F3851066F3951076F3851086F9C
:102A40003951096F38510C6F39510D6F86EF15F000
:102A5000050E3A5D3B11D8A444EF15F03851026FD2
:102A60003951036F3851046F3951056F3851086F70
:102A70003951096F38510A6F39510B6F38510C6F4A
:102A800039510D6F86EF15F0060E3A5D3B11D8A453
:102A900064EF15F03851026F3951036F3851046FEC
:102AA0003951056F3851066F3951076F3851086F2A
:102AB0003951096F38510A6F39510B6F38510C6F0A
:102AC00039510D6F86EF15F0070E3A5D3B11D8A412
:102AD00086EF15F03851006F3951016F3851026F90
:102AE0003951036F3851046F3951056F3851066FF2
:102AF0003951076F3851086F3951096F38510A6FD2
:102B000039510B6F38510C6F39510D6F34513625D7
:102B10003C6F355137213D6F3C5100273D5101231A
:102B2000005136253C6F015137213D6F3C51022742
:102B30003D510323025136253C6F035137213D6F30
:102B40003C5104273D510523045136253C6F055166
:102B500037213D6F3C5106273D510723065136254D
:102B60003C6F075137213D6F3C5108273D510923E8
:102B7000085136253C6F095137213D6F3C510A27DA
:102B80003D510B230A5136253C6F0B5137213D6FC8
:102B90003C510C273D510D230C5136250E6F0D5124
:102BA00037210F6F00513F6F0151406F93EC12F0CE
:102BB00001013F51006F4051016F02513F6F0351BE
:102BC000406F93EC12F001013F51026F4051036FCF
:102BD00004513F6F0551406F93EC12F001013F51DA
:102BE000046F4051056F06513F6F0751406F93ECE2
:102BF00012F001013F51066F4051076F08513F6FBE
:102C00000951406F93EC12F001013F51086F4051A0
:102C1000096F0A513F6F0B51406F93EC12F00101A5
:102C20003F510A6F40510B6F0C513F6F0D51406F78
:102C300093EC12F001013F510C6F40510D6F0E519A
:102C40003F6F0F51406F93EC12F001013F510E6F37
:102C500040510F6F070E0001F66F1200FE6BE10589
:102C6000D8A4D4EF16F0000EBDEC12F00001F25122
:102C7000800A086E800E085CD8A441EF16F0000EA2
:102C8000F15DD8B447EF16F0D8A050EF16F0E2513E
:102C90000101276F0001E3510101286F5AEF16F07F
:102CA000E21D0101276F0001E31D0101286F272BA1
:102CB000D8B4282B0001ED5101012725236F000115
:102CC000EE5101012821246F23513F6F2451406FA1
:102CD00093EC12F001013F51236F4051246FD880D3
:102CE0000001F351E2550101256F0001F451E35554
:102CF0000101266FD8900001FE350101316F01EE10
:102D000000F03151E9262351EF6EE92A2451EF6E8C
:102D10002651800A086E800E085CD8A492EF16F047
:102D2000000E255DD8B498EF16F0D8B0AAEF16F0D3
:102D3000D8900001FE350101316F01EE00F03151F4
:102D4000E9260001EF51EF6EE92AF051EF6EFE2BFC
:102D5000D0EF16F00001FE2B010127512327285147
:102D6000242323513F6F2451406F93EC12F0010153
:102D70003F51236F4051246FD88025510001E25507
:102D80000101256F26510001E3550101266F070E51
:102D90000001FE5DD8B47AEF16F0D8A07AEF16F0F5
:102DA000FE05F66F3BEF18F0E405D8A4E8EF16F047
:102DB000000EBDEC12F00001ED510101346F000175
:102DC000EE510101356F020EF3EC12F03BEF18F0FB
:102DD000020EE45DD8A4FDEF16F0000EBDEC12F07B
:102DE0000001ED510101346F0001EE510101356F19
:102DF000040EF3EC12F03BEF18F0030EE45DD8A4E0
:102E000012EF17F0000EBDEC12F00001ED510101C0
:102E1000346F0001EE510101356F080EF3EC12F032
:102E20003BEF18F0E451D8A43BEF18F0D890E2350E
:102E30000101316F0001E3350101326FD890313764
:102E40003237D890313732370001F4510101325D09
:102E5000D8A42FEF17F00001F3510101315DD8B470
:102E600000EF18F0D8B000EF18F0010EBDEC12F032
:102E70000001F15101012B6F0001F25101012C6F92
:102E80000001F35101012F6F0001F4510101306F76
:102E9000D8902C312CBF80090001F26F01012B3139
:102EA0000001F16FD890010130310001F46F010190
:102EB0002F310001F36FED51F12501012D6F00015C
:102EC000EE51F22101012E6F0001ED510101346F2D
:102ED0000001EE510101356F080EF3EC12F0000114
:102EE000FE6B080EFE250101316FD8903135326F2F
:102EF000D8900001FE350101336F01EE00F033512F
:102F0000E926EF50086EE92AEF50096E01EE00F055
:102F10003251E9260850EF6EE92A0950EF6E0001A0
:102F2000FE2B070EFE5DD8B471EF17F0D8A071EF3D
:102F300017F0D88001012B510001F15701012C51EC
:102F40000001F257D88001012F510001F357010110
:102F500030510001F45701012D51346F2E51356F5E
:102F6000080EF3EC12F00001FE6B080EFE250101C5
:102F7000316FD8903135326F01EE00F03251E926D1
:102F8000EF50296FE92AEF502A6F080E0001FE2545
:102F90000101316FD8903135326FD8900001FE3584
:102FA0000101336F01EE00F03351E926EF50086E56
:102FB000E92AEF50096E01EE00F03251E92608507F
:102FC000EF6EE92A0950EF6ED8900001FE3501013D
:102FD000316F01EE00F03151E9262951EF6EE92AF7
:102FE0002A51EF6E0001FE2B070EFE5DD8B4B5EF3F
:102FF00017F0D8A0B5EF17F00F0EF66F3BEF18F0F3
:10300000D8900001E2350101316F0001E335010183
:10301000326FD890313732370001F4510101325DFF
:10302000D8A417EF18F00001F3510101315DD8B4B5
:103030002DEF18F0D8A02DEF18F0020EBDEC12F015
:103040000001ED510101346F0001EE510101356FB6
:10305000080EF3EC12F03BEF18F0000EBDEC12F08E
:103060000001ED510101346F0001EE510101356F96
:10307000080EF3EC12F0010100510001ED6F0101A7
:1030800001510001EE6F010EF56F12000001E151D8
:10309000D8A461EF18F0EC05D8A4CFEF19F0EC6BD1
:1030A000EF51ED6FF051EE6F000EBDEC12F000012C
:1030B000ED510101516F0001EE510101526F22EFFC
:1030C0000BF0E105D8A41AEF19F0EB51D8A4A5EF45
:1030D00018F0EC05D8A4CFEF19F024EC12F00001A1
:1030E000F451E35DD8A477EF18F0F351E25DD8B462
:1030F0007DEF18F0D8A08EEF18F0EF51ED6FF05182
:10310000EE6F000EBDEC12F00001ED510101516FA8
:103110000001EE510101526F22EF0BF02EEC16F080
:10312000010E0001EB6FED510101516F0001EE51F5
:103130000101526F22EC0BF0030E086E0001E95101
:10314000096EEA510A6E42EF01F0EB05D8A4CFEF09
:1031500019F0EC05D8A4E6EF18F024EC12F0000109
:10316000F451E35DD8A4B7EF18F0F351E25DD8B4A1
:10317000BDEF18F0D8A0D1EF18F0EF51ED6FF0517E
:10318000EE6F000EBDEC12F00001ED510101516F28
:103190000001EE510101526F22EC0BF00001EB6BCC
:1031A00012002EEC16F00001ED510101516F0001EB
:1031B000EE510101526F22EC0BF0030E086E00017C
:1031C000E951096EEA510A6E42EF01F0030E8FECED
:1031D00001F00101219308B0218321A3CFEF19F061
:1031E000D8900001F535FD6F01EE00F0FD51E926A4
:1031F000EF50ED6FE92AEF50EE6FED510101516F85
:103200000001EE510101526F22EC0BF00001F5516B
:10321000F65DD8B418EF19F0D8A018EF19F0F52B17
:10322000030E086EE951096EEA510A6E42EF01F091
:10323000EB6B1200020EE15DD8A4CFEF19F0EB5159
:10324000D8A45FEF19F0EC05D8A4CFEF19F024EC67
:1032500012F00001F451E65DD8A431EF19F0F351FA
:10326000E55DD8B437EF19F0D8A048EF19F0EF5169
:10327000ED6FF051EE6F000EBDEC12F00001ED515C
:103280000101516F0001EE510101526F22EF0BF06D
:103290002EEC16F0010E0001EB6FED510101516FA4
:1032A0000001EE510101526F22EC0BF0030E086E8B
:1032B0000001E951096EEA510A6E42EF01F0EB0597
:1032C000D8A4CFEF19F0EC05D8A49CEF19F024ECAA
:1032D00012F00001F451E65DD8A471EF19F0F3513A
:1032E000E55DD8B477EF19F0D8A087EF19F0EF516A
:1032F000ED6FF051EE6FED510101516F0001EE5194
:103300000101526F22EC0BF00001EB6B12002EEC6E
:1033100016F00001ED510101516F0001EE51010164
:10332000526F22EC0BF0030E086E0001E951096E9A
:10333000EA510A6E42EF01F0030E8FEC01F0010139
:10334000229508B0228522A5CFEF19F0D890000170
:10335000F535FD6F01EE00F0FD51E926EF50ED6F00
:10336000E92AEF50EE6FED510101516F0001EE516E
:103370000101526F22EC0BF00001F551F65DD8B45B
:10338000CEEF19F0D8A0CEEF19F0F52B030E086E92
:10339000E951096EEA510A6E42EF01F0EB6B12003F
:1033A000F29EC26A0F0EC16EC06A070EB46EF26A58
:1033B000226A236A246A070E256E276A2E6A010E86
:1033C0002F6E266A2B6A010E8D6F010E8E6F010E15
:1033D0008F6F010E906F010E916F010E926F010EB3
:1033E000936F800E946F956B966B976B986B996B40
:1033F0009A6B9B6B8B9C8990899289948996899A08
:103400008B908B928988010E4E6EC80E4B6E4C6A63
:10341000086A4B50096E4C500A6E42EC01F04F6A3C
:10342000640E506E516A010E526E536A546A566AA7
:10343000576AFF0E586E596A5E6A5F6A550E000140
:103440007B6F020E7C6FAA0E7F6F030E806F836B03
:10345000010E846F876B886BFF0E896F030E8A6F76
:103460006F6B706B716BFF0E726FFF0E736FFF0EE1
:10347000746FFF0E686FFF0E696FFF0E6A6F756BDA
:10348000766B776BFF0E786FFF0E796FFF0E7A6F9A
:103490006F51D8B44FEF1AF08A8850EF1AF08A981B
:1034A0007051D8B457EF1AF08A8658EF1AF08A96FE
:1034B0007151D8B45FEF1AF08A8460EF1AF08A94E1
:1034C000636B020E646F656B666B010E676F6C6BEE
:1034D0006D6BD09EF18CF292B9EC01F0F28EF28C11
:1034E00082BE7FEF1AF000016E6B020E4D6EC80EA9
:1034F0004B6E4C6A010E6B6FF2988AEF1AF0010E58
:1035000000016E6F020E4D6EE80E4B6E030E4C6E98
:103510006B6BF288080E606F616B626B2FEC02F0D0
:103520000EEC12F000016B05D8A4BCEF1AF08DEC84
:1035300008F033EC01F008500001F86F0950F96F02
:10354000F8516C5D086EF9516D5D0810D8B492EFBA
:103550001AF033EC01F0085000016C6F09506D6FE8
:1035600082A492EF1AF06B6B65EC07F0F40E4B6ED1
:10357000010E4C6E92EF1AF06E51D8A4F2EF1AF0D1
:1035800082A4E7EF1AF043EC08F02E04D8A410EF61
:103590001BF02E6A2C50306E2D50316E030E4D5C98
:1035A000D8A4E3EF1AF080A8DAEF1AF00001FA9F2E
:1035B000DCEF1AF00001FA8FFABFE2EF1AF08998F7
:1035C000E3EF1AF0898847EC0DF010EF1BF0010EC5
:1035D0006B6FC80E4B6E4C6A020E4D6E6C6B6D6B52
:1035E00010EF1BF02704D8A410EF1BF0276A295016
:1035F000306E2A50316E030E4D5CD8A40EEF1BF0D6
:1036000080A806EF1BF0FB9507EF1BF0FB85FBB5D1
:103610000DEF1BF089980EEF1BF0898847EC0DF039
:103620008DEC08F03CEC02F046EC18F014EC0CF0D9
:103630008CEC0AF0C2EC08F092EF1AF0F2A2D7EF8D
:0C36400001F066EC02F0F292D7EF01F00E
:020000040030CA
:0E0000002C0E3E1E008580000FC00FE00F404A
:00000001FF
