:020000040000FA
:040000009EEF10F06F
:0800080000011350146E000109
:100010001550166E000117501A6E0001E9501B6E44
:10002000EA501C6E0001F6501D6EF7501E6EF8501F
:100030001F6EF550206E000109500D6E0A500E6EB5
:100040000B500F6E0C50106EB7EF1FF01201000234
:1000500002000008D8040A000100010200010902A0
:100060004300020100803209040000010202010085
:1000700005240010010424020205240600010524C1
:100080000100010705820308000209040100020AB9
:1000900000000007050302080000070583020800AE
:1000A00000000403090436034D0069006300720078
:1000B0006F00630068006900700020005400650054
:1000C000630068006E006F006C006F0067007900CD
:1000D0002C00200049006E0063002E001E034A0021
:1000E00041004C004C0049004200200053006500D4
:1000F0007200690061006C002E00303132333435FB
:10010000363738394142434445460000000001007B
:1001100002000300030004000500060007000700BA
:10012000080009000A000A000B000C000D000E0078
:100130000E000F0010001100120012001300140036
:1001400015001500160017001800190019001A00F4
:100150001B001C001D001D001E001F0020002000B1
:10016000210022002300240024002500260027006F
:100170002800280029002A002B002B002C002D002D
:100180002E002F002F0030003100320033003300EA
:1001900034003500360036003700380039003A00A8
:1001A0003A003B003C003D003E003E003F00400066
:1001B0004100410042004300440045004500460024
:1001C00047004800480049004A004B004C004C00E2
:1001D0004D004E004F00500050005100520053009F
:1001E000530054005500560057005700580059005E
:1001F0005A005A005B005C005D005E005E005F001C
:1002000060006100620062006300640065006500D8
:10021000660067006800690069006A006B006C0096
:100220006C006D006E006F00700070007100720055
:100230007300730074007500760077007700780013
:1002400079007A007B007B007C007D007E007E00D0
:100250007F0080008100820082008300840085008E
:100260008500860087008800890089008A008B004D
:100270008C008C008D008E008F009000900091000B
:1002800092009300930094009500960097009700C9
:10029000980099009A009A009B009C009D009E0087
:1002A0009E009F00A000A100A100A200A300A40046
:1002B000A400A500A600A700A800A800A900AA0005
:1002C000AB00AB00AC00AD00AE00AF00AF00B000C3
:1002D000B100B200B200B300B400B500B600B60081
:1002E000B700B800B900B900BA00BB00BC00BC0040
:1002F000BD00BE00BF00C000C000C100C200C300FE
:10030000C300C400C500C600C700C700C800C900BC
:10031000CA00CA00CB00CC00CD00CD00CE00CF007B
:10032000D000D100D100D200D300D400D400D50039
:10033000D600D700D700D800D900DA00DA00DB00F9
:10034000DC00DD00DE00DE00DF00E000E100E100B7
:10035000E200E300E400E400E500E600E700E80076
:10036000E800E900EA00EB00EB00EC00ED00EE0035
:10037000EE00EF00F000F100F100F200F300F400F5
:10038000F500F500F600F700F800F800F900FA00B3
:10039000FB00FB00FC00FD00FE00FE00FF00000172
:1003A000010101010201030104010401050106012B
:1003B00007010801080109010A010B010B010C01E9
:1003C0000D010E010E010F011001110111011201A9
:1003D0001301140114011501160117011701180169
:1003E00019011A011A011B011C011D011D011E0129
:1003F0001F012001200121012201230123012401E9
:100400002501260126012701280129012A012A01A7
:100410002B012C012D012D012E012F013001300166
:100420003101320133013301340135013601360126
:1004300037013801380139013A013B013B013C01E8
:100440003D013E013E013F014001410141014201A8
:100450004301440144014501460147014701480168
:1004600049014A014A014B014C014D014D014E0128
:100470004F015001500151015201530153015401E8
:1004800055015601560157015801580159015A01A9
:100490005B015B015C015D015E015E015F0160016A
:1004A000610161016201630164016401650166012A
:1004B000660167016801690169016A016B016C01EC
:1004C0006C016D016E016F016F01700171017101AD
:1004D000720173017401740175017601770177016E
:1004E000780179017A017A017B017C017C017D012F
:1004F0007E017F017F0180018101820182018301F0
:1005000084018401850186018701870188018901B1
:100510008A018A018B018C018C018D018E018F0172
:100520008F01900191019201920193019401940134
:1005300095019601970197019801990199019A01F6
:100540009B019C019C019D019E019E019F01A001B8
:10055000A101A101A201A301A301A401A501A6017A
:10056000A601A701A801A801A901AA01AB01AB013D
:10057000AC01AD01AD01AE01AF01B001B001B101FF
:10058000B201B201B301B401B501B501B601B701C1
:10059000B701B801B901BA01BA01BB01BC01BC0184
:1005A000BD01BE01BF01BF01C001C101C101C20146
:1005B000C301C301C401C501C601C601C701C80109
:1005C000C801C901CA01CA01CB01CC01CD01CD01CD
:1005D000CE01CF01CF01D001D101D201D201D3018F
:1005E000D401D401D501D601D601D701D801D80153
:1005F000D901DA01DB01DB01DC01DD01DD01DE0116
:10060000DF01DF01E001E101E201E201E301E401D8
:10061000E401E501E601E601E701E801E801E9019D
:10062000EA01EB01EB01EC01ED01ED01EE01EF015F
:10063000EF01F001F101F101F201F301F301F40125
:10064000F501F501F601F701F801F801F901FA01E8
:10065000FA01FB01FC01FC01FD01FE01FE01FF01AD
:10066000000200020102020202020302040204026A
:1006700005020602070207020802090209020A022D
:100680000B020B020C020D020D020E020F020F02F2
:1006900010021102110212021302130214021502B7
:1006A00015021602170217021802190219021A027D
:1006B0001B021B021C021D021D021E021F021F0242
:1006C0002002210221022202230223022402250207
:1006D00025022602270227022802290229022A02CD
:1006E0002B022B022C022D022D022E022F022F0292
:1006F0003002310231023202330233023402340258
:1007000035023602360237023802380239023A021E
:100710003A023B023C023C023D023E023E023F02E4
:1007200040024002410242024202430243024402AA
:100730004502450246024702470248024902490271
:100740004A024B024B024C024C024D024E024E0238
:100750004F025002500251025202520253025402FE
:1007600054025502550256025702570258025902C6
:1007700059025A025B025B025C025C025D025E028D
:100780005E025F0260026002610261026202630255
:10079000630264026502650266026702670268021C
:1007A000680269026A026A026B026C026C026D02E4
:1007B0006D026E026F026F027002710271027202AC
:1007C0007202730274027402750275027602770275
:1007D00077027802790279027A027A027B027C023D
:1007E0007C027D027E027E027F027F028002810205
:1007F00081028202820283028402840285028502CF
:100800008602870287028802890289028A028A0296
:100810008B028C028C028D028D028E028F028F025F
:100820009002900291029202920293029302940229
:1008300095029502960296029702980298029902F2
:1008400099029A029B029B029C029C029D029E02BC
:100850009E029F029F02A002A102A102A202A20286
:10086000A302A302A402A502A502A602A602A70251
:10087000A802A802A902A902AA02AB02AB02AC021A
:10088000AC02AD02AD02AE02AF02AF02B002B002E6
:10089000B102B202B202B302B302B402B402B502B0
:1008A000B602B602B702B702B802B802B902BA027B
:1008B000BA02BB02BB02BC02BC02BD02BE02BE0247
:1008C000BF02BF02C002C002C102C202C202C30212
:1008D000C302C402C402C502C602C602C702C702DE
:1008E000C802C802C902CA02CA02CB02CB02CC02A9
:1008F000CC02CD02CD02CE02CF02CF02D002D00276
:10090000D102D102D202D202D302D402D402D50241
:10091000D502D602D602D702D702D802D902D9020E
:10092000DA02DA02DB02DB02DC02DC02DD02DE02DA
:10093000DE02DF02DF02E002E002E102E102E202A7
:10094000E202E302E402E402E502E502E602E60274
:10095000E702E702E802E802E902E902EA02EB0242
:10096000EB02EC02EC02ED02ED02EE02EE02EF020F
:10097000EF02F002F002F102F102F202F302F302DE
:10098000F402F402F502F502F602F602F702F702AB
:10099000F802F802F902F902FA02FA02FB02FB027B
:1009A000FC02FD02FD02FE02FE02FF02FF02000346
:1009B000000301030103020302030303030304030F
:1009C00004030503050306030603070307030803DF
:1009D0000803090309030A030A030B030B030C03AF
:1009E0000C030D030E030E030F030F03100310037C
:1009F000110311031203120313031303140314034B
:100A0000150315031603160317031703180318031A
:100A1000190319031A031A031B031B031C031C03EA
:100A20001D031D031E031E031E031F031F032003BC
:100A3000200321032103220322032303230324038E
:100A4000240325032503260326032703270328035E
:100A50002803290329032A032A032B032B032C032E
:100A60002C032D032D032D032E032E032F032F0301
:100A700030033003310331033203320333033303D2
:100A800034033403350335033603360336033703A3
:100A9000370338033803390339033A033A033B0376
:100AA0003B033C033C033C033D033D033E033E0349
:100AB0003F033F034003400341034103420342031A
:100AC00042034303430344034403450345034603EE
:100AD00046034703470347034803480349034903C1
:100AE0004A034A034B034B034B034C034C034D0394
:100AF0004D034E034E034F034F034F035003500368
:100B0000510351035203520352035303530354033B
:100B1000540355035503560356035603570357030F
:100B2000580358035903590359035A035A035B03E3
:100B30005B035C035C035C035D035D035E035E03B8
:100B40005F035F035F03600360036103610361038D
:100B50006203620363036303640364036403650362
:100B60006503660366036603670367036803680338
:100B70006903690369036A036A036B036B036B030D
:100B80006C036C036D036D036D036E036E036F03E3
:100B90006F036F03700370037103710371037203BA
:100BA0007203730373037303740374037503750390
:100BB0007503760376037703770377037803780367
:100BC0007903790379037A037A037A037B037B033E
:100BD0007C037C037C037D037D037E037E037E0315
:100BE0007F037F037F0380038003810381038103ED
:100BF00082038203820383038303840384038403C5
:100C0000850385038503860386038703870387039C
:100C1000880388038803890389038A038A038A0374
:100C20008B038B038B038C038C038C038D038D034D
:100C30008E038E038E038F038F038F039003900325
:100C400090039103910391039203920393039303FF
:100C500093039403940394039503950395039603D8
:100C600096039603970397039703980398039803B3
:100C70009903990399039A039A039A039B039B038D
:100C80009B039C039C039D039D039D039E039E0366
:100C90009E039F039F039F03A003A003A003A10340
:100CA000A103A103A203A203A203A203A303A3031C
:100CB000A303A403A403A403A503A503A503A603F8
:100CC000A603A603A703A703A703A803A803A803D3
:100CD000A903A903A903AA03AA03AA03AA03AB03AE
:100CE000AB03AB03AC03AC03AC03AD03AD03AD038B
:100CF000AE03AE03AE03AF03AF03AF03AF03B00366
:100D0000B003B003B103B103B103B203B203B20342
:100D1000B203B303B303B303B403B403B403B5031F
:100D2000B503B503B503B603B603B603B703B703FC
:100D3000B703B703B803B803B803B903B903B903DA
:100D4000B903BA03BA03BA03BB03BB03BB03BB03B8
:100D5000BC03BC03BC03BD03BD03BD03BD03BE0395
:100D6000BE03BE03BF03BF03BF03BF03C003C00373
:100D7000C003C003C103C103C103C203C203C20352
:100D8000C203C303C303C303C303C403C403C40331
:100D9000C403C503C503C503C503C603C603C60311
:100DA000C703C703C703C703C803C803C803C803EF
:100DB000C903C903C903C903CA03CA03CA03CA03CF
:100DC000CB03CB03CB03CB03CC03CC03CC03CC03AF
:100DD000CD03CD03CD03CD03CE03CE03CE03CE038F
:100DE000CE03CF03CF03CF03CF03D003D003D00371
:100DF000D003D103D103D103D103D203D203D20351
:100E0000D203D203D303D303D303D303D403D40332
:100E1000D403D403D503D503D503D503D503D60313
:100E2000D603D603D603D703D703D703D703D703F5
:100E3000D803D803D803D803D803D903D903D903D7
:100E4000D903DA03DA03DA03DA03DA03DB03DB03B9
:100E5000DB03DB03DB03DC03DC03DC03DC03DC039D
:100E6000DD03DD03DD03DD03DD03DE03DE03DE037F
:100E7000DE03DE03DF03DF03DF03DF03DF03E00363
:100E8000E003E003E003E003E103E103E103E10346
:100E9000E103E203E203E203E203E203E303E30329
:100EA000E303E303E303E303E403E403E403E4030E
:100EB000E403E503E503E503E503E503E503E603F2
:100EC000E603E603E603E603E603E703E703E703D7
:100ED000E703E703E703E803E803E803E803E803BD
:100EE000E803E903E903E903E903E903E903EA03A2
:100EF000EA03EA03EA03EA03EA03EB03EB03EB0387
:100F0000EB03EB03EB03EC03EC03EC03EC03EC036C
:100F1000EC03EC03ED03ED03ED03ED03ED03ED0353
:100F2000ED03EE03EE03EE03EE03EE03EE03EE033A
:100F3000EF03EF03EF03EF03EF03EF03EF03F00320
:100F4000F003F003F003F003F003F003F103F10307
:100F5000F103F103F103F103F103F103F203F203EF
:100F6000F203F203F203F203F203F203F303F303D7
:100F7000F303F303F303F303F303F303F403F403BF
:100F8000F403F403F403F403F403F403F503F503A7
:100F9000F503F503F503F503F503F503F503F60390
:100FA000F603F603F603F603F603F603F603F60379
:100FB000F603F703F703F703F703F703F703F70362
:100FC000F703F703F803F803F803F803F803F8034B
:100FD000F803F803F803F803F803F903F903F90336
:100FE000F903F903F903F903F903F903F903F90321
:100FF000FA03FA03FA03FA03FA03FA03FA03FA0309
:10100000FA03FA03FA03FA03FA03FB03FB03FB03F5
:10101000FB03FB03FB03FB03FB03FB03FB03FB03E0
:10102000FB03FB03FC03FC03FC03FC03FC03FC03CA
:10103000FC03FC03FC03FC03FC03FC03FC03FC03B8
:10104000FC03FC03FD03FD03FD03FD03FD03FD03A2
:10105000FD03FD03FD03FD03FD03FD03FD03FD0390
:10106000FD03FD03FD03FD03FE03FE03FE03FE037C
:10107000FE03FE03FE03FE03FE03FE03FE03FE0368
:10108000FE03FE03FE03FE03FE03FE03FE03FE0358
:10109000FE03FE03FE03FE03FF03FF03FF03FF0344
:1010A000FF03FF03FF03FF03FF03FF03FF03FF0330
:1010B000FF03FF03FF03FF03FF03FF03FF03FF0320
:1010C000FF03FF03FF03FF03FF03FF03FF03FF0310
:1010D000FF03FF03FF03FF03FF03FF03FF03FF0300
:1010E000FF03FF03FF03FF03FF03FF03FF03FF03F0
:1010F000FF03FF03FF03FF03FF03FF03FF03FF03E0
:10110000FF03FF03FF03FF03FF030004FF03FF03CD
:10111000FF03FF03FF03FF03FF03FF03FF03FF03BF
:10112000FF03FF03FF03FF03FF03FF03FF03FF03AF
:10113000FF03FF03FF03FF03FF03FF03FF03FF039F
:10114000FF03FF03FF03FF03FF03FF03FF03FF038F
:10115000FF03FF03FF03FF03FF03FF03FF03FF037F
:10116000FF03FF03FF03FF03FF03FF03FF03FF036F
:10117000FF03FF03FF03FF03FF03FF03FF03FE0360
:10118000FE03FE03FE03FE03FE03FE03FE03FE0357
:10119000FE03FE03FE03FE03FE03FE03FE03FE0347
:1011A000FE03FE03FE03FE03FE03FE03FE03FD0338
:1011B000FD03FD03FD03FD03FD03FD03FD03FD032F
:1011C000FD03FD03FD03FD03FD03FD03FD03FD031F
:1011D000FD03FC03FC03FC03FC03FC03FC03FC0316
:1011E000FC03FC03FC03FC03FC03FC03FC03FC0307
:1011F000FC03FB03FB03FB03FB03FB03FB03FB03FE
:10120000FB03FB03FB03FB03FB03FB03FA03FA03F0
:10121000FA03FA03FA03FA03FA03FA03FA03FA03E6
:10122000FA03FA03FA03F903F903F903F903F903DB
:10123000F903F903F903F903F903F903F803F803D0
:10124000F803F803F803F803F803F803F803F803C6
:10125000F803F703F703F703F703F703F703F703BD
:10126000F703F703F603F603F603F603F603F603B4
:10127000F603F603F603F603F503F503F503F503AA
:10128000F503F503F503F503F503F403F403F403A1
:10129000F403F403F403F403F403F303F303F30399
:1012A000F303F303F303F303F303F203F203F20391
:1012B000F203F203F203F203F203F103F103F10389
:1012C000F103F103F103F103F103F003F003F00381
:1012D000F003F003F003F003EF03EF03EF03EF037A
:1012E000EF03EF03EF03EE03EE03EE03EE03EE0373
:1012F000EE03EE03ED03ED03ED03ED03ED03ED036C
:10130000ED03EC03EC03EC03EC03EC03EC03EC0364
:10131000EB03EB03EB03EB03EB03EB03EA03EA035F
:10132000EA03EA03EA03EA03E903E903E903E90359
:10133000E903E903E803E803E803E803E803E80353
:10134000E703E703E703E703E703E703E603E6034F
:10135000E603E603E603E603E503E503E503E50349
:10136000E503E503E403E403E403E403E403E30344
:10137000E303E303E303E303E303E203E203E20340
:10138000E203E203E103E103E103E103E103E0033C
:10139000E003E003E003E003DF03DF03DF03DF0339
:1013A000DF03DE03DE03DE03DE03DE03DD03DD0336
:1013B000DD03DD03DD03DC03DC03DC03DC03DC0332
:1013C000DB03DB03DB03DB03DB03DA03DA03DA0330
:1013D000DA03DA03D903D903D903D903D803D8032D
:1013E000D803D803D803D703D703D703D703D7032A
:1013F000D603D603D603D603D503D503D503D50329
:10140000D503D403D403D403D403D303D303D30326
:10141000D303D203D203D203D203D203D103D10325
:10142000D103D103D003D003D003D003CF03CF0324
:10143000CF03CF03CE03CE03CE03CE03CE03CD0323
:10144000CD03CD03CD03CC03CC03CC03CC03CB0322
:10145000CB03CB03CB03CA03CA03CA03CA03C90322
:10146000C903C903C903C803C803C803C803C70322
:10147000C703C703C703C603C603C603C503C50323
:10148000C503C503C403C403C403C403C303C30324
:10149000C303C303C203C203C203C203C103C10324
:1014A000C103C003C003C003C003BF03BF03BF0326
:1014B000BF03BE03BE03BE03BD03BD03BD03BD0327
:1014C000BC03BC03BC03BB03BB03BB03BB03BA032A
:1014D000BA03BA03B903B903B903B903B803B8032C
:1014E000B803B703B703B703B703B603B603B6032E
:1014F000B503B503B503B503B403B403B403B30331
:10150000B303B303B203B203B203B203B103B10333
:10151000B103B003B003B003AF03AF03AF03AF0336
:10152000AE03AE03AE03AD03AD03AD03AC03AC033A
:10153000AC03AB03AB03AB03AA03AA03AA03AA033E
:10154000A903A903A903A803A803A803A703A70342
:10155000A703A603A603A603A503A503A503A40347
:10156000A403A403A303A303A303A203A203A2034C
:10157000A203A103A103A103A003A003A0039F034F
:101580009F039F039E039E039E039D039D039D0354
:101590009C039C039B039B039B039A039A039A035C
:1015A0009903990399039803980398039703970362
:1015B0009703960396039603950395039503940367
:1015C000940394039303930393039203920391036D
:1015D000910391039003900390038F038F038F0374
:1015E0008E038E038E038D038D038C038C038C037B
:1015F0008B038B038B038A038A038A038903890382
:101600008803880388038703870387038603860389
:101610008503850385038403840384038303830391
:101620008203820382038103810381038003800399
:101630007F037F037F037E037E037E037D037D03A1
:101640007C037C037C037B037B037A037A037A03AA
:1016500079037903790378037803770377037703B2
:1016600076037603750375037503740374037303BC
:1016700073037303720372037103710371037003C5
:1016800070036F036F036F036E036E036D036D03CF
:101690006D036C036C036B036B036B036A036A03D8
:1016A00069036903690368036803670367036603E3
:1016B00066036603650365036403640364036303ED
:1016C00063036203620361036103610360036003F8
:1016D0005F035F035F035E035E035D035D035C0303
:1016E0005C035C035B035B035A035A03590359030E
:1016F0005903580358035703570356035603560319
:101700005503550354035403530353035203520325
:10171000520351035103500350034F034F034F0330
:101720004E034E034D034D034C034C034B034B033D
:101730004B034A034A034903490348034803470349
:101740004703470346034603450345034403440355
:101750004303430342034203420341034103400363
:1017600040033F033F033E033E033D033D033C0371
:101770003C033C033B033B033A033A03390339037D
:10178000380338033703370336033603360335038C
:101790003503340334033303330332033203310399
:1017A0003103300330032F032F032E032E032D03A9
:1017B0002D032D032C032C032B032B032A032A03B5
:1017C00029032903280328032703270326032603C5
:1017D00025032503240324032303230322032203D5
:1017E00021032103200320031F031F031E031E03E5
:1017F0001E031D031D031C031C031B031B031A03F1
:101800001A03190319031803180317031703160300
:101810001603150315031403140313031303120310
:10182000120311031103100310030F030F030E0320
:101830000E030D030C030C030B030B030A030A0333
:101840000903090308030803070307030603060344
:101850000503050304030403030303030203020354
:101860000103010300030003FF02FF02FE02FE0268
:10187000FD02FD02FC02FB02FB02FA02FA02F9027F
:10188000F902F802F802F702F702F602F602F50290
:10189000F502F402F402F302F302F202F102F102A1
:1018A000F002F002EF02EF02EE02EE02ED02ED02B4
:1018B000EC02EC02EB02EB02EA02E902E902E802C6
:1018C000E802E702E702E602E602E502E502E402D8
:1018D000E402E302E202E202E102E102E002E002EB
:1018E000DF02DF02DE02DE02DD02DC02DC02DB02FE
:1018F000DB02DA02DA02D902D902D802D702D70211
:10190000D602D602D502D502D402D402D302D20224
:10191000D202D102D102D002D002CF02CF02CE0237
:10192000CD02CD02CC02CC02CB02CB02CA02CA024B
:10193000C902C802C802C702C702C602C602C5025F
:10194000C402C402C302C302C202C202C102C00274
:10195000C002BF02BF02BE02BE02BD02BC02BC0288
:10196000BB02BB02BA02BA02B902B802B802B7029D
:10197000B702B602B602B502B402B402B302B302B1
:10198000B202B202B102B002B002AF02AF02AE02C6
:10199000AD02AD02AC02AC02AB02AB02AA02A902DC
:1019A000A902A802A802A702A602A602A502A502F1
:1019B000A402A302A302A202A202A102A102A00207
:1019C0009F029F029E029E029D029C029C029B021D
:1019D0009B029A0299029902980298029702960233
:1019E0009602950295029402930293029202920249
:1019F0009102900290028F028F028E028D028D0260
:101A00008C028C028B028A028A0289028902880275
:101A1000870287028602850285028402840283028D
:101A2000820282028102810280027F027F027E02A4
:101A30007E027D027C027C027B027A027A027902BB
:101A400079027802770277027602750275027402D3
:101A500074027302720272027102710270026F02EA
:101A60006F026E026D026D026C026C026B026A0202
:101A70006A0269026802680267026702660265021A
:101A80006502640263026302620261026102600233
:101A900060025F025E025E025D025C025C025B024B
:101AA0005B025A0259025902580257025702560263
:101AB000550255025402540253025202520251027C
:101AC000500250024F024E024E024D024C024C0296
:101AD0004B024B024A0249024902480247024702AE
:101AE00046024502450244024302430242024202C8
:101AF0004102400240023F023E023E023D023C02E1
:101B00003C023B023A023A023902380238023702FA
:101B10003602360235023402340233023302320214
:101B20003102310230022F022F022E022D022D022D
:101B30002C022B022B022A02290229022802270248
:101B40002702260225022502240223022302220262
:101B50002102210220021F021F021E021D021D027D
:101B60001C021B021B021A02190219021802170298
:101B700017021602150215021402130213021202B2
:101B80001102110210020F020F020E020D020D02CD
:101B90000C020B020B020A020902090208020702E8
:101BA0000702060205020402040203020202020204
:101BB000010200020002FF01FE01FE01FD01FC0125
:101BC000FC01FB01FA01FA01F901F801F801F70142
:101BD000F601F501F501F401F301F301F201F10160
:101BE000F101F001EF01EF01EE01ED01ED01EC017A
:101BF000EB01EB01EA01E901E801E801E701E60197
:101C0000E601E501E401E401E301E201E201E101B1
:101C1000E001DF01DF01DE01DD01DD01DC01DB01CF
:101C2000DB01DA01D901D801D801D701D601D601EB
:101C3000D501D401D401D301D201D201D101D00107
:101C4000CF01CF01CE01CD01CD01CC01CB01CA0125
:101C5000CA01C901C801C801C701C601C601C50141
:101C6000C401C301C301C201C101C101C001BF015F
:101C7000BF01BE01BD01BC01BC01BB01BA01BA017B
:101C8000B901B801B701B701B601B501B501B40199
:101C9000B301B201B201B101B001B001AF01AE01B7
:101CA000AD01AD01AC01AB01AB01AA01A901A801D5
:101CB000A801A701A601A601A501A401A301A301F2
:101CC000A201A101A101A0019F019E019E019D0110
:101CD0009C019C019B019A0199019901980197012E
:101CE000970196019501940194019301920192014B
:101CF000910190018F018F018E018D018C018C016A
:101D00008B018A018A018901880187018701860187
:101D100085018401840183018201820181018001A6
:101D20007F017F017E017D017C017C017B017A01C5
:101D30007A017901780177017701760175017401E3
:101D40007401730172017101710170016F016F0102
:101D50006E016D016C016C016B016A016901690121
:101D60006801670166016601650164016401630140
:101D700062016101610160015F015E015E015D015F
:101D80005C015B015B015A0159015801580157017F
:101D9000560156015501540153015301520151019D
:101DA000500150014F014E014D014D014C014B01BD
:101DB0004A014A01490148014701470146014501DD
:101DC00044014401430142014101410140013F01FD
:101DD0003E013E013D013C013B013B013A0139011D
:101DE000380138013701360136013501340133013C
:101DF000330132013101300130012F012E012D015B
:101E00002D012C012B012A012A012901280127017A
:101E1000260126012501240123012301220121019C
:101E2000200120011F011E011D011D011C011B01BC
:101E30001A011A01190118011701170116011501DC
:101E400014011401130112011101110110010F01FC
:101E50000E010E010D010C010B010B010A0109011C
:101E6000080108010701060105010401040103013D
:101E70000201010101010001FF00FE00FE00FD0062
:101E8000FC00FB00FB00FA00F900F800F800F70086
:101E9000F600F500F500F400F300F200F100F100A7
:101EA000F000EF00EE00EE00ED00EC00EB00EB00C8
:101EB000EA00E900E800E800E700E600E500E400E9
:101EC000E400E300E200E100E100E000DF00DE000A
:101ED000DE00DD00DC00DB00DA00DA00D900D8002B
:101EE000D700D700D600D500D400D400D300D2004C
:101EF000D100D100D000CF00CE00CD00CD00CC006D
:101F0000CB00CA00CA00C900C800C700C700C6008D
:101F1000C500C400C300C300C200C100C000C000AF
:101F2000BF00BE00BD00BC00BC00BB00BA00B900D1
:101F3000B900B800B700B600B600B500B400B300F1
:101F4000B200B200B100B000AF00AF00AE00AD0013
:101F5000AC00AB00AB00AA00A900A800A800A70035
:101F6000A600A500A400A400A300A200A100A10057
:101F7000A0009F009E009E009D009C009B009A0078
:101F80009A00990098009700970096009500940099
:101F90009300930092009100900090008F008E00BB
:101FA0008D008C008C008B008A00890089008800DD
:101FB00087008600850085008400830082008200FF
:101FC000810080007F007E007E007D007C007B0021
:101FD0007B007A0079007800770077007600750042
:101FE00074007300730072007100700070006F0065
:101FF0006E006D006C006C006B006A006900690087
:1020000068006700660065006500640063006200A8
:102010006200610060005F005E005E005D005C00C9
:102020005B005A005A0059005800570057005600EC
:10203000550054005300530052005100500050000E
:102040004F004E004D004C004C004B004A00490030
:102050004800480047004600450045004400430052
:1020600042004100410040003F003E003E003D0074
:102070003C003B003A003A00390038003700360097
:1020800036003500340033003300320031003000B8
:102090002F002F002E002D002C002B002B002A00DB
:1020A00029002800280027002600250024002400FD
:1020B000230022002100200020001F001E001D0020
:1020C0001D001C001B001A00190019001800170041
:1020D0001600150015001400130012001200110064
:1020E00010000F000E000E000D000C000B000A0087
:1020F0000A000900080007000700060005000400A8
:10210000030003000200010000000000000019BEEF
:102110009DEF10F019BC93EF10F01850EA6E1750B5
:10212000E96EEF5012001750F66E1850F76E195006
:102130003F0BF86E0800F550120012000101356BDC
:10214000000E216E080E226E9290928292949296C8
:102150009298928A93809392938493969398939A69
:10216000939C939E949094929484949C949E1BEF41
:1021700013F0F29A0001E5510101AF6F0001E65141
:102180000101B06FF28AAF51096EB0510A6E1200B0
:102190000101352B352DCFEF10F0E1EF10F022507B
:1021A000EA6E2150E96E0408216EE9063850EF6EA0
:1021B000E9063950EF6EE9063A50EF6EE9063B50FA
:1021C000EF6E0950386E0A50396E0B503A6E020E9F
:1021D000385CD8B4EFEF10F0D8A0F1EF10F0FFEFBB
:1021E00010F0F29AD89038343B6E00EEE7F03B5096
:1021F000E9263950EF6EE92A3A50EF6EF28A352F10
:1022000003EF11F012002250EA6E2150E96EEF50F8
:102210003B6EE92AEF503A6EE92AEF50396EE92A0F
:10222000EF50386EE928216E12000101AC6F020EEA
:10223000AC5DD8B41FEF11F0D8A021EF11F00980E8
:102240001200D890AC35AD6F00EEE7F0AD51E92645
:10225000EF50E92AEF10D8A43DEF11F0D890AC353B
:10226000AE6F00EEE7F0AE51E926EF50E92AEF102D
:10227000D8A43DEF11F00980120009901200F80E69
:10228000D5140509D56E440EEB6FD59AD596F29408
:10229000F28AF28E0101AA6BD890AA35AB6F00EEDC
:1022A000E7F0AB51E926EF6AE92AEF6AAA2B020EA2
:1022B000AA5DD8A44CEF11F01200F2A49AEF11F02D
:1022C0000001EB51D66ED76AE52BD8B4E62B336A02
:1022D000D8903334306E00EEE7F03050E926EF50FE
:1022E000E92AEF10D8B493EF11F0D8903334316E5F
:1022F000D8903334326E00EEE7F03250E926EF50DA
:10230000096EE92AEF500A6E0C6E09040B6E0B2859
:10231000D8B40C0600EEE7F03150E9260B50EF6E12
:10232000E92A0C50EF6E332A020E335CD8A468EF12
:1023300011F0F2940D50096E0E500A6E0F500B6E94
:1023400010500C6E1D50F66E1E50F76E1F50F86E3A
:102350002050F56E1B50E96E1C50EA6E1A50176E35
:102360001650156E1450136E11005204D8A4C1EF0C
:1023700011F0010E096E50500A6E51500B6EC8EFED
:1023800010F012005204D8A4E9EF11F0010E15EC80
:1023900011F00101A99309B0A983A9A3E9EF11F0F4
:1023A000020E446EF0985604D8A4E0EF11F0070E28
:1023B0003F6E3C6A3D6A3E6A406AF088E1EF11F088
:1023C000446A010E096E50500A6E51500B6EC8EFF0
:1023D00010F012005204D8A4F6EF11F0010E096EAD
:1023E00050500A6E51500B6EC8EC10F04050D8A4FB
:1023F0000DEF12F080AAFFEF11F0800E3C263F5047
:10240000D8B407EF12F0D8903C323F061200050E08
:102410003F6E3D6A010E406E12004004D8A428EFC2
:1024200012F080AA16EF12F0800E3D263F50D8B46D
:102430001EEF12F0D8903D323F061200D8903D3288
:10244000D8903D32070E3F6E3E6A020E406E12007B
:10245000020E405CD8A462EF12F080AA32EF12F0B4
:10246000800E3E263F50D8B43AEF12F0D8903E325C
:102470003F061200460E3C5CD8A45BEF12F0280E1B
:102480003D5CD8B447EF12F0D8B054EF12F0406A78
:10249000070E3F6E3D50426E3E50436E3C6A3D6AB1
:1024A0003E6A010E416E1200406A070E3F6E3C6AA2
:1024B0003D6A3E6A1200406A070E3F6E3C6A3D6A02
:1024C0003E6A1200070E3F6E3C6A3D6A3E6A406AF1
:1024D0001200EAEC11F0F092F08812000101A66FF0
:1024E000A151E16EA251E26EA651A86FA76B89EFD0
:1024F00012F0A351A725176E000E096EA4510920F2
:10250000186EA5510920196E87EC10F0E66E0101D6
:10251000A72BA751A85DD8A479EF12F012000401EF
:1025200004BF12000001EF51EC5DD8B49DEF12F032
:10253000D8B09DEF12F0EC51EF6FD880EF51ED5510
:102540000101A06F0001EE5DD8B4ADEF12F0D8B07C
:10255000ADEF12F0EE510101A06F780E0001ED25F4
:102560000401066F000E096E040E0920076F0101B9
:10257000A0510401056F04ADC2EF12F0880E046F84
:10258000C4EF12F0C80E046F0101A0510001ED2745
:10259000ED51EF5D1200080EEE6FED6BEF6BEC6B23
:1025A0000401049D8FEF12F001019F6F0401786F09
:1025B000080E0001EE6FED6B010EEF6F010EEC6F78
:1025C0000401049D8FEF12F0840E04010013120029
:1025D000080E0401016F200E026F040E036F030E3C
:1025E0000001F15DD8A4FCEF12F08C0E01019E6F8A
:1025F0000401046BFFEF12F0C80E01019E6F010190
:102600009E510401006F12009A6FD8909A359D6F09
:10261000D8909D37D8909D379D299C6F04EE00F08F
:102620009C51E9269B51EF6E04EE00F09D51E92686
:10263000800EEF6E12000001F36B010133912A6AE4
:102640002B6A2C6A2D6A100E2E6E90EF1EF004017C
:10265000F9510101996F210E995DD8A433EF13F060
:10266000050E0001F16F120004011CBF3CEF13F0D6
:10267000010198913EEF13F00101988198B1120089
:102680002A502B5CD8A44AEF13F033A11200936BAD
:102690005CEF13F02A502B5CD8B458EF13F0D8B08D
:1026A00058EF13F0D8802A502B54936F5CEF13F03F
:1026B000D880200E2B54936F080E935DD8B466EF2C
:1026C00013F0D8A066EF13F0080E936F9351966F36
:1026D000956B7BEF13F02B509525946F01EE00F076
:1026E0009451E926EF50096E04EE58F09551E92611
:1026F0000950EF6E952B9551965DD8A46BEF13F0B2
:10270000580E04011E6F040E1F6F01019351040146
:102710001D6F1CAD90EF13F0880E1C6F92EF13F03D
:10272000C80E1C6F2B5001019325976F1F0E975DEC
:10273000D8B49FEF13F0D8A09FEF13F0976B975189
:102740002B6E080E935D3391D8B433811200916FD4
:102750002A28926F200E925DD8B4926B01EE00F0A1
:102760002A50E9269151EF6E92512A6E120001EE25
:1027700020F02D50E926EF508F6F2E2A2D28906FD4
:10278000100E905DD8B4906B90512D6E8F51120049
:102790002D502C5C8E91D8A48E8109908EB1098029
:1027A000120034EC13F0080E2E5CD8B4DBEF13F0FB
:1027B000D8A0E5EF13F0040118BFE5EF13F0080E01
:1027C00001019B6F030E04EF13F01200236AC20E87
:1027D000246E010E256E266A276A080E296E286A65
:1027E00012000401F9512F6E060E2F5CD8A4A4EF3D
:1027F00014F0FB5101018C6F0401FA5101018D6F3E
:102800000001EF6B01018C05D8A41CEF14F0120E2F
:102810000001EF6F780E0101A16F040EA26F4C0E44
:10282000A36F000EA46F000E4009A56F0001EF51C9
:102830006EEC12F087EF14F0020E8C5DD8A436EF28
:1028400014F0430E0001EF6F780E0101A16F040E2A
:10285000A26F5E0EA36F000EA46F000E4009A56F5D
:102860000001EF516EEC12F087EF14F0030E8C5D57
:10287000D8A485EF14F08D51D8A452EF14F0040EB3
:102880000001EF6F780E0101A16F040EA26FA20E7E
:10289000A36F000EA46F000E4009A56F0001EF5159
:1028A0006EEC12F001018D05D8A46AEF14F0360E1B
:1028B0000001EF6F780E0101A16F040EA26FA60E4A
:1028C000A36F000EA46F000E4009A56F0001EF5129
:1028D0006EEC12F0020E01018D5DD8A487EF14F0AA
:1028E0001E0E0001EF6F780E0101A16F040EA26FA2
:1028F000DC0EA36F000EA46F000E4009A56F00014F
:10290000EF516EEC12F087EF14F0220E8C5D000197
:10291000EF51D8B4A2EF14F0080EEE6F0401FF518E
:10292000D8A498EF14F0FE510001EC6F9BEF14F067
:10293000FF0E0001EC6F030EF16FED6B0401049DBF
:102940008FEF12F0E4EF12F0050E2F5CD8A4B4EF75
:1029500014F0FA510001F26F010EF06FCBEC12F09F
:10296000060E0001F16F1200090E2F5CD8A4EAEFE9
:1029700014F0060E0001F16FCBEC12F07188718437
:1029800071827186400E04010C6F080E096F300EC3
:102990000A6F040E0B6F800E086F72887284728249
:1029A0007286400E146F080E116F400E126F040EE7
:1029B000136F800E106F7388738473827386400E5A
:1029C0001C6F080E196F500E1A6F040E1B6F800ECD
:1029D000186F12000A0E2F5CD8A4F5EF14F0030E46
:1029E0000001F16F010ED4EF12F02F50D8A4FCEFCC
:1029F00014F0000ED4EF12F01200D8906C30796F02
:102A0000D8907933D89079336CA413EF15F0D8901F
:102A10000401043101017B6FD8907B330F0E7B15CD
:102A20007A6F1DEF15F0D8900401003101017B6F22
:102A3000D8907B330F0E7B157A6F7951D8A412EFA3
:102A400016F00D0E7A5DD8A497EF15F07C6B04EEAE
:102A500020F07C51E926EF50096E04EEF8F07C512D
:102A6000E9260950EF6E7C2B080E7C5DD8A427EF79
:102A700015F06D98E8EC12F0300E0401F815010124
:102A80007B6F7B51D8B4F1EF13F0200E7B5DD8A49F
:102A900091EF15F00401F95101017D6F230E7D5D69
:102AA000D8A458EF15F0060E0001F16FCBEF12F02D
:102AB000200E7D5DD8A461EF15F0020E0001F16FCC
:102AC0001200210E7D5DD8A482EF15F0FF0E0001EB
:102AD000EC6F070EEF6F780E0101A16F040EA26F6D
:102AE000230EA36FA46BA56B0001EF516EEC12F0E7
:102AF000080E0001EE6F030EF16FED6B0401049DF3
:102B00008FEF12F0220E7D5DD8A490EF15F0060E27
:102B10000001F16FCBEC12F00401FA510001F36FE8
:102B20001200400E7B5DD8A48DEF16F01200090E46
:102B30007A5DD8A4BAEF15F0030E0001F15DD8B4A8
:102B40008FEF12F0060EF15DD8A4B0EF15F0F16B27
:102B5000F005D8A48DEF16F0F2516E6EF06B1200F6
:102B6000050EF15DD8B41200040EF15DD8B427EF64
:102B700013F01200020E7A5DD8A4D1EF15F0030E07
:102B80000001F15DD8B48FEF12F0040EF15DD8B4FE
:102B900027EF13F0060EF15DD8A48DEF16F0F16B60
:102BA00012007A05D8A48DEF16F0050E0001F15D34
:102BB000D8A4DEEF15F0F16BE8EF12F0020EF15D34
:102BC000D8A406EF16F00401F95101017E6F200E22
:102BD0007E5DD8A404EF16F07F6B04EE20F07F51E9
:102BE000E926EF50096E00EE23F07F51E9260950E7
:102BF000EF6E7F2B070E7F5DD8A4EDEF15F0060E6C
:102C00000001F16FCBEC12F0E8EF12F0030EF15D72
:102C1000D8A410EF16F0E8EC12F00001F16B1200EE
:102C2000E8EF12F06CA439EF16F0D8907935806F88
:102C3000D8908037D8908037040E8027020E8025E8
:102C40007B6F04EE00F07B51E926EF50816F030E9D
:102C500080257B6F04EE00F07B51E926EF50826FF8
:102C600080297B6F030E795DD8A48DEF16F034EFC9
:102C700013F0D8907935836FD8908337D890833705
:102C800004EE00F08351E926EF50846F84BF8DEF8E
:102C900016F0020E83257B6F04EE00F07B51E926CF
:102CA000EF50856F030E83257B6F04EE00F07B51A0
:102CB000E926EF50866F83297B6F04EE00F07B518D
:102CC000E926EF50876F030E795DD8A48DEF16F0DB
:102CD0008551E16E8651E26E8751896F8A6B88EF6C
:102CE00016F02C28886F100E885DD8B4886B885138
:102CF0002D5CD8B487EF16F0E6508B6F01EE20F014
:102D00002C50E9268B51EF6E88512C6E2E068A2BA3
:102D10008A51895DD8A471EF16F01200A1AAE1EFE3
:102D200016F0A19A786B68A699EF16F0FDEC14F0F6
:102D300068960101782B040E785DD8A493EF16F005
:102D400068A0D3EF16F06A6A686A0001F26B716AD4
:102D5000726A736A746A756A766A776A786A796A77
:102D6000100E7A6E7B6A7C6A7D6A7E6A7F6A160EB6
:102D7000706E68A6BFEF16F06896B9EF16F0F16BAB
:102D8000F06B6D98080E0401056F280E066F040E97
:102D9000076F046B080E016F200E026F040E036FA5
:102DA0008C0E006F689068BA689A68B8689868ACCA
:102DB000DDEF16F0D1EC13F0689C68A2E1EF16F09D
:102DC000689212008EEC16F034EF13F06D6A140E58
:102DD0006F6E6B0E696EA09AE6EC13F0686A6D6A0E
:102DE0006D861200756F0001F3510101766F765107
:102DF000D8B412002A28776F200E775DD8B4776B8D
:102E0000010177512B5CD8A40AEF17F0E2EC16F021
:102E100000EF17F07551A7EF13F00001F351010116
:102E2000736F7351D8A418EF17F0099029EF17F0BA
:102E3000C8EC13F00101749309B0748374B324EFE8
:102E400017F0099029EF17F0B7EC13F00101726F3A
:102E50000980725112000DEC17F00101706F120021
:102E600001016F6FF2EF16F001016E6F4804D8A4F4
:102E70003DEF17F06E5130EF17F0120001016B6F4C
:102E80004804D8A470EF17F06B390F0B6C6F0F0E5E
:102E90006C156D6FFA0EF66E000EF76E000EF86E82
:102EA0006D51F626000E096EF7220950F82209002E
:102EB000F55030EC17F00F0E01016B156C6FFA0E28
:102EC000F66E000EF76E000EF86E6C51F626000ED0
:102ED000096EF7220950F8220900F55030EF17F07B
:102EE00012006A6F5204D8A47EEF17F0010E096E2B
:102EF00050500A6E51500B6EC8EC10F04450D8A4DC
:102F0000A4EF17F02A0E01016A5DD8B48BEF17F019
:102F1000D8B09EEF17F06A51456E140E455CD8A4E8
:102F200096EF17F0526A780E34EF17F0010E446EE8
:102F30002D0E34EC17F045503EEF17F0230E34EC15
:102F400017F045503EEF17F04404D8A4B4EF17F043
:102F500001016A51466E010E476E446A3D0E34EC23
:102F600017F046503EEF17F0020E445CD8B4120042
:102F7000446A210E34EF17F00101686BE2EC16F0A1
:102F80002BEC17F00101686F699109B0698169A1A3
:102F9000CDEF17F0685171EF17F012000101666F65
:102FA0006651D8A4D7EF17F04D6A898812006605DC
:102FB000D8A4DFEF17F0010E4D6E89981200020EB3
:102FC000665DD8A4F1EF17F0096A4B500A6E4C50B9
:102FD0000B6EC8EC10F0020E4D6E010E4E6E89881D
:102FE0001200030E665DD8A405EF18F0030E4D6EB7
:102FF00080A8FEEF17F06799FFEF17F0678967B9B0
:1030000004EF18F08998120089881200020E4D5CB6
:10301000D8A443EF18F0000E15EC11F001016593F0
:1030200009B0658365A343EF18F0280E4B5C4C1084
:10303000D8A432EF18F01E0E4F5CD8B426EF18F06B
:10304000D8B026EF18F04F2A32EF18F0F098070E9C
:103050003F6E3C6A3D6A3E6A406AE80E4B6E030E64
:103060004C6EF088096A4B500A6E4C500B6EC8ECDF
:1030700010F04E04D8A440EF18F04E6A8998120060
:10308000010E4E6E898812000001FD6B12000101D5
:10309000606F6251D8A450EF18F08A9853EF18F07F
:1030A0006205D8B48A96000000000000800E636FAD
:1030B0006351D8B472EF18F063516015646F6451B6
:1030C000D8A466EF18F08B9E67EF18F08B8E000087
:1030D00000008A82000000008A92D89063330000CA
:1030E00058EF18F0800E636F6351D8B48EEF18F06C
:1030F00063516115646F6451D8A482EF18F08B9E00
:1031000083EF18F08B8E000000008A820000000020
:103110008A92D8906333000074EF18F00000625177
:10312000D8A495EF18F08A8812006205D8B48A8670
:103130001200010EFD6FF5510101616F626B00011C
:10314000F45147EF18F05A6FD89055315E6F5431F3
:103150005D6F050E096ED8905E335D33092EABEFBF
:1031600018F00F0E5D155F6F300E5F250001F46FD4
:10317000D890010154355D6F55355E6FD8905D373D
:103180005E37FC0E5D150001F56FD89001015731D7
:103190005E6F56315D6F050E096ED8905E335D33FC
:1031A000092ECDEF18F00F0E5D155F6FB00E5F2585
:1031B0000001F66FD890010156355D6F57355E6F8F
:1031C000D8905D375E37FC0E5D150001F76FD89023
:1031D000010159315E6F58315D6F050E096ED8904F
:1031E0005E335D33092EEFEF18F00F0E5D155F6F44
:1031F000300E5F250001F86FD890010158355D6FE2
:1032000059355E6FD8905D375E37FC0E5D15000155
:10321000F96F01015A510001FA6F01015B51000180
:10322000FB6F01015C510001FC6F99EF18F0000188
:10323000FD51D8B41200FD05D8A429EF19F0020EF3
:10324000FD6FF7510101616F626B0001F65147EFAD
:1032500018F0020EFD5DD8A439EF19F0030EFD6FD2
:10326000F9510101616F010E626F0001F85147EFE2
:1032700018F0030EFD5DD8A460EF19F000008B9CE0
:10328000FA51D8B447EF19F08A8A48EF19F08A9AB0
:10329000FB51D8B44FEF19F08A8C50EF19F08A9C8B
:1032A000FC51D8B457EF19F08A8E58EF19F08A9E66
:1032B0000000000000008B8C0000E46B010E786FB2
:1032C000120000017B05D8A48BEF19F0E22901015F
:1032D000526F320E525DD8B471EF19F0D8A072EF70
:1032E00019F0526B52510001E35DD8B48AEF19F026
:1032F000D890E2350101536F00EE7CF05351E9267E
:1033000000017951EF6EE92A7A51EF6E01015251B5
:103310000001E26F7B6B1200E251E35DD8A498EFED
:1033200019F0030E01014E6FD90E4F6FB5EF19F072
:10333000D890E3350101516F00EE7CF05151E92640
:10334000EF504E6FE92AEF504F6F0001E329010162
:10335000506F320E505DD8B4B1EF19F0D8A0B2EF73
:1033600019F0506B50510001E36F01014E51096E8D
:103370004F510A6E1200100E475DD8A4C2EF19F02B
:10338000000E465DD8B4D0EF19F0D8B0D0EF19F0E8
:103390004651486F4751496F010E306FE9EF19F000
:1033A000D880000E46554C6F200E47554D6FD88083
:1033B000000E4C55486F100E4D55496F4851096E1F
:1033C000100E495D0910D8A4E8EF19F0486B496B5D
:1033D000306BD89048354C6F49354D6F0A0EF66EFC
:1033E000010EF76E000EF86E4C51F6264D51F72285
:1033F000000E096EF8220900F5504A6F0900F550D9
:103400004B6FD880FF0E4A550001FE6F030E01017D
:103410004B550001FF6F1200D880000E3E57100E72
:103420003F573E51000160250101406F3F510001AF
:1034300061210101416F3E51000164250101426F8C
:103440003F51000165210101436F3E510001682594
:103450000101446F3F51000169210101456F200EB8
:10346000415DD8A436EF1AF0000E405DD8B43CEFB1
:103470001AF0D8A040EF1AF0000E4027E00E4123CA
:10348000200E435DD8A447EF1AF0000E425DD8B479
:103490004DEF1AF0D8A051EF1AF0000E4227E00EBF
:1034A0004323200E455DD8A458EF1AF0000E445D6A
:1034B000D8B45EEF1AF0D8A062EF1AF0000E4427DD
:1034C000E00E45234051466F4151476FBBEC19F068
:1034D0000001FE515A6EFF515B6E01013051576E73
:1034E0004251466F4351476FBBEC19F00001FE514A
:1034F0005C6EFF515D6E01013051586E4451466F54
:103500004551476FBBEC19F00001FE515E6EFF5153
:103510005F6E01013051596E5A50546F5B50556FB8
:103520005C50566F5D50576F5E50586F5F50596FCB
:1035300058505B6F59505C6F5750A3EF18F0000163
:10354000E451D8A4BEEF1AF08CEC19F00950010137
:103550003C6F0A503D6F030E3C5D096ED90E3D5D18
:103560000910D8B4BEEF1AF0010E0001E46F01019A
:103570003C513E6F3D513F6F0CEF1AF01200495025
:10358000D8A4CAEF1AF04A500001796F7A6B010E85
:103590007B6F12004904D8A4DEEF1AF04A500101F3
:1035A000386F396B000E38250001796F010E01016B
:1035B000392100017A6F010E7B6F1200020E495C07
:1035C000D8A4F3EF1AF04A500101386F396B000E9E
:1035D00038250001796F020E0101392100017A6F4F
:1035E000010E7B6F1200030E495CD8A408EF1BF09C
:1035F0004A500101386F396B000E38250001796F90
:10360000030E0101392100017A6F010E7B6F120058
:10361000040E495CD8A41DEF1BF04A500101386F1D
:10362000396B000E38250001796F040E0101392134
:1036300000017A6F010E7B6F1200050E495CD8A461
:1036400038EF1BF04A500101386F396B000E3825F6
:103650003A6F040E39213B6F000E3A250001796F55
:10366000010E01013B2100017A6F010E7B6F1200F8
:10367000060E495CD8A453EF1BF04A500101386F85
:10368000396B000E38253A6F040E39213B6F000E5E
:103690003A250001796F020E01013B2100017A6F8A
:1036A000010E7B6F1200070E495CD8A46EEF1BF071
:1036B0004A500101386F396B000E38253A6F040EFD
:1036C00039213B6F000E3A250001796F030E01018D
:1036D0003B2100017A6F010E7B6F1200080E495CDE
:1036E000D8A483EF1BF04A500101386F396B000EEC
:1036F00038250001796F080E0101392100017A6F28
:10370000010E7B6F1200090E495CD8A49EEF1BF0DE
:103710004A500101386F396B000E38253A6F080E98
:1037200039213B6F000E3A250001796F010E01012E
:103730003B2100017A6F010E7B6F12000A0E495C7B
:10374000D8A4B9EF1BF04A500101386F396B000E55
:1037500038253A6F080E39213B6F000E3A250001DB
:10376000796F020E01013B2100017A6F010E7B6F20
:1037700012000B0E495CD8A4D4EF1BF04A50010193
:10378000386F396B000E38253A6F080E39213B6FC0
:10379000000E3A250001796F030E01013B21000163
:1037A0007A6F010E7B6F12000C0E495CD8A4E9EF12
:1037B0001BF04A500101386F396B000E38250001AB
:1037C000796F0C0E0101392100017A6F010E7B6FB8
:1037D00012000D0E495CD8A404EF1CF04A50010100
:1037E000386F396B000E38253A6F0C0E39213B6F5C
:1037F000000E3A250001796F010E01013B21000105
:103800007A6F010E7B6F12000E0E495CD8A41FEF79
:103810001CF04A500101386F396B000E38253A6FA1
:103820000C0E39213B6F000E3A250001796F020E14
:1038300001013B2100017A6F010E7B6F12000F0E18
:10384000495CD8A43AEF1CF04A500101386F396B3B
:10385000000E38253A6F0C0E39213B6F000E3A25C9
:103860000001796F030E01013B2100017A6F010E07
:103870007B6F1200100E495CD8A44CEF1CF04A502C
:103880000101386F396BD89038355A6E39355B6E17
:10389000D8905A365B361200110E495CD8A45EEF00
:1038A0001CF04A500101386F396BD89038355C6E86
:1038B00039355D6ED8905C365D361200120E495C6B
:1038C000D8A470EF1CF04A500101386F396BD890C2
:1038D00038355E6E39355F6ED8905E365F361200D1
:1038E000130E495CD8A49CEF1CF04A1C0101376FF1
:1038F000010E3715576E020E3715386FD8903831D4
:10390000586E040E3715386FD8903831596ED890EC
:1039100059325A50546F5B50556F5C50566F5D5022
:10392000576F5E50586F5F50596F58505B6F5950CA
:103930005C6F5750A3EF18F01C0E495CD8A4A6EF9B
:103940001CF04A500001626F636B12001D0E495C4F
:10395000D8A4B8EF1CF04A500101386F396B3851C8
:103960000001616F606B6251602763516123120037
:103970001E0E495CD8A4C2EF1CF04A500001666FCD
:10398000676B12001F0E495CD8A4D4EF1CF04A509C
:103990000101386F396B38510001656F646B6651F6
:1039A0006427675165231200200E495CD8A4DEEF1E
:1039B0001CF04A5000016A6F6B6B1200210E495CCB
:1039C000D8A4F0EF1CF04A500101386F396B385120
:1039D0000001696F686B6A5168276B516923120097
:1039E000140E495CD8A4F7EF1CF0526A1200150EB1
:1039F000495CD8A42DEF1DF03F0E4A140101386F29
:103A00003851D8A409EF1DF0140E506E516A11EF11
:103A10001DF03F0E4A14386F396B3851506E3951D2
:103A2000516EC00E4A14386F800E385DD8A423EF53
:103A30001DF0010E526E010E096E50500A6E51506B
:103A40000B6EC8EC10F0C00E4A140101386F3851EB
:103A5000D8A48FEF1EF0526A12001B0E495CD8A446
:103A60003BEF1DF0280E4B5C4C10D8B48FEF1EF0CE
:103A70004A50CEEF17F0160E495CD8A449EF1DF05E
:103A80004A50D8B489904A04D8A48FEF1EF0898098
:103A90001200170E495CD8A457EF1DF04A50D8B455
:103AA00089944A04D8A48FEF1EF089841200180E5E
:103AB000495CD8A465EF1DF04A50D8B489964A04F1
:103AC000D8A48FEF1EF089861200190E495CD8A485
:103AD00073EF1DF04A50D8B48B924A04D8A48FEFEC
:103AE0001EF08B8212001A0E495CD8A481EF1DF0E3
:103AF0004A50D8B48B904A04D8A48FEF1EF08B8024
:103B00001200220E495CD8A48BEF1DF04A50000130
:103B10006E6F6F6B1200230E495CD8A49DEF1DF0F1
:103B20004A500101386F396B385100016D6F6C6B71
:103B30006E516C276F516D231200240E495CD8A47E
:103B4000A7EF1DF04A500001726F736B1200250E33
:103B5000495CD8A4B9EF1DF04A500101386F396BA8
:103B600038510001716F706B72517027735171235E
:103B70001200260E495CD8A4C3EF1DF04A50000184
:103B8000766F776B1200270E495CD8A4D5EF1DF035
:103B90004A500101386F396B38510001756F746BF1
:103BA00076517427775175231200280E495CD8A4EA
:103BB0002BEF1EF000016C515A6E0F0E6D155B6EEF
:103BC00070515C6E0F0E71155D6E74515E6E0F0E4E
:103BD00075155F6E010E4A140101386F3805D8A4BF
:103BE000F6EF1DF0010E576EF7EF1DF0576A020E4B
:103BF0004A14386F020E385DD8A403EF1EF0010E90
:103C0000586E04EF1EF0586A040E4A14386F040E02
:103C1000385DD8A410EF1EF0010E596E11EF1EF0A2
:103C2000596A00017805D8A48FEF1EF0786B5A50BE
:103C30000101546F5B50556F5C50566F5D50576F6C
:103C40005E50586F5F50596F58505B6F59505C6FA2
:103C50005750A3EF18F0290E495CD8A478EF1EF056
:103C60005650D8A48FEF1EF0460E30EC17F0460EDB
:103C700030EC17F0490E30EC17F0200E30EC17F056
:103C8000760E30EC17F0330E30EC17F02E0E30ECD1
:103C900017F0310E30EC17F0200E30EC17F0240E38
:103CA00030EC17F0340E0101366F390E365DD8B4A2
:103CB0005FEF1EF0D8A05FEF1EF0070E36273651DB
:103CC00030EC17F0360E0101366F390E365DD8B480
:103CD0006FEF1EF0D8A06FEF1EF0070E362736519B
:103CE00030EC17F00D0E30EC17F00A0E30EF17F035
:103CF0002A0E495CD8A48FEF1EF05650D8A48FEF3F
:103D00001EF04E0E4A5CD8A488EF1EF0486A1200DE
:103D1000590E4A5CD8A48FEF1EF0010E486E1200B7
:103D2000E06AF29EC26A0F0EC16EC06A070EB46EE0
:103D3000F26A8A888A868B8C8A923C6A3D6A3E6ADD
:103D4000070E3F6E416A476A486A406A446A89883A
:103D5000010E4E6E4F6A020E4D6EC80E4B6E4C6ACF
:103D6000096A4B500A6E4C500B6EC8EC10F0FF0EF7
:103D70005A6E030E5B6EFF0E5C6E030E5D6EFF0EE1
:103D80005E6E030E5F6E010E576E010E586E010ED1
:103D9000596E8990899489968B828B800F0E0001D1
:103DA000606F0A0E616F626B636BB90E646F140E05
:103DB000656F666B676B630E686F1F0E696F6A6B6A
:103DC0006B6B796B7A6B7B6BE26BE36BE46B010E75
:103DD000786F546A556AD09EF188F0923FEC11F0EA
:103DE000F28EF28C80B201EF1FF0566A020E4D6E19
:103DF000C80E4B6E4C6A010E536E526AF0980CEF6F
:103E00001FF0010E566E020E4D6E280E4B6E4C6A60
:103E1000536A010E526EF088140E506E516AB5EC62
:103E200011F044EC18F05A500101546F5B50556F7B
:103E30005C50566F5D50576F5E50586F5F50596FB2
:103E400058505B6F59505C6F5750A3EC18F05304F7
:103E5000D8A44FEF1FF006EC18F0B9EC10F00950A1
:103E60000101316F0A50326F3151545C096E325189
:103E7000555C0910D8B427EF1FF0B9EC10F00950C9
:103E8000546E0A50556E82A427EF1FF0536AE6EC79
:103E900016F0F40E4B6E010E4C6E27EF1FF05650CD
:103EA000D8A485EF1FF082A47AEF1FF0BCEC17F0C6
:103EB0004704D8A4ABEF1FF0476A4550496E4650FF
:103EC0004A6E030E4D5CD8A476EF1FF080A86DEF0C
:103ED0001FF00101339F6FEF1FF00101338F33BFDC
:103EE00075EF1FF0899876EF1FF08988BFEC1AF004
:103EF000ABEF1FF0010E536EC80E4B6E4C6A020EF4
:103F00004D6E546A556AABEF1FF0280E4B5C4C1097
:103F1000D8B4ABEF1FF04104D8A4ABEF1FF0416A57
:103F20004250496E43504A6E030E4D5CD8A4A9EF2F
:103F30001FF080A8A0EF1FF001013497A2EF1FF03F
:103F40000101348734B7A8EF1FF08998A9EF1FF05B
:103F50008988BFEC1AF006EC18F0C2EC11F061ECA5
:103F600019F09FEC1AF017EC19F027EF1FF0F0A2F0
:0C3F70005DEF11F069EC12F05DEF11F054
:020000040030CA
:0E0000002C0E3E1E008580000FC00FE00F404A
:00000001FF
